{"contracts/core/CompetitionFactory.sol":{"CompetitionFactory":{"abi":[{"inputs":[{"internalType":"address","name":"_batchCHZBuyer","type":"address"}],"stateMutability":"nonpayable","type":"constructor"},{"anonymous":false,"inputs":[{"indexed":true,"internalType":"string","name":"name","type":"string"},{"indexed":false,"internalType":"address","name":"vault","type":"address"},{"indexed":false,"internalType":"address","name":"nft","type":"address"}],"name":"CompetitionCreated","type":"event"},{"anonymous":false,"inputs":[{"indexed":true,"internalType":"string","name":"competition","type":"string"},{"indexed":false,"internalType":"bool","name":"status","type":"bool"}],"name":"DepositsStatusChanged","type":"event"},{"anonymous":false,"inputs":[{"indexed":true,"internalType":"address","name":"nft","type":"address"},{"indexed":false,"internalType":"string","name":"name","type":"string"},{"indexed":false,"internalType":"string","name":"symbol","type":"string"}],"name":"NFTDeployed","type":"event"},{"anonymous":false,"inputs":[{"indexed":true,"internalType":"address","name":"previousOwner","type":"address"},{"indexed":true,"internalType":"address","name":"newOwner","type":"address"}],"name":"OwnershipTransferred","type":"event"},{"anonymous":false,"inputs":[{"indexed":true,"internalType":"string","name":"competition","type":"string"},{"indexed":false,"internalType":"bool","name":"status","type":"bool"}],"name":"RedeemsStatusChanged","type":"event"},{"anonymous":false,"inputs":[{"indexed":true,"internalType":"address","name":"vault","type":"address"},{"indexed":false,"internalType":"address","name":"nft","type":"address"}],"name":"VaultDeployed","type":"event"},{"anonymous":false,"inputs":[{"indexed":true,"internalType":"address","name":"nft","type":"address"},{"indexed":false,"internalType":"address","name":"vault","type":"address"}],"name":"VaultLinkedToNFT","type":"event"},{"inputs":[{"internalType":"string","name":"name","type":"string"}],"name":"areDepositsOpen","outputs":[{"internalType":"bool","name":"","type":"bool"}],"stateMutability":"view","type":"function"},{"inputs":[{"internalType":"string","name":"name","type":"string"}],"name":"areRedeemsOpen","outputs":[{"internalType":"bool","name":"","type":"bool"}],"stateMutability":"view","type":"function"},{"inputs":[],"name":"batchCHZBuyer","outputs":[{"internalType":"address","name":"","type":"address"}],"stateMutability":"view","type":"function"},{"inputs":[{"internalType":"uint256","name":"","type":"uint256"}],"name":"competitionNames","outputs":[{"internalType":"string","name":"","type":"string"}],"stateMutability":"view","type":"function"},{"inputs":[{"internalType":"string","name":"","type":"string"}],"name":"competitions","outputs":[{"internalType":"address","name":"vault","type":"address"},{"internalType":"address","name":"nft","type":"address"},{"internalType":"address","name":"creator","type":"address"},{"internalType":"bool","name":"depositsOpen","type":"bool"},{"internalType":"bool","name":"redeemsOpen","type":"bool"},{"internalType":"string","name":"baseURI","type":"string"}],"stateMutability":"view","type":"function"},{"inputs":[{"internalType":"string","name":"name","type":"string"},{"internalType":"string","name":"nftName","type":"string"},{"internalType":"string","name":"nftSymbol","type":"string"},{"internalType":"address[]","name":"initialTokens","type":"address[]"},{"internalType":"address","name":"wchz","type":"address"},{"internalType":"address","name":"router","type":"address"},{"internalType":"string","name":"baseURI","type":"string"}],"name":"createCompetition","outputs":[],"stateMutability":"nonpayable","type":"function"},{"inputs":[],"name":"getAllCompetitionNames","outputs":[{"internalType":"string[]","name":"","type":"string[]"}],"stateMutability":"view","type":"function"},{"inputs":[{"internalType":"string","name":"name","type":"string"}],"name":"getBaseURI","outputs":[{"internalType":"string","name":"","type":"string"}],"stateMutability":"view","type":"function"},{"inputs":[{"internalType":"string","name":"name","type":"string"}],"name":"getCompetition","outputs":[{"internalType":"address","name":"vault","type":"address"},{"internalType":"address","name":"nft","type":"address"}],"stateMutability":"view","type":"function"},{"inputs":[{"internalType":"address","name":"user","type":"address"}],"name":"isAdmin","outputs":[{"internalType":"bool","name":"","type":"bool"}],"stateMutability":"view","type":"function"},{"inputs":[{"internalType":"address","name":"vaultAddress","type":"address"}],"name":"isValidVault","outputs":[{"internalType":"bool","name":"","type":"bool"}],"stateMutability":"view","type":"function"},{"inputs":[],"name":"owner","outputs":[{"internalType":"address","name":"","type":"address"}],"stateMutability":"view","type":"function"},{"inputs":[],"name":"renounceOwnership","outputs":[],"stateMutability":"nonpayable","type":"function"},{"inputs":[{"internalType":"string","name":"name","type":"string"},{"internalType":"bool","name":"status","type":"bool"}],"name":"setDepositsOpen","outputs":[],"stateMutability":"nonpayable","type":"function"},{"inputs":[{"internalType":"string","name":"name","type":"string"},{"internalType":"bool","name":"status","type":"bool"}],"name":"setRedeemsOpen","outputs":[],"stateMutability":"nonpayable","type":"function"},{"inputs":[{"internalType":"address","name":"newOwner","type":"address"}],"name":"transferOwnership","outputs":[],"stateMutability":"nonpayable","type":"function"},{"inputs":[{"internalType":"address","name":"","type":"address"}],"name":"validVaults","outputs":[{"internalType":"bool","name":"","type":"bool"}],"stateMutability":"view","type":"function"}],"evm":{"bytecode":{"linkReferences":{},"object":"60806040523480156200001157600080fd5b506040516200652338038062006523833981016040819052620000349162000110565b6200003f33620000c0565b6001600160a01b0381166200009a5760405162461bcd60e51b815260206004820152601b60248201527f496e76616c696420626174636820627579657220616464726573730000000000604482015260640160405180910390fd5b600480546001600160a01b0319166001600160a01b039290921691909117905562000142565b600080546001600160a01b038381166001600160a01b0319831681178455604051919092169283917f8be0079c531659141344cd1fd0a4f28419497f9722a3daafe3b4186f6b6457e09190a35050565b6000602082840312156200012357600080fd5b81516001600160a01b03811681146200013b57600080fd5b9392505050565b6163d180620001526000396000f3fe60806040523480156200001157600080fd5b5060043610620000ee5760003560e01c806306726cf414620000f357806322904b4a146200010c57806324d7806c146200013b578063258b051d14620001635780632ead2908146200017a5780633788dcd1146200019157806349560f9614620001aa578063610d728a14620001c15780636421945014620001e85780636657fc671462000217578063715018a6146200023d5780638da5cb5b1462000247578063a34a34ab1462000260578063b914f6e41462000274578063ead8b024146200029f578063f2fde38b14620002b6578063f3e6d2bd14620002cd575b600080fd5b6200010a620001043660046200141c565b620002e4565b005b620001236200011d36600462001522565b62000a08565b604051620001329190620015b6565b60405180910390f35b620001526200014c366004620015d2565b62000ac5565b604051901515815260200162000132565b6200010a62000174366004620015f0565b62000aec565b620001526200018b36600462001522565b62000bda565b6200019b62000c12565b6040516200013291906200164b565b62000123620001bb366004620016b1565b62000cf5565b620001d8620001d236600462001522565b62000daa565b60405162000132929190620016cb565b62000152620001f9366004620015d2565b6001600160a01b031660009081526002602052604090205460ff1690565b6200015262000228366004620015d2565b60026020526000908152604090205460ff1681565b6200010a62000f2d565b6200025162000f45565b604051620001329190620016e5565b60045462000251906001600160a01b031681565b6200028b6200028536600462001522565b62000f54565b6040516200013296959493929190620016f9565b6200010a620002b0366004620015f0565b62001042565b6200010a620002c7366004620015d2565b62001129565b62000152620002de36600462001522565b620011a8565b620002ee620011e0565b60006001600160a01b03166001886040516200030b91906200174b565b908152604051908190036020019020546001600160a01b031614620003745760405162461bcd60e51b815260206004820152601a602482015279436f6d7065746974696f6e20616c72656164792065786973747360301b60448201526064015b60405180910390fd5b6000845111620003c45760405162461bcd60e51b815260206004820152601a602482015279139bc81a5b9a5d1a585b081d1bdad95b9cc81c1c9bdd9a59195960321b60448201526064016200036b565b6001600160a01b038316620004135760405162461bcd60e51b8152602060048201526014602482015273496e76616c6964205743485a206164647265737360601b60448201526064016200036b565b6001600160a01b038216620004645760405162461bcd60e51b8152602060048201526016602482015275496e76616c696420726f75746572206164647265737360501b60448201526064016200036b565b60005b8451811015620005c65760006001600160a01b031685828151811062000491576200049162001769565b60200260200101516001600160a01b031603620004ea5760405162461bcd60e51b815260206004820152601660248201527516995c9bc81d1bdad95b881b9bdd08185b1b1bddd95960521b60448201526064016200036b565b6000620004f982600162001795565b90505b8551811015620005b0578581815181106200051b576200051b62001769565b60200260200101516001600160a01b031686838151811062000541576200054162001769565b60200260200101516001600160a01b0316036200059b5760405162461bcd60e51b8152602060048201526017602482015276111d5c1b1a58d85d19481d1bdad95b881a5b881b1a5cdd604a1b60448201526064016200036b565b80620005a781620017b1565b915050620004fc565b5080620005bd81620017b1565b91505062000467565b506000868630604051620005da9062001293565b620005e893929190620017cd565b604051809103906000f08015801562000605573d6000803e3d6000fd5b509050806001600160a01b03167fd032ff6c6382452131fc300cbdbc3ac57605de779ebae4d6e422cabb3b611a728888604051620006459291906200180f565b60405180910390a26000600460009054906101000a90046001600160a01b031682878787306040516200067890620012a1565b620006899695949392919062001841565b604051809103906000f080158015620006a6573d6000803e3d6000fd5b509050806001600160a01b03167f09d75e12e349f79020715b0ea7b2c707e8acf1889b6d6f1337fce7f4e1b9e5c783604051620006e49190620016e5565b60405180910390a2604051636817031b60e01b81526001600160a01b03831690636817031b906200071a908490600401620016e5565b600060405180830381600087803b1580156200073557600080fd5b505af11580156200074a573d6000803e3d6000fd5b505060405163f2fde38b60e01b81526001600160a01b038516925063f2fde38b91506200077c903390600401620016e5565b600060405180830381600087803b1580156200079757600080fd5b505af1158015620007ac573d6000803e3d6000fd5b505060405163f2fde38b60e01b81526001600160a01b038416925063f2fde38b9150620007de903390600401620016e5565b600060405180830381600087803b158015620007f957600080fd5b505af11580156200080e573d6000803e3d6000fd5b50505050816001600160a01b03167f5bd3e5f8aff6329582cb150503b92c8c9616daf7310329846562203673e86ee4826040516200084d9190620016e5565b60405180910390a26040805160c0810182526001600160a01b0380841682528416602082015233818301526001606082018190526000608083015260a082018690529151909190620008a1908c906200174b565b9081526040805160209281900383019020835181546001600160a01b03199081166001600160a01b0392831617835593850151600183018054909516908216179093559083015160028201805460608601516080870151939095166001600160a81b031990911617600160a01b941515949094029390931760ff60a81b1916600160a81b911515919091021790915560a082015160038201906200094690826200195f565b5050506001600160a01b0381166000908152600260205260408120805460ff191660019081179091556003805491820181559091527fc2575a0e9e593c00f959f8c92f12db2869c3395a3b0502d05e2516446f71f85b01620009a98a826200195f565b5088604051620009ba91906200174b565b60405180910390207f8f1ac2f997af16ef58c5e9368269eeaae904557fd37470989b6180249d2eed9c8284604051620009f5929190620016cb565b60405180910390a2505050505050505050565b606060018260405162000a1c91906200174b565b9081526020016040518091039020600301805462000a3a90620018d0565b80601f016020809104026020016040519081016040528092919081815260200182805462000a6890620018d0565b801562000ab95780601f1062000a8d5761010080835404028352916020019162000ab9565b820191906000526020600020905b81548152906001019060200180831162000a9b57829003601f168201915b50505050509050919050565b600062000ad162000f45565b6001600160a01b0316826001600160a01b0316149050919050565b62000af6620011e0565b60006001600160a01b031660018360405162000b1391906200174b565b908152604051908190036020019020546001600160a01b03160362000b4c5760405162461bcd60e51b81526004016200036b9062001a2b565b8060018360405162000b5f91906200174b565b9081526040519081900360200181206002018054921515600160a81b0260ff60a81b199093169290921790915562000b999083906200174b565b6040519081900381208215158252907f456f620ee57671992bdc01835602b221db112d6ac9c33877a24d268d21b450bf906020015b60405180910390a25050565b600060018260405162000bee91906200174b565b9081526040519081900360200190206002015460ff600160a01b9091041692915050565b60606003805480602002602001604051908101604052809291908181526020016000905b8282101562000cec57838290600052602060002001805462000c5890620018d0565b80601f016020809104026020016040519081016040528092919081815260200182805462000c8690620018d0565b801562000cd75780601f1062000cab5761010080835404028352916020019162000cd7565b820191906000526020600020905b81548152906001019060200180831162000cb957829003601f168201915b50505050508152602001906001019062000c36565b50505050905090565b6003818154811062000d0657600080fd5b90600052602060002001600091509050805462000d2390620018d0565b80601f016020809104026020016040519081016040528092919081815260200182805462000d5190620018d0565b801562000da25780601f1062000d765761010080835404028352916020019162000da2565b820191906000526020600020905b81548152906001019060200180831162000d8457829003601f168201915b505050505081565b600080600060018460405162000dc191906200174b565b90815260408051918290036020908101832060c08401835280546001600160a01b039081168552600182015481169285019290925260028101549182169284019290925260ff600160a01b8204811615156060850152600160a81b909104161515608083015260038101805460a08401919062000e3e90620018d0565b80601f016020809104026020016040519081016040528092919081815260200182805462000e6c90620018d0565b801562000ebd5780601f1062000e915761010080835404028352916020019162000ebd565b820191906000526020600020905b81548152906001019060200180831162000e9f57829003601f168201915b5050509190925250508151919250506001600160a01b031662000f1b5760405162461bcd60e51b815260206004820152601560248201527410dbdb5c195d1a5d1a5bdb881b9bdd08199bdd5b99605a1b60448201526064016200036b565b80516020909101519094909350915050565b62000f37620011e0565b62000f43600062001243565b565b6000546001600160a01b031690565b8051808201602090810180516001808352938301929094019190912092905281549082015460028301546003840180546001600160a01b03948516959385169483169360ff600160a01b8504811694600160a81b90041692909162000fb990620018d0565b80601f016020809104026020016040519081016040528092919081815260200182805462000fe790620018d0565b8015620010385780601f106200100c5761010080835404028352916020019162001038565b820191906000526020600020905b8154815290600101906020018083116200101a57829003601f168201915b5050505050905086565b6200104c620011e0565b60006001600160a01b03166001836040516200106991906200174b565b908152604051908190036020019020546001600160a01b031603620010a25760405162461bcd60e51b81526004016200036b9062001a2b565b80600183604051620010b591906200174b565b9081526040519081900360200181206002018054921515600160a01b0260ff60a01b1990931692909217909155620010ef9083906200174b565b6040519081900381208215158252907f69f6ea1141150e1f6bb797204241d236c9e464272178ec6dc477fea9df653f409060200162000bce565b62001133620011e0565b6001600160a01b0381166200119a5760405162461bcd60e51b815260206004820152602660248201527f4f776e61626c653a206e6577206f776e657220697320746865207a65726f206160448201526564647265737360d01b60648201526084016200036b565b620011a58162001243565b50565b6000600182604051620011bc91906200174b565b9081526040519081900360200190206002015460ff600160a81b9091041692915050565b33620011eb62000f45565b6001600160a01b03161462000f435760405162461bcd60e51b815260206004820181905260248201527f4f776e61626c653a2063616c6c6572206973206e6f7420746865206f776e657260448201526064016200036b565b600080546001600160a01b038381166001600160a01b0319831681178455604051919092169283917f8be0079c531659141344cd1fd0a4f28419497f9722a3daafe3b4186f6b6457e09190a35050565b6123248062001a6083390190565b6126188062003d8483390190565b634e487b7160e01b600052604160045260246000fd5b604051601f8201601f191681016001600160401b0381118282101715620012f057620012f0620012af565b604052919050565b600082601f8301126200130a57600080fd5b81356001600160401b03811115620013265762001326620012af565b6200133b601f8201601f1916602001620012c5565b8181528460208386010111156200135157600080fd5b816020850160208301376000918101602001919091529392505050565b80356001600160a01b03811681146200138657600080fd5b919050565b600082601f8301126200139d57600080fd5b813560206001600160401b03821115620013bb57620013bb620012af565b8160051b620013cc828201620012c5565b9283528481018201928281019087851115620013e757600080fd5b83870192505b84831015620014115762001401836200136e565b82529183019190830190620013ed565b979650505050505050565b600080600080600080600060e0888a0312156200143857600080fd5b87356001600160401b03808211156200145057600080fd5b6200145e8b838c01620012f8565b985060208a01359150808211156200147557600080fd5b620014838b838c01620012f8565b975060408a01359150808211156200149a57600080fd5b620014a88b838c01620012f8565b965060608a0135915080821115620014bf57600080fd5b620014cd8b838c016200138b565b9550620014dd60808b016200136e565b9450620014ed60a08b016200136e565b935060c08a01359150808211156200150457600080fd5b50620015138a828b01620012f8565b91505092959891949750929550565b6000602082840312156200153557600080fd5b81356001600160401b038111156200154c57600080fd5b6200155a84828501620012f8565b949350505050565b60005b838110156200157f57818101518382015260200162001565565b50506000910152565b60008151808452620015a281602086016020860162001562565b601f01601f19169290920160200192915050565b602081526000620015cb602083018462001588565b9392505050565b600060208284031215620015e557600080fd5b620015cb826200136e565b600080604083850312156200160457600080fd5b82356001600160401b038111156200161b57600080fd5b6200162985828601620012f8565b925050602083013580151581146200164057600080fd5b809150509250929050565b6000602080830181845280855180835260408601915060408160051b870101925083870160005b82811015620016a457603f198886030184526200169185835162001588565b9450928501929085019060010162001672565b5092979650505050505050565b600060208284031215620016c457600080fd5b5035919050565b6001600160a01b0392831681529116602082015260400190565b6001600160a01b0391909116815260200190565b6001600160a01b0387811682528681166020830152851660408201528315156060820152821515608082015260c060a082018190526000906200173f9083018462001588565b98975050505050505050565b600082516200175f81846020870162001562565b9190910192915050565b634e487b7160e01b600052603260045260246000fd5b634e487b7160e01b600052601160045260246000fd5b80820180821115620017ab57620017ab6200177f565b92915050565b600060018201620017c657620017c66200177f565b5060010190565b606081526000620017e2606083018662001588565b8281036020840152620017f6818662001588565b91505060018060a01b0383166040830152949350505050565b60408152600062001824604083018562001588565b828103602084015262001838818562001588565b95945050505050565b600060c0820160018060a01b03808a1684526020818a168186015260c0604086015282895180855260e087019150828b01945060005b818110156200189757855185168352948301949183019160010162001877565b50509188166060860152506001600160a01b03861660808501529150620018bb9050565b6001600160a01b03831660a083015262001411565b600181811c90821680620018e557607f821691505b6020821081036200190657634e487b7160e01b600052602260045260246000fd5b50919050565b601f8211156200195a57600081815260208120601f850160051c81016020861015620019355750805b601f850160051c820191505b81811015620019565782815560010162001941565b5050505b505050565b81516001600160401b038111156200197b576200197b620012af565b62001993816200198c8454620018d0565b846200190c565b602080601f831160018114620019cb5760008415620019b25750858301515b600019600386901b1c1916600185901b17855562001956565b600085815260208120601f198616915b82811015620019fc57888601518255948401946001909101908401620019db565b508582101562001a1b5787850151600019600388901b60f8161c191681555b5050505050600190811b01905550565b6020808252601a908201527910dbdb5c195d1a5d1a5bdb88191bd95cc81b9bdd08195e1a5cdd60321b60408201526060019056fe60806040523480156200001157600080fd5b506040516200232438038062002324833981016040819052620000349162000194565b82826000620000448382620002b0565b506001620000538282620002b0565b505050620000706200006a6200007960201b60201c565b6200007d565b5050506200037c565b3390565b600780546001600160a01b038381166001600160a01b0319831681179093556040519116919082907f8be0079c531659141344cd1fd0a4f28419497f9722a3daafe3b4186f6b6457e090600090a35050565b634e487b7160e01b600052604160045260246000fd5b600082601f830112620000f757600080fd5b81516001600160401b0380821115620001145762000114620000cf565b604051601f8301601f19908116603f011681019082821181831017156200013f576200013f620000cf565b816040528381526020925086838588010111156200015c57600080fd5b600091505b8382101562000180578582018301518183018401529082019062000161565b600093810190920192909252949350505050565b600080600060608486031215620001aa57600080fd5b83516001600160401b0380821115620001c257600080fd5b620001d087838801620000e5565b94506020860151915080821115620001e757600080fd5b50620001f686828701620000e5565b604086015190935090506001600160a01b03811681146200021657600080fd5b809150509250925092565b600181811c908216806200023657607f821691505b6020821081036200025757634e487b7160e01b600052602260045260246000fd5b50919050565b601f821115620002ab57600081815260208120601f850160051c81016020861015620002865750805b601f850160051c820191505b81811015620002a75782815560010162000292565b5050505b505050565b81516001600160401b03811115620002cc57620002cc620000cf565b620002e481620002dd845462000221565b846200025d565b602080601f8311600181146200031c5760008415620003035750858301515b600019600386901b1c1916600185901b178555620002a7565b600085815260208120601f198616915b828110156200034d578886015182559484019460019091019084016200032c565b50858210156200036c5787850151600019600388901b60f8161c191681555b5050505050600190811b01905550565b611f98806200038c6000396000f3fe608060405234801561001057600080fd5b50600436106101595760003560e01c80636352211e116100c95780636352211e146102985780636817031b146102ab57806370a08231146102be578063715018a6146102d15780638d928af8146102d95780638da5cb5b146102ea57806395d89b41146102fb578063a22cb46514610303578063b88d4fde14610316578063c87b56dd14610329578063d547cfb71461033c578063e985e9c514610344578063f2fde38b14610357578063fbfa77cf1461036a57600080fd5b806301ffc9a71461015e57806305e337381461018657806306fdde03146101b4578063081812fc146101c9578063095ea7b3146101e957806318e97fd1146101fe57806323b872dd1461021157806330176e131461022457806340c10f191461023757806342842e0e1461024a57806342966c681461025d57806345ef1492146102705780635618923614610290575b600080fd5b61017161016c3660046117a2565b61037d565b60405190151581526020015b60405180910390f35b6101a66101943660046117bf565b6000908152600b602052604090205490565b60405190815260200161017d565b6101bc6103a8565b60405161017d9190611828565b6101dc6101d73660046117bf565b61043a565b60405161017d919061183b565b6101fc6101f736600461186b565b610461565b005b6101fc61020c366004611940565b61057b565b6101fc61021f366004611986565b610665565b6101fc6102323660046119c2565b610696565b6101a661024536600461186b565b610706565b6101fc610258366004611986565b61089a565b6101fc61026b3660046117bf565b6108b5565b6101a661027e3660046117bf565b600b6020526000908152604090205481565b6008546101a6565b6101dc6102a63660046117bf565b61092b565b6101fc6102b93660046119f6565b61095f565b6101a66102cc3660046119f6565b610a45565b6101fc610acb565b6009546001600160a01b03166101dc565b6007546001600160a01b03166101dc565b6101bc610adf565b6101fc610311366004611a11565b610aee565b6101fc610324366004611a4d565b610afd565b6101bc6103373660046117bf565b610b35565b6101bc610c45565b610171610352366004611ac8565b610cd3565b6101fc6103653660046119f6565b610d01565b6009546101dc906001600160a01b031681565b60006001600160e01b03198216632483248360e11b14806103a257506103a282610d7a565b92915050565b6060600080546103b790611afb565b80601f01602080910402602001604051908101604052809291908181526020018280546103e390611afb565b80156104305780601f1061040557610100808354040283529160200191610430565b820191906000526020600020905b81548152906001019060200180831161041357829003601f168201915b5050505050905090565b600061044582610dca565b506000908152600460205260409020546001600160a01b031690565b600061046c8261092b565b9050806001600160a01b0316836001600160a01b0316036104de5760405162461bcd60e51b815260206004820152602160248201527f4552433732313a20617070726f76616c20746f2063757272656e74206f776e656044820152603960f91b60648201526084015b60405180910390fd5b336001600160a01b03821614806104fa57506104fa8133610cd3565b61056c5760405162461bcd60e51b815260206004820152603d60248201527f4552433732313a20617070726f76652063616c6c6572206973206e6f7420746f60448201527f6b656e206f776e6572206f7220617070726f76656420666f7220616c6c00000060648201526084016104d5565b6105768383610def565b505050565b6009546001600160a01b031633146105a55760405162461bcd60e51b81526004016104d590611b35565b60006105b083610e5d565b6001600160a01b0316036105fd5760405162461bcd60e51b8152602060048201526014602482015273151bdad95b88191bd95cc81b9bdd08195e1a5cdd60621b60448201526064016104d5565b600081511161061e5760405162461bcd60e51b81526004016104d590611b62565b6106288282610e78565b7f931f495b9a8e5d8e61946ea5d61e021f636cfe213a801f97589c18c152e408bd8282604051610659929190611b85565b60405180910390a15050565b61066f3382610f2d565b61068b5760405162461bcd60e51b81526004016104d590611b9e565b610576838383610f8b565b61069e6110dd565b60008151116106bf5760405162461bcd60e51b81526004016104d590611b62565b600a6106cb8282611c39565b507ff9c7803e94e0d3c02900d8a90893a6d5e90dd04d32a4cfe825520f82bf9f32f6816040516106fb9190611828565b60405180910390a150565b6009546000906001600160a01b031633146107335760405162461bcd60e51b81526004016104d590611b35565b6000600a805461074290611afb565b9050116107845760405162461bcd60e51b815260206004820152601060248201526f10985cd948155492481b9bdd081cd95d60821b60448201526064016104d5565b6008805490600061079483611cf8565b90915550506008546107a68482611137565b61083a81600a80546107b790611afb565b80601f01602080910402602001604051908101604052809291908181526020018280546107e390611afb565b80156108305780601f1061080557610100808354040283529160200191610830565b820191906000526020600020905b81548152906001019060200180831161081357829003601f168201915b5050505050610e78565b6000818152600b602052604090819020849055516001600160a01b038516907f01f8bd07e6c27ff813d5c6d3c4bf0313a1d75043cf978214b504b794075e52669061088b9084908790600a90611d1f565b60405180910390a29392505050565b61057683838360405180602001604052806000815250610afd565b6009546001600160a01b031633146108df5760405162461bcd60e51b81526004016104d590611b35565b6108e881611232565b6000818152600b602052604080822091909155517f3c176691ca154a2f6fe978a2a633a33ee77dbe2902e67a75400720845a4b2ce1906106fb9083815260200190565b60008061093783610e5d565b90506001600160a01b0381166103a25760405162461bcd60e51b81526004016104d590611db9565b6109676110dd565b6009546001600160a01b0316156109b45760405162461bcd60e51b815260206004820152601160248201527015985d5b1d08185b1c9958591e481cd95d607a1b60448201526064016104d5565b6001600160a01b0381166109fa5760405162461bcd60e51b815260206004820152600d60248201526c125b9d985b1a59081d985d5b1d609a1b60448201526064016104d5565b600980546001600160a01b0319166001600160a01b0383161790556040517fe7ae49f883c825b05681b3e00e8be6fdea9ed2a8a45e4c6ecb9390fc44cce615906106fb90839061183b565b60006001600160a01b038216610aaf5760405162461bcd60e51b815260206004820152602960248201527f4552433732313a2061646472657373207a65726f206973206e6f7420612076616044820152683634b21037bbb732b960b91b60648201526084016104d5565b506001600160a01b031660009081526003602052604090205490565b610ad36110dd565b610add6000611272565b565b6060600180546103b790611afb565b610af93383836112c4565b5050565b610b073383610f2d565b610b235760405162461bcd60e51b81526004016104d590611b9e565b610b2f8484848461138e565b50505050565b6060610b4082610dca565b60008281526006602052604081208054610b5990611afb565b80601f0160208091040260200160405190810160405280929190818152602001828054610b8590611afb565b8015610bd25780601f10610ba757610100808354040283529160200191610bd2565b820191906000526020600020905b815481529060010190602001808311610bb557829003601f168201915b505050505090506000610bf060408051602081019091526000815290565b90508051600003610c02575092915050565b815115610c34578082604051602001610c1c929190611deb565b60405160208183030381529060405292505050919050565b610c3d846113c1565b949350505050565b600a8054610c5290611afb565b80601f0160208091040260200160405190810160405280929190818152602001828054610c7e90611afb565b8015610ccb5780601f10610ca057610100808354040283529160200191610ccb565b820191906000526020600020905b815481529060010190602001808311610cae57829003601f168201915b505050505081565b6001600160a01b03918216600090815260056020908152604080832093909416825291909152205460ff1690565b610d096110dd565b6001600160a01b038116610d6e5760405162461bcd60e51b815260206004820152602660248201527f4f776e61626c653a206e6577206f776e657220697320746865207a65726f206160448201526564647265737360d01b60648201526084016104d5565b610d7781611272565b50565b60006001600160e01b031982166380ac58cd60e01b1480610dab57506001600160e01b03198216635b5e139f60e01b145b806103a257506301ffc9a760e01b6001600160e01b03198316146103a2565b610dd381611435565b610d775760405162461bcd60e51b81526004016104d590611db9565b600081815260046020526040902080546001600160a01b0319166001600160a01b0384169081179091558190610e248261092b565b6001600160a01b03167f8c5be1e5ebec7d5bd14f71427d1e84f3dd0314c0f7b2291e5b200ac8c7c3b92560405160405180910390a45050565b6000908152600260205260409020546001600160a01b031690565b610e8182611435565b610ee45760405162461bcd60e51b815260206004820152602e60248201527f45524337323155524953746f726167653a2055524920736574206f66206e6f6e60448201526d32bc34b9ba32b73a103a37b5b2b760911b60648201526084016104d5565b6000828152600660205260409020610efc8282611c39565b506040518281527ff8e1a15aba9398e019f0b49df1a4fde98ee17ae345cb5f6b5e2c27f5033e8ce790602001610659565b600080610f398361092b565b9050806001600160a01b0316846001600160a01b03161480610f605750610f608185610cd3565b80610c3d5750836001600160a01b0316610f798461043a565b6001600160a01b031614949350505050565b826001600160a01b0316610f9e8261092b565b6001600160a01b031614610fc45760405162461bcd60e51b81526004016104d590611e1a565b6001600160a01b0382166110265760405162461bcd60e51b8152602060048201526024808201527f4552433732313a207472616e7366657220746f20746865207a65726f206164646044820152637265737360e01b60648201526084016104d5565b826001600160a01b03166110398261092b565b6001600160a01b03161461105f5760405162461bcd60e51b81526004016104d590611e1a565b600081815260046020908152604080832080546001600160a01b03199081169091556001600160a01b038781168086526003855283862080546000190190559087168086528386208054600101905586865260029094528285208054909216841790915590518493600080516020611f4383398151915291a4505050565b6007546001600160a01b03163314610add5760405162461bcd60e51b815260206004820181905260248201527f4f776e61626c653a2063616c6c6572206973206e6f7420746865206f776e657260448201526064016104d5565b6001600160a01b03821661118d5760405162461bcd60e51b815260206004820181905260248201527f4552433732313a206d696e7420746f20746865207a65726f206164647265737360448201526064016104d5565b61119681611435565b156111b35760405162461bcd60e51b81526004016104d590611e5f565b6111bc81611435565b156111d95760405162461bcd60e51b81526004016104d590611e5f565b6001600160a01b038216600081815260036020908152604080832080546001019055848352600290915280822080546001600160a01b031916841790555183929190600080516020611f43833981519152908290a45050565b61123b81611452565b6000818152600660205260409020805461125490611afb565b159050610d77576000818152600660205260408120610d779161173e565b600780546001600160a01b038381166001600160a01b0319831681179093556040519116919082907f8be0079c531659141344cd1fd0a4f28419497f9722a3daafe3b4186f6b6457e090600090a35050565b816001600160a01b0316836001600160a01b0316036113215760405162461bcd60e51b815260206004820152601960248201527822a9219b99189d1030b8383937bb32903a379031b0b63632b960391b60448201526064016104d5565b6001600160a01b03838116600081815260056020908152604080832094871680845294825291829020805460ff191686151590811790915591519182527f17307eab39ab6107e8899845ad3d59bd9653f200f220920489ca2b5937696c31910160405180910390a3505050565b611399848484610f8b565b6113a5848484846114d5565b610b2f5760405162461bcd60e51b81526004016104d590611e96565b60606113cc82610dca565b60006113e360408051602081019091526000815290565b90506000815111611403576040518060200160405280600081525061142e565b8061140d846115d6565b60405160200161141e929190611deb565b6040516020818303038152906040525b9392505050565b60008061144183610e5d565b6001600160a01b0316141592915050565b600061145d8261092b565b90506114688261092b565b600083815260046020908152604080832080546001600160a01b03199081169091556001600160a01b038516808552600384528285208054600019019055878552600290935281842080549091169055519293508492600080516020611f43833981519152908390a45050565b60006001600160a01b0384163b156115cb57604051630a85bd0160e11b81526001600160a01b0385169063150b7a0290611519903390899088908890600401611ee8565b6020604051808303816000875af1925050508015611554575060408051601f3d908101601f1916820190925261155191810190611f25565b60015b6115b1573d808015611582576040519150601f19603f3d011682016040523d82523d6000602084013e611587565b606091505b5080516000036115a95760405162461bcd60e51b81526004016104d590611e96565b805181602001fd5b6001600160e01b031916630a85bd0160e11b149050610c3d565b506001949350505050565b606060006115e383611668565b60010190506000816001600160401b0381111561160257611602611895565b6040519080825280601f01601f19166020018201604052801561162c576020820181803683370190505b5090508181016020015b600019016f181899199a1a9b1b9c1cb0b131b232b360811b600a86061a8153600a850494508461163657509392505050565b60008072184f03e93ff9f4daa797ed6e38ed64bf6a1f0160401b83106116a75772184f03e93ff9f4daa797ed6e38ed64bf6a1f0160401b830492506040015b6904ee2d6d415b85acef8160201b83106116d1576904ee2d6d415b85acef8160201b830492506020015b662386f26fc1000083106116ef57662386f26fc10000830492506010015b6305f5e1008310611707576305f5e100830492506008015b612710831061171b57612710830492506004015b6064831061172d576064830492506002015b600a83106103a25760010192915050565b50805461174a90611afb565b6000825580601f1061175a575050565b601f016020900490600052602060002090810190610d7791905b808211156117885760008155600101611774565b5090565b6001600160e01b031981168114610d7757600080fd5b6000602082840312156117b457600080fd5b813561142e8161178c565b6000602082840312156117d157600080fd5b5035919050565b60005b838110156117f35781810151838201526020016117db565b50506000910152565b600081518084526118148160208601602086016117d8565b601f01601f19169290920160200192915050565b60208152600061142e60208301846117fc565b6001600160a01b0391909116815260200190565b80356001600160a01b038116811461186657600080fd5b919050565b6000806040838503121561187e57600080fd5b6118878361184f565b946020939093013593505050565b634e487b7160e01b600052604160045260246000fd5b60006001600160401b03808411156118c5576118c5611895565b604051601f8501601f19908116603f011681019082821181831017156118ed576118ed611895565b8160405280935085815286868601111561190657600080fd5b858560208301376000602087830101525050509392505050565b600082601f83011261193157600080fd5b61142e838335602085016118ab565b6000806040838503121561195357600080fd5b8235915060208301356001600160401b0381111561197057600080fd5b61197c85828601611920565b9150509250929050565b60008060006060848603121561199b57600080fd5b6119a48461184f565b92506119b26020850161184f565b9150604084013590509250925092565b6000602082840312156119d457600080fd5b81356001600160401b038111156119ea57600080fd5b610c3d84828501611920565b600060208284031215611a0857600080fd5b61142e8261184f565b60008060408385031215611a2457600080fd5b611a2d8361184f565b915060208301358015158114611a4257600080fd5b809150509250929050565b60008060008060808587031215611a6357600080fd5b611a6c8561184f565b9350611a7a6020860161184f565b92506040850135915060608501356001600160401b03811115611a9c57600080fd5b8501601f81018713611aad57600080fd5b611abc878235602084016118ab565b91505092959194509250565b60008060408385031215611adb57600080fd5b611ae48361184f565b9150611af26020840161184f565b90509250929050565b600181811c90821680611b0f57607f821691505b602082108103611b2f57634e487b7160e01b600052602260045260246000fd5b50919050565b60208082526013908201527213db9b1e481d985d5b1d0818d85b8818d85b1b606a1b604082015260600190565b602080825260099082015268456d7074792055524960b81b604082015260600190565b828152604060208201526000610c3d60408301846117fc565b6020808252602d908201527f4552433732313a2063616c6c6572206973206e6f7420746f6b656e206f776e6560408201526c1c881bdc88185c1c1c9bdd9959609a1b606082015260800190565b601f82111561057657600081815260208120601f850160051c81016020861015611c125750805b601f850160051c820191505b81811015611c3157828155600101611c1e565b505050505050565b81516001600160401b03811115611c5257611c52611895565b611c6681611c608454611afb565b84611beb565b602080601f831160018114611c9b5760008415611c835750858301515b600019600386901b1c1916600185901b178555611c31565b600085815260208120601f198616915b82811015611cca57888601518255948401946001909101908401611cab565b5085821015611ce85787850151600019600388901b60f8161c191681555b5050505050600190811b01905550565b600060018201611d1857634e487b7160e01b600052601160045260246000fd5b5060010190565b8381526000602084818401526060604084015260008454611d3f81611afb565b8060608701526080600180841660008114611d615760018114611d7b57611da9565b60ff1985168984015283151560051b890183019550611da9565b896000528660002060005b85811015611da15781548b8201860152908301908801611d86565b8a0184019650505b50939a9950505050505050505050565b602080825260189082015277115490cdcc8c4e881a5b9d985b1a59081d1bdad95b88125160421b604082015260600190565b60008351611dfd8184602088016117d8565b835190830190611e118183602088016117d8565b01949350505050565b60208082526025908201527f4552433732313a207472616e736665722066726f6d20696e636f72726563742060408201526437bbb732b960d91b606082015260800190565b6020808252601c908201527f4552433732313a20746f6b656e20616c7265616479206d696e74656400000000604082015260600190565b60208082526032908201527f4552433732313a207472616e7366657220746f206e6f6e20455243373231526560408201527131b2b4bb32b91034b6b83632b6b2b73a32b960711b606082015260800190565b6001600160a01b0385811682528416602082015260408101839052608060608201819052600090611f1b908301846117fc565b9695505050505050565b600060208284031215611f3757600080fd5b815161142e8161178c56feddf252ad1be2c89b69c2b068fc378daa952ba7f163c4a11628f55a4df523b3efa2646970667358221220f0d93b17a17be8268e01b82ab184b3120436f62407c8f212f2cc1df067bf111964736f6c6343000815003360c06040526004805462ffffff60a01b1916600160a81b1790553480156200002657600080fd5b5060405162002618380380620026188339810160408190526200004991620002f5565b6200005433620001f1565b600180556001600160a01b0386166200009e5760405162461bcd60e51b8152602060048201526007602482015266125b9d985b1a5960ca1b60448201526064015b60405180910390fd5b6001600160a01b038316620000e05760405162461bcd60e51b8152602060048201526007602482015266125b9d985b1a5960ca1b604482015260640162000095565b6001600160a01b038116620001225760405162461bcd60e51b8152602060048201526007602482015266125b9d985b1a5960ca1b604482015260640162000095565b6001600160a01b038216620001645760405162461bcd60e51b8152602060048201526007602482015266125b9d985b1a5960ca1b604482015260640162000095565b600280546001600160a01b038088166001600160a01b0319928316179092556003805489841690831617905584821660805283821660a05260048054928416929091169190911790558351620001c290600590602087019062000241565b506001600160a01b03166000908152600860205260409020805460ff1916600117905550620004269350505050565b600080546001600160a01b038381166001600160a01b0319831681178455604051919092169283917f8be0079c531659141344cd1fd0a4f28419497f9722a3daafe3b4186f6b6457e09190a35050565b82805482825590600052602060002090810192821562000299579160200282015b828111156200029957825182546001600160a01b0319166001600160a01b0390911617825560209092019160019091019062000262565b50620002a7929150620002ab565b5090565b5b80821115620002a75760008155600101620002ac565b80516001600160a01b0381168114620002da57600080fd5b919050565b634e487b7160e01b600052604160045260246000fd5b60008060008060008060c087890312156200030f57600080fd5b6200031a87620002c2565b955060206200032b818901620002c2565b60408901519096506001600160401b03808211156200034957600080fd5b818a0191508a601f8301126200035e57600080fd5b815181811115620003735762000373620002df565b8060051b604051601f19603f830116810181811085821117156200039b576200039b620002df565b60405291825284820192508381018501918d831115620003ba57600080fd5b938501935b82851015620003e357620003d385620002c2565b84529385019392850192620003bf565b809950505050505050620003fa60608801620002c2565b92506200040a60808801620002c2565b91506200041a60a08801620002c2565b90509295509295509295565b60805160a05161219462000484600039600081816104a501528181610ac2015281816110cd015281816111790152818161122001526112960152600081816103d7015281816107b70152818161179a015261182f01526121946000f3fe60806040526004361061017c5760003560e01c8063715018a6116100d2578063715018a61461039b5780637de25613146103b057806381e18b47146103c55780638da5cb5b146103f9578063a0c39e071461040e578063a13d6bb51461042e578063a7771ea51461044e578063b18f19f01461047e578063c2f9219214610493578063c45a0155146104c7578063cf411d67146104e7578063db006a7514610507578063f029ba6f14610527578063f2fde38b14610548578063f56e9c6614610568578063f80eca221461058857600080fd5b8063021876691461018857806307ce35d9146101be57806317342ea7146101c85780631d28e0031461020357806324d7806c146102345780632e91ec7614610254578063429b62e5146102745780634b0bddd2146102a45780635216aeec146102c4578063549c4627146102da57806355b8fb81146102fb57806358e87b231461031b5780635bf8633a1461033b5780636f75be9a1461035b5780636ff1c9bc1461037b57600080fd5b3661018357005b600080fd5b34801561019457600080fd5b506003546101a8906001600160a01b031681565b6040516101b59190611ca2565b60405180910390f35b6101c661059d565b005b3480156101d457600080fd5b506101f56101e3366004611cb6565b60076020526000908152604090205481565b6040519081526020016101b5565b34801561020f57600080fd5b5060045461022490600160a01b900460ff1681565b60405190151581526020016101b5565b34801561024057600080fd5b5061022461024f366004611ce4565b6109e9565b34801561026057600080fd5b506101c661026f366004611d53565b610a2e565b34801561028057600080fd5b5061022461028f366004611ce4565b60086020526000908152604090205460ff1681565b3480156102b057600080fd5b506101c66102bf366004611da2565b610b5c565b3480156102d057600080fd5b506101f560065481565b3480156102e657600080fd5b5060045461022490600160a81b900460ff1681565b34801561030757600080fd5b506101c6610316366004611ddb565b610bc3565b34801561032757600080fd5b506101c6610336366004611e1c565b610d65565b34801561034757600080fd5b506002546101a8906001600160a01b031681565b34801561036757600080fd5b506101a8610376366004611cb6565b610e0f565b34801561038757600080fd5b506101c6610396366004611ce4565b610e39565b3480156103a757600080fd5b506101c6610f12565b3480156103bc57600080fd5b50610224610f24565b3480156103d157600080fd5b506101a87f000000000000000000000000000000000000000000000000000000000000000081565b34801561040557600080fd5b506101a8610f4e565b34801561041a57600080fd5b506101c6610429366004611d53565b610f5d565b34801561043a57600080fd5b506101c6610449366004611e39565b611039565b34801561045a57600080fd5b50610224610469366004611cb6565b60096020526000908152604090205460ff1681565b34801561048a57600080fd5b5061022461141e565b34801561049f57600080fd5b506101a87f000000000000000000000000000000000000000000000000000000000000000081565b3480156104d357600080fd5b506004546101a8906001600160a01b031681565b3480156104f357600080fd5b506101c6610502366004611e1c565b611447565b34801561051357600080fd5b506101c6610522366004611cb6565b6114e6565b34801561053357600080fd5b5060045461022490600160b01b900460ff1681565b34801561055457600080fd5b506101c6610563366004611ce4565b61198a565b34801561057457600080fd5b506101c6610583366004611ce4565b611a00565b34801561059457600080fd5b506101c6611a92565b6105a5611b22565b600454600160a01b900460ff16156105f85760405162461bcd60e51b815260206004820152601160248201527010dbdb5c195d1a5d1a5bdb88195b991959607a1b60448201526064015b60405180910390fd5b600454600160a81b900460ff166106435760405162461bcd60e51b815260206004820152600f60248201526e11195c1bdcda5d1cc818db1bdcd959608a1b60448201526064016105ef565b60055461067e5760405162461bcd60e51b81526020600482015260096024820152684e6f20746f6b656e7360b81b60448201526064016105ef565b600034116106b35760405162461bcd60e51b81526020600482015260026024820152614e6f60f01b60448201526064016105ef565b6002546040516340c10f1960e01b81526001600160a01b039091169060009082906340c10f19906106ea9033903490600401611ebf565b6020604051808303816000875af1158015610709573d6000803e3d6000fd5b505050506040513d601f19601f8201168201806040525081019061072d9190611ed8565b905034600760008381526020019081526020016000208190555034600660008282546107599190611f07565b90915550506005546000906001600160401b0381111561077b5761077b611f1a565b6040519080825280602002602001820160405280156107a4578160200160208202803683370190505b5090506000805b600554811015610887577f00000000000000000000000000000000000000000000000000000000000000006001600160a01b0316600582815481106107f2576107f2611f30565b6000918252602090912001546001600160a01b031614610875576005818154811061081f5761081f611f30565b9060005260206000200160009054906101000a90046001600160a01b031683838151811061084f5761084f611f30565b6001600160a01b03909216602092830291909101909101528161087181611f46565b9250505b8061087f81611f46565b9150506107ab565b50801561099f576000816001600160401b038111156108a8576108a8611f1a565b6040519080825280602002602001820160405280156108d1578160200160208202803683370190505b50905060005b82811015610935578381815181106108f1576108f1611f30565b602002602001015182828151811061090b5761090b611f30565b6001600160a01b03909216602092830291909101909101528061092d81611f46565b9150506108d7565b5060035460405163102368fd60e01b81526001600160a01b039091169063102368fd90349061096b908590600090600401611f5f565b6000604051808303818588803b15801561098457600080fd5b505af1158015610998573d6000803e3d6000fd5b5050505050505b604080513481526020810185905233917f73a19dd210f1a7f902193214c0ee91dd35ee5b4d920cba8d519eca65a7b488ca910160405180910390a2505050506109e760018055565b565b6001600160a01b03811660009081526008602052604081205460ff1680610a285750610a13610f4e565b6001600160a01b0316826001600160a01b0316145b92915050565b3360009081526008602052604090205460ff1680610a645750610a4f610f4e565b6001600160a01b0316336001600160a01b0316145b610a805760405162461bcd60e51b81526004016105ef90611fb0565b60005b81811015610b5757828282818110610a9d57610a9d611f30565b9050602002016020810190610ab29190611ce4565b6001600160a01b031663095ea7b37f00000000000000000000000000000000000000000000000000000000000000006000196040518363ffffffff1660e01b8152600401610b01929190611ebf565b6020604051808303816000875af1158015610b20573d6000803e3d6000fd5b505050506040513d601f19601f82011682018060405250810190610b449190611fd3565b5080610b4f81611f46565b915050610a83565b505050565b610b64611b7b565b6001600160a01b038216600081815260086020908152604091829020805460ff191685151590811790915591519182527f235bc17e7930760029e9f4d860a2a8089976de5b381cf8380fc11c1d88a11133910160405180910390a25050565b610bcb611b7b565b610bd3611b22565b6001600160a01b038316610bf95760405162461bcd60e51b81526004016105ef90611ff0565b6001600160a01b038216610c1f5760405162461bcd60e51b81526004016105ef90611ff0565b60008111610c595760405162461bcd60e51b815260206004820152600760248201526604d757374203e360cc1b60448201526064016105ef565b60405163a9059cbb60e01b81526000906001600160a01b0385169063a9059cbb90610c8a9086908690600401611ebf565b6020604051808303816000875af1158015610ca9573d6000803e3d6000fd5b505050506040513d601f19601f82011682018060405250810190610ccd9190611fd3565b905080610d0e5760405162461bcd60e51b815260206004820152600f60248201526e151c985b9cd9995c8819985a5b1959608a1b60448201526064016105ef565b826001600160a01b0316846001600160a01b03167ff2d30170fe63ab71dafa0e3f7c4880738a8b0efc5277f5d999413526030b228f84604051610d5391815260200190565b60405180910390a350610b5760018055565b3360009081526008602052604090205460ff1680610d9b5750610d86610f4e565b6001600160a01b0316336001600160a01b0316145b610db75760405162461bcd60e51b81526004016105ef90611fb0565b60048054821515600160a81b0260ff60a81b199091161790556040517f8d3d8e4541c6b3368eb82d7b621f414931cb65410379efff5908345fc1366b0c90610e0490831515815260200190565b60405180910390a150565b60058181548110610e1f57600080fd5b6000918252602090912001546001600160a01b0316905081565b3360009081526008602052604090205460ff1680610e6f5750610e5a610f4e565b6001600160a01b0316336001600160a01b0316145b610e8b5760405162461bcd60e51b81526004016105ef90611fb0565b610e93611b22565b60405147906001600160a01b0383169082156108fc029083906000818181858888f19350505050158015610ecb573d6000803e3d6000fd5b507f5fafa99d0643513820be26656b45130b01e1c03062e1266bf36f88cbd3bd96958282604051610efd929190611ebf565b60405180910390a150610f0f60018055565b50565b610f1a611b7b565b6109e76000611bda565b600454600090600160b01b900460ff168015610f495750600454600160a01b900460ff165b905090565b6000546001600160a01b031690565b3360009081526008602052604090205460ff1680610f935750610f7e610f4e565b6001600160a01b0316336001600160a01b0316145b610faf5760405162461bcd60e51b81526004016105ef90611fb0565b80610fef5760405162461bcd60e51b815260206004820152601060248201526f115b5c1d1e481d1bdad95b881b1a5cdd60821b60448201526064016105ef565b610ffb60058383611c2a565b507f3ca096a4c913a6f222a557151d17832dddab787e6ddf59063cab45e15b9a9fac828260405161102d92919061205a565b60405180910390a15050565b3360009081526008602052604090205460ff168061106f575061105a610f4e565b6001600160a01b0316336001600160a01b0316145b61108b5760405162461bcd60e51b81526004016105ef90611fb0565b60028410156110cb5760405162461bcd60e51b815260206004820152600c60248201526b092dcecc2d8d2c840e0c2e8d60a31b60448201526064016105ef565b7f00000000000000000000000000000000000000000000000000000000000000006001600160a01b03166111325760405162461bcd60e51b815260206004820152600e60248201526d149bdd5d195c881b9bdd081cd95d60921b60448201526064016105ef565b60008585600081811061114757611147611f30565b905060200201602081019061115c9190611ce4565b604051636eb1769f60e11b81523060048201526001600160a01b037f00000000000000000000000000000000000000000000000000000000000000008116602483015291925060009183169063dd62ed3e90604401602060405180830381865afa1580156111ce573d6000803e3d6000fd5b505050506040513d601f19601f820116820180604052508101906111f29190611ed8565b9050888110156112915760405163095ea7b360e01b81526001600160a01b0383169063095ea7b39061124c907f00000000000000000000000000000000000000000000000000000000000000009060001990600401611ebf565b6020604051808303816000875af115801561126b573d6000803e3d6000fd5b505050506040513d601f19601f8201168201806040525081019061128f9190611fd3565b505b6000807f00000000000000000000000000000000000000000000000000000000000000006001600160a01b03168b8b8b8b8b8b308c6040516024016112dd989796959493929190612076565b60408051601f198184030181529181526020820180516001600160e01b03166396f9189960e01b1790525161131291906120c6565b6000604051808303816000865af19150503d806000811461134f576040519150601f19603f3d011682016040523d82523d6000602084013e611354565b606091505b50915091508161136657805160208201fd5b7fb3fd459f9d0f4577bb8b2eabe587f5c7514c0c717f513ab7fd5d09fbbb7e97188989600081811061139a5761139a611f30565b90506020020160208101906113af9190611ce4565b8a8a6113bc6001826120f5565b8181106113cb576113cb611f30565b90506020020160208101906113e09190611ce4565b604080516001600160a01b03938416815292909116602083015281018d9052606081018c905260800160405180910390a15050505050505050505050565b600454600090600160a81b900460ff168015610f49575050600454600160a01b900460ff161590565b3360009081526008602052604090205460ff168061147d5750611468610f4e565b6001600160a01b0316336001600160a01b0316145b6114995760405162461bcd60e51b81526004016105ef90611fb0565b60048054821515600160b01b0260ff60b01b199091161790556040517fb627915892a42adaab1d9378da4b9064b25562944209582d03a3dd0a6332326090610e0490831515815260200190565b6114ee611b22565b600454600160a01b900460ff1661153f5760405162461bcd60e51b815260206004820152601560248201527410dbdb5c195d1a5d1a5bdb881b9bdd08195b991959605a1b60448201526064016105ef565b600454600160b01b900460ff166115815760405162461bcd60e51b815260206004820152600660248201526510db1bdcd95960d21b60448201526064016105ef565b6002546040516331a9108f60e11b8152600481018390526001600160a01b039091169033908290636352211e90602401602060405180830381865afa1580156115ce573d6000803e3d6000fd5b505050506040513d601f19601f820116820180604052508101906115f29190612108565b6001600160a01b03161461163a5760405162461bcd60e51b815260206004820152600f60248201526e2737ba103a37b5b2b71037bbb732b960891b60448201526064016105ef565b60008281526009602052604090205460ff16156116845760405162461bcd60e51b815260206004820152600860248201526714995919595b595960c21b60448201526064016105ef565b600082815260076020526040902054806116cd5760405162461bcd60e51b815260206004820152600a6024820152690c081a5b9d995cdd195960b21b60448201526064016105ef565b60006006541161170e5760405162461bcd60e51b815260206004820152600c60248201526b4e6f2072656d61696e696e6760a01b60448201526064016105ef565b60008381526009602052604090819020805460ff1916600117905551630852cd8d60e31b8152600481018490526001600160a01b038316906342966c6890602401600060405180830381600087803b15801561176957600080fd5b505af115801561177d573d6000803e3d6000fd5b50506040516370a0823160e01b8152600092506001600160a01b037f00000000000000000000000000000000000000000000000000000000000000001691506370a08231906117d0903090600401611ca2565b602060405180830381865afa1580156117ed573d6000803e3d6000fd5b505050506040513d601f19601f820116820180604052508101906118119190611ed8565b9050801561189457604051632e1a7d4d60e01b8152600481018290527f00000000000000000000000000000000000000000000000000000000000000006001600160a01b031690632e1a7d4d90602401600060405180830381600087803b15801561187b57600080fd5b505af115801561188f573d6000803e3d6000fd5b505050505b60065447906000906118a68584612125565b6118b0919061213c565b905083600660008282546118c491906120f5565b90915550600090508482116118da5760006118e4565b6118e485836120f5565b9050600060646118f5836014612125565b6118ff919061213c565b9050600061190d82856120f5565b604051909150339082156108fc029083906000818181858888f1935050505015801561193d573d6000803e3d6000fd5b5060408051858152602081018b905233917ff3a670cd3af7d64b488926880889d08a8585a138ff455227af6737339a1ec262910160405180910390a25050505050505050610f0f60018055565b611992611b7b565b6001600160a01b0381166119f75760405162461bcd60e51b815260206004820152602660248201527f4f776e61626c653a206e6577206f776e657220697320746865207a65726f206160448201526564647265737360d01b60648201526084016105ef565b610f0f81611bda565b611a08611b7b565b6002546001600160a01b031615611a4a5760405162461bcd60e51b81526020600482015260066024820152651391951cd95d60d21b60448201526064016105ef565b6001600160a01b038116611a705760405162461bcd60e51b81526004016105ef90611ff0565b600280546001600160a01b0319166001600160a01b0392909216919091179055565b3360009081526008602052604090205460ff1680611ac85750611ab3610f4e565b6001600160a01b0316336001600160a01b0316145b611ae45760405162461bcd60e51b81526004016105ef90611fb0565b6004805460ff60a01b1916600160a01b1790556040517fad7f2119f32a4d4ea449e8ddbaa29f3bc7880556916b566b102255064cb1c21d90600090a1565b600260015403611b745760405162461bcd60e51b815260206004820152601f60248201527f5265656e7472616e637947756172643a207265656e7472616e742063616c6c0060448201526064016105ef565b6002600155565b33611b84610f4e565b6001600160a01b0316146109e75760405162461bcd60e51b815260206004820181905260248201527f4f776e61626c653a2063616c6c6572206973206e6f7420746865206f776e657260448201526064016105ef565b600080546001600160a01b038381166001600160a01b0319831681178455604051919092169283917f8be0079c531659141344cd1fd0a4f28419497f9722a3daafe3b4186f6b6457e09190a35050565b828054828255906000526020600020908101928215611c7d579160200282015b82811115611c7d5781546001600160a01b0319166001600160a01b03843516178255602090920191600190910190611c4a565b50611c89929150611c8d565b5090565b5b80821115611c895760008155600101611c8e565b6001600160a01b0391909116815260200190565b600060208284031215611cc857600080fd5b5035919050565b6001600160a01b0381168114610f0f57600080fd5b600060208284031215611cf657600080fd5b8135611d0181611ccf565b9392505050565b60008083601f840112611d1a57600080fd5b5081356001600160401b03811115611d3157600080fd5b6020830191508360208260051b8501011115611d4c57600080fd5b9250929050565b60008060208385031215611d6657600080fd5b82356001600160401b03811115611d7c57600080fd5b611d8885828601611d08565b90969095509350505050565b8015158114610f0f57600080fd5b60008060408385031215611db557600080fd5b8235611dc081611ccf565b91506020830135611dd081611d94565b809150509250929050565b600080600060608486031215611df057600080fd5b8335611dfb81611ccf565b92506020840135611e0b81611ccf565b929592945050506040919091013590565b600060208284031215611e2e57600080fd5b8135611d0181611d94565b600080600080600080600060c0888a031215611e5457600080fd5b873596506020880135955060408801356001600160401b03811115611e7857600080fd5b611e848a828b01611d08565b9096509450506060880135611e9881611d94565b92506080880135611ea881611d94565b8092505060a0880135905092959891949750929550565b6001600160a01b03929092168252602082015260400190565b600060208284031215611eea57600080fd5b5051919050565b634e487b7160e01b600052601160045260246000fd5b80820180821115610a2857610a28611ef1565b634e487b7160e01b600052604160045260246000fd5b634e487b7160e01b600052603260045260246000fd5b600060018201611f5857611f58611ef1565b5060010190565b604080825283519082018190526000906020906060840190828701845b82811015611fa15781516001600160a01b031684529284019290840190600101611f7c565b50505092019290925292915050565b6020808252600990820152682737ba1030b236b4b760b91b604082015260600190565b600060208284031215611fe557600080fd5b8151611d0181611d94565b602080825260079082015266125b9d985b1a5960ca1b604082015260600190565b8183526000602080850194508260005b8581101561204f57813561203481611ccf565b6001600160a01b031687529582019590820190600101612021565b509495945050505050565b60208152600061206e602083018486612011565b949350505050565b88815287602082015260e06040820152600061209660e08301888a612011565b95151560608301525092151560808401526001600160a01b039190911660a083015260c090910152949350505050565b6000825160005b818110156120e757602081860181015185830152016120cd565b506000920191825250919050565b81810381811115610a2857610a28611ef1565b60006020828403121561211a57600080fd5b8151611d0181611ccf565b8082028115828204841417610a2857610a28611ef1565b60008261215957634e487b7160e01b600052601260045260246000fd5b50049056fea2646970667358221220368d0a9ffd73d1683fcae3ebfba95cb7d7c8b88a512b32d702f6285f52ca526564736f6c63430008150033a2646970667358221220c278f91f44c7c49d1b5e2e8d000283db1d0a5bd0fcfce4d08981e16539bb501b64736f6c63430008150033","opcodes":"PUSH1 0x80 PUSH1 0x40 MSTORE CALLVALUE DUP1 ISZERO PUSH3 0x11 JUMPI PUSH1 0x0 DUP1 REVERT JUMPDEST POP PUSH1 0x40 MLOAD PUSH3 0x6523 CODESIZE SUB DUP1 PUSH3 0x6523 DUP4 CODECOPY DUP2 ADD PUSH1 0x40 DUP2 SWAP1 MSTORE PUSH3 0x34 SWAP2 PUSH3 0x110 JUMP JUMPDEST PUSH3 0x3F CALLER PUSH3 0xC0 JUMP JUMPDEST PUSH1 0x1 PUSH1 0x1 PUSH1 0xA0 SHL SUB DUP2 AND PUSH3 0x9A JUMPI PUSH1 0x40 MLOAD PUSH3 0x461BCD PUSH1 0xE5 SHL DUP2 MSTORE PUSH1 0x20 PUSH1 0x4 DUP3 ADD MSTORE PUSH1 0x1B PUSH1 0x24 DUP3 ADD MSTORE PUSH32 0x496E76616C696420626174636820627579657220616464726573730000000000 PUSH1 0x44 DUP3 ADD MSTORE PUSH1 0x64 ADD PUSH1 0x40 MLOAD DUP1 SWAP2 SUB SWAP1 REVERT JUMPDEST PUSH1 0x4 DUP1 SLOAD PUSH1 0x1 PUSH1 0x1 PUSH1 0xA0 SHL SUB NOT AND PUSH1 0x1 PUSH1 0x1 PUSH1 0xA0 SHL SUB SWAP3 SWAP1 SWAP3 AND SWAP2 SWAP1 SWAP2 OR SWAP1 SSTORE PUSH3 0x142 JUMP JUMPDEST PUSH1 0x0 DUP1 SLOAD PUSH1 0x1 PUSH1 0x1 PUSH1 0xA0 SHL SUB DUP4 DUP2 AND PUSH1 0x1 PUSH1 0x1 PUSH1 0xA0 SHL SUB NOT DUP4 AND DUP2 OR DUP5 SSTORE PUSH1 0x40 MLOAD SWAP2 SWAP1 SWAP3 AND SWAP3 DUP4 SWAP2 PUSH32 0x8BE0079C531659141344CD1FD0A4F28419497F9722A3DAAFE3B4186F6B6457E0 SWAP2 SWAP1 LOG3 POP POP JUMP JUMPDEST PUSH1 0x0 PUSH1 0x20 DUP3 DUP5 SUB SLT ISZERO PUSH3 0x123 JUMPI PUSH1 0x0 DUP1 REVERT JUMPDEST DUP2 MLOAD PUSH1 0x1 PUSH1 0x1 PUSH1 0xA0 SHL SUB DUP2 AND DUP2 EQ PUSH3 0x13B JUMPI PUSH1 0x0 DUP1 REVERT JUMPDEST SWAP4 SWAP3 POP POP POP JUMP JUMPDEST PUSH2 0x63D1 DUP1 PUSH3 0x152 PUSH1 0x0 CODECOPY PUSH1 0x0 RETURN INVALID PUSH1 0x80 PUSH1 0x40 MSTORE CALLVALUE DUP1 ISZERO PUSH3 0x11 JUMPI PUSH1 0x0 DUP1 REVERT JUMPDEST POP PUSH1 0x4 CALLDATASIZE LT PUSH3 0xEE JUMPI PUSH1 0x0 CALLDATALOAD PUSH1 0xE0 SHR DUP1 PUSH4 0x6726CF4 EQ PUSH3 0xF3 JUMPI DUP1 PUSH4 0x22904B4A EQ PUSH3 0x10C JUMPI DUP1 PUSH4 0x24D7806C EQ PUSH3 0x13B JUMPI DUP1 PUSH4 0x258B051D EQ PUSH3 0x163 JUMPI DUP1 PUSH4 0x2EAD2908 EQ PUSH3 0x17A JUMPI DUP1 PUSH4 0x3788DCD1 EQ PUSH3 0x191 JUMPI DUP1 PUSH4 0x49560F96 EQ PUSH3 0x1AA JUMPI DUP1 PUSH4 0x610D728A EQ PUSH3 0x1C1 JUMPI DUP1 PUSH4 0x64219450 EQ PUSH3 0x1E8 JUMPI DUP1 PUSH4 0x6657FC67 EQ PUSH3 0x217 JUMPI DUP1 PUSH4 0x715018A6 EQ PUSH3 0x23D JUMPI DUP1 PUSH4 0x8DA5CB5B EQ PUSH3 0x247 JUMPI DUP1 PUSH4 0xA34A34AB EQ PUSH3 0x260 JUMPI DUP1 PUSH4 0xB914F6E4 EQ PUSH3 0x274 JUMPI DUP1 PUSH4 0xEAD8B024 EQ PUSH3 0x29F JUMPI DUP1 PUSH4 0xF2FDE38B EQ PUSH3 0x2B6 JUMPI DUP1 PUSH4 0xF3E6D2BD EQ PUSH3 0x2CD JUMPI JUMPDEST PUSH1 0x0 DUP1 REVERT JUMPDEST PUSH3 0x10A PUSH3 0x104 CALLDATASIZE PUSH1 0x4 PUSH3 0x141C JUMP JUMPDEST PUSH3 0x2E4 JUMP JUMPDEST STOP JUMPDEST PUSH3 0x123 PUSH3 0x11D CALLDATASIZE PUSH1 0x4 PUSH3 0x1522 JUMP JUMPDEST PUSH3 0xA08 JUMP JUMPDEST PUSH1 0x40 MLOAD PUSH3 0x132 SWAP2 SWAP1 PUSH3 0x15B6 JUMP JUMPDEST PUSH1 0x40 MLOAD DUP1 SWAP2 SUB SWAP1 RETURN JUMPDEST PUSH3 0x152 PUSH3 0x14C CALLDATASIZE PUSH1 0x4 PUSH3 0x15D2 JUMP JUMPDEST PUSH3 0xAC5 JUMP JUMPDEST PUSH1 0x40 MLOAD SWAP1 ISZERO ISZERO DUP2 MSTORE PUSH1 0x20 ADD PUSH3 0x132 JUMP JUMPDEST PUSH3 0x10A PUSH3 0x174 CALLDATASIZE PUSH1 0x4 PUSH3 0x15F0 JUMP JUMPDEST PUSH3 0xAEC JUMP JUMPDEST PUSH3 0x152 PUSH3 0x18B CALLDATASIZE PUSH1 0x4 PUSH3 0x1522 JUMP JUMPDEST PUSH3 0xBDA JUMP JUMPDEST PUSH3 0x19B PUSH3 0xC12 JUMP JUMPDEST PUSH1 0x40 MLOAD PUSH3 0x132 SWAP2 SWAP1 PUSH3 0x164B JUMP JUMPDEST PUSH3 0x123 PUSH3 0x1BB CALLDATASIZE PUSH1 0x4 PUSH3 0x16B1 JUMP JUMPDEST PUSH3 0xCF5 JUMP JUMPDEST PUSH3 0x1D8 PUSH3 0x1D2 CALLDATASIZE PUSH1 0x4 PUSH3 0x1522 JUMP JUMPDEST PUSH3 0xDAA JUMP JUMPDEST PUSH1 0x40 MLOAD PUSH3 0x132 SWAP3 SWAP2 SWAP1 PUSH3 0x16CB JUMP JUMPDEST PUSH3 0x152 PUSH3 0x1F9 CALLDATASIZE PUSH1 0x4 PUSH3 0x15D2 JUMP JUMPDEST PUSH1 0x1 PUSH1 0x1 PUSH1 0xA0 SHL SUB AND PUSH1 0x0 SWAP1 DUP2 MSTORE PUSH1 0x2 PUSH1 0x20 MSTORE PUSH1 0x40 SWAP1 KECCAK256 SLOAD PUSH1 0xFF AND SWAP1 JUMP JUMPDEST PUSH3 0x152 PUSH3 0x228 CALLDATASIZE PUSH1 0x4 PUSH3 0x15D2 JUMP JUMPDEST PUSH1 0x2 PUSH1 0x20 MSTORE PUSH1 0x0 SWAP1 DUP2 MSTORE PUSH1 0x40 SWAP1 KECCAK256 SLOAD PUSH1 0xFF AND DUP2 JUMP JUMPDEST PUSH3 0x10A PUSH3 0xF2D JUMP JUMPDEST PUSH3 0x251 PUSH3 0xF45 JUMP JUMPDEST PUSH1 0x40 MLOAD PUSH3 0x132 SWAP2 SWAP1 PUSH3 0x16E5 JUMP JUMPDEST PUSH1 0x4 SLOAD PUSH3 0x251 SWAP1 PUSH1 0x1 PUSH1 0x1 PUSH1 0xA0 SHL SUB AND DUP2 JUMP JUMPDEST PUSH3 0x28B PUSH3 0x285 CALLDATASIZE PUSH1 0x4 PUSH3 0x1522 JUMP JUMPDEST PUSH3 0xF54 JUMP JUMPDEST PUSH1 0x40 MLOAD PUSH3 0x132 SWAP7 SWAP6 SWAP5 SWAP4 SWAP3 SWAP2 SWAP1 PUSH3 0x16F9 JUMP JUMPDEST PUSH3 0x10A PUSH3 0x2B0 CALLDATASIZE PUSH1 0x4 PUSH3 0x15F0 JUMP JUMPDEST PUSH3 0x1042 JUMP JUMPDEST PUSH3 0x10A PUSH3 0x2C7 CALLDATASIZE PUSH1 0x4 PUSH3 0x15D2 JUMP JUMPDEST PUSH3 0x1129 JUMP JUMPDEST PUSH3 0x152 PUSH3 0x2DE CALLDATASIZE PUSH1 0x4 PUSH3 0x1522 JUMP JUMPDEST PUSH3 0x11A8 JUMP JUMPDEST PUSH3 0x2EE PUSH3 0x11E0 JUMP JUMPDEST PUSH1 0x0 PUSH1 0x1 PUSH1 0x1 PUSH1 0xA0 SHL SUB AND PUSH1 0x1 DUP9 PUSH1 0x40 MLOAD PUSH3 0x30B SWAP2 SWAP1 PUSH3 0x174B JUMP JUMPDEST SWAP1 DUP2 MSTORE PUSH1 0x40 MLOAD SWAP1 DUP2 SWAP1 SUB PUSH1 0x20 ADD SWAP1 KECCAK256 SLOAD PUSH1 0x1 PUSH1 0x1 PUSH1 0xA0 SHL SUB AND EQ PUSH3 0x374 JUMPI PUSH1 0x40 MLOAD PUSH3 0x461BCD PUSH1 0xE5 SHL DUP2 MSTORE PUSH1 0x20 PUSH1 0x4 DUP3 ADD MSTORE PUSH1 0x1A PUSH1 0x24 DUP3 ADD MSTORE PUSH26 0x436F6D7065746974696F6E20616C726561647920657869737473 PUSH1 0x30 SHL PUSH1 0x44 DUP3 ADD MSTORE PUSH1 0x64 ADD JUMPDEST PUSH1 0x40 MLOAD DUP1 SWAP2 SUB SWAP1 REVERT JUMPDEST PUSH1 0x0 DUP5 MLOAD GT PUSH3 0x3C4 JUMPI PUSH1 0x40 MLOAD PUSH3 0x461BCD PUSH1 0xE5 SHL DUP2 MSTORE PUSH1 0x20 PUSH1 0x4 DUP3 ADD MSTORE PUSH1 0x1A PUSH1 0x24 DUP3 ADD MSTORE PUSH26 0x139BC81A5B9A5D1A585B081D1BDAD95B9CC81C1C9BDD9A591959 PUSH1 0x32 SHL PUSH1 0x44 DUP3 ADD MSTORE PUSH1 0x64 ADD PUSH3 0x36B JUMP JUMPDEST PUSH1 0x1 PUSH1 0x1 PUSH1 0xA0 SHL SUB DUP4 AND PUSH3 0x413 JUMPI PUSH1 0x40 MLOAD PUSH3 0x461BCD PUSH1 0xE5 SHL DUP2 MSTORE PUSH1 0x20 PUSH1 0x4 DUP3 ADD MSTORE PUSH1 0x14 PUSH1 0x24 DUP3 ADD MSTORE PUSH20 0x496E76616C6964205743485A2061646472657373 PUSH1 0x60 SHL PUSH1 0x44 DUP3 ADD MSTORE PUSH1 0x64 ADD PUSH3 0x36B JUMP JUMPDEST PUSH1 0x1 PUSH1 0x1 PUSH1 0xA0 SHL SUB DUP3 AND PUSH3 0x464 JUMPI PUSH1 0x40 MLOAD PUSH3 0x461BCD PUSH1 0xE5 SHL DUP2 MSTORE PUSH1 0x20 PUSH1 0x4 DUP3 ADD MSTORE PUSH1 0x16 PUSH1 0x24 DUP3 ADD MSTORE PUSH22 0x496E76616C696420726F757465722061646472657373 PUSH1 0x50 SHL PUSH1 0x44 DUP3 ADD MSTORE PUSH1 0x64 ADD PUSH3 0x36B JUMP JUMPDEST PUSH1 0x0 JUMPDEST DUP5 MLOAD DUP2 LT ISZERO PUSH3 0x5C6 JUMPI PUSH1 0x0 PUSH1 0x1 PUSH1 0x1 PUSH1 0xA0 SHL SUB AND DUP6 DUP3 DUP2 MLOAD DUP2 LT PUSH3 0x491 JUMPI PUSH3 0x491 PUSH3 0x1769 JUMP JUMPDEST PUSH1 0x20 MUL PUSH1 0x20 ADD ADD MLOAD PUSH1 0x1 PUSH1 0x1 PUSH1 0xA0 SHL SUB AND SUB PUSH3 0x4EA JUMPI PUSH1 0x40 MLOAD PUSH3 0x461BCD PUSH1 0xE5 SHL DUP2 MSTORE PUSH1 0x20 PUSH1 0x4 DUP3 ADD MSTORE PUSH1 0x16 PUSH1 0x24 DUP3 ADD MSTORE PUSH22 0x16995C9BC81D1BDAD95B881B9BDD08185B1B1BDDD959 PUSH1 0x52 SHL PUSH1 0x44 DUP3 ADD MSTORE PUSH1 0x64 ADD PUSH3 0x36B JUMP JUMPDEST PUSH1 0x0 PUSH3 0x4F9 DUP3 PUSH1 0x1 PUSH3 0x1795 JUMP JUMPDEST SWAP1 POP JUMPDEST DUP6 MLOAD DUP2 LT ISZERO PUSH3 0x5B0 JUMPI DUP6 DUP2 DUP2 MLOAD DUP2 LT PUSH3 0x51B JUMPI PUSH3 0x51B PUSH3 0x1769 JUMP JUMPDEST PUSH1 0x20 MUL PUSH1 0x20 ADD ADD MLOAD PUSH1 0x1 PUSH1 0x1 PUSH1 0xA0 SHL SUB AND DUP7 DUP4 DUP2 MLOAD DUP2 LT PUSH3 0x541 JUMPI PUSH3 0x541 PUSH3 0x1769 JUMP JUMPDEST PUSH1 0x20 MUL PUSH1 0x20 ADD ADD MLOAD PUSH1 0x1 PUSH1 0x1 PUSH1 0xA0 SHL SUB AND SUB PUSH3 0x59B JUMPI PUSH1 0x40 MLOAD PUSH3 0x461BCD PUSH1 0xE5 SHL DUP2 MSTORE PUSH1 0x20 PUSH1 0x4 DUP3 ADD MSTORE PUSH1 0x17 PUSH1 0x24 DUP3 ADD MSTORE PUSH23 0x111D5C1B1A58D85D19481D1BDAD95B881A5B881B1A5CDD PUSH1 0x4A SHL PUSH1 0x44 DUP3 ADD MSTORE PUSH1 0x64 ADD PUSH3 0x36B JUMP JUMPDEST DUP1 PUSH3 0x5A7 DUP2 PUSH3 0x17B1 JUMP JUMPDEST SWAP2 POP POP PUSH3 0x4FC JUMP JUMPDEST POP DUP1 PUSH3 0x5BD DUP2 PUSH3 0x17B1 JUMP JUMPDEST SWAP2 POP POP PUSH3 0x467 JUMP JUMPDEST POP PUSH1 0x0 DUP7 DUP7 ADDRESS PUSH1 0x40 MLOAD PUSH3 0x5DA SWAP1 PUSH3 0x1293 JUMP JUMPDEST PUSH3 0x5E8 SWAP4 SWAP3 SWAP2 SWAP1 PUSH3 0x17CD JUMP JUMPDEST PUSH1 0x40 MLOAD DUP1 SWAP2 SUB SWAP1 PUSH1 0x0 CREATE DUP1 ISZERO DUP1 ISZERO PUSH3 0x605 JUMPI RETURNDATASIZE PUSH1 0x0 DUP1 RETURNDATACOPY RETURNDATASIZE PUSH1 0x0 REVERT JUMPDEST POP SWAP1 POP DUP1 PUSH1 0x1 PUSH1 0x1 PUSH1 0xA0 SHL SUB AND PUSH32 0xD032FF6C6382452131FC300CBDBC3AC57605DE779EBAE4D6E422CABB3B611A72 DUP9 DUP9 PUSH1 0x40 MLOAD PUSH3 0x645 SWAP3 SWAP2 SWAP1 PUSH3 0x180F JUMP JUMPDEST PUSH1 0x40 MLOAD DUP1 SWAP2 SUB SWAP1 LOG2 PUSH1 0x0 PUSH1 0x4 PUSH1 0x0 SWAP1 SLOAD SWAP1 PUSH2 0x100 EXP SWAP1 DIV PUSH1 0x1 PUSH1 0x1 PUSH1 0xA0 SHL SUB AND DUP3 DUP8 DUP8 DUP8 ADDRESS PUSH1 0x40 MLOAD PUSH3 0x678 SWAP1 PUSH3 0x12A1 JUMP JUMPDEST PUSH3 0x689 SWAP7 SWAP6 SWAP5 SWAP4 SWAP3 SWAP2 SWAP1 PUSH3 0x1841 JUMP JUMPDEST PUSH1 0x40 MLOAD DUP1 SWAP2 SUB SWAP1 PUSH1 0x0 CREATE DUP1 ISZERO DUP1 ISZERO PUSH3 0x6A6 JUMPI RETURNDATASIZE PUSH1 0x0 DUP1 RETURNDATACOPY RETURNDATASIZE PUSH1 0x0 REVERT JUMPDEST POP SWAP1 POP DUP1 PUSH1 0x1 PUSH1 0x1 PUSH1 0xA0 SHL SUB AND PUSH32 0x9D75E12E349F79020715B0EA7B2C707E8ACF1889B6D6F1337FCE7F4E1B9E5C7 DUP4 PUSH1 0x40 MLOAD PUSH3 0x6E4 SWAP2 SWAP1 PUSH3 0x16E5 JUMP JUMPDEST PUSH1 0x40 MLOAD DUP1 SWAP2 SUB SWAP1 LOG2 PUSH1 0x40 MLOAD PUSH4 0x6817031B PUSH1 0xE0 SHL DUP2 MSTORE PUSH1 0x1 PUSH1 0x1 PUSH1 0xA0 SHL SUB DUP4 AND SWAP1 PUSH4 0x6817031B SWAP1 PUSH3 0x71A SWAP1 DUP5 SWAP1 PUSH1 0x4 ADD PUSH3 0x16E5 JUMP JUMPDEST PUSH1 0x0 PUSH1 0x40 MLOAD DUP1 DUP4 SUB DUP2 PUSH1 0x0 DUP8 DUP1 EXTCODESIZE ISZERO DUP1 ISZERO PUSH3 0x735 JUMPI PUSH1 0x0 DUP1 REVERT JUMPDEST POP GAS CALL ISZERO DUP1 ISZERO PUSH3 0x74A JUMPI RETURNDATASIZE PUSH1 0x0 DUP1 RETURNDATACOPY RETURNDATASIZE PUSH1 0x0 REVERT JUMPDEST POP POP PUSH1 0x40 MLOAD PUSH4 0xF2FDE38B PUSH1 0xE0 SHL DUP2 MSTORE PUSH1 0x1 PUSH1 0x1 PUSH1 0xA0 SHL SUB DUP6 AND SWAP3 POP PUSH4 0xF2FDE38B SWAP2 POP PUSH3 0x77C SWAP1 CALLER SWAP1 PUSH1 0x4 ADD PUSH3 0x16E5 JUMP JUMPDEST PUSH1 0x0 PUSH1 0x40 MLOAD DUP1 DUP4 SUB DUP2 PUSH1 0x0 DUP8 DUP1 EXTCODESIZE ISZERO DUP1 ISZERO PUSH3 0x797 JUMPI PUSH1 0x0 DUP1 REVERT JUMPDEST POP GAS CALL ISZERO DUP1 ISZERO PUSH3 0x7AC JUMPI RETURNDATASIZE PUSH1 0x0 DUP1 RETURNDATACOPY RETURNDATASIZE PUSH1 0x0 REVERT JUMPDEST POP POP PUSH1 0x40 MLOAD PUSH4 0xF2FDE38B PUSH1 0xE0 SHL DUP2 MSTORE PUSH1 0x1 PUSH1 0x1 PUSH1 0xA0 SHL SUB DUP5 AND SWAP3 POP PUSH4 0xF2FDE38B SWAP2 POP PUSH3 0x7DE SWAP1 CALLER SWAP1 PUSH1 0x4 ADD PUSH3 0x16E5 JUMP JUMPDEST PUSH1 0x0 PUSH1 0x40 MLOAD DUP1 DUP4 SUB DUP2 PUSH1 0x0 DUP8 DUP1 EXTCODESIZE ISZERO DUP1 ISZERO PUSH3 0x7F9 JUMPI PUSH1 0x0 DUP1 REVERT JUMPDEST POP GAS CALL ISZERO DUP1 ISZERO PUSH3 0x80E JUMPI RETURNDATASIZE PUSH1 0x0 DUP1 RETURNDATACOPY RETURNDATASIZE PUSH1 0x0 REVERT JUMPDEST POP POP POP POP DUP2 PUSH1 0x1 PUSH1 0x1 PUSH1 0xA0 SHL SUB AND PUSH32 0x5BD3E5F8AFF6329582CB150503B92C8C9616DAF7310329846562203673E86EE4 DUP3 PUSH1 0x40 MLOAD PUSH3 0x84D SWAP2 SWAP1 PUSH3 0x16E5 JUMP JUMPDEST PUSH1 0x40 MLOAD DUP1 SWAP2 SUB SWAP1 LOG2 PUSH1 0x40 DUP1 MLOAD PUSH1 0xC0 DUP2 ADD DUP3 MSTORE PUSH1 0x1 PUSH1 0x1 PUSH1 0xA0 SHL SUB DUP1 DUP5 AND DUP3 MSTORE DUP5 AND PUSH1 0x20 DUP3 ADD MSTORE CALLER DUP2 DUP4 ADD MSTORE PUSH1 0x1 PUSH1 0x60 DUP3 ADD DUP2 SWAP1 MSTORE PUSH1 0x0 PUSH1 0x80 DUP4 ADD MSTORE PUSH1 0xA0 DUP3 ADD DUP7 SWAP1 MSTORE SWAP2 MLOAD SWAP1 SWAP2 SWAP1 PUSH3 0x8A1 SWAP1 DUP13 SWAP1 PUSH3 0x174B JUMP JUMPDEST SWAP1 DUP2 MSTORE PUSH1 0x40 DUP1 MLOAD PUSH1 0x20 SWAP3 DUP2 SWAP1 SUB DUP4 ADD SWAP1 KECCAK256 DUP4 MLOAD DUP2 SLOAD PUSH1 0x1 PUSH1 0x1 PUSH1 0xA0 SHL SUB NOT SWAP1 DUP2 AND PUSH1 0x1 PUSH1 0x1 PUSH1 0xA0 SHL SUB SWAP3 DUP4 AND OR DUP4 SSTORE SWAP4 DUP6 ADD MLOAD PUSH1 0x1 DUP4 ADD DUP1 SLOAD SWAP1 SWAP6 AND SWAP1 DUP3 AND OR SWAP1 SWAP4 SSTORE SWAP1 DUP4 ADD MLOAD PUSH1 0x2 DUP3 ADD DUP1 SLOAD PUSH1 0x60 DUP7 ADD MLOAD PUSH1 0x80 DUP8 ADD MLOAD SWAP4 SWAP1 SWAP6 AND PUSH1 0x1 PUSH1 0x1 PUSH1 0xA8 SHL SUB NOT SWAP1 SWAP2 AND OR PUSH1 0x1 PUSH1 0xA0 SHL SWAP5 ISZERO ISZERO SWAP5 SWAP1 SWAP5 MUL SWAP4 SWAP1 SWAP4 OR PUSH1 0xFF PUSH1 0xA8 SHL NOT AND PUSH1 0x1 PUSH1 0xA8 SHL SWAP2 ISZERO ISZERO SWAP2 SWAP1 SWAP2 MUL OR SWAP1 SWAP2 SSTORE PUSH1 0xA0 DUP3 ADD MLOAD PUSH1 0x3 DUP3 ADD SWAP1 PUSH3 0x946 SWAP1 DUP3 PUSH3 0x195F JUMP JUMPDEST POP POP POP PUSH1 0x1 PUSH1 0x1 PUSH1 0xA0 SHL SUB DUP2 AND PUSH1 0x0 SWAP1 DUP2 MSTORE PUSH1 0x2 PUSH1 0x20 MSTORE PUSH1 0x40 DUP2 KECCAK256 DUP1 SLOAD PUSH1 0xFF NOT AND PUSH1 0x1 SWAP1 DUP2 OR SWAP1 SWAP2 SSTORE PUSH1 0x3 DUP1 SLOAD SWAP2 DUP3 ADD DUP2 SSTORE SWAP1 SWAP2 MSTORE PUSH32 0xC2575A0E9E593C00F959F8C92F12DB2869C3395A3B0502D05E2516446F71F85B ADD PUSH3 0x9A9 DUP11 DUP3 PUSH3 0x195F JUMP JUMPDEST POP DUP9 PUSH1 0x40 MLOAD PUSH3 0x9BA SWAP2 SWAP1 PUSH3 0x174B JUMP JUMPDEST PUSH1 0x40 MLOAD DUP1 SWAP2 SUB SWAP1 KECCAK256 PUSH32 0x8F1AC2F997AF16EF58C5E9368269EEAAE904557FD37470989B6180249D2EED9C DUP3 DUP5 PUSH1 0x40 MLOAD PUSH3 0x9F5 SWAP3 SWAP2 SWAP1 PUSH3 0x16CB JUMP JUMPDEST PUSH1 0x40 MLOAD DUP1 SWAP2 SUB SWAP1 LOG2 POP POP POP POP POP POP POP POP POP JUMP JUMPDEST PUSH1 0x60 PUSH1 0x1 DUP3 PUSH1 0x40 MLOAD PUSH3 0xA1C SWAP2 SWAP1 PUSH3 0x174B JUMP JUMPDEST SWAP1 DUP2 MSTORE PUSH1 0x20 ADD PUSH1 0x40 MLOAD DUP1 SWAP2 SUB SWAP1 KECCAK256 PUSH1 0x3 ADD DUP1 SLOAD PUSH3 0xA3A SWAP1 PUSH3 0x18D0 JUMP JUMPDEST DUP1 PUSH1 0x1F ADD PUSH1 0x20 DUP1 SWAP2 DIV MUL PUSH1 0x20 ADD PUSH1 0x40 MLOAD SWAP1 DUP2 ADD PUSH1 0x40 MSTORE DUP1 SWAP3 SWAP2 SWAP1 DUP2 DUP2 MSTORE PUSH1 0x20 ADD DUP3 DUP1 SLOAD PUSH3 0xA68 SWAP1 PUSH3 0x18D0 JUMP JUMPDEST DUP1 ISZERO PUSH3 0xAB9 JUMPI DUP1 PUSH1 0x1F LT PUSH3 0xA8D JUMPI PUSH2 0x100 DUP1 DUP4 SLOAD DIV MUL DUP4 MSTORE SWAP2 PUSH1 0x20 ADD SWAP2 PUSH3 0xAB9 JUMP JUMPDEST DUP3 ADD SWAP2 SWAP1 PUSH1 0x0 MSTORE PUSH1 0x20 PUSH1 0x0 KECCAK256 SWAP1 JUMPDEST DUP2 SLOAD DUP2 MSTORE SWAP1 PUSH1 0x1 ADD SWAP1 PUSH1 0x20 ADD DUP1 DUP4 GT PUSH3 0xA9B JUMPI DUP3 SWAP1 SUB PUSH1 0x1F AND DUP3 ADD SWAP2 JUMPDEST POP POP POP POP POP SWAP1 POP SWAP2 SWAP1 POP JUMP JUMPDEST PUSH1 0x0 PUSH3 0xAD1 PUSH3 0xF45 JUMP JUMPDEST PUSH1 0x1 PUSH1 0x1 PUSH1 0xA0 SHL SUB AND DUP3 PUSH1 0x1 PUSH1 0x1 PUSH1 0xA0 SHL SUB AND EQ SWAP1 POP SWAP2 SWAP1 POP JUMP JUMPDEST PUSH3 0xAF6 PUSH3 0x11E0 JUMP JUMPDEST PUSH1 0x0 PUSH1 0x1 PUSH1 0x1 PUSH1 0xA0 SHL SUB AND PUSH1 0x1 DUP4 PUSH1 0x40 MLOAD PUSH3 0xB13 SWAP2 SWAP1 PUSH3 0x174B JUMP JUMPDEST SWAP1 DUP2 MSTORE PUSH1 0x40 MLOAD SWAP1 DUP2 SWAP1 SUB PUSH1 0x20 ADD SWAP1 KECCAK256 SLOAD PUSH1 0x1 PUSH1 0x1 PUSH1 0xA0 SHL SUB AND SUB PUSH3 0xB4C JUMPI PUSH1 0x40 MLOAD PUSH3 0x461BCD PUSH1 0xE5 SHL DUP2 MSTORE PUSH1 0x4 ADD PUSH3 0x36B SWAP1 PUSH3 0x1A2B JUMP JUMPDEST DUP1 PUSH1 0x1 DUP4 PUSH1 0x40 MLOAD PUSH3 0xB5F SWAP2 SWAP1 PUSH3 0x174B JUMP JUMPDEST SWAP1 DUP2 MSTORE PUSH1 0x40 MLOAD SWAP1 DUP2 SWAP1 SUB PUSH1 0x20 ADD DUP2 KECCAK256 PUSH1 0x2 ADD DUP1 SLOAD SWAP3 ISZERO ISZERO PUSH1 0x1 PUSH1 0xA8 SHL MUL PUSH1 0xFF PUSH1 0xA8 SHL NOT SWAP1 SWAP4 AND SWAP3 SWAP1 SWAP3 OR SWAP1 SWAP2 SSTORE PUSH3 0xB99 SWAP1 DUP4 SWAP1 PUSH3 0x174B JUMP JUMPDEST PUSH1 0x40 MLOAD SWAP1 DUP2 SWAP1 SUB DUP2 KECCAK256 DUP3 ISZERO ISZERO DUP3 MSTORE SWAP1 PUSH32 0x456F620EE57671992BDC01835602B221DB112D6AC9C33877A24D268D21B450BF SWAP1 PUSH1 0x20 ADD JUMPDEST PUSH1 0x40 MLOAD DUP1 SWAP2 SUB SWAP1 LOG2 POP POP JUMP JUMPDEST PUSH1 0x0 PUSH1 0x1 DUP3 PUSH1 0x40 MLOAD PUSH3 0xBEE SWAP2 SWAP1 PUSH3 0x174B JUMP JUMPDEST SWAP1 DUP2 MSTORE PUSH1 0x40 MLOAD SWAP1 DUP2 SWAP1 SUB PUSH1 0x20 ADD SWAP1 KECCAK256 PUSH1 0x2 ADD SLOAD PUSH1 0xFF PUSH1 0x1 PUSH1 0xA0 SHL SWAP1 SWAP2 DIV AND SWAP3 SWAP2 POP POP JUMP JUMPDEST PUSH1 0x60 PUSH1 0x3 DUP1 SLOAD DUP1 PUSH1 0x20 MUL PUSH1 0x20 ADD PUSH1 0x40 MLOAD SWAP1 DUP2 ADD PUSH1 0x40 MSTORE DUP1 SWAP3 SWAP2 SWAP1 DUP2 DUP2 MSTORE PUSH1 0x20 ADD PUSH1 0x0 SWAP1 JUMPDEST DUP3 DUP3 LT ISZERO PUSH3 0xCEC JUMPI DUP4 DUP3 SWAP1 PUSH1 0x0 MSTORE PUSH1 0x20 PUSH1 0x0 KECCAK256 ADD DUP1 SLOAD PUSH3 0xC58 SWAP1 PUSH3 0x18D0 JUMP JUMPDEST DUP1 PUSH1 0x1F ADD PUSH1 0x20 DUP1 SWAP2 DIV MUL PUSH1 0x20 ADD PUSH1 0x40 MLOAD SWAP1 DUP2 ADD PUSH1 0x40 MSTORE DUP1 SWAP3 SWAP2 SWAP1 DUP2 DUP2 MSTORE PUSH1 0x20 ADD DUP3 DUP1 SLOAD PUSH3 0xC86 SWAP1 PUSH3 0x18D0 JUMP JUMPDEST DUP1 ISZERO PUSH3 0xCD7 JUMPI DUP1 PUSH1 0x1F LT PUSH3 0xCAB JUMPI PUSH2 0x100 DUP1 DUP4 SLOAD DIV MUL DUP4 MSTORE SWAP2 PUSH1 0x20 ADD SWAP2 PUSH3 0xCD7 JUMP JUMPDEST DUP3 ADD SWAP2 SWAP1 PUSH1 0x0 MSTORE PUSH1 0x20 PUSH1 0x0 KECCAK256 SWAP1 JUMPDEST DUP2 SLOAD DUP2 MSTORE SWAP1 PUSH1 0x1 ADD SWAP1 PUSH1 0x20 ADD DUP1 DUP4 GT PUSH3 0xCB9 JUMPI DUP3 SWAP1 SUB PUSH1 0x1F AND DUP3 ADD SWAP2 JUMPDEST POP POP POP POP POP DUP2 MSTORE PUSH1 0x20 ADD SWAP1 PUSH1 0x1 ADD SWAP1 PUSH3 0xC36 JUMP JUMPDEST POP POP POP POP SWAP1 POP SWAP1 JUMP JUMPDEST PUSH1 0x3 DUP2 DUP2 SLOAD DUP2 LT PUSH3 0xD06 JUMPI PUSH1 0x0 DUP1 REVERT JUMPDEST SWAP1 PUSH1 0x0 MSTORE PUSH1 0x20 PUSH1 0x0 KECCAK256 ADD PUSH1 0x0 SWAP2 POP SWAP1 POP DUP1 SLOAD PUSH3 0xD23 SWAP1 PUSH3 0x18D0 JUMP JUMPDEST DUP1 PUSH1 0x1F ADD PUSH1 0x20 DUP1 SWAP2 DIV MUL PUSH1 0x20 ADD PUSH1 0x40 MLOAD SWAP1 DUP2 ADD PUSH1 0x40 MSTORE DUP1 SWAP3 SWAP2 SWAP1 DUP2 DUP2 MSTORE PUSH1 0x20 ADD DUP3 DUP1 SLOAD PUSH3 0xD51 SWAP1 PUSH3 0x18D0 JUMP JUMPDEST DUP1 ISZERO PUSH3 0xDA2 JUMPI DUP1 PUSH1 0x1F LT PUSH3 0xD76 JUMPI PUSH2 0x100 DUP1 DUP4 SLOAD DIV MUL DUP4 MSTORE SWAP2 PUSH1 0x20 ADD SWAP2 PUSH3 0xDA2 JUMP JUMPDEST DUP3 ADD SWAP2 SWAP1 PUSH1 0x0 MSTORE PUSH1 0x20 PUSH1 0x0 KECCAK256 SWAP1 JUMPDEST DUP2 SLOAD DUP2 MSTORE SWAP1 PUSH1 0x1 ADD SWAP1 PUSH1 0x20 ADD DUP1 DUP4 GT PUSH3 0xD84 JUMPI DUP3 SWAP1 SUB PUSH1 0x1F AND DUP3 ADD SWAP2 JUMPDEST POP POP POP POP POP DUP2 JUMP JUMPDEST PUSH1 0x0 DUP1 PUSH1 0x0 PUSH1 0x1 DUP5 PUSH1 0x40 MLOAD PUSH3 0xDC1 SWAP2 SWAP1 PUSH3 0x174B JUMP JUMPDEST SWAP1 DUP2 MSTORE PUSH1 0x40 DUP1 MLOAD SWAP2 DUP3 SWAP1 SUB PUSH1 0x20 SWAP1 DUP2 ADD DUP4 KECCAK256 PUSH1 0xC0 DUP5 ADD DUP4 MSTORE DUP1 SLOAD PUSH1 0x1 PUSH1 0x1 PUSH1 0xA0 SHL SUB SWAP1 DUP2 AND DUP6 MSTORE PUSH1 0x1 DUP3 ADD SLOAD DUP2 AND SWAP3 DUP6 ADD SWAP3 SWAP1 SWAP3 MSTORE PUSH1 0x2 DUP2 ADD SLOAD SWAP2 DUP3 AND SWAP3 DUP5 ADD SWAP3 SWAP1 SWAP3 MSTORE PUSH1 0xFF PUSH1 0x1 PUSH1 0xA0 SHL DUP3 DIV DUP2 AND ISZERO ISZERO PUSH1 0x60 DUP6 ADD MSTORE PUSH1 0x1 PUSH1 0xA8 SHL SWAP1 SWAP2 DIV AND ISZERO ISZERO PUSH1 0x80 DUP4 ADD MSTORE PUSH1 0x3 DUP2 ADD DUP1 SLOAD PUSH1 0xA0 DUP5 ADD SWAP2 SWAP1 PUSH3 0xE3E SWAP1 PUSH3 0x18D0 JUMP JUMPDEST DUP1 PUSH1 0x1F ADD PUSH1 0x20 DUP1 SWAP2 DIV MUL PUSH1 0x20 ADD PUSH1 0x40 MLOAD SWAP1 DUP2 ADD PUSH1 0x40 MSTORE DUP1 SWAP3 SWAP2 SWAP1 DUP2 DUP2 MSTORE PUSH1 0x20 ADD DUP3 DUP1 SLOAD PUSH3 0xE6C SWAP1 PUSH3 0x18D0 JUMP JUMPDEST DUP1 ISZERO PUSH3 0xEBD JUMPI DUP1 PUSH1 0x1F LT PUSH3 0xE91 JUMPI PUSH2 0x100 DUP1 DUP4 SLOAD DIV MUL DUP4 MSTORE SWAP2 PUSH1 0x20 ADD SWAP2 PUSH3 0xEBD JUMP JUMPDEST DUP3 ADD SWAP2 SWAP1 PUSH1 0x0 MSTORE PUSH1 0x20 PUSH1 0x0 KECCAK256 SWAP1 JUMPDEST DUP2 SLOAD DUP2 MSTORE SWAP1 PUSH1 0x1 ADD SWAP1 PUSH1 0x20 ADD DUP1 DUP4 GT PUSH3 0xE9F JUMPI DUP3 SWAP1 SUB PUSH1 0x1F AND DUP3 ADD SWAP2 JUMPDEST POP POP POP SWAP2 SWAP1 SWAP3 MSTORE POP POP DUP2 MLOAD SWAP2 SWAP3 POP POP PUSH1 0x1 PUSH1 0x1 PUSH1 0xA0 SHL SUB AND PUSH3 0xF1B JUMPI PUSH1 0x40 MLOAD PUSH3 0x461BCD PUSH1 0xE5 SHL DUP2 MSTORE PUSH1 0x20 PUSH1 0x4 DUP3 ADD MSTORE PUSH1 0x15 PUSH1 0x24 DUP3 ADD MSTORE PUSH21 0x10DBDB5C195D1A5D1A5BDB881B9BDD08199BDD5B99 PUSH1 0x5A SHL PUSH1 0x44 DUP3 ADD MSTORE PUSH1 0x64 ADD PUSH3 0x36B JUMP JUMPDEST DUP1 MLOAD PUSH1 0x20 SWAP1 SWAP2 ADD MLOAD SWAP1 SWAP5 SWAP1 SWAP4 POP SWAP2 POP POP JUMP JUMPDEST PUSH3 0xF37 PUSH3 0x11E0 JUMP JUMPDEST PUSH3 0xF43 PUSH1 0x0 PUSH3 0x1243 JUMP JUMPDEST JUMP JUMPDEST PUSH1 0x0 SLOAD PUSH1 0x1 PUSH1 0x1 PUSH1 0xA0 SHL SUB AND SWAP1 JUMP JUMPDEST DUP1 MLOAD DUP1 DUP3 ADD PUSH1 0x20 SWAP1 DUP2 ADD DUP1 MLOAD PUSH1 0x1 DUP1 DUP4 MSTORE SWAP4 DUP4 ADD SWAP3 SWAP1 SWAP5 ADD SWAP2 SWAP1 SWAP2 KECCAK256 SWAP3 SWAP1 MSTORE DUP2 SLOAD SWAP1 DUP3 ADD SLOAD PUSH1 0x2 DUP4 ADD SLOAD PUSH1 0x3 DUP5 ADD DUP1 SLOAD PUSH1 0x1 PUSH1 0x1 PUSH1 0xA0 SHL SUB SWAP5 DUP6 AND SWAP6 SWAP4 DUP6 AND SWAP5 DUP4 AND SWAP4 PUSH1 0xFF PUSH1 0x1 PUSH1 0xA0 SHL DUP6 DIV DUP2 AND SWAP5 PUSH1 0x1 PUSH1 0xA8 SHL SWAP1 DIV AND SWAP3 SWAP1 SWAP2 PUSH3 0xFB9 SWAP1 PUSH3 0x18D0 JUMP JUMPDEST DUP1 PUSH1 0x1F ADD PUSH1 0x20 DUP1 SWAP2 DIV MUL PUSH1 0x20 ADD PUSH1 0x40 MLOAD SWAP1 DUP2 ADD PUSH1 0x40 MSTORE DUP1 SWAP3 SWAP2 SWAP1 DUP2 DUP2 MSTORE PUSH1 0x20 ADD DUP3 DUP1 SLOAD PUSH3 0xFE7 SWAP1 PUSH3 0x18D0 JUMP JUMPDEST DUP1 ISZERO PUSH3 0x1038 JUMPI DUP1 PUSH1 0x1F LT PUSH3 0x100C JUMPI PUSH2 0x100 DUP1 DUP4 SLOAD DIV MUL DUP4 MSTORE SWAP2 PUSH1 0x20 ADD SWAP2 PUSH3 0x1038 JUMP JUMPDEST DUP3 ADD SWAP2 SWAP1 PUSH1 0x0 MSTORE PUSH1 0x20 PUSH1 0x0 KECCAK256 SWAP1 JUMPDEST DUP2 SLOAD DUP2 MSTORE SWAP1 PUSH1 0x1 ADD SWAP1 PUSH1 0x20 ADD DUP1 DUP4 GT PUSH3 0x101A JUMPI DUP3 SWAP1 SUB PUSH1 0x1F AND DUP3 ADD SWAP2 JUMPDEST POP POP POP POP POP SWAP1 POP DUP7 JUMP JUMPDEST PUSH3 0x104C PUSH3 0x11E0 JUMP JUMPDEST PUSH1 0x0 PUSH1 0x1 PUSH1 0x1 PUSH1 0xA0 SHL SUB AND PUSH1 0x1 DUP4 PUSH1 0x40 MLOAD PUSH3 0x1069 SWAP2 SWAP1 PUSH3 0x174B JUMP JUMPDEST SWAP1 DUP2 MSTORE PUSH1 0x40 MLOAD SWAP1 DUP2 SWAP1 SUB PUSH1 0x20 ADD SWAP1 KECCAK256 SLOAD PUSH1 0x1 PUSH1 0x1 PUSH1 0xA0 SHL SUB AND SUB PUSH3 0x10A2 JUMPI PUSH1 0x40 MLOAD PUSH3 0x461BCD PUSH1 0xE5 SHL DUP2 MSTORE PUSH1 0x4 ADD PUSH3 0x36B SWAP1 PUSH3 0x1A2B JUMP JUMPDEST DUP1 PUSH1 0x1 DUP4 PUSH1 0x40 MLOAD PUSH3 0x10B5 SWAP2 SWAP1 PUSH3 0x174B JUMP JUMPDEST SWAP1 DUP2 MSTORE PUSH1 0x40 MLOAD SWAP1 DUP2 SWAP1 SUB PUSH1 0x20 ADD DUP2 KECCAK256 PUSH1 0x2 ADD DUP1 SLOAD SWAP3 ISZERO ISZERO PUSH1 0x1 PUSH1 0xA0 SHL MUL PUSH1 0xFF PUSH1 0xA0 SHL NOT SWAP1 SWAP4 AND SWAP3 SWAP1 SWAP3 OR SWAP1 SWAP2 SSTORE PUSH3 0x10EF SWAP1 DUP4 SWAP1 PUSH3 0x174B JUMP JUMPDEST PUSH1 0x40 MLOAD SWAP1 DUP2 SWAP1 SUB DUP2 KECCAK256 DUP3 ISZERO ISZERO DUP3 MSTORE SWAP1 PUSH32 0x69F6EA1141150E1F6BB797204241D236C9E464272178EC6DC477FEA9DF653F40 SWAP1 PUSH1 0x20 ADD PUSH3 0xBCE JUMP JUMPDEST PUSH3 0x1133 PUSH3 0x11E0 JUMP JUMPDEST PUSH1 0x1 PUSH1 0x1 PUSH1 0xA0 SHL SUB DUP2 AND PUSH3 0x119A JUMPI PUSH1 0x40 MLOAD PUSH3 0x461BCD PUSH1 0xE5 SHL DUP2 MSTORE PUSH1 0x20 PUSH1 0x4 DUP3 ADD MSTORE PUSH1 0x26 PUSH1 0x24 DUP3 ADD MSTORE PUSH32 0x4F776E61626C653A206E6577206F776E657220697320746865207A65726F2061 PUSH1 0x44 DUP3 ADD MSTORE PUSH6 0x646472657373 PUSH1 0xD0 SHL PUSH1 0x64 DUP3 ADD MSTORE PUSH1 0x84 ADD PUSH3 0x36B JUMP JUMPDEST PUSH3 0x11A5 DUP2 PUSH3 0x1243 JUMP JUMPDEST POP JUMP JUMPDEST PUSH1 0x0 PUSH1 0x1 DUP3 PUSH1 0x40 MLOAD PUSH3 0x11BC SWAP2 SWAP1 PUSH3 0x174B JUMP JUMPDEST SWAP1 DUP2 MSTORE PUSH1 0x40 MLOAD SWAP1 DUP2 SWAP1 SUB PUSH1 0x20 ADD SWAP1 KECCAK256 PUSH1 0x2 ADD SLOAD PUSH1 0xFF PUSH1 0x1 PUSH1 0xA8 SHL SWAP1 SWAP2 DIV AND SWAP3 SWAP2 POP POP JUMP JUMPDEST CALLER PUSH3 0x11EB PUSH3 0xF45 JUMP JUMPDEST PUSH1 0x1 PUSH1 0x1 PUSH1 0xA0 SHL SUB AND EQ PUSH3 0xF43 JUMPI PUSH1 0x40 MLOAD PUSH3 0x461BCD PUSH1 0xE5 SHL DUP2 MSTORE PUSH1 0x20 PUSH1 0x4 DUP3 ADD DUP2 SWAP1 MSTORE PUSH1 0x24 DUP3 ADD MSTORE PUSH32 0x4F776E61626C653A2063616C6C6572206973206E6F7420746865206F776E6572 PUSH1 0x44 DUP3 ADD MSTORE PUSH1 0x64 ADD PUSH3 0x36B JUMP JUMPDEST PUSH1 0x0 DUP1 SLOAD PUSH1 0x1 PUSH1 0x1 PUSH1 0xA0 SHL SUB DUP4 DUP2 AND PUSH1 0x1 PUSH1 0x1 PUSH1 0xA0 SHL SUB NOT DUP4 AND DUP2 OR DUP5 SSTORE PUSH1 0x40 MLOAD SWAP2 SWAP1 SWAP3 AND SWAP3 DUP4 SWAP2 PUSH32 0x8BE0079C531659141344CD1FD0A4F28419497F9722A3DAAFE3B4186F6B6457E0 SWAP2 SWAP1 LOG3 POP POP JUMP JUMPDEST PUSH2 0x2324 DUP1 PUSH3 0x1A60 DUP4 CODECOPY ADD SWAP1 JUMP JUMPDEST PUSH2 0x2618 DUP1 PUSH3 0x3D84 DUP4 CODECOPY ADD SWAP1 JUMP JUMPDEST PUSH4 0x4E487B71 PUSH1 0xE0 SHL PUSH1 0x0 MSTORE PUSH1 0x41 PUSH1 0x4 MSTORE PUSH1 0x24 PUSH1 0x0 REVERT JUMPDEST PUSH1 0x40 MLOAD PUSH1 0x1F DUP3 ADD PUSH1 0x1F NOT AND DUP2 ADD PUSH1 0x1 PUSH1 0x1 PUSH1 0x40 SHL SUB DUP2 GT DUP3 DUP3 LT OR ISZERO PUSH3 0x12F0 JUMPI PUSH3 0x12F0 PUSH3 0x12AF JUMP JUMPDEST PUSH1 0x40 MSTORE SWAP2 SWAP1 POP JUMP JUMPDEST PUSH1 0x0 DUP3 PUSH1 0x1F DUP4 ADD SLT PUSH3 0x130A JUMPI PUSH1 0x0 DUP1 REVERT JUMPDEST DUP2 CALLDATALOAD PUSH1 0x1 PUSH1 0x1 PUSH1 0x40 SHL SUB DUP2 GT ISZERO PUSH3 0x1326 JUMPI PUSH3 0x1326 PUSH3 0x12AF JUMP JUMPDEST PUSH3 0x133B PUSH1 0x1F DUP3 ADD PUSH1 0x1F NOT AND PUSH1 0x20 ADD PUSH3 0x12C5 JUMP JUMPDEST DUP2 DUP2 MSTORE DUP5 PUSH1 0x20 DUP4 DUP7 ADD ADD GT ISZERO PUSH3 0x1351 JUMPI PUSH1 0x0 DUP1 REVERT JUMPDEST DUP2 PUSH1 0x20 DUP6 ADD PUSH1 0x20 DUP4 ADD CALLDATACOPY PUSH1 0x0 SWAP2 DUP2 ADD PUSH1 0x20 ADD SWAP2 SWAP1 SWAP2 MSTORE SWAP4 SWAP3 POP POP POP JUMP JUMPDEST DUP1 CALLDATALOAD PUSH1 0x1 PUSH1 0x1 PUSH1 0xA0 SHL SUB DUP2 AND DUP2 EQ PUSH3 0x1386 JUMPI PUSH1 0x0 DUP1 REVERT JUMPDEST SWAP2 SWAP1 POP JUMP JUMPDEST PUSH1 0x0 DUP3 PUSH1 0x1F DUP4 ADD SLT PUSH3 0x139D JUMPI PUSH1 0x0 DUP1 REVERT JUMPDEST DUP2 CALLDATALOAD PUSH1 0x20 PUSH1 0x1 PUSH1 0x1 PUSH1 0x40 SHL SUB DUP3 GT ISZERO PUSH3 0x13BB JUMPI PUSH3 0x13BB PUSH3 0x12AF JUMP JUMPDEST DUP2 PUSH1 0x5 SHL PUSH3 0x13CC DUP3 DUP3 ADD PUSH3 0x12C5 JUMP JUMPDEST SWAP3 DUP4 MSTORE DUP5 DUP2 ADD DUP3 ADD SWAP3 DUP3 DUP2 ADD SWAP1 DUP8 DUP6 GT ISZERO PUSH3 0x13E7 JUMPI PUSH1 0x0 DUP1 REVERT JUMPDEST DUP4 DUP8 ADD SWAP3 POP JUMPDEST DUP5 DUP4 LT ISZERO PUSH3 0x1411 JUMPI PUSH3 0x1401 DUP4 PUSH3 0x136E JUMP JUMPDEST DUP3 MSTORE SWAP2 DUP4 ADD SWAP2 SWAP1 DUP4 ADD SWAP1 PUSH3 0x13ED JUMP JUMPDEST SWAP8 SWAP7 POP POP POP POP POP POP POP JUMP JUMPDEST PUSH1 0x0 DUP1 PUSH1 0x0 DUP1 PUSH1 0x0 DUP1 PUSH1 0x0 PUSH1 0xE0 DUP9 DUP11 SUB SLT ISZERO PUSH3 0x1438 JUMPI PUSH1 0x0 DUP1 REVERT JUMPDEST DUP8 CALLDATALOAD PUSH1 0x1 PUSH1 0x1 PUSH1 0x40 SHL SUB DUP1 DUP3 GT ISZERO PUSH3 0x1450 JUMPI PUSH1 0x0 DUP1 REVERT JUMPDEST PUSH3 0x145E DUP12 DUP4 DUP13 ADD PUSH3 0x12F8 JUMP JUMPDEST SWAP9 POP PUSH1 0x20 DUP11 ADD CALLDATALOAD SWAP2 POP DUP1 DUP3 GT ISZERO PUSH3 0x1475 JUMPI PUSH1 0x0 DUP1 REVERT JUMPDEST PUSH3 0x1483 DUP12 DUP4 DUP13 ADD PUSH3 0x12F8 JUMP JUMPDEST SWAP8 POP PUSH1 0x40 DUP11 ADD CALLDATALOAD SWAP2 POP DUP1 DUP3 GT ISZERO PUSH3 0x149A JUMPI PUSH1 0x0 DUP1 REVERT JUMPDEST PUSH3 0x14A8 DUP12 DUP4 DUP13 ADD PUSH3 0x12F8 JUMP JUMPDEST SWAP7 POP PUSH1 0x60 DUP11 ADD CALLDATALOAD SWAP2 POP DUP1 DUP3 GT ISZERO PUSH3 0x14BF JUMPI PUSH1 0x0 DUP1 REVERT JUMPDEST PUSH3 0x14CD DUP12 DUP4 DUP13 ADD PUSH3 0x138B JUMP JUMPDEST SWAP6 POP PUSH3 0x14DD PUSH1 0x80 DUP12 ADD PUSH3 0x136E JUMP JUMPDEST SWAP5 POP PUSH3 0x14ED PUSH1 0xA0 DUP12 ADD PUSH3 0x136E JUMP JUMPDEST SWAP4 POP PUSH1 0xC0 DUP11 ADD CALLDATALOAD SWAP2 POP DUP1 DUP3 GT ISZERO PUSH3 0x1504 JUMPI PUSH1 0x0 DUP1 REVERT JUMPDEST POP PUSH3 0x1513 DUP11 DUP3 DUP12 ADD PUSH3 0x12F8 JUMP JUMPDEST SWAP2 POP POP SWAP3 SWAP6 SWAP9 SWAP2 SWAP5 SWAP8 POP SWAP3 SWAP6 POP JUMP JUMPDEST PUSH1 0x0 PUSH1 0x20 DUP3 DUP5 SUB SLT ISZERO PUSH3 0x1535 JUMPI PUSH1 0x0 DUP1 REVERT JUMPDEST DUP2 CALLDATALOAD PUSH1 0x1 PUSH1 0x1 PUSH1 0x40 SHL SUB DUP2 GT ISZERO PUSH3 0x154C JUMPI PUSH1 0x0 DUP1 REVERT JUMPDEST PUSH3 0x155A DUP5 DUP3 DUP6 ADD PUSH3 0x12F8 JUMP JUMPDEST SWAP5 SWAP4 POP POP POP POP JUMP JUMPDEST PUSH1 0x0 JUMPDEST DUP4 DUP2 LT ISZERO PUSH3 0x157F JUMPI DUP2 DUP2 ADD MLOAD DUP4 DUP3 ADD MSTORE PUSH1 0x20 ADD PUSH3 0x1565 JUMP JUMPDEST POP POP PUSH1 0x0 SWAP2 ADD MSTORE JUMP JUMPDEST PUSH1 0x0 DUP2 MLOAD DUP1 DUP5 MSTORE PUSH3 0x15A2 DUP2 PUSH1 0x20 DUP7 ADD PUSH1 0x20 DUP7 ADD PUSH3 0x1562 JUMP JUMPDEST PUSH1 0x1F ADD PUSH1 0x1F NOT AND SWAP3 SWAP1 SWAP3 ADD PUSH1 0x20 ADD SWAP3 SWAP2 POP POP JUMP JUMPDEST PUSH1 0x20 DUP2 MSTORE PUSH1 0x0 PUSH3 0x15CB PUSH1 0x20 DUP4 ADD DUP5 PUSH3 0x1588 JUMP JUMPDEST SWAP4 SWAP3 POP POP POP JUMP JUMPDEST PUSH1 0x0 PUSH1 0x20 DUP3 DUP5 SUB SLT ISZERO PUSH3 0x15E5 JUMPI PUSH1 0x0 DUP1 REVERT JUMPDEST PUSH3 0x15CB DUP3 PUSH3 0x136E JUMP JUMPDEST PUSH1 0x0 DUP1 PUSH1 0x40 DUP4 DUP6 SUB SLT ISZERO PUSH3 0x1604 JUMPI PUSH1 0x0 DUP1 REVERT JUMPDEST DUP3 CALLDATALOAD PUSH1 0x1 PUSH1 0x1 PUSH1 0x40 SHL SUB DUP2 GT ISZERO PUSH3 0x161B JUMPI PUSH1 0x0 DUP1 REVERT JUMPDEST PUSH3 0x1629 DUP6 DUP3 DUP7 ADD PUSH3 0x12F8 JUMP JUMPDEST SWAP3 POP POP PUSH1 0x20 DUP4 ADD CALLDATALOAD DUP1 ISZERO ISZERO DUP2 EQ PUSH3 0x1640 JUMPI PUSH1 0x0 DUP1 REVERT JUMPDEST DUP1 SWAP2 POP POP SWAP3 POP SWAP3 SWAP1 POP JUMP JUMPDEST PUSH1 0x0 PUSH1 0x20 DUP1 DUP4 ADD DUP2 DUP5 MSTORE DUP1 DUP6 MLOAD DUP1 DUP4 MSTORE PUSH1 0x40 DUP7 ADD SWAP2 POP PUSH1 0x40 DUP2 PUSH1 0x5 SHL DUP8 ADD ADD SWAP3 POP DUP4 DUP8 ADD PUSH1 0x0 JUMPDEST DUP3 DUP2 LT ISZERO PUSH3 0x16A4 JUMPI PUSH1 0x3F NOT DUP9 DUP7 SUB ADD DUP5 MSTORE PUSH3 0x1691 DUP6 DUP4 MLOAD PUSH3 0x1588 JUMP JUMPDEST SWAP5 POP SWAP3 DUP6 ADD SWAP3 SWAP1 DUP6 ADD SWAP1 PUSH1 0x1 ADD PUSH3 0x1672 JUMP JUMPDEST POP SWAP3 SWAP8 SWAP7 POP POP POP POP POP POP POP JUMP JUMPDEST PUSH1 0x0 PUSH1 0x20 DUP3 DUP5 SUB SLT ISZERO PUSH3 0x16C4 JUMPI PUSH1 0x0 DUP1 REVERT JUMPDEST POP CALLDATALOAD SWAP2 SWAP1 POP JUMP JUMPDEST PUSH1 0x1 PUSH1 0x1 PUSH1 0xA0 SHL SUB SWAP3 DUP4 AND DUP2 MSTORE SWAP2 AND PUSH1 0x20 DUP3 ADD MSTORE PUSH1 0x40 ADD SWAP1 JUMP JUMPDEST PUSH1 0x1 PUSH1 0x1 PUSH1 0xA0 SHL SUB SWAP2 SWAP1 SWAP2 AND DUP2 MSTORE PUSH1 0x20 ADD SWAP1 JUMP JUMPDEST PUSH1 0x1 PUSH1 0x1 PUSH1 0xA0 SHL SUB DUP8 DUP2 AND DUP3 MSTORE DUP7 DUP2 AND PUSH1 0x20 DUP4 ADD MSTORE DUP6 AND PUSH1 0x40 DUP3 ADD MSTORE DUP4 ISZERO ISZERO PUSH1 0x60 DUP3 ADD MSTORE DUP3 ISZERO ISZERO PUSH1 0x80 DUP3 ADD MSTORE PUSH1 0xC0 PUSH1 0xA0 DUP3 ADD DUP2 SWAP1 MSTORE PUSH1 0x0 SWAP1 PUSH3 0x173F SWAP1 DUP4 ADD DUP5 PUSH3 0x1588 JUMP JUMPDEST SWAP9 SWAP8 POP POP POP POP POP POP POP POP JUMP JUMPDEST PUSH1 0x0 DUP3 MLOAD PUSH3 0x175F DUP2 DUP5 PUSH1 0x20 DUP8 ADD PUSH3 0x1562 JUMP JUMPDEST SWAP2 SWAP1 SWAP2 ADD SWAP3 SWAP2 POP POP JUMP JUMPDEST PUSH4 0x4E487B71 PUSH1 0xE0 SHL PUSH1 0x0 MSTORE PUSH1 0x32 PUSH1 0x4 MSTORE PUSH1 0x24 PUSH1 0x0 REVERT JUMPDEST PUSH4 0x4E487B71 PUSH1 0xE0 SHL PUSH1 0x0 MSTORE PUSH1 0x11 PUSH1 0x4 MSTORE PUSH1 0x24 PUSH1 0x0 REVERT JUMPDEST DUP1 DUP3 ADD DUP1 DUP3 GT ISZERO PUSH3 0x17AB JUMPI PUSH3 0x17AB PUSH3 0x177F JUMP JUMPDEST SWAP3 SWAP2 POP POP JUMP JUMPDEST PUSH1 0x0 PUSH1 0x1 DUP3 ADD PUSH3 0x17C6 JUMPI PUSH3 0x17C6 PUSH3 0x177F JUMP JUMPDEST POP PUSH1 0x1 ADD SWAP1 JUMP JUMPDEST PUSH1 0x60 DUP2 MSTORE PUSH1 0x0 PUSH3 0x17E2 PUSH1 0x60 DUP4 ADD DUP7 PUSH3 0x1588 JUMP JUMPDEST DUP3 DUP2 SUB PUSH1 0x20 DUP5 ADD MSTORE PUSH3 0x17F6 DUP2 DUP7 PUSH3 0x1588 JUMP JUMPDEST SWAP2 POP POP PUSH1 0x1 DUP1 PUSH1 0xA0 SHL SUB DUP4 AND PUSH1 0x40 DUP4 ADD MSTORE SWAP5 SWAP4 POP POP POP POP JUMP JUMPDEST PUSH1 0x40 DUP2 MSTORE PUSH1 0x0 PUSH3 0x1824 PUSH1 0x40 DUP4 ADD DUP6 PUSH3 0x1588 JUMP JUMPDEST DUP3 DUP2 SUB PUSH1 0x20 DUP5 ADD MSTORE PUSH3 0x1838 DUP2 DUP6 PUSH3 0x1588 JUMP JUMPDEST SWAP6 SWAP5 POP POP POP POP POP JUMP JUMPDEST PUSH1 0x0 PUSH1 0xC0 DUP3 ADD PUSH1 0x1 DUP1 PUSH1 0xA0 SHL SUB DUP1 DUP11 AND DUP5 MSTORE PUSH1 0x20 DUP2 DUP11 AND DUP2 DUP7 ADD MSTORE PUSH1 0xC0 PUSH1 0x40 DUP7 ADD MSTORE DUP3 DUP10 MLOAD DUP1 DUP6 MSTORE PUSH1 0xE0 DUP8 ADD SWAP2 POP DUP3 DUP12 ADD SWAP5 POP PUSH1 0x0 JUMPDEST DUP2 DUP2 LT ISZERO PUSH3 0x1897 JUMPI DUP6 MLOAD DUP6 AND DUP4 MSTORE SWAP5 DUP4 ADD SWAP5 SWAP2 DUP4 ADD SWAP2 PUSH1 0x1 ADD PUSH3 0x1877 JUMP JUMPDEST POP POP SWAP2 DUP9 AND PUSH1 0x60 DUP7 ADD MSTORE POP PUSH1 0x1 PUSH1 0x1 PUSH1 0xA0 SHL SUB DUP7 AND PUSH1 0x80 DUP6 ADD MSTORE SWAP2 POP PUSH3 0x18BB SWAP1 POP JUMP JUMPDEST PUSH1 0x1 PUSH1 0x1 PUSH1 0xA0 SHL SUB DUP4 AND PUSH1 0xA0 DUP4 ADD MSTORE PUSH3 0x1411 JUMP JUMPDEST PUSH1 0x1 DUP2 DUP2 SHR SWAP1 DUP3 AND DUP1 PUSH3 0x18E5 JUMPI PUSH1 0x7F DUP3 AND SWAP2 POP JUMPDEST PUSH1 0x20 DUP3 LT DUP2 SUB PUSH3 0x1906 JUMPI PUSH4 0x4E487B71 PUSH1 0xE0 SHL PUSH1 0x0 MSTORE PUSH1 0x22 PUSH1 0x4 MSTORE PUSH1 0x24 PUSH1 0x0 REVERT JUMPDEST POP SWAP2 SWAP1 POP JUMP JUMPDEST PUSH1 0x1F DUP3 GT ISZERO PUSH3 0x195A JUMPI PUSH1 0x0 DUP2 DUP2 MSTORE PUSH1 0x20 DUP2 KECCAK256 PUSH1 0x1F DUP6 ADD PUSH1 0x5 SHR DUP2 ADD PUSH1 0x20 DUP7 LT ISZERO PUSH3 0x1935 JUMPI POP DUP1 JUMPDEST PUSH1 0x1F DUP6 ADD PUSH1 0x5 SHR DUP3 ADD SWAP2 POP JUMPDEST DUP2 DUP2 LT ISZERO PUSH3 0x1956 JUMPI DUP3 DUP2 SSTORE PUSH1 0x1 ADD PUSH3 0x1941 JUMP JUMPDEST POP POP POP JUMPDEST POP POP POP JUMP JUMPDEST DUP2 MLOAD PUSH1 0x1 PUSH1 0x1 PUSH1 0x40 SHL SUB DUP2 GT ISZERO PUSH3 0x197B JUMPI PUSH3 0x197B PUSH3 0x12AF JUMP JUMPDEST PUSH3 0x1993 DUP2 PUSH3 0x198C DUP5 SLOAD PUSH3 0x18D0 JUMP JUMPDEST DUP5 PUSH3 0x190C JUMP JUMPDEST PUSH1 0x20 DUP1 PUSH1 0x1F DUP4 GT PUSH1 0x1 DUP2 EQ PUSH3 0x19CB JUMPI PUSH1 0x0 DUP5 ISZERO PUSH3 0x19B2 JUMPI POP DUP6 DUP4 ADD MLOAD JUMPDEST PUSH1 0x0 NOT PUSH1 0x3 DUP7 SWAP1 SHL SHR NOT AND PUSH1 0x1 DUP6 SWAP1 SHL OR DUP6 SSTORE PUSH3 0x1956 JUMP JUMPDEST PUSH1 0x0 DUP6 DUP2 MSTORE PUSH1 0x20 DUP2 KECCAK256 PUSH1 0x1F NOT DUP7 AND SWAP2 JUMPDEST DUP3 DUP2 LT ISZERO PUSH3 0x19FC JUMPI DUP9 DUP7 ADD MLOAD DUP3 SSTORE SWAP5 DUP5 ADD SWAP5 PUSH1 0x1 SWAP1 SWAP2 ADD SWAP1 DUP5 ADD PUSH3 0x19DB JUMP JUMPDEST POP DUP6 DUP3 LT ISZERO PUSH3 0x1A1B JUMPI DUP8 DUP6 ADD MLOAD PUSH1 0x0 NOT PUSH1 0x3 DUP9 SWAP1 SHL PUSH1 0xF8 AND SHR NOT AND DUP2 SSTORE JUMPDEST POP POP POP POP POP PUSH1 0x1 SWAP1 DUP2 SHL ADD SWAP1 SSTORE POP JUMP JUMPDEST PUSH1 0x20 DUP1 DUP3 MSTORE PUSH1 0x1A SWAP1 DUP3 ADD MSTORE PUSH26 0x10DBDB5C195D1A5D1A5BDB88191BD95CC81B9BDD08195E1A5CDD PUSH1 0x32 SHL PUSH1 0x40 DUP3 ADD MSTORE PUSH1 0x60 ADD SWAP1 JUMP INVALID PUSH1 0x80 PUSH1 0x40 MSTORE CALLVALUE DUP1 ISZERO PUSH3 0x11 JUMPI PUSH1 0x0 DUP1 REVERT JUMPDEST POP PUSH1 0x40 MLOAD PUSH3 0x2324 CODESIZE SUB DUP1 PUSH3 0x2324 DUP4 CODECOPY DUP2 ADD PUSH1 0x40 DUP2 SWAP1 MSTORE PUSH3 0x34 SWAP2 PUSH3 0x194 JUMP JUMPDEST DUP3 DUP3 PUSH1 0x0 PUSH3 0x44 DUP4 DUP3 PUSH3 0x2B0 JUMP JUMPDEST POP PUSH1 0x1 PUSH3 0x53 DUP3 DUP3 PUSH3 0x2B0 JUMP JUMPDEST POP POP POP PUSH3 0x70 PUSH3 0x6A PUSH3 0x79 PUSH1 0x20 SHL PUSH1 0x20 SHR JUMP JUMPDEST PUSH3 0x7D JUMP JUMPDEST POP POP POP PUSH3 0x37C JUMP JUMPDEST CALLER SWAP1 JUMP JUMPDEST PUSH1 0x7 DUP1 SLOAD PUSH1 0x1 PUSH1 0x1 PUSH1 0xA0 SHL SUB DUP4 DUP2 AND PUSH1 0x1 PUSH1 0x1 PUSH1 0xA0 SHL SUB NOT DUP4 AND DUP2 OR SWAP1 SWAP4 SSTORE PUSH1 0x40 MLOAD SWAP2 AND SWAP2 SWAP1 DUP3 SWAP1 PUSH32 0x8BE0079C531659141344CD1FD0A4F28419497F9722A3DAAFE3B4186F6B6457E0 SWAP1 PUSH1 0x0 SWAP1 LOG3 POP POP JUMP JUMPDEST PUSH4 0x4E487B71 PUSH1 0xE0 SHL PUSH1 0x0 MSTORE PUSH1 0x41 PUSH1 0x4 MSTORE PUSH1 0x24 PUSH1 0x0 REVERT JUMPDEST PUSH1 0x0 DUP3 PUSH1 0x1F DUP4 ADD SLT PUSH3 0xF7 JUMPI PUSH1 0x0 DUP1 REVERT JUMPDEST DUP2 MLOAD PUSH1 0x1 PUSH1 0x1 PUSH1 0x40 SHL SUB DUP1 DUP3 GT ISZERO PUSH3 0x114 JUMPI PUSH3 0x114 PUSH3 0xCF JUMP JUMPDEST PUSH1 0x40 MLOAD PUSH1 0x1F DUP4 ADD PUSH1 0x1F NOT SWAP1 DUP2 AND PUSH1 0x3F ADD AND DUP2 ADD SWAP1 DUP3 DUP3 GT DUP2 DUP4 LT OR ISZERO PUSH3 0x13F JUMPI PUSH3 0x13F PUSH3 0xCF JUMP JUMPDEST DUP2 PUSH1 0x40 MSTORE DUP4 DUP2 MSTORE PUSH1 0x20 SWAP3 POP DUP7 DUP4 DUP6 DUP9 ADD ADD GT ISZERO PUSH3 0x15C JUMPI PUSH1 0x0 DUP1 REVERT JUMPDEST PUSH1 0x0 SWAP2 POP JUMPDEST DUP4 DUP3 LT ISZERO PUSH3 0x180 JUMPI DUP6 DUP3 ADD DUP4 ADD MLOAD DUP2 DUP4 ADD DUP5 ADD MSTORE SWAP1 DUP3 ADD SWAP1 PUSH3 0x161 JUMP JUMPDEST PUSH1 0x0 SWAP4 DUP2 ADD SWAP1 SWAP3 ADD SWAP3 SWAP1 SWAP3 MSTORE SWAP5 SWAP4 POP POP POP POP JUMP JUMPDEST PUSH1 0x0 DUP1 PUSH1 0x0 PUSH1 0x60 DUP5 DUP7 SUB SLT ISZERO PUSH3 0x1AA JUMPI PUSH1 0x0 DUP1 REVERT JUMPDEST DUP4 MLOAD PUSH1 0x1 PUSH1 0x1 PUSH1 0x40 SHL SUB DUP1 DUP3 GT ISZERO PUSH3 0x1C2 JUMPI PUSH1 0x0 DUP1 REVERT JUMPDEST PUSH3 0x1D0 DUP8 DUP4 DUP9 ADD PUSH3 0xE5 JUMP JUMPDEST SWAP5 POP PUSH1 0x20 DUP7 ADD MLOAD SWAP2 POP DUP1 DUP3 GT ISZERO PUSH3 0x1E7 JUMPI PUSH1 0x0 DUP1 REVERT JUMPDEST POP PUSH3 0x1F6 DUP7 DUP3 DUP8 ADD PUSH3 0xE5 JUMP JUMPDEST PUSH1 0x40 DUP7 ADD MLOAD SWAP1 SWAP4 POP SWAP1 POP PUSH1 0x1 PUSH1 0x1 PUSH1 0xA0 SHL SUB DUP2 AND DUP2 EQ PUSH3 0x216 JUMPI PUSH1 0x0 DUP1 REVERT JUMPDEST DUP1 SWAP2 POP POP SWAP3 POP SWAP3 POP SWAP3 JUMP JUMPDEST PUSH1 0x1 DUP2 DUP2 SHR SWAP1 DUP3 AND DUP1 PUSH3 0x236 JUMPI PUSH1 0x7F DUP3 AND SWAP2 POP JUMPDEST PUSH1 0x20 DUP3 LT DUP2 SUB PUSH3 0x257 JUMPI PUSH4 0x4E487B71 PUSH1 0xE0 SHL PUSH1 0x0 MSTORE PUSH1 0x22 PUSH1 0x4 MSTORE PUSH1 0x24 PUSH1 0x0 REVERT JUMPDEST POP SWAP2 SWAP1 POP JUMP JUMPDEST PUSH1 0x1F DUP3 GT ISZERO PUSH3 0x2AB JUMPI PUSH1 0x0 DUP2 DUP2 MSTORE PUSH1 0x20 DUP2 KECCAK256 PUSH1 0x1F DUP6 ADD PUSH1 0x5 SHR DUP2 ADD PUSH1 0x20 DUP7 LT ISZERO PUSH3 0x286 JUMPI POP DUP1 JUMPDEST PUSH1 0x1F DUP6 ADD PUSH1 0x5 SHR DUP3 ADD SWAP2 POP JUMPDEST DUP2 DUP2 LT ISZERO PUSH3 0x2A7 JUMPI DUP3 DUP2 SSTORE PUSH1 0x1 ADD PUSH3 0x292 JUMP JUMPDEST POP POP POP JUMPDEST POP POP POP JUMP JUMPDEST DUP2 MLOAD PUSH1 0x1 PUSH1 0x1 PUSH1 0x40 SHL SUB DUP2 GT ISZERO PUSH3 0x2CC JUMPI PUSH3 0x2CC PUSH3 0xCF JUMP JUMPDEST PUSH3 0x2E4 DUP2 PUSH3 0x2DD DUP5 SLOAD PUSH3 0x221 JUMP JUMPDEST DUP5 PUSH3 0x25D JUMP JUMPDEST PUSH1 0x20 DUP1 PUSH1 0x1F DUP4 GT PUSH1 0x1 DUP2 EQ PUSH3 0x31C JUMPI PUSH1 0x0 DUP5 ISZERO PUSH3 0x303 JUMPI POP DUP6 DUP4 ADD MLOAD JUMPDEST PUSH1 0x0 NOT PUSH1 0x3 DUP7 SWAP1 SHL SHR NOT AND PUSH1 0x1 DUP6 SWAP1 SHL OR DUP6 SSTORE PUSH3 0x2A7 JUMP JUMPDEST PUSH1 0x0 DUP6 DUP2 MSTORE PUSH1 0x20 DUP2 KECCAK256 PUSH1 0x1F NOT DUP7 AND SWAP2 JUMPDEST DUP3 DUP2 LT ISZERO PUSH3 0x34D JUMPI DUP9 DUP7 ADD MLOAD DUP3 SSTORE SWAP5 DUP5 ADD SWAP5 PUSH1 0x1 SWAP1 SWAP2 ADD SWAP1 DUP5 ADD PUSH3 0x32C JUMP JUMPDEST POP DUP6 DUP3 LT ISZERO PUSH3 0x36C JUMPI DUP8 DUP6 ADD MLOAD PUSH1 0x0 NOT PUSH1 0x3 DUP9 SWAP1 SHL PUSH1 0xF8 AND SHR NOT AND DUP2 SSTORE JUMPDEST POP POP POP POP POP PUSH1 0x1 SWAP1 DUP2 SHL ADD SWAP1 SSTORE POP JUMP JUMPDEST PUSH2 0x1F98 DUP1 PUSH3 0x38C PUSH1 0x0 CODECOPY PUSH1 0x0 RETURN INVALID PUSH1 0x80 PUSH1 0x40 MSTORE CALLVALUE DUP1 ISZERO PUSH2 0x10 JUMPI PUSH1 0x0 DUP1 REVERT JUMPDEST POP PUSH1 0x4 CALLDATASIZE LT PUSH2 0x159 JUMPI PUSH1 0x0 CALLDATALOAD PUSH1 0xE0 SHR DUP1 PUSH4 0x6352211E GT PUSH2 0xC9 JUMPI DUP1 PUSH4 0x6352211E EQ PUSH2 0x298 JUMPI DUP1 PUSH4 0x6817031B EQ PUSH2 0x2AB JUMPI DUP1 PUSH4 0x70A08231 EQ PUSH2 0x2BE JUMPI DUP1 PUSH4 0x715018A6 EQ PUSH2 0x2D1 JUMPI DUP1 PUSH4 0x8D928AF8 EQ PUSH2 0x2D9 JUMPI DUP1 PUSH4 0x8DA5CB5B EQ PUSH2 0x2EA JUMPI DUP1 PUSH4 0x95D89B41 EQ PUSH2 0x2FB JUMPI DUP1 PUSH4 0xA22CB465 EQ PUSH2 0x303 JUMPI DUP1 PUSH4 0xB88D4FDE EQ PUSH2 0x316 JUMPI DUP1 PUSH4 0xC87B56DD EQ PUSH2 0x329 JUMPI DUP1 PUSH4 0xD547CFB7 EQ PUSH2 0x33C JUMPI DUP1 PUSH4 0xE985E9C5 EQ PUSH2 0x344 JUMPI DUP1 PUSH4 0xF2FDE38B EQ PUSH2 0x357 JUMPI DUP1 PUSH4 0xFBFA77CF EQ PUSH2 0x36A JUMPI PUSH1 0x0 DUP1 REVERT JUMPDEST DUP1 PUSH4 0x1FFC9A7 EQ PUSH2 0x15E JUMPI DUP1 PUSH4 0x5E33738 EQ PUSH2 0x186 JUMPI DUP1 PUSH4 0x6FDDE03 EQ PUSH2 0x1B4 JUMPI DUP1 PUSH4 0x81812FC EQ PUSH2 0x1C9 JUMPI DUP1 PUSH4 0x95EA7B3 EQ PUSH2 0x1E9 JUMPI DUP1 PUSH4 0x18E97FD1 EQ PUSH2 0x1FE JUMPI DUP1 PUSH4 0x23B872DD EQ PUSH2 0x211 JUMPI DUP1 PUSH4 0x30176E13 EQ PUSH2 0x224 JUMPI DUP1 PUSH4 0x40C10F19 EQ PUSH2 0x237 JUMPI DUP1 PUSH4 0x42842E0E EQ PUSH2 0x24A JUMPI DUP1 PUSH4 0x42966C68 EQ PUSH2 0x25D JUMPI DUP1 PUSH4 0x45EF1492 EQ PUSH2 0x270 JUMPI DUP1 PUSH4 0x56189236 EQ PUSH2 0x290 JUMPI JUMPDEST PUSH1 0x0 DUP1 REVERT JUMPDEST PUSH2 0x171 PUSH2 0x16C CALLDATASIZE PUSH1 0x4 PUSH2 0x17A2 JUMP JUMPDEST PUSH2 0x37D JUMP JUMPDEST PUSH1 0x40 MLOAD SWAP1 ISZERO ISZERO DUP2 MSTORE PUSH1 0x20 ADD JUMPDEST PUSH1 0x40 MLOAD DUP1 SWAP2 SUB SWAP1 RETURN JUMPDEST PUSH2 0x1A6 PUSH2 0x194 CALLDATASIZE PUSH1 0x4 PUSH2 0x17BF JUMP JUMPDEST PUSH1 0x0 SWAP1 DUP2 MSTORE PUSH1 0xB PUSH1 0x20 MSTORE PUSH1 0x40 SWAP1 KECCAK256 SLOAD SWAP1 JUMP JUMPDEST PUSH1 0x40 MLOAD SWAP1 DUP2 MSTORE PUSH1 0x20 ADD PUSH2 0x17D JUMP JUMPDEST PUSH2 0x1BC PUSH2 0x3A8 JUMP JUMPDEST PUSH1 0x40 MLOAD PUSH2 0x17D SWAP2 SWAP1 PUSH2 0x1828 JUMP JUMPDEST PUSH2 0x1DC PUSH2 0x1D7 CALLDATASIZE PUSH1 0x4 PUSH2 0x17BF JUMP JUMPDEST PUSH2 0x43A JUMP JUMPDEST PUSH1 0x40 MLOAD PUSH2 0x17D SWAP2 SWAP1 PUSH2 0x183B JUMP JUMPDEST PUSH2 0x1FC PUSH2 0x1F7 CALLDATASIZE PUSH1 0x4 PUSH2 0x186B JUMP JUMPDEST PUSH2 0x461 JUMP JUMPDEST STOP JUMPDEST PUSH2 0x1FC PUSH2 0x20C CALLDATASIZE PUSH1 0x4 PUSH2 0x1940 JUMP JUMPDEST PUSH2 0x57B JUMP JUMPDEST PUSH2 0x1FC PUSH2 0x21F CALLDATASIZE PUSH1 0x4 PUSH2 0x1986 JUMP JUMPDEST PUSH2 0x665 JUMP JUMPDEST PUSH2 0x1FC PUSH2 0x232 CALLDATASIZE PUSH1 0x4 PUSH2 0x19C2 JUMP JUMPDEST PUSH2 0x696 JUMP JUMPDEST PUSH2 0x1A6 PUSH2 0x245 CALLDATASIZE PUSH1 0x4 PUSH2 0x186B JUMP JUMPDEST PUSH2 0x706 JUMP JUMPDEST PUSH2 0x1FC PUSH2 0x258 CALLDATASIZE PUSH1 0x4 PUSH2 0x1986 JUMP JUMPDEST PUSH2 0x89A JUMP JUMPDEST PUSH2 0x1FC PUSH2 0x26B CALLDATASIZE PUSH1 0x4 PUSH2 0x17BF JUMP JUMPDEST PUSH2 0x8B5 JUMP JUMPDEST PUSH2 0x1A6 PUSH2 0x27E CALLDATASIZE PUSH1 0x4 PUSH2 0x17BF JUMP JUMPDEST PUSH1 0xB PUSH1 0x20 MSTORE PUSH1 0x0 SWAP1 DUP2 MSTORE PUSH1 0x40 SWAP1 KECCAK256 SLOAD DUP2 JUMP JUMPDEST PUSH1 0x8 SLOAD PUSH2 0x1A6 JUMP JUMPDEST PUSH2 0x1DC PUSH2 0x2A6 CALLDATASIZE PUSH1 0x4 PUSH2 0x17BF JUMP JUMPDEST PUSH2 0x92B JUMP JUMPDEST PUSH2 0x1FC PUSH2 0x2B9 CALLDATASIZE PUSH1 0x4 PUSH2 0x19F6 JUMP JUMPDEST PUSH2 0x95F JUMP JUMPDEST PUSH2 0x1A6 PUSH2 0x2CC CALLDATASIZE PUSH1 0x4 PUSH2 0x19F6 JUMP JUMPDEST PUSH2 0xA45 JUMP JUMPDEST PUSH2 0x1FC PUSH2 0xACB JUMP JUMPDEST PUSH1 0x9 SLOAD PUSH1 0x1 PUSH1 0x1 PUSH1 0xA0 SHL SUB AND PUSH2 0x1DC JUMP JUMPDEST PUSH1 0x7 SLOAD PUSH1 0x1 PUSH1 0x1 PUSH1 0xA0 SHL SUB AND PUSH2 0x1DC JUMP JUMPDEST PUSH2 0x1BC PUSH2 0xADF JUMP JUMPDEST PUSH2 0x1FC PUSH2 0x311 CALLDATASIZE PUSH1 0x4 PUSH2 0x1A11 JUMP JUMPDEST PUSH2 0xAEE JUMP JUMPDEST PUSH2 0x1FC PUSH2 0x324 CALLDATASIZE PUSH1 0x4 PUSH2 0x1A4D JUMP JUMPDEST PUSH2 0xAFD JUMP JUMPDEST PUSH2 0x1BC PUSH2 0x337 CALLDATASIZE PUSH1 0x4 PUSH2 0x17BF JUMP JUMPDEST PUSH2 0xB35 JUMP JUMPDEST PUSH2 0x1BC PUSH2 0xC45 JUMP JUMPDEST PUSH2 0x171 PUSH2 0x352 CALLDATASIZE PUSH1 0x4 PUSH2 0x1AC8 JUMP JUMPDEST PUSH2 0xCD3 JUMP JUMPDEST PUSH2 0x1FC PUSH2 0x365 CALLDATASIZE PUSH1 0x4 PUSH2 0x19F6 JUMP JUMPDEST PUSH2 0xD01 JUMP JUMPDEST PUSH1 0x9 SLOAD PUSH2 0x1DC SWAP1 PUSH1 0x1 PUSH1 0x1 PUSH1 0xA0 SHL SUB AND DUP2 JUMP JUMPDEST PUSH1 0x0 PUSH1 0x1 PUSH1 0x1 PUSH1 0xE0 SHL SUB NOT DUP3 AND PUSH4 0x24832483 PUSH1 0xE1 SHL EQ DUP1 PUSH2 0x3A2 JUMPI POP PUSH2 0x3A2 DUP3 PUSH2 0xD7A JUMP JUMPDEST SWAP3 SWAP2 POP POP JUMP JUMPDEST PUSH1 0x60 PUSH1 0x0 DUP1 SLOAD PUSH2 0x3B7 SWAP1 PUSH2 0x1AFB JUMP JUMPDEST DUP1 PUSH1 0x1F ADD PUSH1 0x20 DUP1 SWAP2 DIV MUL PUSH1 0x20 ADD PUSH1 0x40 MLOAD SWAP1 DUP2 ADD PUSH1 0x40 MSTORE DUP1 SWAP3 SWAP2 SWAP1 DUP2 DUP2 MSTORE PUSH1 0x20 ADD DUP3 DUP1 SLOAD PUSH2 0x3E3 SWAP1 PUSH2 0x1AFB JUMP JUMPDEST DUP1 ISZERO PUSH2 0x430 JUMPI DUP1 PUSH1 0x1F LT PUSH2 0x405 JUMPI PUSH2 0x100 DUP1 DUP4 SLOAD DIV MUL DUP4 MSTORE SWAP2 PUSH1 0x20 ADD SWAP2 PUSH2 0x430 JUMP JUMPDEST DUP3 ADD SWAP2 SWAP1 PUSH1 0x0 MSTORE PUSH1 0x20 PUSH1 0x0 KECCAK256 SWAP1 JUMPDEST DUP2 SLOAD DUP2 MSTORE SWAP1 PUSH1 0x1 ADD SWAP1 PUSH1 0x20 ADD DUP1 DUP4 GT PUSH2 0x413 JUMPI DUP3 SWAP1 SUB PUSH1 0x1F AND DUP3 ADD SWAP2 JUMPDEST POP POP POP POP POP SWAP1 POP SWAP1 JUMP JUMPDEST PUSH1 0x0 PUSH2 0x445 DUP3 PUSH2 0xDCA JUMP JUMPDEST POP PUSH1 0x0 SWAP1 DUP2 MSTORE PUSH1 0x4 PUSH1 0x20 MSTORE PUSH1 0x40 SWAP1 KECCAK256 SLOAD PUSH1 0x1 PUSH1 0x1 PUSH1 0xA0 SHL SUB AND SWAP1 JUMP JUMPDEST PUSH1 0x0 PUSH2 0x46C DUP3 PUSH2 0x92B JUMP JUMPDEST SWAP1 POP DUP1 PUSH1 0x1 PUSH1 0x1 PUSH1 0xA0 SHL SUB AND DUP4 PUSH1 0x1 PUSH1 0x1 PUSH1 0xA0 SHL SUB AND SUB PUSH2 0x4DE JUMPI PUSH1 0x40 MLOAD PUSH3 0x461BCD PUSH1 0xE5 SHL DUP2 MSTORE PUSH1 0x20 PUSH1 0x4 DUP3 ADD MSTORE PUSH1 0x21 PUSH1 0x24 DUP3 ADD MSTORE PUSH32 0x4552433732313A20617070726F76616C20746F2063757272656E74206F776E65 PUSH1 0x44 DUP3 ADD MSTORE PUSH1 0x39 PUSH1 0xF9 SHL PUSH1 0x64 DUP3 ADD MSTORE PUSH1 0x84 ADD JUMPDEST PUSH1 0x40 MLOAD DUP1 SWAP2 SUB SWAP1 REVERT JUMPDEST CALLER PUSH1 0x1 PUSH1 0x1 PUSH1 0xA0 SHL SUB DUP3 AND EQ DUP1 PUSH2 0x4FA JUMPI POP PUSH2 0x4FA DUP2 CALLER PUSH2 0xCD3 JUMP JUMPDEST PUSH2 0x56C JUMPI PUSH1 0x40 MLOAD PUSH3 0x461BCD PUSH1 0xE5 SHL DUP2 MSTORE PUSH1 0x20 PUSH1 0x4 DUP3 ADD MSTORE PUSH1 0x3D PUSH1 0x24 DUP3 ADD MSTORE PUSH32 0x4552433732313A20617070726F76652063616C6C6572206973206E6F7420746F PUSH1 0x44 DUP3 ADD MSTORE PUSH32 0x6B656E206F776E6572206F7220617070726F76656420666F7220616C6C000000 PUSH1 0x64 DUP3 ADD MSTORE PUSH1 0x84 ADD PUSH2 0x4D5 JUMP JUMPDEST PUSH2 0x576 DUP4 DUP4 PUSH2 0xDEF JUMP JUMPDEST POP POP POP JUMP JUMPDEST PUSH1 0x9 SLOAD PUSH1 0x1 PUSH1 0x1 PUSH1 0xA0 SHL SUB AND CALLER EQ PUSH2 0x5A5 JUMPI PUSH1 0x40 MLOAD PUSH3 0x461BCD PUSH1 0xE5 SHL DUP2 MSTORE PUSH1 0x4 ADD PUSH2 0x4D5 SWAP1 PUSH2 0x1B35 JUMP JUMPDEST PUSH1 0x0 PUSH2 0x5B0 DUP4 PUSH2 0xE5D JUMP JUMPDEST PUSH1 0x1 PUSH1 0x1 PUSH1 0xA0 SHL SUB AND SUB PUSH2 0x5FD JUMPI PUSH1 0x40 MLOAD PUSH3 0x461BCD PUSH1 0xE5 SHL DUP2 MSTORE PUSH1 0x20 PUSH1 0x4 DUP3 ADD MSTORE PUSH1 0x14 PUSH1 0x24 DUP3 ADD MSTORE PUSH20 0x151BDAD95B88191BD95CC81B9BDD08195E1A5CDD PUSH1 0x62 SHL PUSH1 0x44 DUP3 ADD MSTORE PUSH1 0x64 ADD PUSH2 0x4D5 JUMP JUMPDEST PUSH1 0x0 DUP2 MLOAD GT PUSH2 0x61E JUMPI PUSH1 0x40 MLOAD PUSH3 0x461BCD PUSH1 0xE5 SHL DUP2 MSTORE PUSH1 0x4 ADD PUSH2 0x4D5 SWAP1 PUSH2 0x1B62 JUMP JUMPDEST PUSH2 0x628 DUP3 DUP3 PUSH2 0xE78 JUMP JUMPDEST PUSH32 0x931F495B9A8E5D8E61946EA5D61E021F636CFE213A801F97589C18C152E408BD DUP3 DUP3 PUSH1 0x40 MLOAD PUSH2 0x659 SWAP3 SWAP2 SWAP1 PUSH2 0x1B85 JUMP JUMPDEST PUSH1 0x40 MLOAD DUP1 SWAP2 SUB SWAP1 LOG1 POP POP JUMP JUMPDEST PUSH2 0x66F CALLER DUP3 PUSH2 0xF2D JUMP JUMPDEST PUSH2 0x68B JUMPI PUSH1 0x40 MLOAD PUSH3 0x461BCD PUSH1 0xE5 SHL DUP2 MSTORE PUSH1 0x4 ADD PUSH2 0x4D5 SWAP1 PUSH2 0x1B9E JUMP JUMPDEST PUSH2 0x576 DUP4 DUP4 DUP4 PUSH2 0xF8B JUMP JUMPDEST PUSH2 0x69E PUSH2 0x10DD JUMP JUMPDEST PUSH1 0x0 DUP2 MLOAD GT PUSH2 0x6BF JUMPI PUSH1 0x40 MLOAD PUSH3 0x461BCD PUSH1 0xE5 SHL DUP2 MSTORE PUSH1 0x4 ADD PUSH2 0x4D5 SWAP1 PUSH2 0x1B62 JUMP JUMPDEST PUSH1 0xA PUSH2 0x6CB DUP3 DUP3 PUSH2 0x1C39 JUMP JUMPDEST POP PUSH32 0xF9C7803E94E0D3C02900D8A90893A6D5E90DD04D32A4CFE825520F82BF9F32F6 DUP2 PUSH1 0x40 MLOAD PUSH2 0x6FB SWAP2 SWAP1 PUSH2 0x1828 JUMP JUMPDEST PUSH1 0x40 MLOAD DUP1 SWAP2 SUB SWAP1 LOG1 POP JUMP JUMPDEST PUSH1 0x9 SLOAD PUSH1 0x0 SWAP1 PUSH1 0x1 PUSH1 0x1 PUSH1 0xA0 SHL SUB AND CALLER EQ PUSH2 0x733 JUMPI PUSH1 0x40 MLOAD PUSH3 0x461BCD PUSH1 0xE5 SHL DUP2 MSTORE PUSH1 0x4 ADD PUSH2 0x4D5 SWAP1 PUSH2 0x1B35 JUMP JUMPDEST PUSH1 0x0 PUSH1 0xA DUP1 SLOAD PUSH2 0x742 SWAP1 PUSH2 0x1AFB JUMP JUMPDEST SWAP1 POP GT PUSH2 0x784 JUMPI PUSH1 0x40 MLOAD PUSH3 0x461BCD PUSH1 0xE5 SHL DUP2 MSTORE PUSH1 0x20 PUSH1 0x4 DUP3 ADD MSTORE PUSH1 0x10 PUSH1 0x24 DUP3 ADD MSTORE PUSH16 0x10985CD948155492481B9BDD081CD95D PUSH1 0x82 SHL PUSH1 0x44 DUP3 ADD MSTORE PUSH1 0x64 ADD PUSH2 0x4D5 JUMP JUMPDEST PUSH1 0x8 DUP1 SLOAD SWAP1 PUSH1 0x0 PUSH2 0x794 DUP4 PUSH2 0x1CF8 JUMP JUMPDEST SWAP1 SWAP2 SSTORE POP POP PUSH1 0x8 SLOAD PUSH2 0x7A6 DUP5 DUP3 PUSH2 0x1137 JUMP JUMPDEST PUSH2 0x83A DUP2 PUSH1 0xA DUP1 SLOAD PUSH2 0x7B7 SWAP1 PUSH2 0x1AFB JUMP JUMPDEST DUP1 PUSH1 0x1F ADD PUSH1 0x20 DUP1 SWAP2 DIV MUL PUSH1 0x20 ADD PUSH1 0x40 MLOAD SWAP1 DUP2 ADD PUSH1 0x40 MSTORE DUP1 SWAP3 SWAP2 SWAP1 DUP2 DUP2 MSTORE PUSH1 0x20 ADD DUP3 DUP1 SLOAD PUSH2 0x7E3 SWAP1 PUSH2 0x1AFB JUMP JUMPDEST DUP1 ISZERO PUSH2 0x830 JUMPI DUP1 PUSH1 0x1F LT PUSH2 0x805 JUMPI PUSH2 0x100 DUP1 DUP4 SLOAD DIV MUL DUP4 MSTORE SWAP2 PUSH1 0x20 ADD SWAP2 PUSH2 0x830 JUMP JUMPDEST DUP3 ADD SWAP2 SWAP1 PUSH1 0x0 MSTORE PUSH1 0x20 PUSH1 0x0 KECCAK256 SWAP1 JUMPDEST DUP2 SLOAD DUP2 MSTORE SWAP1 PUSH1 0x1 ADD SWAP1 PUSH1 0x20 ADD DUP1 DUP4 GT PUSH2 0x813 JUMPI DUP3 SWAP1 SUB PUSH1 0x1F AND DUP3 ADD SWAP2 JUMPDEST POP POP POP POP POP PUSH2 0xE78 JUMP JUMPDEST PUSH1 0x0 DUP2 DUP2 MSTORE PUSH1 0xB PUSH1 0x20 MSTORE PUSH1 0x40 SWAP1 DUP2 SWAP1 KECCAK256 DUP5 SWAP1 SSTORE MLOAD PUSH1 0x1 PUSH1 0x1 PUSH1 0xA0 SHL SUB DUP6 AND SWAP1 PUSH32 0x1F8BD07E6C27FF813D5C6D3C4BF0313A1D75043CF978214B504B794075E5266 SWAP1 PUSH2 0x88B SWAP1 DUP5 SWAP1 DUP8 SWAP1 PUSH1 0xA SWAP1 PUSH2 0x1D1F JUMP JUMPDEST PUSH1 0x40 MLOAD DUP1 SWAP2 SUB SWAP1 LOG2 SWAP4 SWAP3 POP POP POP JUMP JUMPDEST PUSH2 0x576 DUP4 DUP4 DUP4 PUSH1 0x40 MLOAD DUP1 PUSH1 0x20 ADD PUSH1 0x40 MSTORE DUP1 PUSH1 0x0 DUP2 MSTORE POP PUSH2 0xAFD JUMP JUMPDEST PUSH1 0x9 SLOAD PUSH1 0x1 PUSH1 0x1 PUSH1 0xA0 SHL SUB AND CALLER EQ PUSH2 0x8DF JUMPI PUSH1 0x40 MLOAD PUSH3 0x461BCD PUSH1 0xE5 SHL DUP2 MSTORE PUSH1 0x4 ADD PUSH2 0x4D5 SWAP1 PUSH2 0x1B35 JUMP JUMPDEST PUSH2 0x8E8 DUP2 PUSH2 0x1232 JUMP JUMPDEST PUSH1 0x0 DUP2 DUP2 MSTORE PUSH1 0xB PUSH1 0x20 MSTORE PUSH1 0x40 DUP1 DUP3 KECCAK256 SWAP2 SWAP1 SWAP2 SSTORE MLOAD PUSH32 0x3C176691CA154A2F6FE978A2A633A33EE77DBE2902E67A75400720845A4B2CE1 SWAP1 PUSH2 0x6FB SWAP1 DUP4 DUP2 MSTORE PUSH1 0x20 ADD SWAP1 JUMP JUMPDEST PUSH1 0x0 DUP1 PUSH2 0x937 DUP4 PUSH2 0xE5D JUMP JUMPDEST SWAP1 POP PUSH1 0x1 PUSH1 0x1 PUSH1 0xA0 SHL SUB DUP2 AND PUSH2 0x3A2 JUMPI PUSH1 0x40 MLOAD PUSH3 0x461BCD PUSH1 0xE5 SHL DUP2 MSTORE PUSH1 0x4 ADD PUSH2 0x4D5 SWAP1 PUSH2 0x1DB9 JUMP JUMPDEST PUSH2 0x967 PUSH2 0x10DD JUMP JUMPDEST PUSH1 0x9 SLOAD PUSH1 0x1 PUSH1 0x1 PUSH1 0xA0 SHL SUB AND ISZERO PUSH2 0x9B4 JUMPI PUSH1 0x40 MLOAD PUSH3 0x461BCD PUSH1 0xE5 SHL DUP2 MSTORE PUSH1 0x20 PUSH1 0x4 DUP3 ADD MSTORE PUSH1 0x11 PUSH1 0x24 DUP3 ADD MSTORE PUSH17 0x15985D5B1D08185B1C9958591E481CD95D PUSH1 0x7A SHL PUSH1 0x44 DUP3 ADD MSTORE PUSH1 0x64 ADD PUSH2 0x4D5 JUMP JUMPDEST PUSH1 0x1 PUSH1 0x1 PUSH1 0xA0 SHL SUB DUP2 AND PUSH2 0x9FA JUMPI PUSH1 0x40 MLOAD PUSH3 0x461BCD PUSH1 0xE5 SHL DUP2 MSTORE PUSH1 0x20 PUSH1 0x4 DUP3 ADD MSTORE PUSH1 0xD PUSH1 0x24 DUP3 ADD MSTORE PUSH13 0x125B9D985B1A59081D985D5B1D PUSH1 0x9A SHL PUSH1 0x44 DUP3 ADD MSTORE PUSH1 0x64 ADD PUSH2 0x4D5 JUMP JUMPDEST PUSH1 0x9 DUP1 SLOAD PUSH1 0x1 PUSH1 0x1 PUSH1 0xA0 SHL SUB NOT AND PUSH1 0x1 PUSH1 0x1 PUSH1 0xA0 SHL SUB DUP4 AND OR SWAP1 SSTORE PUSH1 0x40 MLOAD PUSH32 0xE7AE49F883C825B05681B3E00E8BE6FDEA9ED2A8A45E4C6ECB9390FC44CCE615 SWAP1 PUSH2 0x6FB SWAP1 DUP4 SWAP1 PUSH2 0x183B JUMP JUMPDEST PUSH1 0x0 PUSH1 0x1 PUSH1 0x1 PUSH1 0xA0 SHL SUB DUP3 AND PUSH2 0xAAF JUMPI PUSH1 0x40 MLOAD PUSH3 0x461BCD PUSH1 0xE5 SHL DUP2 MSTORE PUSH1 0x20 PUSH1 0x4 DUP3 ADD MSTORE PUSH1 0x29 PUSH1 0x24 DUP3 ADD MSTORE PUSH32 0x4552433732313A2061646472657373207A65726F206973206E6F742061207661 PUSH1 0x44 DUP3 ADD MSTORE PUSH9 0x3634B21037BBB732B9 PUSH1 0xB9 SHL PUSH1 0x64 DUP3 ADD MSTORE PUSH1 0x84 ADD PUSH2 0x4D5 JUMP JUMPDEST POP PUSH1 0x1 PUSH1 0x1 PUSH1 0xA0 SHL SUB AND PUSH1 0x0 SWAP1 DUP2 MSTORE PUSH1 0x3 PUSH1 0x20 MSTORE PUSH1 0x40 SWAP1 KECCAK256 SLOAD SWAP1 JUMP JUMPDEST PUSH2 0xAD3 PUSH2 0x10DD JUMP JUMPDEST PUSH2 0xADD PUSH1 0x0 PUSH2 0x1272 JUMP JUMPDEST JUMP JUMPDEST PUSH1 0x60 PUSH1 0x1 DUP1 SLOAD PUSH2 0x3B7 SWAP1 PUSH2 0x1AFB JUMP JUMPDEST PUSH2 0xAF9 CALLER DUP4 DUP4 PUSH2 0x12C4 JUMP JUMPDEST POP POP JUMP JUMPDEST PUSH2 0xB07 CALLER DUP4 PUSH2 0xF2D JUMP JUMPDEST PUSH2 0xB23 JUMPI PUSH1 0x40 MLOAD PUSH3 0x461BCD PUSH1 0xE5 SHL DUP2 MSTORE PUSH1 0x4 ADD PUSH2 0x4D5 SWAP1 PUSH2 0x1B9E JUMP JUMPDEST PUSH2 0xB2F DUP5 DUP5 DUP5 DUP5 PUSH2 0x138E JUMP JUMPDEST POP POP POP POP JUMP JUMPDEST PUSH1 0x60 PUSH2 0xB40 DUP3 PUSH2 0xDCA JUMP JUMPDEST PUSH1 0x0 DUP3 DUP2 MSTORE PUSH1 0x6 PUSH1 0x20 MSTORE PUSH1 0x40 DUP2 KECCAK256 DUP1 SLOAD PUSH2 0xB59 SWAP1 PUSH2 0x1AFB JUMP JUMPDEST DUP1 PUSH1 0x1F ADD PUSH1 0x20 DUP1 SWAP2 DIV MUL PUSH1 0x20 ADD PUSH1 0x40 MLOAD SWAP1 DUP2 ADD PUSH1 0x40 MSTORE DUP1 SWAP3 SWAP2 SWAP1 DUP2 DUP2 MSTORE PUSH1 0x20 ADD DUP3 DUP1 SLOAD PUSH2 0xB85 SWAP1 PUSH2 0x1AFB JUMP JUMPDEST DUP1 ISZERO PUSH2 0xBD2 JUMPI DUP1 PUSH1 0x1F LT PUSH2 0xBA7 JUMPI PUSH2 0x100 DUP1 DUP4 SLOAD DIV MUL DUP4 MSTORE SWAP2 PUSH1 0x20 ADD SWAP2 PUSH2 0xBD2 JUMP JUMPDEST DUP3 ADD SWAP2 SWAP1 PUSH1 0x0 MSTORE PUSH1 0x20 PUSH1 0x0 KECCAK256 SWAP1 JUMPDEST DUP2 SLOAD DUP2 MSTORE SWAP1 PUSH1 0x1 ADD SWAP1 PUSH1 0x20 ADD DUP1 DUP4 GT PUSH2 0xBB5 JUMPI DUP3 SWAP1 SUB PUSH1 0x1F AND DUP3 ADD SWAP2 JUMPDEST POP POP POP POP POP SWAP1 POP PUSH1 0x0 PUSH2 0xBF0 PUSH1 0x40 DUP1 MLOAD PUSH1 0x20 DUP2 ADD SWAP1 SWAP2 MSTORE PUSH1 0x0 DUP2 MSTORE SWAP1 JUMP JUMPDEST SWAP1 POP DUP1 MLOAD PUSH1 0x0 SUB PUSH2 0xC02 JUMPI POP SWAP3 SWAP2 POP POP JUMP JUMPDEST DUP2 MLOAD ISZERO PUSH2 0xC34 JUMPI DUP1 DUP3 PUSH1 0x40 MLOAD PUSH1 0x20 ADD PUSH2 0xC1C SWAP3 SWAP2 SWAP1 PUSH2 0x1DEB JUMP JUMPDEST PUSH1 0x40 MLOAD PUSH1 0x20 DUP2 DUP4 SUB SUB DUP2 MSTORE SWAP1 PUSH1 0x40 MSTORE SWAP3 POP POP POP SWAP2 SWAP1 POP JUMP JUMPDEST PUSH2 0xC3D DUP5 PUSH2 0x13C1 JUMP JUMPDEST SWAP5 SWAP4 POP POP POP POP JUMP JUMPDEST PUSH1 0xA DUP1 SLOAD PUSH2 0xC52 SWAP1 PUSH2 0x1AFB JUMP JUMPDEST DUP1 PUSH1 0x1F ADD PUSH1 0x20 DUP1 SWAP2 DIV MUL PUSH1 0x20 ADD PUSH1 0x40 MLOAD SWAP1 DUP2 ADD PUSH1 0x40 MSTORE DUP1 SWAP3 SWAP2 SWAP1 DUP2 DUP2 MSTORE PUSH1 0x20 ADD DUP3 DUP1 SLOAD PUSH2 0xC7E SWAP1 PUSH2 0x1AFB JUMP JUMPDEST DUP1 ISZERO PUSH2 0xCCB JUMPI DUP1 PUSH1 0x1F LT PUSH2 0xCA0 JUMPI PUSH2 0x100 DUP1 DUP4 SLOAD DIV MUL DUP4 MSTORE SWAP2 PUSH1 0x20 ADD SWAP2 PUSH2 0xCCB JUMP JUMPDEST DUP3 ADD SWAP2 SWAP1 PUSH1 0x0 MSTORE PUSH1 0x20 PUSH1 0x0 KECCAK256 SWAP1 JUMPDEST DUP2 SLOAD DUP2 MSTORE SWAP1 PUSH1 0x1 ADD SWAP1 PUSH1 0x20 ADD DUP1 DUP4 GT PUSH2 0xCAE JUMPI DUP3 SWAP1 SUB PUSH1 0x1F AND DUP3 ADD SWAP2 JUMPDEST POP POP POP POP POP DUP2 JUMP JUMPDEST PUSH1 0x1 PUSH1 0x1 PUSH1 0xA0 SHL SUB SWAP2 DUP3 AND PUSH1 0x0 SWAP1 DUP2 MSTORE PUSH1 0x5 PUSH1 0x20 SWAP1 DUP2 MSTORE PUSH1 0x40 DUP1 DUP4 KECCAK256 SWAP4 SWAP1 SWAP5 AND DUP3 MSTORE SWAP2 SWAP1 SWAP2 MSTORE KECCAK256 SLOAD PUSH1 0xFF AND SWAP1 JUMP JUMPDEST PUSH2 0xD09 PUSH2 0x10DD JUMP JUMPDEST PUSH1 0x1 PUSH1 0x1 PUSH1 0xA0 SHL SUB DUP2 AND PUSH2 0xD6E JUMPI PUSH1 0x40 MLOAD PUSH3 0x461BCD PUSH1 0xE5 SHL DUP2 MSTORE PUSH1 0x20 PUSH1 0x4 DUP3 ADD MSTORE PUSH1 0x26 PUSH1 0x24 DUP3 ADD MSTORE PUSH32 0x4F776E61626C653A206E6577206F776E657220697320746865207A65726F2061 PUSH1 0x44 DUP3 ADD MSTORE PUSH6 0x646472657373 PUSH1 0xD0 SHL PUSH1 0x64 DUP3 ADD MSTORE PUSH1 0x84 ADD PUSH2 0x4D5 JUMP JUMPDEST PUSH2 0xD77 DUP2 PUSH2 0x1272 JUMP JUMPDEST POP JUMP JUMPDEST PUSH1 0x0 PUSH1 0x1 PUSH1 0x1 PUSH1 0xE0 SHL SUB NOT DUP3 AND PUSH4 0x80AC58CD PUSH1 0xE0 SHL EQ DUP1 PUSH2 0xDAB JUMPI POP PUSH1 0x1 PUSH1 0x1 PUSH1 0xE0 SHL SUB NOT DUP3 AND PUSH4 0x5B5E139F PUSH1 0xE0 SHL EQ JUMPDEST DUP1 PUSH2 0x3A2 JUMPI POP PUSH4 0x1FFC9A7 PUSH1 0xE0 SHL PUSH1 0x1 PUSH1 0x1 PUSH1 0xE0 SHL SUB NOT DUP4 AND EQ PUSH2 0x3A2 JUMP JUMPDEST PUSH2 0xDD3 DUP2 PUSH2 0x1435 JUMP JUMPDEST PUSH2 0xD77 JUMPI PUSH1 0x40 MLOAD PUSH3 0x461BCD PUSH1 0xE5 SHL DUP2 MSTORE PUSH1 0x4 ADD PUSH2 0x4D5 SWAP1 PUSH2 0x1DB9 JUMP JUMPDEST PUSH1 0x0 DUP2 DUP2 MSTORE PUSH1 0x4 PUSH1 0x20 MSTORE PUSH1 0x40 SWAP1 KECCAK256 DUP1 SLOAD PUSH1 0x1 PUSH1 0x1 PUSH1 0xA0 SHL SUB NOT AND PUSH1 0x1 PUSH1 0x1 PUSH1 0xA0 SHL SUB DUP5 AND SWAP1 DUP2 OR SWAP1 SWAP2 SSTORE DUP2 SWAP1 PUSH2 0xE24 DUP3 PUSH2 0x92B JUMP JUMPDEST PUSH1 0x1 PUSH1 0x1 PUSH1 0xA0 SHL SUB AND PUSH32 0x8C5BE1E5EBEC7D5BD14F71427D1E84F3DD0314C0F7B2291E5B200AC8C7C3B925 PUSH1 0x40 MLOAD PUSH1 0x40 MLOAD DUP1 SWAP2 SUB SWAP1 LOG4 POP POP JUMP JUMPDEST PUSH1 0x0 SWAP1 DUP2 MSTORE PUSH1 0x2 PUSH1 0x20 MSTORE PUSH1 0x40 SWAP1 KECCAK256 SLOAD PUSH1 0x1 PUSH1 0x1 PUSH1 0xA0 SHL SUB AND SWAP1 JUMP JUMPDEST PUSH2 0xE81 DUP3 PUSH2 0x1435 JUMP JUMPDEST PUSH2 0xEE4 JUMPI PUSH1 0x40 MLOAD PUSH3 0x461BCD PUSH1 0xE5 SHL DUP2 MSTORE PUSH1 0x20 PUSH1 0x4 DUP3 ADD MSTORE PUSH1 0x2E PUSH1 0x24 DUP3 ADD MSTORE PUSH32 0x45524337323155524953746F726167653A2055524920736574206F66206E6F6E PUSH1 0x44 DUP3 ADD MSTORE PUSH14 0x32BC34B9BA32B73A103A37B5B2B7 PUSH1 0x91 SHL PUSH1 0x64 DUP3 ADD MSTORE PUSH1 0x84 ADD PUSH2 0x4D5 JUMP JUMPDEST PUSH1 0x0 DUP3 DUP2 MSTORE PUSH1 0x6 PUSH1 0x20 MSTORE PUSH1 0x40 SWAP1 KECCAK256 PUSH2 0xEFC DUP3 DUP3 PUSH2 0x1C39 JUMP JUMPDEST POP PUSH1 0x40 MLOAD DUP3 DUP2 MSTORE PUSH32 0xF8E1A15ABA9398E019F0B49DF1A4FDE98EE17AE345CB5F6B5E2C27F5033E8CE7 SWAP1 PUSH1 0x20 ADD PUSH2 0x659 JUMP JUMPDEST PUSH1 0x0 DUP1 PUSH2 0xF39 DUP4 PUSH2 0x92B JUMP JUMPDEST SWAP1 POP DUP1 PUSH1 0x1 PUSH1 0x1 PUSH1 0xA0 SHL SUB AND DUP5 PUSH1 0x1 PUSH1 0x1 PUSH1 0xA0 SHL SUB AND EQ DUP1 PUSH2 0xF60 JUMPI POP PUSH2 0xF60 DUP2 DUP6 PUSH2 0xCD3 JUMP JUMPDEST DUP1 PUSH2 0xC3D JUMPI POP DUP4 PUSH1 0x1 PUSH1 0x1 PUSH1 0xA0 SHL SUB AND PUSH2 0xF79 DUP5 PUSH2 0x43A JUMP JUMPDEST PUSH1 0x1 PUSH1 0x1 PUSH1 0xA0 SHL SUB AND EQ SWAP5 SWAP4 POP POP POP POP JUMP JUMPDEST DUP3 PUSH1 0x1 PUSH1 0x1 PUSH1 0xA0 SHL SUB AND PUSH2 0xF9E DUP3 PUSH2 0x92B JUMP JUMPDEST PUSH1 0x1 PUSH1 0x1 PUSH1 0xA0 SHL SUB AND EQ PUSH2 0xFC4 JUMPI PUSH1 0x40 MLOAD PUSH3 0x461BCD PUSH1 0xE5 SHL DUP2 MSTORE PUSH1 0x4 ADD PUSH2 0x4D5 SWAP1 PUSH2 0x1E1A JUMP JUMPDEST PUSH1 0x1 PUSH1 0x1 PUSH1 0xA0 SHL SUB DUP3 AND PUSH2 0x1026 JUMPI PUSH1 0x40 MLOAD PUSH3 0x461BCD PUSH1 0xE5 SHL DUP2 MSTORE PUSH1 0x20 PUSH1 0x4 DUP3 ADD MSTORE PUSH1 0x24 DUP1 DUP3 ADD MSTORE PUSH32 0x4552433732313A207472616E7366657220746F20746865207A65726F20616464 PUSH1 0x44 DUP3 ADD MSTORE PUSH4 0x72657373 PUSH1 0xE0 SHL PUSH1 0x64 DUP3 ADD MSTORE PUSH1 0x84 ADD PUSH2 0x4D5 JUMP JUMPDEST DUP3 PUSH1 0x1 PUSH1 0x1 PUSH1 0xA0 SHL SUB AND PUSH2 0x1039 DUP3 PUSH2 0x92B JUMP JUMPDEST PUSH1 0x1 PUSH1 0x1 PUSH1 0xA0 SHL SUB AND EQ PUSH2 0x105F JUMPI PUSH1 0x40 MLOAD PUSH3 0x461BCD PUSH1 0xE5 SHL DUP2 MSTORE PUSH1 0x4 ADD PUSH2 0x4D5 SWAP1 PUSH2 0x1E1A JUMP JUMPDEST PUSH1 0x0 DUP2 DUP2 MSTORE PUSH1 0x4 PUSH1 0x20 SWAP1 DUP2 MSTORE PUSH1 0x40 DUP1 DUP4 KECCAK256 DUP1 SLOAD PUSH1 0x1 PUSH1 0x1 PUSH1 0xA0 SHL SUB NOT SWAP1 DUP2 AND SWAP1 SWAP2 SSTORE PUSH1 0x1 PUSH1 0x1 PUSH1 0xA0 SHL SUB DUP8 DUP2 AND DUP1 DUP7 MSTORE PUSH1 0x3 DUP6 MSTORE DUP4 DUP7 KECCAK256 DUP1 SLOAD PUSH1 0x0 NOT ADD SWAP1 SSTORE SWAP1 DUP8 AND DUP1 DUP7 MSTORE DUP4 DUP7 KECCAK256 DUP1 SLOAD PUSH1 0x1 ADD SWAP1 SSTORE DUP7 DUP7 MSTORE PUSH1 0x2 SWAP1 SWAP5 MSTORE DUP3 DUP6 KECCAK256 DUP1 SLOAD SWAP1 SWAP3 AND DUP5 OR SWAP1 SWAP2 SSTORE SWAP1 MLOAD DUP5 SWAP4 PUSH1 0x0 DUP1 MLOAD PUSH1 0x20 PUSH2 0x1F43 DUP4 CODECOPY DUP2 MLOAD SWAP2 MSTORE SWAP2 LOG4 POP POP POP JUMP JUMPDEST PUSH1 0x7 SLOAD PUSH1 0x1 PUSH1 0x1 PUSH1 0xA0 SHL SUB AND CALLER EQ PUSH2 0xADD JUMPI PUSH1 0x40 MLOAD PUSH3 0x461BCD PUSH1 0xE5 SHL DUP2 MSTORE PUSH1 0x20 PUSH1 0x4 DUP3 ADD DUP2 SWAP1 MSTORE PUSH1 0x24 DUP3 ADD MSTORE PUSH32 0x4F776E61626C653A2063616C6C6572206973206E6F7420746865206F776E6572 PUSH1 0x44 DUP3 ADD MSTORE PUSH1 0x64 ADD PUSH2 0x4D5 JUMP JUMPDEST PUSH1 0x1 PUSH1 0x1 PUSH1 0xA0 SHL SUB DUP3 AND PUSH2 0x118D JUMPI PUSH1 0x40 MLOAD PUSH3 0x461BCD PUSH1 0xE5 SHL DUP2 MSTORE PUSH1 0x20 PUSH1 0x4 DUP3 ADD DUP2 SWAP1 MSTORE PUSH1 0x24 DUP3 ADD MSTORE PUSH32 0x4552433732313A206D696E7420746F20746865207A65726F2061646472657373 PUSH1 0x44 DUP3 ADD MSTORE PUSH1 0x64 ADD PUSH2 0x4D5 JUMP JUMPDEST PUSH2 0x1196 DUP2 PUSH2 0x1435 JUMP JUMPDEST ISZERO PUSH2 0x11B3 JUMPI PUSH1 0x40 MLOAD PUSH3 0x461BCD PUSH1 0xE5 SHL DUP2 MSTORE PUSH1 0x4 ADD PUSH2 0x4D5 SWAP1 PUSH2 0x1E5F JUMP JUMPDEST PUSH2 0x11BC DUP2 PUSH2 0x1435 JUMP JUMPDEST ISZERO PUSH2 0x11D9 JUMPI PUSH1 0x40 MLOAD PUSH3 0x461BCD PUSH1 0xE5 SHL DUP2 MSTORE PUSH1 0x4 ADD PUSH2 0x4D5 SWAP1 PUSH2 0x1E5F JUMP JUMPDEST PUSH1 0x1 PUSH1 0x1 PUSH1 0xA0 SHL SUB DUP3 AND PUSH1 0x0 DUP2 DUP2 MSTORE PUSH1 0x3 PUSH1 0x20 SWAP1 DUP2 MSTORE PUSH1 0x40 DUP1 DUP4 KECCAK256 DUP1 SLOAD PUSH1 0x1 ADD SWAP1 SSTORE DUP5 DUP4 MSTORE PUSH1 0x2 SWAP1 SWAP2 MSTORE DUP1 DUP3 KECCAK256 DUP1 SLOAD PUSH1 0x1 PUSH1 0x1 PUSH1 0xA0 SHL SUB NOT AND DUP5 OR SWAP1 SSTORE MLOAD DUP4 SWAP3 SWAP2 SWAP1 PUSH1 0x0 DUP1 MLOAD PUSH1 0x20 PUSH2 0x1F43 DUP4 CODECOPY DUP2 MLOAD SWAP2 MSTORE SWAP1 DUP3 SWAP1 LOG4 POP POP JUMP JUMPDEST PUSH2 0x123B DUP2 PUSH2 0x1452 JUMP JUMPDEST PUSH1 0x0 DUP2 DUP2 MSTORE PUSH1 0x6 PUSH1 0x20 MSTORE PUSH1 0x40 SWAP1 KECCAK256 DUP1 SLOAD PUSH2 0x1254 SWAP1 PUSH2 0x1AFB JUMP JUMPDEST ISZERO SWAP1 POP PUSH2 0xD77 JUMPI PUSH1 0x0 DUP2 DUP2 MSTORE PUSH1 0x6 PUSH1 0x20 MSTORE PUSH1 0x40 DUP2 KECCAK256 PUSH2 0xD77 SWAP2 PUSH2 0x173E JUMP JUMPDEST PUSH1 0x7 DUP1 SLOAD PUSH1 0x1 PUSH1 0x1 PUSH1 0xA0 SHL SUB DUP4 DUP2 AND PUSH1 0x1 PUSH1 0x1 PUSH1 0xA0 SHL SUB NOT DUP4 AND DUP2 OR SWAP1 SWAP4 SSTORE PUSH1 0x40 MLOAD SWAP2 AND SWAP2 SWAP1 DUP3 SWAP1 PUSH32 0x8BE0079C531659141344CD1FD0A4F28419497F9722A3DAAFE3B4186F6B6457E0 SWAP1 PUSH1 0x0 SWAP1 LOG3 POP POP JUMP JUMPDEST DUP2 PUSH1 0x1 PUSH1 0x1 PUSH1 0xA0 SHL SUB AND DUP4 PUSH1 0x1 PUSH1 0x1 PUSH1 0xA0 SHL SUB AND SUB PUSH2 0x1321 JUMPI PUSH1 0x40 MLOAD PUSH3 0x461BCD PUSH1 0xE5 SHL DUP2 MSTORE PUSH1 0x20 PUSH1 0x4 DUP3 ADD MSTORE PUSH1 0x19 PUSH1 0x24 DUP3 ADD MSTORE PUSH25 0x22A9219B99189D1030B8383937BB32903A379031B0B63632B9 PUSH1 0x39 SHL PUSH1 0x44 DUP3 ADD MSTORE PUSH1 0x64 ADD PUSH2 0x4D5 JUMP JUMPDEST PUSH1 0x1 PUSH1 0x1 PUSH1 0xA0 SHL SUB DUP4 DUP2 AND PUSH1 0x0 DUP2 DUP2 MSTORE PUSH1 0x5 PUSH1 0x20 SWAP1 DUP2 MSTORE PUSH1 0x40 DUP1 DUP4 KECCAK256 SWAP5 DUP8 AND DUP1 DUP5 MSTORE SWAP5 DUP3 MSTORE SWAP2 DUP3 SWAP1 KECCAK256 DUP1 SLOAD PUSH1 0xFF NOT AND DUP7 ISZERO ISZERO SWAP1 DUP2 OR SWAP1 SWAP2 SSTORE SWAP2 MLOAD SWAP2 DUP3 MSTORE PUSH32 0x17307EAB39AB6107E8899845AD3D59BD9653F200F220920489CA2B5937696C31 SWAP2 ADD PUSH1 0x40 MLOAD DUP1 SWAP2 SUB SWAP1 LOG3 POP POP POP JUMP JUMPDEST PUSH2 0x1399 DUP5 DUP5 DUP5 PUSH2 0xF8B JUMP JUMPDEST PUSH2 0x13A5 DUP5 DUP5 DUP5 DUP5 PUSH2 0x14D5 JUMP JUMPDEST PUSH2 0xB2F JUMPI PUSH1 0x40 MLOAD PUSH3 0x461BCD PUSH1 0xE5 SHL DUP2 MSTORE PUSH1 0x4 ADD PUSH2 0x4D5 SWAP1 PUSH2 0x1E96 JUMP JUMPDEST PUSH1 0x60 PUSH2 0x13CC DUP3 PUSH2 0xDCA JUMP JUMPDEST PUSH1 0x0 PUSH2 0x13E3 PUSH1 0x40 DUP1 MLOAD PUSH1 0x20 DUP2 ADD SWAP1 SWAP2 MSTORE PUSH1 0x0 DUP2 MSTORE SWAP1 JUMP JUMPDEST SWAP1 POP PUSH1 0x0 DUP2 MLOAD GT PUSH2 0x1403 JUMPI PUSH1 0x40 MLOAD DUP1 PUSH1 0x20 ADD PUSH1 0x40 MSTORE DUP1 PUSH1 0x0 DUP2 MSTORE POP PUSH2 0x142E JUMP JUMPDEST DUP1 PUSH2 0x140D DUP5 PUSH2 0x15D6 JUMP JUMPDEST PUSH1 0x40 MLOAD PUSH1 0x20 ADD PUSH2 0x141E SWAP3 SWAP2 SWAP1 PUSH2 0x1DEB JUMP JUMPDEST PUSH1 0x40 MLOAD PUSH1 0x20 DUP2 DUP4 SUB SUB DUP2 MSTORE SWAP1 PUSH1 0x40 MSTORE JUMPDEST SWAP4 SWAP3 POP POP POP JUMP JUMPDEST PUSH1 0x0 DUP1 PUSH2 0x1441 DUP4 PUSH2 0xE5D JUMP JUMPDEST PUSH1 0x1 PUSH1 0x1 PUSH1 0xA0 SHL SUB AND EQ ISZERO SWAP3 SWAP2 POP POP JUMP JUMPDEST PUSH1 0x0 PUSH2 0x145D DUP3 PUSH2 0x92B JUMP JUMPDEST SWAP1 POP PUSH2 0x1468 DUP3 PUSH2 0x92B JUMP JUMPDEST PUSH1 0x0 DUP4 DUP2 MSTORE PUSH1 0x4 PUSH1 0x20 SWAP1 DUP2 MSTORE PUSH1 0x40 DUP1 DUP4 KECCAK256 DUP1 SLOAD PUSH1 0x1 PUSH1 0x1 PUSH1 0xA0 SHL SUB NOT SWAP1 DUP2 AND SWAP1 SWAP2 SSTORE PUSH1 0x1 PUSH1 0x1 PUSH1 0xA0 SHL SUB DUP6 AND DUP1 DUP6 MSTORE PUSH1 0x3 DUP5 MSTORE DUP3 DUP6 KECCAK256 DUP1 SLOAD PUSH1 0x0 NOT ADD SWAP1 SSTORE DUP8 DUP6 MSTORE PUSH1 0x2 SWAP1 SWAP4 MSTORE DUP2 DUP5 KECCAK256 DUP1 SLOAD SWAP1 SWAP2 AND SWAP1 SSTORE MLOAD SWAP3 SWAP4 POP DUP5 SWAP3 PUSH1 0x0 DUP1 MLOAD PUSH1 0x20 PUSH2 0x1F43 DUP4 CODECOPY DUP2 MLOAD SWAP2 MSTORE SWAP1 DUP4 SWAP1 LOG4 POP POP JUMP JUMPDEST PUSH1 0x0 PUSH1 0x1 PUSH1 0x1 PUSH1 0xA0 SHL SUB DUP5 AND EXTCODESIZE ISZERO PUSH2 0x15CB JUMPI PUSH1 0x40 MLOAD PUSH4 0xA85BD01 PUSH1 0xE1 SHL DUP2 MSTORE PUSH1 0x1 PUSH1 0x1 PUSH1 0xA0 SHL SUB DUP6 AND SWAP1 PUSH4 0x150B7A02 SWAP1 PUSH2 0x1519 SWAP1 CALLER SWAP1 DUP10 SWAP1 DUP9 SWAP1 DUP9 SWAP1 PUSH1 0x4 ADD PUSH2 0x1EE8 JUMP JUMPDEST PUSH1 0x20 PUSH1 0x40 MLOAD DUP1 DUP4 SUB DUP2 PUSH1 0x0 DUP8 GAS CALL SWAP3 POP POP POP DUP1 ISZERO PUSH2 0x1554 JUMPI POP PUSH1 0x40 DUP1 MLOAD PUSH1 0x1F RETURNDATASIZE SWAP1 DUP2 ADD PUSH1 0x1F NOT AND DUP3 ADD SWAP1 SWAP3 MSTORE PUSH2 0x1551 SWAP2 DUP2 ADD SWAP1 PUSH2 0x1F25 JUMP JUMPDEST PUSH1 0x1 JUMPDEST PUSH2 0x15B1 JUMPI RETURNDATASIZE DUP1 DUP1 ISZERO PUSH2 0x1582 JUMPI PUSH1 0x40 MLOAD SWAP2 POP PUSH1 0x1F NOT PUSH1 0x3F RETURNDATASIZE ADD AND DUP3 ADD PUSH1 0x40 MSTORE RETURNDATASIZE DUP3 MSTORE RETURNDATASIZE PUSH1 0x0 PUSH1 0x20 DUP5 ADD RETURNDATACOPY PUSH2 0x1587 JUMP JUMPDEST PUSH1 0x60 SWAP2 POP JUMPDEST POP DUP1 MLOAD PUSH1 0x0 SUB PUSH2 0x15A9 JUMPI PUSH1 0x40 MLOAD PUSH3 0x461BCD PUSH1 0xE5 SHL DUP2 MSTORE PUSH1 0x4 ADD PUSH2 0x4D5 SWAP1 PUSH2 0x1E96 JUMP JUMPDEST DUP1 MLOAD DUP2 PUSH1 0x20 ADD REVERT JUMPDEST PUSH1 0x1 PUSH1 0x1 PUSH1 0xE0 SHL SUB NOT AND PUSH4 0xA85BD01 PUSH1 0xE1 SHL EQ SWAP1 POP PUSH2 0xC3D JUMP JUMPDEST POP PUSH1 0x1 SWAP5 SWAP4 POP POP POP POP JUMP JUMPDEST PUSH1 0x60 PUSH1 0x0 PUSH2 0x15E3 DUP4 PUSH2 0x1668 JUMP JUMPDEST PUSH1 0x1 ADD SWAP1 POP PUSH1 0x0 DUP2 PUSH1 0x1 PUSH1 0x1 PUSH1 0x40 SHL SUB DUP2 GT ISZERO PUSH2 0x1602 JUMPI PUSH2 0x1602 PUSH2 0x1895 JUMP JUMPDEST PUSH1 0x40 MLOAD SWAP1 DUP1 DUP3 MSTORE DUP1 PUSH1 0x1F ADD PUSH1 0x1F NOT AND PUSH1 0x20 ADD DUP3 ADD PUSH1 0x40 MSTORE DUP1 ISZERO PUSH2 0x162C JUMPI PUSH1 0x20 DUP3 ADD DUP2 DUP1 CALLDATASIZE DUP4 CALLDATACOPY ADD SWAP1 POP JUMPDEST POP SWAP1 POP DUP2 DUP2 ADD PUSH1 0x20 ADD JUMPDEST PUSH1 0x0 NOT ADD PUSH16 0x181899199A1A9B1B9C1CB0B131B232B3 PUSH1 0x81 SHL PUSH1 0xA DUP7 MOD BYTE DUP2 MSTORE8 PUSH1 0xA DUP6 DIV SWAP5 POP DUP5 PUSH2 0x1636 JUMPI POP SWAP4 SWAP3 POP POP POP JUMP JUMPDEST PUSH1 0x0 DUP1 PUSH19 0x184F03E93FF9F4DAA797ED6E38ED64BF6A1F01 PUSH1 0x40 SHL DUP4 LT PUSH2 0x16A7 JUMPI PUSH19 0x184F03E93FF9F4DAA797ED6E38ED64BF6A1F01 PUSH1 0x40 SHL DUP4 DIV SWAP3 POP PUSH1 0x40 ADD JUMPDEST PUSH10 0x4EE2D6D415B85ACEF81 PUSH1 0x20 SHL DUP4 LT PUSH2 0x16D1 JUMPI PUSH10 0x4EE2D6D415B85ACEF81 PUSH1 0x20 SHL DUP4 DIV SWAP3 POP PUSH1 0x20 ADD JUMPDEST PUSH7 0x2386F26FC10000 DUP4 LT PUSH2 0x16EF JUMPI PUSH7 0x2386F26FC10000 DUP4 DIV SWAP3 POP PUSH1 0x10 ADD JUMPDEST PUSH4 0x5F5E100 DUP4 LT PUSH2 0x1707 JUMPI PUSH4 0x5F5E100 DUP4 DIV SWAP3 POP PUSH1 0x8 ADD JUMPDEST PUSH2 0x2710 DUP4 LT PUSH2 0x171B JUMPI PUSH2 0x2710 DUP4 DIV SWAP3 POP PUSH1 0x4 ADD JUMPDEST PUSH1 0x64 DUP4 LT PUSH2 0x172D JUMPI PUSH1 0x64 DUP4 DIV SWAP3 POP PUSH1 0x2 ADD JUMPDEST PUSH1 0xA DUP4 LT PUSH2 0x3A2 JUMPI PUSH1 0x1 ADD SWAP3 SWAP2 POP POP JUMP JUMPDEST POP DUP1 SLOAD PUSH2 0x174A SWAP1 PUSH2 0x1AFB JUMP JUMPDEST PUSH1 0x0 DUP3 SSTORE DUP1 PUSH1 0x1F LT PUSH2 0x175A JUMPI POP POP JUMP JUMPDEST PUSH1 0x1F ADD PUSH1 0x20 SWAP1 DIV SWAP1 PUSH1 0x0 MSTORE PUSH1 0x20 PUSH1 0x0 KECCAK256 SWAP1 DUP2 ADD SWAP1 PUSH2 0xD77 SWAP2 SWAP1 JUMPDEST DUP1 DUP3 GT ISZERO PUSH2 0x1788 JUMPI PUSH1 0x0 DUP2 SSTORE PUSH1 0x1 ADD PUSH2 0x1774 JUMP JUMPDEST POP SWAP1 JUMP JUMPDEST PUSH1 0x1 PUSH1 0x1 PUSH1 0xE0 SHL SUB NOT DUP2 AND DUP2 EQ PUSH2 0xD77 JUMPI PUSH1 0x0 DUP1 REVERT JUMPDEST PUSH1 0x0 PUSH1 0x20 DUP3 DUP5 SUB SLT ISZERO PUSH2 0x17B4 JUMPI PUSH1 0x0 DUP1 REVERT JUMPDEST DUP2 CALLDATALOAD PUSH2 0x142E DUP2 PUSH2 0x178C JUMP JUMPDEST PUSH1 0x0 PUSH1 0x20 DUP3 DUP5 SUB SLT ISZERO PUSH2 0x17D1 JUMPI PUSH1 0x0 DUP1 REVERT JUMPDEST POP CALLDATALOAD SWAP2 SWAP1 POP JUMP JUMPDEST PUSH1 0x0 JUMPDEST DUP4 DUP2 LT ISZERO PUSH2 0x17F3 JUMPI DUP2 DUP2 ADD MLOAD DUP4 DUP3 ADD MSTORE PUSH1 0x20 ADD PUSH2 0x17DB JUMP JUMPDEST POP POP PUSH1 0x0 SWAP2 ADD MSTORE JUMP JUMPDEST PUSH1 0x0 DUP2 MLOAD DUP1 DUP5 MSTORE PUSH2 0x1814 DUP2 PUSH1 0x20 DUP7 ADD PUSH1 0x20 DUP7 ADD PUSH2 0x17D8 JUMP JUMPDEST PUSH1 0x1F ADD PUSH1 0x1F NOT AND SWAP3 SWAP1 SWAP3 ADD PUSH1 0x20 ADD SWAP3 SWAP2 POP POP JUMP JUMPDEST PUSH1 0x20 DUP2 MSTORE PUSH1 0x0 PUSH2 0x142E PUSH1 0x20 DUP4 ADD DUP5 PUSH2 0x17FC JUMP JUMPDEST PUSH1 0x1 PUSH1 0x1 PUSH1 0xA0 SHL SUB SWAP2 SWAP1 SWAP2 AND DUP2 MSTORE PUSH1 0x20 ADD SWAP1 JUMP JUMPDEST DUP1 CALLDATALOAD PUSH1 0x1 PUSH1 0x1 PUSH1 0xA0 SHL SUB DUP2 AND DUP2 EQ PUSH2 0x1866 JUMPI PUSH1 0x0 DUP1 REVERT JUMPDEST SWAP2 SWAP1 POP JUMP JUMPDEST PUSH1 0x0 DUP1 PUSH1 0x40 DUP4 DUP6 SUB SLT ISZERO PUSH2 0x187E JUMPI PUSH1 0x0 DUP1 REVERT JUMPDEST PUSH2 0x1887 DUP4 PUSH2 0x184F JUMP JUMPDEST SWAP5 PUSH1 0x20 SWAP4 SWAP1 SWAP4 ADD CALLDATALOAD SWAP4 POP POP POP JUMP JUMPDEST PUSH4 0x4E487B71 PUSH1 0xE0 SHL PUSH1 0x0 MSTORE PUSH1 0x41 PUSH1 0x4 MSTORE PUSH1 0x24 PUSH1 0x0 REVERT JUMPDEST PUSH1 0x0 PUSH1 0x1 PUSH1 0x1 PUSH1 0x40 SHL SUB DUP1 DUP5 GT ISZERO PUSH2 0x18C5 JUMPI PUSH2 0x18C5 PUSH2 0x1895 JUMP JUMPDEST PUSH1 0x40 MLOAD PUSH1 0x1F DUP6 ADD PUSH1 0x1F NOT SWAP1 DUP2 AND PUSH1 0x3F ADD AND DUP2 ADD SWAP1 DUP3 DUP3 GT DUP2 DUP4 LT OR ISZERO PUSH2 0x18ED JUMPI PUSH2 0x18ED PUSH2 0x1895 JUMP JUMPDEST DUP2 PUSH1 0x40 MSTORE DUP1 SWAP4 POP DUP6 DUP2 MSTORE DUP7 DUP7 DUP7 ADD GT ISZERO PUSH2 0x1906 JUMPI PUSH1 0x0 DUP1 REVERT JUMPDEST DUP6 DUP6 PUSH1 0x20 DUP4 ADD CALLDATACOPY PUSH1 0x0 PUSH1 0x20 DUP8 DUP4 ADD ADD MSTORE POP POP POP SWAP4 SWAP3 POP POP POP JUMP JUMPDEST PUSH1 0x0 DUP3 PUSH1 0x1F DUP4 ADD SLT PUSH2 0x1931 JUMPI PUSH1 0x0 DUP1 REVERT JUMPDEST PUSH2 0x142E DUP4 DUP4 CALLDATALOAD PUSH1 0x20 DUP6 ADD PUSH2 0x18AB JUMP JUMPDEST PUSH1 0x0 DUP1 PUSH1 0x40 DUP4 DUP6 SUB SLT ISZERO PUSH2 0x1953 JUMPI PUSH1 0x0 DUP1 REVERT JUMPDEST DUP3 CALLDATALOAD SWAP2 POP PUSH1 0x20 DUP4 ADD CALLDATALOAD PUSH1 0x1 PUSH1 0x1 PUSH1 0x40 SHL SUB DUP2 GT ISZERO PUSH2 0x1970 JUMPI PUSH1 0x0 DUP1 REVERT JUMPDEST PUSH2 0x197C DUP6 DUP3 DUP7 ADD PUSH2 0x1920 JUMP JUMPDEST SWAP2 POP POP SWAP3 POP SWAP3 SWAP1 POP JUMP JUMPDEST PUSH1 0x0 DUP1 PUSH1 0x0 PUSH1 0x60 DUP5 DUP7 SUB SLT ISZERO PUSH2 0x199B JUMPI PUSH1 0x0 DUP1 REVERT JUMPDEST PUSH2 0x19A4 DUP5 PUSH2 0x184F JUMP JUMPDEST SWAP3 POP PUSH2 0x19B2 PUSH1 0x20 DUP6 ADD PUSH2 0x184F JUMP JUMPDEST SWAP2 POP PUSH1 0x40 DUP5 ADD CALLDATALOAD SWAP1 POP SWAP3 POP SWAP3 POP SWAP3 JUMP JUMPDEST PUSH1 0x0 PUSH1 0x20 DUP3 DUP5 SUB SLT ISZERO PUSH2 0x19D4 JUMPI PUSH1 0x0 DUP1 REVERT JUMPDEST DUP2 CALLDATALOAD PUSH1 0x1 PUSH1 0x1 PUSH1 0x40 SHL SUB DUP2 GT ISZERO PUSH2 0x19EA JUMPI PUSH1 0x0 DUP1 REVERT JUMPDEST PUSH2 0xC3D DUP5 DUP3 DUP6 ADD PUSH2 0x1920 JUMP JUMPDEST PUSH1 0x0 PUSH1 0x20 DUP3 DUP5 SUB SLT ISZERO PUSH2 0x1A08 JUMPI PUSH1 0x0 DUP1 REVERT JUMPDEST PUSH2 0x142E DUP3 PUSH2 0x184F JUMP JUMPDEST PUSH1 0x0 DUP1 PUSH1 0x40 DUP4 DUP6 SUB SLT ISZERO PUSH2 0x1A24 JUMPI PUSH1 0x0 DUP1 REVERT JUMPDEST PUSH2 0x1A2D DUP4 PUSH2 0x184F JUMP JUMPDEST SWAP2 POP PUSH1 0x20 DUP4 ADD CALLDATALOAD DUP1 ISZERO ISZERO DUP2 EQ PUSH2 0x1A42 JUMPI PUSH1 0x0 DUP1 REVERT JUMPDEST DUP1 SWAP2 POP POP SWAP3 POP SWAP3 SWAP1 POP JUMP JUMPDEST PUSH1 0x0 DUP1 PUSH1 0x0 DUP1 PUSH1 0x80 DUP6 DUP8 SUB SLT ISZERO PUSH2 0x1A63 JUMPI PUSH1 0x0 DUP1 REVERT JUMPDEST PUSH2 0x1A6C DUP6 PUSH2 0x184F JUMP JUMPDEST SWAP4 POP PUSH2 0x1A7A PUSH1 0x20 DUP7 ADD PUSH2 0x184F JUMP JUMPDEST SWAP3 POP PUSH1 0x40 DUP6 ADD CALLDATALOAD SWAP2 POP PUSH1 0x60 DUP6 ADD CALLDATALOAD PUSH1 0x1 PUSH1 0x1 PUSH1 0x40 SHL SUB DUP2 GT ISZERO PUSH2 0x1A9C JUMPI PUSH1 0x0 DUP1 REVERT JUMPDEST DUP6 ADD PUSH1 0x1F DUP2 ADD DUP8 SGT PUSH2 0x1AAD JUMPI PUSH1 0x0 DUP1 REVERT JUMPDEST PUSH2 0x1ABC DUP8 DUP3 CALLDATALOAD PUSH1 0x20 DUP5 ADD PUSH2 0x18AB JUMP JUMPDEST SWAP2 POP POP SWAP3 SWAP6 SWAP2 SWAP5 POP SWAP3 POP JUMP JUMPDEST PUSH1 0x0 DUP1 PUSH1 0x40 DUP4 DUP6 SUB SLT ISZERO PUSH2 0x1ADB JUMPI PUSH1 0x0 DUP1 REVERT JUMPDEST PUSH2 0x1AE4 DUP4 PUSH2 0x184F JUMP JUMPDEST SWAP2 POP PUSH2 0x1AF2 PUSH1 0x20 DUP5 ADD PUSH2 0x184F JUMP JUMPDEST SWAP1 POP SWAP3 POP SWAP3 SWAP1 POP JUMP JUMPDEST PUSH1 0x1 DUP2 DUP2 SHR SWAP1 DUP3 AND DUP1 PUSH2 0x1B0F JUMPI PUSH1 0x7F DUP3 AND SWAP2 POP JUMPDEST PUSH1 0x20 DUP3 LT DUP2 SUB PUSH2 0x1B2F JUMPI PUSH4 0x4E487B71 PUSH1 0xE0 SHL PUSH1 0x0 MSTORE PUSH1 0x22 PUSH1 0x4 MSTORE PUSH1 0x24 PUSH1 0x0 REVERT JUMPDEST POP SWAP2 SWAP1 POP JUMP JUMPDEST PUSH1 0x20 DUP1 DUP3 MSTORE PUSH1 0x13 SWAP1 DUP3 ADD MSTORE PUSH19 0x13DB9B1E481D985D5B1D0818D85B8818D85B1B PUSH1 0x6A SHL PUSH1 0x40 DUP3 ADD MSTORE PUSH1 0x60 ADD SWAP1 JUMP JUMPDEST PUSH1 0x20 DUP1 DUP3 MSTORE PUSH1 0x9 SWAP1 DUP3 ADD MSTORE PUSH9 0x456D70747920555249 PUSH1 0xB8 SHL PUSH1 0x40 DUP3 ADD MSTORE PUSH1 0x60 ADD SWAP1 JUMP JUMPDEST DUP3 DUP2 MSTORE PUSH1 0x40 PUSH1 0x20 DUP3 ADD MSTORE PUSH1 0x0 PUSH2 0xC3D PUSH1 0x40 DUP4 ADD DUP5 PUSH2 0x17FC JUMP JUMPDEST PUSH1 0x20 DUP1 DUP3 MSTORE PUSH1 0x2D SWAP1 DUP3 ADD MSTORE PUSH32 0x4552433732313A2063616C6C6572206973206E6F7420746F6B656E206F776E65 PUSH1 0x40 DUP3 ADD MSTORE PUSH13 0x1C881BDC88185C1C1C9BDD9959 PUSH1 0x9A SHL PUSH1 0x60 DUP3 ADD MSTORE PUSH1 0x80 ADD SWAP1 JUMP JUMPDEST PUSH1 0x1F DUP3 GT ISZERO PUSH2 0x576 JUMPI PUSH1 0x0 DUP2 DUP2 MSTORE PUSH1 0x20 DUP2 KECCAK256 PUSH1 0x1F DUP6 ADD PUSH1 0x5 SHR DUP2 ADD PUSH1 0x20 DUP7 LT ISZERO PUSH2 0x1C12 JUMPI POP DUP1 JUMPDEST PUSH1 0x1F DUP6 ADD PUSH1 0x5 SHR DUP3 ADD SWAP2 POP JUMPDEST DUP2 DUP2 LT ISZERO PUSH2 0x1C31 JUMPI DUP3 DUP2 SSTORE PUSH1 0x1 ADD PUSH2 0x1C1E JUMP JUMPDEST POP POP POP POP POP POP JUMP JUMPDEST DUP2 MLOAD PUSH1 0x1 PUSH1 0x1 PUSH1 0x40 SHL SUB DUP2 GT ISZERO PUSH2 0x1C52 JUMPI PUSH2 0x1C52 PUSH2 0x1895 JUMP JUMPDEST PUSH2 0x1C66 DUP2 PUSH2 0x1C60 DUP5 SLOAD PUSH2 0x1AFB JUMP JUMPDEST DUP5 PUSH2 0x1BEB JUMP JUMPDEST PUSH1 0x20 DUP1 PUSH1 0x1F DUP4 GT PUSH1 0x1 DUP2 EQ PUSH2 0x1C9B JUMPI PUSH1 0x0 DUP5 ISZERO PUSH2 0x1C83 JUMPI POP DUP6 DUP4 ADD MLOAD JUMPDEST PUSH1 0x0 NOT PUSH1 0x3 DUP7 SWAP1 SHL SHR NOT AND PUSH1 0x1 DUP6 SWAP1 SHL OR DUP6 SSTORE PUSH2 0x1C31 JUMP JUMPDEST PUSH1 0x0 DUP6 DUP2 MSTORE PUSH1 0x20 DUP2 KECCAK256 PUSH1 0x1F NOT DUP7 AND SWAP2 JUMPDEST DUP3 DUP2 LT ISZERO PUSH2 0x1CCA JUMPI DUP9 DUP7 ADD MLOAD DUP3 SSTORE SWAP5 DUP5 ADD SWAP5 PUSH1 0x1 SWAP1 SWAP2 ADD SWAP1 DUP5 ADD PUSH2 0x1CAB JUMP JUMPDEST POP DUP6 DUP3 LT ISZERO PUSH2 0x1CE8 JUMPI DUP8 DUP6 ADD MLOAD PUSH1 0x0 NOT PUSH1 0x3 DUP9 SWAP1 SHL PUSH1 0xF8 AND SHR NOT AND DUP2 SSTORE JUMPDEST POP POP POP POP POP PUSH1 0x1 SWAP1 DUP2 SHL ADD SWAP1 SSTORE POP JUMP JUMPDEST PUSH1 0x0 PUSH1 0x1 DUP3 ADD PUSH2 0x1D18 JUMPI PUSH4 0x4E487B71 PUSH1 0xE0 SHL PUSH1 0x0 MSTORE PUSH1 0x11 PUSH1 0x4 MSTORE PUSH1 0x24 PUSH1 0x0 REVERT JUMPDEST POP PUSH1 0x1 ADD SWAP1 JUMP JUMPDEST DUP4 DUP2 MSTORE PUSH1 0x0 PUSH1 0x20 DUP5 DUP2 DUP5 ADD MSTORE PUSH1 0x60 PUSH1 0x40 DUP5 ADD MSTORE PUSH1 0x0 DUP5 SLOAD PUSH2 0x1D3F DUP2 PUSH2 0x1AFB JUMP JUMPDEST DUP1 PUSH1 0x60 DUP8 ADD MSTORE PUSH1 0x80 PUSH1 0x1 DUP1 DUP5 AND PUSH1 0x0 DUP2 EQ PUSH2 0x1D61 JUMPI PUSH1 0x1 DUP2 EQ PUSH2 0x1D7B JUMPI PUSH2 0x1DA9 JUMP JUMPDEST PUSH1 0xFF NOT DUP6 AND DUP10 DUP5 ADD MSTORE DUP4 ISZERO ISZERO PUSH1 0x5 SHL DUP10 ADD DUP4 ADD SWAP6 POP PUSH2 0x1DA9 JUMP JUMPDEST DUP10 PUSH1 0x0 MSTORE DUP7 PUSH1 0x0 KECCAK256 PUSH1 0x0 JUMPDEST DUP6 DUP2 LT ISZERO PUSH2 0x1DA1 JUMPI DUP2 SLOAD DUP12 DUP3 ADD DUP7 ADD MSTORE SWAP1 DUP4 ADD SWAP1 DUP9 ADD PUSH2 0x1D86 JUMP JUMPDEST DUP11 ADD DUP5 ADD SWAP7 POP POP JUMPDEST POP SWAP4 SWAP11 SWAP10 POP POP POP POP POP POP POP POP POP POP JUMP JUMPDEST PUSH1 0x20 DUP1 DUP3 MSTORE PUSH1 0x18 SWAP1 DUP3 ADD MSTORE PUSH24 0x115490CDCC8C4E881A5B9D985B1A59081D1BDAD95B881251 PUSH1 0x42 SHL PUSH1 0x40 DUP3 ADD MSTORE PUSH1 0x60 ADD SWAP1 JUMP JUMPDEST PUSH1 0x0 DUP4 MLOAD PUSH2 0x1DFD DUP2 DUP5 PUSH1 0x20 DUP9 ADD PUSH2 0x17D8 JUMP JUMPDEST DUP4 MLOAD SWAP1 DUP4 ADD SWAP1 PUSH2 0x1E11 DUP2 DUP4 PUSH1 0x20 DUP9 ADD PUSH2 0x17D8 JUMP JUMPDEST ADD SWAP5 SWAP4 POP POP POP POP JUMP JUMPDEST PUSH1 0x20 DUP1 DUP3 MSTORE PUSH1 0x25 SWAP1 DUP3 ADD MSTORE PUSH32 0x4552433732313A207472616E736665722066726F6D20696E636F727265637420 PUSH1 0x40 DUP3 ADD MSTORE PUSH5 0x37BBB732B9 PUSH1 0xD9 SHL PUSH1 0x60 DUP3 ADD MSTORE PUSH1 0x80 ADD SWAP1 JUMP JUMPDEST PUSH1 0x20 DUP1 DUP3 MSTORE PUSH1 0x1C SWAP1 DUP3 ADD MSTORE PUSH32 0x4552433732313A20746F6B656E20616C7265616479206D696E74656400000000 PUSH1 0x40 DUP3 ADD MSTORE PUSH1 0x60 ADD SWAP1 JUMP JUMPDEST PUSH1 0x20 DUP1 DUP3 MSTORE PUSH1 0x32 SWAP1 DUP3 ADD MSTORE PUSH32 0x4552433732313A207472616E7366657220746F206E6F6E204552433732315265 PUSH1 0x40 DUP3 ADD MSTORE PUSH18 0x31B2B4BB32B91034B6B83632B6B2B73A32B9 PUSH1 0x71 SHL PUSH1 0x60 DUP3 ADD MSTORE PUSH1 0x80 ADD SWAP1 JUMP JUMPDEST PUSH1 0x1 PUSH1 0x1 PUSH1 0xA0 SHL SUB DUP6 DUP2 AND DUP3 MSTORE DUP5 AND PUSH1 0x20 DUP3 ADD MSTORE PUSH1 0x40 DUP2 ADD DUP4 SWAP1 MSTORE PUSH1 0x80 PUSH1 0x60 DUP3 ADD DUP2 SWAP1 MSTORE PUSH1 0x0 SWAP1 PUSH2 0x1F1B SWAP1 DUP4 ADD DUP5 PUSH2 0x17FC JUMP JUMPDEST SWAP7 SWAP6 POP POP POP POP POP POP JUMP JUMPDEST PUSH1 0x0 PUSH1 0x20 DUP3 DUP5 SUB SLT ISZERO PUSH2 0x1F37 JUMPI PUSH1 0x0 DUP1 REVERT JUMPDEST DUP2 MLOAD PUSH2 0x142E DUP2 PUSH2 0x178C JUMP INVALID 0xDD CALLCODE MSTORE 0xAD SHL 0xE2 0xC8 SWAP12 PUSH10 0xC2B068FC378DAA952BA7 CALL PUSH4 0xC4A11628 CREATE2 GAS 0x4D CREATE2 0x23 0xB3 0xEF LOG2 PUSH5 0x6970667358 0x22 SLT KECCAK256 CREATE 0xD9 EXTCODESIZE OR LOG1 PUSH28 0xE8268E01B82AB184B3120436F62407C8F212F2CC1DF067BF11196473 PUSH16 0x6C6343000815003360C0604052600480 SLOAD PUSH3 0xFFFFFF PUSH1 0xA0 SHL NOT AND PUSH1 0x1 PUSH1 0xA8 SHL OR SWAP1 SSTORE CALLVALUE DUP1 ISZERO PUSH3 0x26 JUMPI PUSH1 0x0 DUP1 REVERT JUMPDEST POP PUSH1 0x40 MLOAD PUSH3 0x2618 CODESIZE SUB DUP1 PUSH3 0x2618 DUP4 CODECOPY DUP2 ADD PUSH1 0x40 DUP2 SWAP1 MSTORE PUSH3 0x49 SWAP2 PUSH3 0x2F5 JUMP JUMPDEST PUSH3 0x54 CALLER PUSH3 0x1F1 JUMP JUMPDEST PUSH1 0x1 DUP1 SSTORE PUSH1 0x1 PUSH1 0x1 PUSH1 0xA0 SHL SUB DUP7 AND PUSH3 0x9E JUMPI PUSH1 0x40 MLOAD PUSH3 0x461BCD PUSH1 0xE5 SHL DUP2 MSTORE PUSH1 0x20 PUSH1 0x4 DUP3 ADD MSTORE PUSH1 0x7 PUSH1 0x24 DUP3 ADD MSTORE PUSH7 0x125B9D985B1A59 PUSH1 0xCA SHL PUSH1 0x44 DUP3 ADD MSTORE PUSH1 0x64 ADD JUMPDEST PUSH1 0x40 MLOAD DUP1 SWAP2 SUB SWAP1 REVERT JUMPDEST PUSH1 0x1 PUSH1 0x1 PUSH1 0xA0 SHL SUB DUP4 AND PUSH3 0xE0 JUMPI PUSH1 0x40 MLOAD PUSH3 0x461BCD PUSH1 0xE5 SHL DUP2 MSTORE PUSH1 0x20 PUSH1 0x4 DUP3 ADD MSTORE PUSH1 0x7 PUSH1 0x24 DUP3 ADD MSTORE PUSH7 0x125B9D985B1A59 PUSH1 0xCA SHL PUSH1 0x44 DUP3 ADD MSTORE PUSH1 0x64 ADD PUSH3 0x95 JUMP JUMPDEST PUSH1 0x1 PUSH1 0x1 PUSH1 0xA0 SHL SUB DUP2 AND PUSH3 0x122 JUMPI PUSH1 0x40 MLOAD PUSH3 0x461BCD PUSH1 0xE5 SHL DUP2 MSTORE PUSH1 0x20 PUSH1 0x4 DUP3 ADD MSTORE PUSH1 0x7 PUSH1 0x24 DUP3 ADD MSTORE PUSH7 0x125B9D985B1A59 PUSH1 0xCA SHL PUSH1 0x44 DUP3 ADD MSTORE PUSH1 0x64 ADD PUSH3 0x95 JUMP JUMPDEST PUSH1 0x1 PUSH1 0x1 PUSH1 0xA0 SHL SUB DUP3 AND PUSH3 0x164 JUMPI PUSH1 0x40 MLOAD PUSH3 0x461BCD PUSH1 0xE5 SHL DUP2 MSTORE PUSH1 0x20 PUSH1 0x4 DUP3 ADD MSTORE PUSH1 0x7 PUSH1 0x24 DUP3 ADD MSTORE PUSH7 0x125B9D985B1A59 PUSH1 0xCA SHL PUSH1 0x44 DUP3 ADD MSTORE PUSH1 0x64 ADD PUSH3 0x95 JUMP JUMPDEST PUSH1 0x2 DUP1 SLOAD PUSH1 0x1 PUSH1 0x1 PUSH1 0xA0 SHL SUB DUP1 DUP9 AND PUSH1 0x1 PUSH1 0x1 PUSH1 0xA0 SHL SUB NOT SWAP3 DUP4 AND OR SWAP1 SWAP3 SSTORE PUSH1 0x3 DUP1 SLOAD DUP10 DUP5 AND SWAP1 DUP4 AND OR SWAP1 SSTORE DUP5 DUP3 AND PUSH1 0x80 MSTORE DUP4 DUP3 AND PUSH1 0xA0 MSTORE PUSH1 0x4 DUP1 SLOAD SWAP3 DUP5 AND SWAP3 SWAP1 SWAP2 AND SWAP2 SWAP1 SWAP2 OR SWAP1 SSTORE DUP4 MLOAD PUSH3 0x1C2 SWAP1 PUSH1 0x5 SWAP1 PUSH1 0x20 DUP8 ADD SWAP1 PUSH3 0x241 JUMP JUMPDEST POP PUSH1 0x1 PUSH1 0x1 PUSH1 0xA0 SHL SUB AND PUSH1 0x0 SWAP1 DUP2 MSTORE PUSH1 0x8 PUSH1 0x20 MSTORE PUSH1 0x40 SWAP1 KECCAK256 DUP1 SLOAD PUSH1 0xFF NOT AND PUSH1 0x1 OR SWAP1 SSTORE POP PUSH3 0x426 SWAP4 POP POP POP POP JUMP JUMPDEST PUSH1 0x0 DUP1 SLOAD PUSH1 0x1 PUSH1 0x1 PUSH1 0xA0 SHL SUB DUP4 DUP2 AND PUSH1 0x1 PUSH1 0x1 PUSH1 0xA0 SHL SUB NOT DUP4 AND DUP2 OR DUP5 SSTORE PUSH1 0x40 MLOAD SWAP2 SWAP1 SWAP3 AND SWAP3 DUP4 SWAP2 PUSH32 0x8BE0079C531659141344CD1FD0A4F28419497F9722A3DAAFE3B4186F6B6457E0 SWAP2 SWAP1 LOG3 POP POP JUMP JUMPDEST DUP3 DUP1 SLOAD DUP3 DUP3 SSTORE SWAP1 PUSH1 0x0 MSTORE PUSH1 0x20 PUSH1 0x0 KECCAK256 SWAP1 DUP2 ADD SWAP3 DUP3 ISZERO PUSH3 0x299 JUMPI SWAP2 PUSH1 0x20 MUL DUP3 ADD JUMPDEST DUP3 DUP2 GT ISZERO PUSH3 0x299 JUMPI DUP3 MLOAD DUP3 SLOAD PUSH1 0x1 PUSH1 0x1 PUSH1 0xA0 SHL SUB NOT AND PUSH1 0x1 PUSH1 0x1 PUSH1 0xA0 SHL SUB SWAP1 SWAP2 AND OR DUP3 SSTORE PUSH1 0x20 SWAP1 SWAP3 ADD SWAP2 PUSH1 0x1 SWAP1 SWAP2 ADD SWAP1 PUSH3 0x262 JUMP JUMPDEST POP PUSH3 0x2A7 SWAP3 SWAP2 POP PUSH3 0x2AB JUMP JUMPDEST POP SWAP1 JUMP JUMPDEST JUMPDEST DUP1 DUP3 GT ISZERO PUSH3 0x2A7 JUMPI PUSH1 0x0 DUP2 SSTORE PUSH1 0x1 ADD PUSH3 0x2AC JUMP JUMPDEST DUP1 MLOAD PUSH1 0x1 PUSH1 0x1 PUSH1 0xA0 SHL SUB DUP2 AND DUP2 EQ PUSH3 0x2DA JUMPI PUSH1 0x0 DUP1 REVERT JUMPDEST SWAP2 SWAP1 POP JUMP JUMPDEST PUSH4 0x4E487B71 PUSH1 0xE0 SHL PUSH1 0x0 MSTORE PUSH1 0x41 PUSH1 0x4 MSTORE PUSH1 0x24 PUSH1 0x0 REVERT JUMPDEST PUSH1 0x0 DUP1 PUSH1 0x0 DUP1 PUSH1 0x0 DUP1 PUSH1 0xC0 DUP8 DUP10 SUB SLT ISZERO PUSH3 0x30F JUMPI PUSH1 0x0 DUP1 REVERT JUMPDEST PUSH3 0x31A DUP8 PUSH3 0x2C2 JUMP JUMPDEST SWAP6 POP PUSH1 0x20 PUSH3 0x32B DUP2 DUP10 ADD PUSH3 0x2C2 JUMP JUMPDEST PUSH1 0x40 DUP10 ADD MLOAD SWAP1 SWAP7 POP PUSH1 0x1 PUSH1 0x1 PUSH1 0x40 SHL SUB DUP1 DUP3 GT ISZERO PUSH3 0x349 JUMPI PUSH1 0x0 DUP1 REVERT JUMPDEST DUP2 DUP11 ADD SWAP2 POP DUP11 PUSH1 0x1F DUP4 ADD SLT PUSH3 0x35E JUMPI PUSH1 0x0 DUP1 REVERT JUMPDEST DUP2 MLOAD DUP2 DUP2 GT ISZERO PUSH3 0x373 JUMPI PUSH3 0x373 PUSH3 0x2DF JUMP JUMPDEST DUP1 PUSH1 0x5 SHL PUSH1 0x40 MLOAD PUSH1 0x1F NOT PUSH1 0x3F DUP4 ADD AND DUP2 ADD DUP2 DUP2 LT DUP6 DUP3 GT OR ISZERO PUSH3 0x39B JUMPI PUSH3 0x39B PUSH3 0x2DF JUMP JUMPDEST PUSH1 0x40 MSTORE SWAP2 DUP3 MSTORE DUP5 DUP3 ADD SWAP3 POP DUP4 DUP2 ADD DUP6 ADD SWAP2 DUP14 DUP4 GT ISZERO PUSH3 0x3BA JUMPI PUSH1 0x0 DUP1 REVERT JUMPDEST SWAP4 DUP6 ADD SWAP4 JUMPDEST DUP3 DUP6 LT ISZERO PUSH3 0x3E3 JUMPI PUSH3 0x3D3 DUP6 PUSH3 0x2C2 JUMP JUMPDEST DUP5 MSTORE SWAP4 DUP6 ADD SWAP4 SWAP3 DUP6 ADD SWAP3 PUSH3 0x3BF JUMP JUMPDEST DUP1 SWAP10 POP POP POP POP POP POP POP PUSH3 0x3FA PUSH1 0x60 DUP9 ADD PUSH3 0x2C2 JUMP JUMPDEST SWAP3 POP PUSH3 0x40A PUSH1 0x80 DUP9 ADD PUSH3 0x2C2 JUMP JUMPDEST SWAP2 POP PUSH3 0x41A PUSH1 0xA0 DUP9 ADD PUSH3 0x2C2 JUMP JUMPDEST SWAP1 POP SWAP3 SWAP6 POP SWAP3 SWAP6 POP SWAP3 SWAP6 JUMP JUMPDEST PUSH1 0x80 MLOAD PUSH1 0xA0 MLOAD PUSH2 0x2194 PUSH3 0x484 PUSH1 0x0 CODECOPY PUSH1 0x0 DUP2 DUP2 PUSH2 0x4A5 ADD MSTORE DUP2 DUP2 PUSH2 0xAC2 ADD MSTORE DUP2 DUP2 PUSH2 0x10CD ADD MSTORE DUP2 DUP2 PUSH2 0x1179 ADD MSTORE DUP2 DUP2 PUSH2 0x1220 ADD MSTORE PUSH2 0x1296 ADD MSTORE PUSH1 0x0 DUP2 DUP2 PUSH2 0x3D7 ADD MSTORE DUP2 DUP2 PUSH2 0x7B7 ADD MSTORE DUP2 DUP2 PUSH2 0x179A ADD MSTORE PUSH2 0x182F ADD MSTORE PUSH2 0x2194 PUSH1 0x0 RETURN INVALID PUSH1 0x80 PUSH1 0x40 MSTORE PUSH1 0x4 CALLDATASIZE LT PUSH2 0x17C JUMPI PUSH1 0x0 CALLDATALOAD PUSH1 0xE0 SHR DUP1 PUSH4 0x715018A6 GT PUSH2 0xD2 JUMPI DUP1 PUSH4 0x715018A6 EQ PUSH2 0x39B JUMPI DUP1 PUSH4 0x7DE25613 EQ PUSH2 0x3B0 JUMPI DUP1 PUSH4 0x81E18B47 EQ PUSH2 0x3C5 JUMPI DUP1 PUSH4 0x8DA5CB5B EQ PUSH2 0x3F9 JUMPI DUP1 PUSH4 0xA0C39E07 EQ PUSH2 0x40E JUMPI DUP1 PUSH4 0xA13D6BB5 EQ PUSH2 0x42E JUMPI DUP1 PUSH4 0xA7771EA5 EQ PUSH2 0x44E JUMPI DUP1 PUSH4 0xB18F19F0 EQ PUSH2 0x47E JUMPI DUP1 PUSH4 0xC2F92192 EQ PUSH2 0x493 JUMPI DUP1 PUSH4 0xC45A0155 EQ PUSH2 0x4C7 JUMPI DUP1 PUSH4 0xCF411D67 EQ PUSH2 0x4E7 JUMPI DUP1 PUSH4 0xDB006A75 EQ PUSH2 0x507 JUMPI DUP1 PUSH4 0xF029BA6F EQ PUSH2 0x527 JUMPI DUP1 PUSH4 0xF2FDE38B EQ PUSH2 0x548 JUMPI DUP1 PUSH4 0xF56E9C66 EQ PUSH2 0x568 JUMPI DUP1 PUSH4 0xF80ECA22 EQ PUSH2 0x588 JUMPI PUSH1 0x0 DUP1 REVERT JUMPDEST DUP1 PUSH4 0x2187669 EQ PUSH2 0x188 JUMPI DUP1 PUSH4 0x7CE35D9 EQ PUSH2 0x1BE JUMPI DUP1 PUSH4 0x17342EA7 EQ PUSH2 0x1C8 JUMPI DUP1 PUSH4 0x1D28E003 EQ PUSH2 0x203 JUMPI DUP1 PUSH4 0x24D7806C EQ PUSH2 0x234 JUMPI DUP1 PUSH4 0x2E91EC76 EQ PUSH2 0x254 JUMPI DUP1 PUSH4 0x429B62E5 EQ PUSH2 0x274 JUMPI DUP1 PUSH4 0x4B0BDDD2 EQ PUSH2 0x2A4 JUMPI DUP1 PUSH4 0x5216AEEC EQ PUSH2 0x2C4 JUMPI DUP1 PUSH4 0x549C4627 EQ PUSH2 0x2DA JUMPI DUP1 PUSH4 0x55B8FB81 EQ PUSH2 0x2FB JUMPI DUP1 PUSH4 0x58E87B23 EQ PUSH2 0x31B JUMPI DUP1 PUSH4 0x5BF8633A EQ PUSH2 0x33B JUMPI DUP1 PUSH4 0x6F75BE9A EQ PUSH2 0x35B JUMPI DUP1 PUSH4 0x6FF1C9BC EQ PUSH2 0x37B JUMPI PUSH1 0x0 DUP1 REVERT JUMPDEST CALLDATASIZE PUSH2 0x183 JUMPI STOP JUMPDEST PUSH1 0x0 DUP1 REVERT JUMPDEST CALLVALUE DUP1 ISZERO PUSH2 0x194 JUMPI PUSH1 0x0 DUP1 REVERT JUMPDEST POP PUSH1 0x3 SLOAD PUSH2 0x1A8 SWAP1 PUSH1 0x1 PUSH1 0x1 PUSH1 0xA0 SHL SUB AND DUP2 JUMP JUMPDEST PUSH1 0x40 MLOAD PUSH2 0x1B5 SWAP2 SWAP1 PUSH2 0x1CA2 JUMP JUMPDEST PUSH1 0x40 MLOAD DUP1 SWAP2 SUB SWAP1 RETURN JUMPDEST PUSH2 0x1C6 PUSH2 0x59D JUMP JUMPDEST STOP JUMPDEST CALLVALUE DUP1 ISZERO PUSH2 0x1D4 JUMPI PUSH1 0x0 DUP1 REVERT JUMPDEST POP PUSH2 0x1F5 PUSH2 0x1E3 CALLDATASIZE PUSH1 0x4 PUSH2 0x1CB6 JUMP JUMPDEST PUSH1 0x7 PUSH1 0x20 MSTORE PUSH1 0x0 SWAP1 DUP2 MSTORE PUSH1 0x40 SWAP1 KECCAK256 SLOAD DUP2 JUMP JUMPDEST PUSH1 0x40 MLOAD SWAP1 DUP2 MSTORE PUSH1 0x20 ADD PUSH2 0x1B5 JUMP JUMPDEST CALLVALUE DUP1 ISZERO PUSH2 0x20F JUMPI PUSH1 0x0 DUP1 REVERT JUMPDEST POP PUSH1 0x4 SLOAD PUSH2 0x224 SWAP1 PUSH1 0x1 PUSH1 0xA0 SHL SWAP1 DIV PUSH1 0xFF AND DUP2 JUMP JUMPDEST PUSH1 0x40 MLOAD SWAP1 ISZERO ISZERO DUP2 MSTORE PUSH1 0x20 ADD PUSH2 0x1B5 JUMP JUMPDEST CALLVALUE DUP1 ISZERO PUSH2 0x240 JUMPI PUSH1 0x0 DUP1 REVERT JUMPDEST POP PUSH2 0x224 PUSH2 0x24F CALLDATASIZE PUSH1 0x4 PUSH2 0x1CE4 JUMP JUMPDEST PUSH2 0x9E9 JUMP JUMPDEST CALLVALUE DUP1 ISZERO PUSH2 0x260 JUMPI PUSH1 0x0 DUP1 REVERT JUMPDEST POP PUSH2 0x1C6 PUSH2 0x26F CALLDATASIZE PUSH1 0x4 PUSH2 0x1D53 JUMP JUMPDEST PUSH2 0xA2E JUMP JUMPDEST CALLVALUE DUP1 ISZERO PUSH2 0x280 JUMPI PUSH1 0x0 DUP1 REVERT JUMPDEST POP PUSH2 0x224 PUSH2 0x28F CALLDATASIZE PUSH1 0x4 PUSH2 0x1CE4 JUMP JUMPDEST PUSH1 0x8 PUSH1 0x20 MSTORE PUSH1 0x0 SWAP1 DUP2 MSTORE PUSH1 0x40 SWAP1 KECCAK256 SLOAD PUSH1 0xFF AND DUP2 JUMP JUMPDEST CALLVALUE DUP1 ISZERO PUSH2 0x2B0 JUMPI PUSH1 0x0 DUP1 REVERT JUMPDEST POP PUSH2 0x1C6 PUSH2 0x2BF CALLDATASIZE PUSH1 0x4 PUSH2 0x1DA2 JUMP JUMPDEST PUSH2 0xB5C JUMP JUMPDEST CALLVALUE DUP1 ISZERO PUSH2 0x2D0 JUMPI PUSH1 0x0 DUP1 REVERT JUMPDEST POP PUSH2 0x1F5 PUSH1 0x6 SLOAD DUP2 JUMP JUMPDEST CALLVALUE DUP1 ISZERO PUSH2 0x2E6 JUMPI PUSH1 0x0 DUP1 REVERT JUMPDEST POP PUSH1 0x4 SLOAD PUSH2 0x224 SWAP1 PUSH1 0x1 PUSH1 0xA8 SHL SWAP1 DIV PUSH1 0xFF AND DUP2 JUMP JUMPDEST CALLVALUE DUP1 ISZERO PUSH2 0x307 JUMPI PUSH1 0x0 DUP1 REVERT JUMPDEST POP PUSH2 0x1C6 PUSH2 0x316 CALLDATASIZE PUSH1 0x4 PUSH2 0x1DDB JUMP JUMPDEST PUSH2 0xBC3 JUMP JUMPDEST CALLVALUE DUP1 ISZERO PUSH2 0x327 JUMPI PUSH1 0x0 DUP1 REVERT JUMPDEST POP PUSH2 0x1C6 PUSH2 0x336 CALLDATASIZE PUSH1 0x4 PUSH2 0x1E1C JUMP JUMPDEST PUSH2 0xD65 JUMP JUMPDEST CALLVALUE DUP1 ISZERO PUSH2 0x347 JUMPI PUSH1 0x0 DUP1 REVERT JUMPDEST POP PUSH1 0x2 SLOAD PUSH2 0x1A8 SWAP1 PUSH1 0x1 PUSH1 0x1 PUSH1 0xA0 SHL SUB AND DUP2 JUMP JUMPDEST CALLVALUE DUP1 ISZERO PUSH2 0x367 JUMPI PUSH1 0x0 DUP1 REVERT JUMPDEST POP PUSH2 0x1A8 PUSH2 0x376 CALLDATASIZE PUSH1 0x4 PUSH2 0x1CB6 JUMP JUMPDEST PUSH2 0xE0F JUMP JUMPDEST CALLVALUE DUP1 ISZERO PUSH2 0x387 JUMPI PUSH1 0x0 DUP1 REVERT JUMPDEST POP PUSH2 0x1C6 PUSH2 0x396 CALLDATASIZE PUSH1 0x4 PUSH2 0x1CE4 JUMP JUMPDEST PUSH2 0xE39 JUMP JUMPDEST CALLVALUE DUP1 ISZERO PUSH2 0x3A7 JUMPI PUSH1 0x0 DUP1 REVERT JUMPDEST POP PUSH2 0x1C6 PUSH2 0xF12 JUMP JUMPDEST CALLVALUE DUP1 ISZERO PUSH2 0x3BC JUMPI PUSH1 0x0 DUP1 REVERT JUMPDEST POP PUSH2 0x224 PUSH2 0xF24 JUMP JUMPDEST CALLVALUE DUP1 ISZERO PUSH2 0x3D1 JUMPI PUSH1 0x0 DUP1 REVERT JUMPDEST POP PUSH2 0x1A8 PUSH32 0x0 DUP2 JUMP JUMPDEST CALLVALUE DUP1 ISZERO PUSH2 0x405 JUMPI PUSH1 0x0 DUP1 REVERT JUMPDEST POP PUSH2 0x1A8 PUSH2 0xF4E JUMP JUMPDEST CALLVALUE DUP1 ISZERO PUSH2 0x41A JUMPI PUSH1 0x0 DUP1 REVERT JUMPDEST POP PUSH2 0x1C6 PUSH2 0x429 CALLDATASIZE PUSH1 0x4 PUSH2 0x1D53 JUMP JUMPDEST PUSH2 0xF5D JUMP JUMPDEST CALLVALUE DUP1 ISZERO PUSH2 0x43A JUMPI PUSH1 0x0 DUP1 REVERT JUMPDEST POP PUSH2 0x1C6 PUSH2 0x449 CALLDATASIZE PUSH1 0x4 PUSH2 0x1E39 JUMP JUMPDEST PUSH2 0x1039 JUMP JUMPDEST CALLVALUE DUP1 ISZERO PUSH2 0x45A JUMPI PUSH1 0x0 DUP1 REVERT JUMPDEST POP PUSH2 0x224 PUSH2 0x469 CALLDATASIZE PUSH1 0x4 PUSH2 0x1CB6 JUMP JUMPDEST PUSH1 0x9 PUSH1 0x20 MSTORE PUSH1 0x0 SWAP1 DUP2 MSTORE PUSH1 0x40 SWAP1 KECCAK256 SLOAD PUSH1 0xFF AND DUP2 JUMP JUMPDEST CALLVALUE DUP1 ISZERO PUSH2 0x48A JUMPI PUSH1 0x0 DUP1 REVERT JUMPDEST POP PUSH2 0x224 PUSH2 0x141E JUMP JUMPDEST CALLVALUE DUP1 ISZERO PUSH2 0x49F JUMPI PUSH1 0x0 DUP1 REVERT JUMPDEST POP PUSH2 0x1A8 PUSH32 0x0 DUP2 JUMP JUMPDEST CALLVALUE DUP1 ISZERO PUSH2 0x4D3 JUMPI PUSH1 0x0 DUP1 REVERT JUMPDEST POP PUSH1 0x4 SLOAD PUSH2 0x1A8 SWAP1 PUSH1 0x1 PUSH1 0x1 PUSH1 0xA0 SHL SUB AND DUP2 JUMP JUMPDEST CALLVALUE DUP1 ISZERO PUSH2 0x4F3 JUMPI PUSH1 0x0 DUP1 REVERT JUMPDEST POP PUSH2 0x1C6 PUSH2 0x502 CALLDATASIZE PUSH1 0x4 PUSH2 0x1E1C JUMP JUMPDEST PUSH2 0x1447 JUMP JUMPDEST CALLVALUE DUP1 ISZERO PUSH2 0x513 JUMPI PUSH1 0x0 DUP1 REVERT JUMPDEST POP PUSH2 0x1C6 PUSH2 0x522 CALLDATASIZE PUSH1 0x4 PUSH2 0x1CB6 JUMP JUMPDEST PUSH2 0x14E6 JUMP JUMPDEST CALLVALUE DUP1 ISZERO PUSH2 0x533 JUMPI PUSH1 0x0 DUP1 REVERT JUMPDEST POP PUSH1 0x4 SLOAD PUSH2 0x224 SWAP1 PUSH1 0x1 PUSH1 0xB0 SHL SWAP1 DIV PUSH1 0xFF AND DUP2 JUMP JUMPDEST CALLVALUE DUP1 ISZERO PUSH2 0x554 JUMPI PUSH1 0x0 DUP1 REVERT JUMPDEST POP PUSH2 0x1C6 PUSH2 0x563 CALLDATASIZE PUSH1 0x4 PUSH2 0x1CE4 JUMP JUMPDEST PUSH2 0x198A JUMP JUMPDEST CALLVALUE DUP1 ISZERO PUSH2 0x574 JUMPI PUSH1 0x0 DUP1 REVERT JUMPDEST POP PUSH2 0x1C6 PUSH2 0x583 CALLDATASIZE PUSH1 0x4 PUSH2 0x1CE4 JUMP JUMPDEST PUSH2 0x1A00 JUMP JUMPDEST CALLVALUE DUP1 ISZERO PUSH2 0x594 JUMPI PUSH1 0x0 DUP1 REVERT JUMPDEST POP PUSH2 0x1C6 PUSH2 0x1A92 JUMP JUMPDEST PUSH2 0x5A5 PUSH2 0x1B22 JUMP JUMPDEST PUSH1 0x4 SLOAD PUSH1 0x1 PUSH1 0xA0 SHL SWAP1 DIV PUSH1 0xFF AND ISZERO PUSH2 0x5F8 JUMPI PUSH1 0x40 MLOAD PUSH3 0x461BCD PUSH1 0xE5 SHL DUP2 MSTORE PUSH1 0x20 PUSH1 0x4 DUP3 ADD MSTORE PUSH1 0x11 PUSH1 0x24 DUP3 ADD MSTORE PUSH17 0x10DBDB5C195D1A5D1A5BDB88195B991959 PUSH1 0x7A SHL PUSH1 0x44 DUP3 ADD MSTORE PUSH1 0x64 ADD JUMPDEST PUSH1 0x40 MLOAD DUP1 SWAP2 SUB SWAP1 REVERT JUMPDEST PUSH1 0x4 SLOAD PUSH1 0x1 PUSH1 0xA8 SHL SWAP1 DIV PUSH1 0xFF AND PUSH2 0x643 JUMPI PUSH1 0x40 MLOAD PUSH3 0x461BCD PUSH1 0xE5 SHL DUP2 MSTORE PUSH1 0x20 PUSH1 0x4 DUP3 ADD MSTORE PUSH1 0xF PUSH1 0x24 DUP3 ADD MSTORE PUSH15 0x11195C1BDCDA5D1CC818DB1BDCD959 PUSH1 0x8A SHL PUSH1 0x44 DUP3 ADD MSTORE PUSH1 0x64 ADD PUSH2 0x5EF JUMP JUMPDEST PUSH1 0x5 SLOAD PUSH2 0x67E JUMPI PUSH1 0x40 MLOAD PUSH3 0x461BCD PUSH1 0xE5 SHL DUP2 MSTORE PUSH1 0x20 PUSH1 0x4 DUP3 ADD MSTORE PUSH1 0x9 PUSH1 0x24 DUP3 ADD MSTORE PUSH9 0x4E6F20746F6B656E73 PUSH1 0xB8 SHL PUSH1 0x44 DUP3 ADD MSTORE PUSH1 0x64 ADD PUSH2 0x5EF JUMP JUMPDEST PUSH1 0x0 CALLVALUE GT PUSH2 0x6B3 JUMPI PUSH1 0x40 MLOAD PUSH3 0x461BCD PUSH1 0xE5 SHL DUP2 MSTORE PUSH1 0x20 PUSH1 0x4 DUP3 ADD MSTORE PUSH1 0x2 PUSH1 0x24 DUP3 ADD MSTORE PUSH2 0x4E6F PUSH1 0xF0 SHL PUSH1 0x44 DUP3 ADD MSTORE PUSH1 0x64 ADD PUSH2 0x5EF JUMP JUMPDEST PUSH1 0x2 SLOAD PUSH1 0x40 MLOAD PUSH4 0x40C10F19 PUSH1 0xE0 SHL DUP2 MSTORE PUSH1 0x1 PUSH1 0x1 PUSH1 0xA0 SHL SUB SWAP1 SWAP2 AND SWAP1 PUSH1 0x0 SWAP1 DUP3 SWAP1 PUSH4 0x40C10F19 SWAP1 PUSH2 0x6EA SWAP1 CALLER SWAP1 CALLVALUE SWAP1 PUSH1 0x4 ADD PUSH2 0x1EBF JUMP JUMPDEST PUSH1 0x20 PUSH1 0x40 MLOAD DUP1 DUP4 SUB DUP2 PUSH1 0x0 DUP8 GAS CALL ISZERO DUP1 ISZERO PUSH2 0x709 JUMPI RETURNDATASIZE PUSH1 0x0 DUP1 RETURNDATACOPY RETURNDATASIZE PUSH1 0x0 REVERT JUMPDEST POP POP POP POP PUSH1 0x40 MLOAD RETURNDATASIZE PUSH1 0x1F NOT PUSH1 0x1F DUP3 ADD AND DUP3 ADD DUP1 PUSH1 0x40 MSTORE POP DUP2 ADD SWAP1 PUSH2 0x72D SWAP2 SWAP1 PUSH2 0x1ED8 JUMP JUMPDEST SWAP1 POP CALLVALUE PUSH1 0x7 PUSH1 0x0 DUP4 DUP2 MSTORE PUSH1 0x20 ADD SWAP1 DUP2 MSTORE PUSH1 0x20 ADD PUSH1 0x0 KECCAK256 DUP2 SWAP1 SSTORE POP CALLVALUE PUSH1 0x6 PUSH1 0x0 DUP3 DUP3 SLOAD PUSH2 0x759 SWAP2 SWAP1 PUSH2 0x1F07 JUMP JUMPDEST SWAP1 SWAP2 SSTORE POP POP PUSH1 0x5 SLOAD PUSH1 0x0 SWAP1 PUSH1 0x1 PUSH1 0x1 PUSH1 0x40 SHL SUB DUP2 GT ISZERO PUSH2 0x77B JUMPI PUSH2 0x77B PUSH2 0x1F1A JUMP JUMPDEST PUSH1 0x40 MLOAD SWAP1 DUP1 DUP3 MSTORE DUP1 PUSH1 0x20 MUL PUSH1 0x20 ADD DUP3 ADD PUSH1 0x40 MSTORE DUP1 ISZERO PUSH2 0x7A4 JUMPI DUP2 PUSH1 0x20 ADD PUSH1 0x20 DUP3 MUL DUP1 CALLDATASIZE DUP4 CALLDATACOPY ADD SWAP1 POP JUMPDEST POP SWAP1 POP PUSH1 0x0 DUP1 JUMPDEST PUSH1 0x5 SLOAD DUP2 LT ISZERO PUSH2 0x887 JUMPI PUSH32 0x0 PUSH1 0x1 PUSH1 0x1 PUSH1 0xA0 SHL SUB AND PUSH1 0x5 DUP3 DUP2 SLOAD DUP2 LT PUSH2 0x7F2 JUMPI PUSH2 0x7F2 PUSH2 0x1F30 JUMP JUMPDEST PUSH1 0x0 SWAP2 DUP3 MSTORE PUSH1 0x20 SWAP1 SWAP2 KECCAK256 ADD SLOAD PUSH1 0x1 PUSH1 0x1 PUSH1 0xA0 SHL SUB AND EQ PUSH2 0x875 JUMPI PUSH1 0x5 DUP2 DUP2 SLOAD DUP2 LT PUSH2 0x81F JUMPI PUSH2 0x81F PUSH2 0x1F30 JUMP JUMPDEST SWAP1 PUSH1 0x0 MSTORE PUSH1 0x20 PUSH1 0x0 KECCAK256 ADD PUSH1 0x0 SWAP1 SLOAD SWAP1 PUSH2 0x100 EXP SWAP1 DIV PUSH1 0x1 PUSH1 0x1 PUSH1 0xA0 SHL SUB AND DUP4 DUP4 DUP2 MLOAD DUP2 LT PUSH2 0x84F JUMPI PUSH2 0x84F PUSH2 0x1F30 JUMP JUMPDEST PUSH1 0x1 PUSH1 0x1 PUSH1 0xA0 SHL SUB SWAP1 SWAP3 AND PUSH1 0x20 SWAP3 DUP4 MUL SWAP2 SWAP1 SWAP2 ADD SWAP1 SWAP2 ADD MSTORE DUP2 PUSH2 0x871 DUP2 PUSH2 0x1F46 JUMP JUMPDEST SWAP3 POP POP JUMPDEST DUP1 PUSH2 0x87F DUP2 PUSH2 0x1F46 JUMP JUMPDEST SWAP2 POP POP PUSH2 0x7AB JUMP JUMPDEST POP DUP1 ISZERO PUSH2 0x99F JUMPI PUSH1 0x0 DUP2 PUSH1 0x1 PUSH1 0x1 PUSH1 0x40 SHL SUB DUP2 GT ISZERO PUSH2 0x8A8 JUMPI PUSH2 0x8A8 PUSH2 0x1F1A JUMP JUMPDEST PUSH1 0x40 MLOAD SWAP1 DUP1 DUP3 MSTORE DUP1 PUSH1 0x20 MUL PUSH1 0x20 ADD DUP3 ADD PUSH1 0x40 MSTORE DUP1 ISZERO PUSH2 0x8D1 JUMPI DUP2 PUSH1 0x20 ADD PUSH1 0x20 DUP3 MUL DUP1 CALLDATASIZE DUP4 CALLDATACOPY ADD SWAP1 POP JUMPDEST POP SWAP1 POP PUSH1 0x0 JUMPDEST DUP3 DUP2 LT ISZERO PUSH2 0x935 JUMPI DUP4 DUP2 DUP2 MLOAD DUP2 LT PUSH2 0x8F1 JUMPI PUSH2 0x8F1 PUSH2 0x1F30 JUMP JUMPDEST PUSH1 0x20 MUL PUSH1 0x20 ADD ADD MLOAD DUP3 DUP3 DUP2 MLOAD DUP2 LT PUSH2 0x90B JUMPI PUSH2 0x90B PUSH2 0x1F30 JUMP JUMPDEST PUSH1 0x1 PUSH1 0x1 PUSH1 0xA0 SHL SUB SWAP1 SWAP3 AND PUSH1 0x20 SWAP3 DUP4 MUL SWAP2 SWAP1 SWAP2 ADD SWAP1 SWAP2 ADD MSTORE DUP1 PUSH2 0x92D DUP2 PUSH2 0x1F46 JUMP JUMPDEST SWAP2 POP POP PUSH2 0x8D7 JUMP JUMPDEST POP PUSH1 0x3 SLOAD PUSH1 0x40 MLOAD PUSH4 0x102368FD PUSH1 0xE0 SHL DUP2 MSTORE PUSH1 0x1 PUSH1 0x1 PUSH1 0xA0 SHL SUB SWAP1 SWAP2 AND SWAP1 PUSH4 0x102368FD SWAP1 CALLVALUE SWAP1 PUSH2 0x96B SWAP1 DUP6 SWAP1 PUSH1 0x0 SWAP1 PUSH1 0x4 ADD PUSH2 0x1F5F JUMP JUMPDEST PUSH1 0x0 PUSH1 0x40 MLOAD DUP1 DUP4 SUB DUP2 DUP6 DUP9 DUP1 EXTCODESIZE ISZERO DUP1 ISZERO PUSH2 0x984 JUMPI PUSH1 0x0 DUP1 REVERT JUMPDEST POP GAS CALL ISZERO DUP1 ISZERO PUSH2 0x998 JUMPI RETURNDATASIZE PUSH1 0x0 DUP1 RETURNDATACOPY RETURNDATASIZE PUSH1 0x0 REVERT JUMPDEST POP POP POP POP POP POP JUMPDEST PUSH1 0x40 DUP1 MLOAD CALLVALUE DUP2 MSTORE PUSH1 0x20 DUP2 ADD DUP6 SWAP1 MSTORE CALLER SWAP2 PUSH32 0x73A19DD210F1A7F902193214C0EE91DD35EE5B4D920CBA8D519ECA65A7B488CA SWAP2 ADD PUSH1 0x40 MLOAD DUP1 SWAP2 SUB SWAP1 LOG2 POP POP POP POP PUSH2 0x9E7 PUSH1 0x1 DUP1 SSTORE JUMP JUMPDEST JUMP JUMPDEST PUSH1 0x1 PUSH1 0x1 PUSH1 0xA0 SHL SUB DUP2 AND PUSH1 0x0 SWAP1 DUP2 MSTORE PUSH1 0x8 PUSH1 0x20 MSTORE PUSH1 0x40 DUP2 KECCAK256 SLOAD PUSH1 0xFF AND DUP1 PUSH2 0xA28 JUMPI POP PUSH2 0xA13 PUSH2 0xF4E JUMP JUMPDEST PUSH1 0x1 PUSH1 0x1 PUSH1 0xA0 SHL SUB AND DUP3 PUSH1 0x1 PUSH1 0x1 PUSH1 0xA0 SHL SUB AND EQ JUMPDEST SWAP3 SWAP2 POP POP JUMP JUMPDEST CALLER PUSH1 0x0 SWAP1 DUP2 MSTORE PUSH1 0x8 PUSH1 0x20 MSTORE PUSH1 0x40 SWAP1 KECCAK256 SLOAD PUSH1 0xFF AND DUP1 PUSH2 0xA64 JUMPI POP PUSH2 0xA4F PUSH2 0xF4E JUMP JUMPDEST PUSH1 0x1 PUSH1 0x1 PUSH1 0xA0 SHL SUB AND CALLER PUSH1 0x1 PUSH1 0x1 PUSH1 0xA0 SHL SUB AND EQ JUMPDEST PUSH2 0xA80 JUMPI PUSH1 0x40 MLOAD PUSH3 0x461BCD PUSH1 0xE5 SHL DUP2 MSTORE PUSH1 0x4 ADD PUSH2 0x5EF SWAP1 PUSH2 0x1FB0 JUMP JUMPDEST PUSH1 0x0 JUMPDEST DUP2 DUP2 LT ISZERO PUSH2 0xB57 JUMPI DUP3 DUP3 DUP3 DUP2 DUP2 LT PUSH2 0xA9D JUMPI PUSH2 0xA9D PUSH2 0x1F30 JUMP JUMPDEST SWAP1 POP PUSH1 0x20 MUL ADD PUSH1 0x20 DUP2 ADD SWAP1 PUSH2 0xAB2 SWAP2 SWAP1 PUSH2 0x1CE4 JUMP JUMPDEST PUSH1 0x1 PUSH1 0x1 PUSH1 0xA0 SHL SUB AND PUSH4 0x95EA7B3 PUSH32 0x0 PUSH1 0x0 NOT PUSH1 0x40 MLOAD DUP4 PUSH4 0xFFFFFFFF AND PUSH1 0xE0 SHL DUP2 MSTORE PUSH1 0x4 ADD PUSH2 0xB01 SWAP3 SWAP2 SWAP1 PUSH2 0x1EBF JUMP JUMPDEST PUSH1 0x20 PUSH1 0x40 MLOAD DUP1 DUP4 SUB DUP2 PUSH1 0x0 DUP8 GAS CALL ISZERO DUP1 ISZERO PUSH2 0xB20 JUMPI RETURNDATASIZE PUSH1 0x0 DUP1 RETURNDATACOPY RETURNDATASIZE PUSH1 0x0 REVERT JUMPDEST POP POP POP POP PUSH1 0x40 MLOAD RETURNDATASIZE PUSH1 0x1F NOT PUSH1 0x1F DUP3 ADD AND DUP3 ADD DUP1 PUSH1 0x40 MSTORE POP DUP2 ADD SWAP1 PUSH2 0xB44 SWAP2 SWAP1 PUSH2 0x1FD3 JUMP JUMPDEST POP DUP1 PUSH2 0xB4F DUP2 PUSH2 0x1F46 JUMP JUMPDEST SWAP2 POP POP PUSH2 0xA83 JUMP JUMPDEST POP POP POP JUMP JUMPDEST PUSH2 0xB64 PUSH2 0x1B7B JUMP JUMPDEST PUSH1 0x1 PUSH1 0x1 PUSH1 0xA0 SHL SUB DUP3 AND PUSH1 0x0 DUP2 DUP2 MSTORE PUSH1 0x8 PUSH1 0x20 SWAP1 DUP2 MSTORE PUSH1 0x40 SWAP2 DUP3 SWAP1 KECCAK256 DUP1 SLOAD PUSH1 0xFF NOT AND DUP6 ISZERO ISZERO SWAP1 DUP2 OR SWAP1 SWAP2 SSTORE SWAP2 MLOAD SWAP2 DUP3 MSTORE PUSH32 0x235BC17E7930760029E9F4D860A2A8089976DE5B381CF8380FC11C1D88A11133 SWAP2 ADD PUSH1 0x40 MLOAD DUP1 SWAP2 SUB SWAP1 LOG2 POP POP JUMP JUMPDEST PUSH2 0xBCB PUSH2 0x1B7B JUMP JUMPDEST PUSH2 0xBD3 PUSH2 0x1B22 JUMP JUMPDEST PUSH1 0x1 PUSH1 0x1 PUSH1 0xA0 SHL SUB DUP4 AND PUSH2 0xBF9 JUMPI PUSH1 0x40 MLOAD PUSH3 0x461BCD PUSH1 0xE5 SHL DUP2 MSTORE PUSH1 0x4 ADD PUSH2 0x5EF SWAP1 PUSH2 0x1FF0 JUMP JUMPDEST PUSH1 0x1 PUSH1 0x1 PUSH1 0xA0 SHL SUB DUP3 AND PUSH2 0xC1F JUMPI PUSH1 0x40 MLOAD PUSH3 0x461BCD PUSH1 0xE5 SHL DUP2 MSTORE PUSH1 0x4 ADD PUSH2 0x5EF SWAP1 PUSH2 0x1FF0 JUMP JUMPDEST PUSH1 0x0 DUP2 GT PUSH2 0xC59 JUMPI PUSH1 0x40 MLOAD PUSH3 0x461BCD PUSH1 0xE5 SHL DUP2 MSTORE PUSH1 0x20 PUSH1 0x4 DUP3 ADD MSTORE PUSH1 0x7 PUSH1 0x24 DUP3 ADD MSTORE PUSH7 0x4D757374203E3 PUSH1 0xCC SHL PUSH1 0x44 DUP3 ADD MSTORE PUSH1 0x64 ADD PUSH2 0x5EF JUMP JUMPDEST PUSH1 0x40 MLOAD PUSH4 0xA9059CBB PUSH1 0xE0 SHL DUP2 MSTORE PUSH1 0x0 SWAP1 PUSH1 0x1 PUSH1 0x1 PUSH1 0xA0 SHL SUB DUP6 AND SWAP1 PUSH4 0xA9059CBB SWAP1 PUSH2 0xC8A SWAP1 DUP7 SWAP1 DUP7 SWAP1 PUSH1 0x4 ADD PUSH2 0x1EBF JUMP JUMPDEST PUSH1 0x20 PUSH1 0x40 MLOAD DUP1 DUP4 SUB DUP2 PUSH1 0x0 DUP8 GAS CALL ISZERO DUP1 ISZERO PUSH2 0xCA9 JUMPI RETURNDATASIZE PUSH1 0x0 DUP1 RETURNDATACOPY RETURNDATASIZE PUSH1 0x0 REVERT JUMPDEST POP POP POP POP PUSH1 0x40 MLOAD RETURNDATASIZE PUSH1 0x1F NOT PUSH1 0x1F DUP3 ADD AND DUP3 ADD DUP1 PUSH1 0x40 MSTORE POP DUP2 ADD SWAP1 PUSH2 0xCCD SWAP2 SWAP1 PUSH2 0x1FD3 JUMP JUMPDEST SWAP1 POP DUP1 PUSH2 0xD0E JUMPI PUSH1 0x40 MLOAD PUSH3 0x461BCD PUSH1 0xE5 SHL DUP2 MSTORE PUSH1 0x20 PUSH1 0x4 DUP3 ADD MSTORE PUSH1 0xF PUSH1 0x24 DUP3 ADD MSTORE PUSH15 0x151C985B9CD9995C8819985A5B1959 PUSH1 0x8A SHL PUSH1 0x44 DUP3 ADD MSTORE PUSH1 0x64 ADD PUSH2 0x5EF JUMP JUMPDEST DUP3 PUSH1 0x1 PUSH1 0x1 PUSH1 0xA0 SHL SUB AND DUP5 PUSH1 0x1 PUSH1 0x1 PUSH1 0xA0 SHL SUB AND PUSH32 0xF2D30170FE63AB71DAFA0E3F7C4880738A8B0EFC5277F5D999413526030B228F DUP5 PUSH1 0x40 MLOAD PUSH2 0xD53 SWAP2 DUP2 MSTORE PUSH1 0x20 ADD SWAP1 JUMP JUMPDEST PUSH1 0x40 MLOAD DUP1 SWAP2 SUB SWAP1 LOG3 POP PUSH2 0xB57 PUSH1 0x1 DUP1 SSTORE JUMP JUMPDEST CALLER PUSH1 0x0 SWAP1 DUP2 MSTORE PUSH1 0x8 PUSH1 0x20 MSTORE PUSH1 0x40 SWAP1 KECCAK256 SLOAD PUSH1 0xFF AND DUP1 PUSH2 0xD9B JUMPI POP PUSH2 0xD86 PUSH2 0xF4E JUMP JUMPDEST PUSH1 0x1 PUSH1 0x1 PUSH1 0xA0 SHL SUB AND CALLER PUSH1 0x1 PUSH1 0x1 PUSH1 0xA0 SHL SUB AND EQ JUMPDEST PUSH2 0xDB7 JUMPI PUSH1 0x40 MLOAD PUSH3 0x461BCD PUSH1 0xE5 SHL DUP2 MSTORE PUSH1 0x4 ADD PUSH2 0x5EF SWAP1 PUSH2 0x1FB0 JUMP JUMPDEST PUSH1 0x4 DUP1 SLOAD DUP3 ISZERO ISZERO PUSH1 0x1 PUSH1 0xA8 SHL MUL PUSH1 0xFF PUSH1 0xA8 SHL NOT SWAP1 SWAP2 AND OR SWAP1 SSTORE PUSH1 0x40 MLOAD PUSH32 0x8D3D8E4541C6B3368EB82D7B621F414931CB65410379EFFF5908345FC1366B0C SWAP1 PUSH2 0xE04 SWAP1 DUP4 ISZERO ISZERO DUP2 MSTORE PUSH1 0x20 ADD SWAP1 JUMP JUMPDEST PUSH1 0x40 MLOAD DUP1 SWAP2 SUB SWAP1 LOG1 POP JUMP JUMPDEST PUSH1 0x5 DUP2 DUP2 SLOAD DUP2 LT PUSH2 0xE1F JUMPI PUSH1 0x0 DUP1 REVERT JUMPDEST PUSH1 0x0 SWAP2 DUP3 MSTORE PUSH1 0x20 SWAP1 SWAP2 KECCAK256 ADD SLOAD PUSH1 0x1 PUSH1 0x1 PUSH1 0xA0 SHL SUB AND SWAP1 POP DUP2 JUMP JUMPDEST CALLER PUSH1 0x0 SWAP1 DUP2 MSTORE PUSH1 0x8 PUSH1 0x20 MSTORE PUSH1 0x40 SWAP1 KECCAK256 SLOAD PUSH1 0xFF AND DUP1 PUSH2 0xE6F JUMPI POP PUSH2 0xE5A PUSH2 0xF4E JUMP JUMPDEST PUSH1 0x1 PUSH1 0x1 PUSH1 0xA0 SHL SUB AND CALLER PUSH1 0x1 PUSH1 0x1 PUSH1 0xA0 SHL SUB AND EQ JUMPDEST PUSH2 0xE8B JUMPI PUSH1 0x40 MLOAD PUSH3 0x461BCD PUSH1 0xE5 SHL DUP2 MSTORE PUSH1 0x4 ADD PUSH2 0x5EF SWAP1 PUSH2 0x1FB0 JUMP JUMPDEST PUSH2 0xE93 PUSH2 0x1B22 JUMP JUMPDEST PUSH1 0x40 MLOAD SELFBALANCE SWAP1 PUSH1 0x1 PUSH1 0x1 PUSH1 0xA0 SHL SUB DUP4 AND SWAP1 DUP3 ISZERO PUSH2 0x8FC MUL SWAP1 DUP4 SWAP1 PUSH1 0x0 DUP2 DUP2 DUP2 DUP6 DUP9 DUP9 CALL SWAP4 POP POP POP POP ISZERO DUP1 ISZERO PUSH2 0xECB JUMPI RETURNDATASIZE PUSH1 0x0 DUP1 RETURNDATACOPY RETURNDATASIZE PUSH1 0x0 REVERT JUMPDEST POP PUSH32 0x5FAFA99D0643513820BE26656B45130B01E1C03062E1266BF36F88CBD3BD9695 DUP3 DUP3 PUSH1 0x40 MLOAD PUSH2 0xEFD SWAP3 SWAP2 SWAP1 PUSH2 0x1EBF JUMP JUMPDEST PUSH1 0x40 MLOAD DUP1 SWAP2 SUB SWAP1 LOG1 POP PUSH2 0xF0F PUSH1 0x1 DUP1 SSTORE JUMP JUMPDEST POP JUMP JUMPDEST PUSH2 0xF1A PUSH2 0x1B7B JUMP JUMPDEST PUSH2 0x9E7 PUSH1 0x0 PUSH2 0x1BDA JUMP JUMPDEST PUSH1 0x4 SLOAD PUSH1 0x0 SWAP1 PUSH1 0x1 PUSH1 0xB0 SHL SWAP1 DIV PUSH1 0xFF AND DUP1 ISZERO PUSH2 0xF49 JUMPI POP PUSH1 0x4 SLOAD PUSH1 0x1 PUSH1 0xA0 SHL SWAP1 DIV PUSH1 0xFF AND JUMPDEST SWAP1 POP SWAP1 JUMP JUMPDEST PUSH1 0x0 SLOAD PUSH1 0x1 PUSH1 0x1 PUSH1 0xA0 SHL SUB AND SWAP1 JUMP JUMPDEST CALLER PUSH1 0x0 SWAP1 DUP2 MSTORE PUSH1 0x8 PUSH1 0x20 MSTORE PUSH1 0x40 SWAP1 KECCAK256 SLOAD PUSH1 0xFF AND DUP1 PUSH2 0xF93 JUMPI POP PUSH2 0xF7E PUSH2 0xF4E JUMP JUMPDEST PUSH1 0x1 PUSH1 0x1 PUSH1 0xA0 SHL SUB AND CALLER PUSH1 0x1 PUSH1 0x1 PUSH1 0xA0 SHL SUB AND EQ JUMPDEST PUSH2 0xFAF JUMPI PUSH1 0x40 MLOAD PUSH3 0x461BCD PUSH1 0xE5 SHL DUP2 MSTORE PUSH1 0x4 ADD PUSH2 0x5EF SWAP1 PUSH2 0x1FB0 JUMP JUMPDEST DUP1 PUSH2 0xFEF JUMPI PUSH1 0x40 MLOAD PUSH3 0x461BCD PUSH1 0xE5 SHL DUP2 MSTORE PUSH1 0x20 PUSH1 0x4 DUP3 ADD MSTORE PUSH1 0x10 PUSH1 0x24 DUP3 ADD MSTORE PUSH16 0x115B5C1D1E481D1BDAD95B881B1A5CDD PUSH1 0x82 SHL PUSH1 0x44 DUP3 ADD MSTORE PUSH1 0x64 ADD PUSH2 0x5EF JUMP JUMPDEST PUSH2 0xFFB PUSH1 0x5 DUP4 DUP4 PUSH2 0x1C2A JUMP JUMPDEST POP PUSH32 0x3CA096A4C913A6F222A557151D17832DDDAB787E6DDF59063CAB45E15B9A9FAC DUP3 DUP3 PUSH1 0x40 MLOAD PUSH2 0x102D SWAP3 SWAP2 SWAP1 PUSH2 0x205A JUMP JUMPDEST PUSH1 0x40 MLOAD DUP1 SWAP2 SUB SWAP1 LOG1 POP POP JUMP JUMPDEST CALLER PUSH1 0x0 SWAP1 DUP2 MSTORE PUSH1 0x8 PUSH1 0x20 MSTORE PUSH1 0x40 SWAP1 KECCAK256 SLOAD PUSH1 0xFF AND DUP1 PUSH2 0x106F JUMPI POP PUSH2 0x105A PUSH2 0xF4E JUMP JUMPDEST PUSH1 0x1 PUSH1 0x1 PUSH1 0xA0 SHL SUB AND CALLER PUSH1 0x1 PUSH1 0x1 PUSH1 0xA0 SHL SUB AND EQ JUMPDEST PUSH2 0x108B JUMPI PUSH1 0x40 MLOAD PUSH3 0x461BCD PUSH1 0xE5 SHL DUP2 MSTORE PUSH1 0x4 ADD PUSH2 0x5EF SWAP1 PUSH2 0x1FB0 JUMP JUMPDEST PUSH1 0x2 DUP5 LT ISZERO PUSH2 0x10CB JUMPI PUSH1 0x40 MLOAD PUSH3 0x461BCD PUSH1 0xE5 SHL DUP2 MSTORE PUSH1 0x20 PUSH1 0x4 DUP3 ADD MSTORE PUSH1 0xC PUSH1 0x24 DUP3 ADD MSTORE PUSH12 0x92DCECC2D8D2C840E0C2E8D PUSH1 0xA3 SHL PUSH1 0x44 DUP3 ADD MSTORE PUSH1 0x64 ADD PUSH2 0x5EF JUMP JUMPDEST PUSH32 0x0 PUSH1 0x1 PUSH1 0x1 PUSH1 0xA0 SHL SUB AND PUSH2 0x1132 JUMPI PUSH1 0x40 MLOAD PUSH3 0x461BCD PUSH1 0xE5 SHL DUP2 MSTORE PUSH1 0x20 PUSH1 0x4 DUP3 ADD MSTORE PUSH1 0xE PUSH1 0x24 DUP3 ADD MSTORE PUSH14 0x149BDD5D195C881B9BDD081CD95D PUSH1 0x92 SHL PUSH1 0x44 DUP3 ADD MSTORE PUSH1 0x64 ADD PUSH2 0x5EF JUMP JUMPDEST PUSH1 0x0 DUP6 DUP6 PUSH1 0x0 DUP2 DUP2 LT PUSH2 0x1147 JUMPI PUSH2 0x1147 PUSH2 0x1F30 JUMP JUMPDEST SWAP1 POP PUSH1 0x20 MUL ADD PUSH1 0x20 DUP2 ADD SWAP1 PUSH2 0x115C SWAP2 SWAP1 PUSH2 0x1CE4 JUMP JUMPDEST PUSH1 0x40 MLOAD PUSH4 0x6EB1769F PUSH1 0xE1 SHL DUP2 MSTORE ADDRESS PUSH1 0x4 DUP3 ADD MSTORE PUSH1 0x1 PUSH1 0x1 PUSH1 0xA0 SHL SUB PUSH32 0x0 DUP2 AND PUSH1 0x24 DUP4 ADD MSTORE SWAP2 SWAP3 POP PUSH1 0x0 SWAP2 DUP4 AND SWAP1 PUSH4 0xDD62ED3E SWAP1 PUSH1 0x44 ADD PUSH1 0x20 PUSH1 0x40 MLOAD DUP1 DUP4 SUB DUP2 DUP7 GAS STATICCALL ISZERO DUP1 ISZERO PUSH2 0x11CE JUMPI RETURNDATASIZE PUSH1 0x0 DUP1 RETURNDATACOPY RETURNDATASIZE PUSH1 0x0 REVERT JUMPDEST POP POP POP POP PUSH1 0x40 MLOAD RETURNDATASIZE PUSH1 0x1F NOT PUSH1 0x1F DUP3 ADD AND DUP3 ADD DUP1 PUSH1 0x40 MSTORE POP DUP2 ADD SWAP1 PUSH2 0x11F2 SWAP2 SWAP1 PUSH2 0x1ED8 JUMP JUMPDEST SWAP1 POP DUP9 DUP2 LT ISZERO PUSH2 0x1291 JUMPI PUSH1 0x40 MLOAD PUSH4 0x95EA7B3 PUSH1 0xE0 SHL DUP2 MSTORE PUSH1 0x1 PUSH1 0x1 PUSH1 0xA0 SHL SUB DUP4 AND SWAP1 PUSH4 0x95EA7B3 SWAP1 PUSH2 0x124C SWAP1 PUSH32 0x0 SWAP1 PUSH1 0x0 NOT SWAP1 PUSH1 0x4 ADD PUSH2 0x1EBF JUMP JUMPDEST PUSH1 0x20 PUSH1 0x40 MLOAD DUP1 DUP4 SUB DUP2 PUSH1 0x0 DUP8 GAS CALL ISZERO DUP1 ISZERO PUSH2 0x126B JUMPI RETURNDATASIZE PUSH1 0x0 DUP1 RETURNDATACOPY RETURNDATASIZE PUSH1 0x0 REVERT JUMPDEST POP POP POP POP PUSH1 0x40 MLOAD RETURNDATASIZE PUSH1 0x1F NOT PUSH1 0x1F DUP3 ADD AND DUP3 ADD DUP1 PUSH1 0x40 MSTORE POP DUP2 ADD SWAP1 PUSH2 0x128F SWAP2 SWAP1 PUSH2 0x1FD3 JUMP JUMPDEST POP JUMPDEST PUSH1 0x0 DUP1 PUSH32 0x0 PUSH1 0x1 PUSH1 0x1 PUSH1 0xA0 SHL SUB AND DUP12 DUP12 DUP12 DUP12 DUP12 DUP12 ADDRESS DUP13 PUSH1 0x40 MLOAD PUSH1 0x24 ADD PUSH2 0x12DD SWAP9 SWAP8 SWAP7 SWAP6 SWAP5 SWAP4 SWAP3 SWAP2 SWAP1 PUSH2 0x2076 JUMP JUMPDEST PUSH1 0x40 DUP1 MLOAD PUSH1 0x1F NOT DUP2 DUP5 SUB ADD DUP2 MSTORE SWAP2 DUP2 MSTORE PUSH1 0x20 DUP3 ADD DUP1 MLOAD PUSH1 0x1 PUSH1 0x1 PUSH1 0xE0 SHL SUB AND PUSH4 0x96F91899 PUSH1 0xE0 SHL OR SWAP1 MSTORE MLOAD PUSH2 0x1312 SWAP2 SWAP1 PUSH2 0x20C6 JUMP JUMPDEST PUSH1 0x0 PUSH1 0x40 MLOAD DUP1 DUP4 SUB DUP2 PUSH1 0x0 DUP7 GAS CALL SWAP2 POP POP RETURNDATASIZE DUP1 PUSH1 0x0 DUP2 EQ PUSH2 0x134F JUMPI PUSH1 0x40 MLOAD SWAP2 POP PUSH1 0x1F NOT PUSH1 0x3F RETURNDATASIZE ADD AND DUP3 ADD PUSH1 0x40 MSTORE RETURNDATASIZE DUP3 MSTORE RETURNDATASIZE PUSH1 0x0 PUSH1 0x20 DUP5 ADD RETURNDATACOPY PUSH2 0x1354 JUMP JUMPDEST PUSH1 0x60 SWAP2 POP JUMPDEST POP SWAP2 POP SWAP2 POP DUP2 PUSH2 0x1366 JUMPI DUP1 MLOAD PUSH1 0x20 DUP3 ADD REVERT JUMPDEST PUSH32 0xB3FD459F9D0F4577BB8B2EABE587F5C7514C0C717F513AB7FD5D09FBBB7E9718 DUP10 DUP10 PUSH1 0x0 DUP2 DUP2 LT PUSH2 0x139A JUMPI PUSH2 0x139A PUSH2 0x1F30 JUMP JUMPDEST SWAP1 POP PUSH1 0x20 MUL ADD PUSH1 0x20 DUP2 ADD SWAP1 PUSH2 0x13AF SWAP2 SWAP1 PUSH2 0x1CE4 JUMP JUMPDEST DUP11 DUP11 PUSH2 0x13BC PUSH1 0x1 DUP3 PUSH2 0x20F5 JUMP JUMPDEST DUP2 DUP2 LT PUSH2 0x13CB JUMPI PUSH2 0x13CB PUSH2 0x1F30 JUMP JUMPDEST SWAP1 POP PUSH1 0x20 MUL ADD PUSH1 0x20 DUP2 ADD SWAP1 PUSH2 0x13E0 SWAP2 SWAP1 PUSH2 0x1CE4 JUMP JUMPDEST PUSH1 0x40 DUP1 MLOAD PUSH1 0x1 PUSH1 0x1 PUSH1 0xA0 SHL SUB SWAP4 DUP5 AND DUP2 MSTORE SWAP3 SWAP1 SWAP2 AND PUSH1 0x20 DUP4 ADD MSTORE DUP2 ADD DUP14 SWAP1 MSTORE PUSH1 0x60 DUP2 ADD DUP13 SWAP1 MSTORE PUSH1 0x80 ADD PUSH1 0x40 MLOAD DUP1 SWAP2 SUB SWAP1 LOG1 POP POP POP POP POP POP POP POP POP POP POP JUMP JUMPDEST PUSH1 0x4 SLOAD PUSH1 0x0 SWAP1 PUSH1 0x1 PUSH1 0xA8 SHL SWAP1 DIV PUSH1 0xFF AND DUP1 ISZERO PUSH2 0xF49 JUMPI POP POP PUSH1 0x4 SLOAD PUSH1 0x1 PUSH1 0xA0 SHL SWAP1 DIV PUSH1 0xFF AND ISZERO SWAP1 JUMP JUMPDEST CALLER PUSH1 0x0 SWAP1 DUP2 MSTORE PUSH1 0x8 PUSH1 0x20 MSTORE PUSH1 0x40 SWAP1 KECCAK256 SLOAD PUSH1 0xFF AND DUP1 PUSH2 0x147D JUMPI POP PUSH2 0x1468 PUSH2 0xF4E JUMP JUMPDEST PUSH1 0x1 PUSH1 0x1 PUSH1 0xA0 SHL SUB AND CALLER PUSH1 0x1 PUSH1 0x1 PUSH1 0xA0 SHL SUB AND EQ JUMPDEST PUSH2 0x1499 JUMPI PUSH1 0x40 MLOAD PUSH3 0x461BCD PUSH1 0xE5 SHL DUP2 MSTORE PUSH1 0x4 ADD PUSH2 0x5EF SWAP1 PUSH2 0x1FB0 JUMP JUMPDEST PUSH1 0x4 DUP1 SLOAD DUP3 ISZERO ISZERO PUSH1 0x1 PUSH1 0xB0 SHL MUL PUSH1 0xFF PUSH1 0xB0 SHL NOT SWAP1 SWAP2 AND OR SWAP1 SSTORE PUSH1 0x40 MLOAD PUSH32 0xB627915892A42ADAAB1D9378DA4B9064B25562944209582D03A3DD0A63323260 SWAP1 PUSH2 0xE04 SWAP1 DUP4 ISZERO ISZERO DUP2 MSTORE PUSH1 0x20 ADD SWAP1 JUMP JUMPDEST PUSH2 0x14EE PUSH2 0x1B22 JUMP JUMPDEST PUSH1 0x4 SLOAD PUSH1 0x1 PUSH1 0xA0 SHL SWAP1 DIV PUSH1 0xFF AND PUSH2 0x153F JUMPI PUSH1 0x40 MLOAD PUSH3 0x461BCD PUSH1 0xE5 SHL DUP2 MSTORE PUSH1 0x20 PUSH1 0x4 DUP3 ADD MSTORE PUSH1 0x15 PUSH1 0x24 DUP3 ADD MSTORE PUSH21 0x10DBDB5C195D1A5D1A5BDB881B9BDD08195B991959 PUSH1 0x5A SHL PUSH1 0x44 DUP3 ADD MSTORE PUSH1 0x64 ADD PUSH2 0x5EF JUMP JUMPDEST PUSH1 0x4 SLOAD PUSH1 0x1 PUSH1 0xB0 SHL SWAP1 DIV PUSH1 0xFF AND PUSH2 0x1581 JUMPI PUSH1 0x40 MLOAD PUSH3 0x461BCD PUSH1 0xE5 SHL DUP2 MSTORE PUSH1 0x20 PUSH1 0x4 DUP3 ADD MSTORE PUSH1 0x6 PUSH1 0x24 DUP3 ADD MSTORE PUSH6 0x10DB1BDCD959 PUSH1 0xD2 SHL PUSH1 0x44 DUP3 ADD MSTORE PUSH1 0x64 ADD PUSH2 0x5EF JUMP JUMPDEST PUSH1 0x2 SLOAD PUSH1 0x40 MLOAD PUSH4 0x31A9108F PUSH1 0xE1 SHL DUP2 MSTORE PUSH1 0x4 DUP2 ADD DUP4 SWAP1 MSTORE PUSH1 0x1 PUSH1 0x1 PUSH1 0xA0 SHL SUB SWAP1 SWAP2 AND SWAP1 CALLER SWAP1 DUP3 SWAP1 PUSH4 0x6352211E SWAP1 PUSH1 0x24 ADD PUSH1 0x20 PUSH1 0x40 MLOAD DUP1 DUP4 SUB DUP2 DUP7 GAS STATICCALL ISZERO DUP1 ISZERO PUSH2 0x15CE JUMPI RETURNDATASIZE PUSH1 0x0 DUP1 RETURNDATACOPY RETURNDATASIZE PUSH1 0x0 REVERT JUMPDEST POP POP POP POP PUSH1 0x40 MLOAD RETURNDATASIZE PUSH1 0x1F NOT PUSH1 0x1F DUP3 ADD AND DUP3 ADD DUP1 PUSH1 0x40 MSTORE POP DUP2 ADD SWAP1 PUSH2 0x15F2 SWAP2 SWAP1 PUSH2 0x2108 JUMP JUMPDEST PUSH1 0x1 PUSH1 0x1 PUSH1 0xA0 SHL SUB AND EQ PUSH2 0x163A JUMPI PUSH1 0x40 MLOAD PUSH3 0x461BCD PUSH1 0xE5 SHL DUP2 MSTORE PUSH1 0x20 PUSH1 0x4 DUP3 ADD MSTORE PUSH1 0xF PUSH1 0x24 DUP3 ADD MSTORE PUSH15 0x2737BA103A37B5B2B71037BBB732B9 PUSH1 0x89 SHL PUSH1 0x44 DUP3 ADD MSTORE PUSH1 0x64 ADD PUSH2 0x5EF JUMP JUMPDEST PUSH1 0x0 DUP3 DUP2 MSTORE PUSH1 0x9 PUSH1 0x20 MSTORE PUSH1 0x40 SWAP1 KECCAK256 SLOAD PUSH1 0xFF AND ISZERO PUSH2 0x1684 JUMPI PUSH1 0x40 MLOAD PUSH3 0x461BCD PUSH1 0xE5 SHL DUP2 MSTORE PUSH1 0x20 PUSH1 0x4 DUP3 ADD MSTORE PUSH1 0x8 PUSH1 0x24 DUP3 ADD MSTORE PUSH8 0x14995919595B5959 PUSH1 0xC2 SHL PUSH1 0x44 DUP3 ADD MSTORE PUSH1 0x64 ADD PUSH2 0x5EF JUMP JUMPDEST PUSH1 0x0 DUP3 DUP2 MSTORE PUSH1 0x7 PUSH1 0x20 MSTORE PUSH1 0x40 SWAP1 KECCAK256 SLOAD DUP1 PUSH2 0x16CD JUMPI PUSH1 0x40 MLOAD PUSH3 0x461BCD PUSH1 0xE5 SHL DUP2 MSTORE PUSH1 0x20 PUSH1 0x4 DUP3 ADD MSTORE PUSH1 0xA PUSH1 0x24 DUP3 ADD MSTORE PUSH10 0xC081A5B9D995CDD1959 PUSH1 0xB2 SHL PUSH1 0x44 DUP3 ADD MSTORE PUSH1 0x64 ADD PUSH2 0x5EF JUMP JUMPDEST PUSH1 0x0 PUSH1 0x6 SLOAD GT PUSH2 0x170E JUMPI PUSH1 0x40 MLOAD PUSH3 0x461BCD PUSH1 0xE5 SHL DUP2 MSTORE PUSH1 0x20 PUSH1 0x4 DUP3 ADD MSTORE PUSH1 0xC PUSH1 0x24 DUP3 ADD MSTORE PUSH12 0x4E6F2072656D61696E696E67 PUSH1 0xA0 SHL PUSH1 0x44 DUP3 ADD MSTORE PUSH1 0x64 ADD PUSH2 0x5EF JUMP JUMPDEST PUSH1 0x0 DUP4 DUP2 MSTORE PUSH1 0x9 PUSH1 0x20 MSTORE PUSH1 0x40 SWAP1 DUP2 SWAP1 KECCAK256 DUP1 SLOAD PUSH1 0xFF NOT AND PUSH1 0x1 OR SWAP1 SSTORE MLOAD PUSH4 0x852CD8D PUSH1 0xE3 SHL DUP2 MSTORE PUSH1 0x4 DUP2 ADD DUP5 SWAP1 MSTORE PUSH1 0x1 PUSH1 0x1 PUSH1 0xA0 SHL SUB DUP4 AND SWAP1 PUSH4 0x42966C68 SWAP1 PUSH1 0x24 ADD PUSH1 0x0 PUSH1 0x40 MLOAD DUP1 DUP4 SUB DUP2 PUSH1 0x0 DUP8 DUP1 EXTCODESIZE ISZERO DUP1 ISZERO PUSH2 0x1769 JUMPI PUSH1 0x0 DUP1 REVERT JUMPDEST POP GAS CALL ISZERO DUP1 ISZERO PUSH2 0x177D JUMPI RETURNDATASIZE PUSH1 0x0 DUP1 RETURNDATACOPY RETURNDATASIZE PUSH1 0x0 REVERT JUMPDEST POP POP PUSH1 0x40 MLOAD PUSH4 0x70A08231 PUSH1 0xE0 SHL DUP2 MSTORE PUSH1 0x0 SWAP3 POP PUSH1 0x1 PUSH1 0x1 PUSH1 0xA0 SHL SUB PUSH32 0x0 AND SWAP2 POP PUSH4 0x70A08231 SWAP1 PUSH2 0x17D0 SWAP1 ADDRESS SWAP1 PUSH1 0x4 ADD PUSH2 0x1CA2 JUMP JUMPDEST PUSH1 0x20 PUSH1 0x40 MLOAD DUP1 DUP4 SUB DUP2 DUP7 GAS STATICCALL ISZERO DUP1 ISZERO PUSH2 0x17ED JUMPI RETURNDATASIZE PUSH1 0x0 DUP1 RETURNDATACOPY RETURNDATASIZE PUSH1 0x0 REVERT JUMPDEST POP POP POP POP PUSH1 0x40 MLOAD RETURNDATASIZE PUSH1 0x1F NOT PUSH1 0x1F DUP3 ADD AND DUP3 ADD DUP1 PUSH1 0x40 MSTORE POP DUP2 ADD SWAP1 PUSH2 0x1811 SWAP2 SWAP1 PUSH2 0x1ED8 JUMP JUMPDEST SWAP1 POP DUP1 ISZERO PUSH2 0x1894 JUMPI PUSH1 0x40 MLOAD PUSH4 0x2E1A7D4D PUSH1 0xE0 SHL DUP2 MSTORE PUSH1 0x4 DUP2 ADD DUP3 SWAP1 MSTORE PUSH32 0x0 PUSH1 0x1 PUSH1 0x1 PUSH1 0xA0 SHL SUB AND SWAP1 PUSH4 0x2E1A7D4D SWAP1 PUSH1 0x24 ADD PUSH1 0x0 PUSH1 0x40 MLOAD DUP1 DUP4 SUB DUP2 PUSH1 0x0 DUP8 DUP1 EXTCODESIZE ISZERO DUP1 ISZERO PUSH2 0x187B JUMPI PUSH1 0x0 DUP1 REVERT JUMPDEST POP GAS CALL ISZERO DUP1 ISZERO PUSH2 0x188F JUMPI RETURNDATASIZE PUSH1 0x0 DUP1 RETURNDATACOPY RETURNDATASIZE PUSH1 0x0 REVERT JUMPDEST POP POP POP POP JUMPDEST PUSH1 0x6 SLOAD SELFBALANCE SWAP1 PUSH1 0x0 SWAP1 PUSH2 0x18A6 DUP6 DUP5 PUSH2 0x2125 JUMP JUMPDEST PUSH2 0x18B0 SWAP2 SWAP1 PUSH2 0x213C JUMP JUMPDEST SWAP1 POP DUP4 PUSH1 0x6 PUSH1 0x0 DUP3 DUP3 SLOAD PUSH2 0x18C4 SWAP2 SWAP1 PUSH2 0x20F5 JUMP JUMPDEST SWAP1 SWAP2 SSTORE POP PUSH1 0x0 SWAP1 POP DUP5 DUP3 GT PUSH2 0x18DA JUMPI PUSH1 0x0 PUSH2 0x18E4 JUMP JUMPDEST PUSH2 0x18E4 DUP6 DUP4 PUSH2 0x20F5 JUMP JUMPDEST SWAP1 POP PUSH1 0x0 PUSH1 0x64 PUSH2 0x18F5 DUP4 PUSH1 0x14 PUSH2 0x2125 JUMP JUMPDEST PUSH2 0x18FF SWAP2 SWAP1 PUSH2 0x213C JUMP JUMPDEST SWAP1 POP PUSH1 0x0 PUSH2 0x190D DUP3 DUP6 PUSH2 0x20F5 JUMP JUMPDEST PUSH1 0x40 MLOAD SWAP1 SWAP2 POP CALLER SWAP1 DUP3 ISZERO PUSH2 0x8FC MUL SWAP1 DUP4 SWAP1 PUSH1 0x0 DUP2 DUP2 DUP2 DUP6 DUP9 DUP9 CALL SWAP4 POP POP POP POP ISZERO DUP1 ISZERO PUSH2 0x193D JUMPI RETURNDATASIZE PUSH1 0x0 DUP1 RETURNDATACOPY RETURNDATASIZE PUSH1 0x0 REVERT JUMPDEST POP PUSH1 0x40 DUP1 MLOAD DUP6 DUP2 MSTORE PUSH1 0x20 DUP2 ADD DUP12 SWAP1 MSTORE CALLER SWAP2 PUSH32 0xF3A670CD3AF7D64B488926880889D08A8585A138FF455227AF6737339A1EC262 SWAP2 ADD PUSH1 0x40 MLOAD DUP1 SWAP2 SUB SWAP1 LOG2 POP POP POP POP POP POP POP POP PUSH2 0xF0F PUSH1 0x1 DUP1 SSTORE JUMP JUMPDEST PUSH2 0x1992 PUSH2 0x1B7B JUMP JUMPDEST PUSH1 0x1 PUSH1 0x1 PUSH1 0xA0 SHL SUB DUP2 AND PUSH2 0x19F7 JUMPI PUSH1 0x40 MLOAD PUSH3 0x461BCD PUSH1 0xE5 SHL DUP2 MSTORE PUSH1 0x20 PUSH1 0x4 DUP3 ADD MSTORE PUSH1 0x26 PUSH1 0x24 DUP3 ADD MSTORE PUSH32 0x4F776E61626C653A206E6577206F776E657220697320746865207A65726F2061 PUSH1 0x44 DUP3 ADD MSTORE PUSH6 0x646472657373 PUSH1 0xD0 SHL PUSH1 0x64 DUP3 ADD MSTORE PUSH1 0x84 ADD PUSH2 0x5EF JUMP JUMPDEST PUSH2 0xF0F DUP2 PUSH2 0x1BDA JUMP JUMPDEST PUSH2 0x1A08 PUSH2 0x1B7B JUMP JUMPDEST PUSH1 0x2 SLOAD PUSH1 0x1 PUSH1 0x1 PUSH1 0xA0 SHL SUB AND ISZERO PUSH2 0x1A4A JUMPI PUSH1 0x40 MLOAD PUSH3 0x461BCD PUSH1 0xE5 SHL DUP2 MSTORE PUSH1 0x20 PUSH1 0x4 DUP3 ADD MSTORE PUSH1 0x6 PUSH1 0x24 DUP3 ADD MSTORE PUSH6 0x1391951CD95D PUSH1 0xD2 SHL PUSH1 0x44 DUP3 ADD MSTORE PUSH1 0x64 ADD PUSH2 0x5EF JUMP JUMPDEST PUSH1 0x1 PUSH1 0x1 PUSH1 0xA0 SHL SUB DUP2 AND PUSH2 0x1A70 JUMPI PUSH1 0x40 MLOAD PUSH3 0x461BCD PUSH1 0xE5 SHL DUP2 MSTORE PUSH1 0x4 ADD PUSH2 0x5EF SWAP1 PUSH2 0x1FF0 JUMP JUMPDEST PUSH1 0x2 DUP1 SLOAD PUSH1 0x1 PUSH1 0x1 PUSH1 0xA0 SHL SUB NOT AND PUSH1 0x1 PUSH1 0x1 PUSH1 0xA0 SHL SUB SWAP3 SWAP1 SWAP3 AND SWAP2 SWAP1 SWAP2 OR SWAP1 SSTORE JUMP JUMPDEST CALLER PUSH1 0x0 SWAP1 DUP2 MSTORE PUSH1 0x8 PUSH1 0x20 MSTORE PUSH1 0x40 SWAP1 KECCAK256 SLOAD PUSH1 0xFF AND DUP1 PUSH2 0x1AC8 JUMPI POP PUSH2 0x1AB3 PUSH2 0xF4E JUMP JUMPDEST PUSH1 0x1 PUSH1 0x1 PUSH1 0xA0 SHL SUB AND CALLER PUSH1 0x1 PUSH1 0x1 PUSH1 0xA0 SHL SUB AND EQ JUMPDEST PUSH2 0x1AE4 JUMPI PUSH1 0x40 MLOAD PUSH3 0x461BCD PUSH1 0xE5 SHL DUP2 MSTORE PUSH1 0x4 ADD PUSH2 0x5EF SWAP1 PUSH2 0x1FB0 JUMP JUMPDEST PUSH1 0x4 DUP1 SLOAD PUSH1 0xFF PUSH1 0xA0 SHL NOT AND PUSH1 0x1 PUSH1 0xA0 SHL OR SWAP1 SSTORE PUSH1 0x40 MLOAD PUSH32 0xAD7F2119F32A4D4EA449E8DDBAA29F3BC7880556916B566B102255064CB1C21D SWAP1 PUSH1 0x0 SWAP1 LOG1 JUMP JUMPDEST PUSH1 0x2 PUSH1 0x1 SLOAD SUB PUSH2 0x1B74 JUMPI PUSH1 0x40 MLOAD PUSH3 0x461BCD PUSH1 0xE5 SHL DUP2 MSTORE PUSH1 0x20 PUSH1 0x4 DUP3 ADD MSTORE PUSH1 0x1F PUSH1 0x24 DUP3 ADD MSTORE PUSH32 0x5265656E7472616E637947756172643A207265656E7472616E742063616C6C00 PUSH1 0x44 DUP3 ADD MSTORE PUSH1 0x64 ADD PUSH2 0x5EF JUMP JUMPDEST PUSH1 0x2 PUSH1 0x1 SSTORE JUMP JUMPDEST CALLER PUSH2 0x1B84 PUSH2 0xF4E JUMP JUMPDEST PUSH1 0x1 PUSH1 0x1 PUSH1 0xA0 SHL SUB AND EQ PUSH2 0x9E7 JUMPI PUSH1 0x40 MLOAD PUSH3 0x461BCD PUSH1 0xE5 SHL DUP2 MSTORE PUSH1 0x20 PUSH1 0x4 DUP3 ADD DUP2 SWAP1 MSTORE PUSH1 0x24 DUP3 ADD MSTORE PUSH32 0x4F776E61626C653A2063616C6C6572206973206E6F7420746865206F776E6572 PUSH1 0x44 DUP3 ADD MSTORE PUSH1 0x64 ADD PUSH2 0x5EF JUMP JUMPDEST PUSH1 0x0 DUP1 SLOAD PUSH1 0x1 PUSH1 0x1 PUSH1 0xA0 SHL SUB DUP4 DUP2 AND PUSH1 0x1 PUSH1 0x1 PUSH1 0xA0 SHL SUB NOT DUP4 AND DUP2 OR DUP5 SSTORE PUSH1 0x40 MLOAD SWAP2 SWAP1 SWAP3 AND SWAP3 DUP4 SWAP2 PUSH32 0x8BE0079C531659141344CD1FD0A4F28419497F9722A3DAAFE3B4186F6B6457E0 SWAP2 SWAP1 LOG3 POP POP JUMP JUMPDEST DUP3 DUP1 SLOAD DUP3 DUP3 SSTORE SWAP1 PUSH1 0x0 MSTORE PUSH1 0x20 PUSH1 0x0 KECCAK256 SWAP1 DUP2 ADD SWAP3 DUP3 ISZERO PUSH2 0x1C7D JUMPI SWAP2 PUSH1 0x20 MUL DUP3 ADD JUMPDEST DUP3 DUP2 GT ISZERO PUSH2 0x1C7D JUMPI DUP2 SLOAD PUSH1 0x1 PUSH1 0x1 PUSH1 0xA0 SHL SUB NOT AND PUSH1 0x1 PUSH1 0x1 PUSH1 0xA0 SHL SUB DUP5 CALLDATALOAD AND OR DUP3 SSTORE PUSH1 0x20 SWAP1 SWAP3 ADD SWAP2 PUSH1 0x1 SWAP1 SWAP2 ADD SWAP1 PUSH2 0x1C4A JUMP JUMPDEST POP PUSH2 0x1C89 SWAP3 SWAP2 POP PUSH2 0x1C8D JUMP JUMPDEST POP SWAP1 JUMP JUMPDEST JUMPDEST DUP1 DUP3 GT ISZERO PUSH2 0x1C89 JUMPI PUSH1 0x0 DUP2 SSTORE PUSH1 0x1 ADD PUSH2 0x1C8E JUMP JUMPDEST PUSH1 0x1 PUSH1 0x1 PUSH1 0xA0 SHL SUB SWAP2 SWAP1 SWAP2 AND DUP2 MSTORE PUSH1 0x20 ADD SWAP1 JUMP JUMPDEST PUSH1 0x0 PUSH1 0x20 DUP3 DUP5 SUB SLT ISZERO PUSH2 0x1CC8 JUMPI PUSH1 0x0 DUP1 REVERT JUMPDEST POP CALLDATALOAD SWAP2 SWAP1 POP JUMP JUMPDEST PUSH1 0x1 PUSH1 0x1 PUSH1 0xA0 SHL SUB DUP2 AND DUP2 EQ PUSH2 0xF0F JUMPI PUSH1 0x0 DUP1 REVERT JUMPDEST PUSH1 0x0 PUSH1 0x20 DUP3 DUP5 SUB SLT ISZERO PUSH2 0x1CF6 JUMPI PUSH1 0x0 DUP1 REVERT JUMPDEST DUP2 CALLDATALOAD PUSH2 0x1D01 DUP2 PUSH2 0x1CCF JUMP JUMPDEST SWAP4 SWAP3 POP POP POP JUMP JUMPDEST PUSH1 0x0 DUP1 DUP4 PUSH1 0x1F DUP5 ADD SLT PUSH2 0x1D1A JUMPI PUSH1 0x0 DUP1 REVERT JUMPDEST POP DUP2 CALLDATALOAD PUSH1 0x1 PUSH1 0x1 PUSH1 0x40 SHL SUB DUP2 GT ISZERO PUSH2 0x1D31 JUMPI PUSH1 0x0 DUP1 REVERT JUMPDEST PUSH1 0x20 DUP4 ADD SWAP2 POP DUP4 PUSH1 0x20 DUP3 PUSH1 0x5 SHL DUP6 ADD ADD GT ISZERO PUSH2 0x1D4C JUMPI PUSH1 0x0 DUP1 REVERT JUMPDEST SWAP3 POP SWAP3 SWAP1 POP JUMP JUMPDEST PUSH1 0x0 DUP1 PUSH1 0x20 DUP4 DUP6 SUB SLT ISZERO PUSH2 0x1D66 JUMPI PUSH1 0x0 DUP1 REVERT JUMPDEST DUP3 CALLDATALOAD PUSH1 0x1 PUSH1 0x1 PUSH1 0x40 SHL SUB DUP2 GT ISZERO PUSH2 0x1D7C JUMPI PUSH1 0x0 DUP1 REVERT JUMPDEST PUSH2 0x1D88 DUP6 DUP3 DUP7 ADD PUSH2 0x1D08 JUMP JUMPDEST SWAP1 SWAP7 SWAP1 SWAP6 POP SWAP4 POP POP POP POP JUMP JUMPDEST DUP1 ISZERO ISZERO DUP2 EQ PUSH2 0xF0F JUMPI PUSH1 0x0 DUP1 REVERT JUMPDEST PUSH1 0x0 DUP1 PUSH1 0x40 DUP4 DUP6 SUB SLT ISZERO PUSH2 0x1DB5 JUMPI PUSH1 0x0 DUP1 REVERT JUMPDEST DUP3 CALLDATALOAD PUSH2 0x1DC0 DUP2 PUSH2 0x1CCF JUMP JUMPDEST SWAP2 POP PUSH1 0x20 DUP4 ADD CALLDATALOAD PUSH2 0x1DD0 DUP2 PUSH2 0x1D94 JUMP JUMPDEST DUP1 SWAP2 POP POP SWAP3 POP SWAP3 SWAP1 POP JUMP JUMPDEST PUSH1 0x0 DUP1 PUSH1 0x0 PUSH1 0x60 DUP5 DUP7 SUB SLT ISZERO PUSH2 0x1DF0 JUMPI PUSH1 0x0 DUP1 REVERT JUMPDEST DUP4 CALLDATALOAD PUSH2 0x1DFB DUP2 PUSH2 0x1CCF JUMP JUMPDEST SWAP3 POP PUSH1 0x20 DUP5 ADD CALLDATALOAD PUSH2 0x1E0B DUP2 PUSH2 0x1CCF JUMP JUMPDEST SWAP3 SWAP6 SWAP3 SWAP5 POP POP POP PUSH1 0x40 SWAP2 SWAP1 SWAP2 ADD CALLDATALOAD SWAP1 JUMP JUMPDEST PUSH1 0x0 PUSH1 0x20 DUP3 DUP5 SUB SLT ISZERO PUSH2 0x1E2E JUMPI PUSH1 0x0 DUP1 REVERT JUMPDEST DUP2 CALLDATALOAD PUSH2 0x1D01 DUP2 PUSH2 0x1D94 JUMP JUMPDEST PUSH1 0x0 DUP1 PUSH1 0x0 DUP1 PUSH1 0x0 DUP1 PUSH1 0x0 PUSH1 0xC0 DUP9 DUP11 SUB SLT ISZERO PUSH2 0x1E54 JUMPI PUSH1 0x0 DUP1 REVERT JUMPDEST DUP8 CALLDATALOAD SWAP7 POP PUSH1 0x20 DUP9 ADD CALLDATALOAD SWAP6 POP PUSH1 0x40 DUP9 ADD CALLDATALOAD PUSH1 0x1 PUSH1 0x1 PUSH1 0x40 SHL SUB DUP2 GT ISZERO PUSH2 0x1E78 JUMPI PUSH1 0x0 DUP1 REVERT JUMPDEST PUSH2 0x1E84 DUP11 DUP3 DUP12 ADD PUSH2 0x1D08 JUMP JUMPDEST SWAP1 SWAP7 POP SWAP5 POP POP PUSH1 0x60 DUP9 ADD CALLDATALOAD PUSH2 0x1E98 DUP2 PUSH2 0x1D94 JUMP JUMPDEST SWAP3 POP PUSH1 0x80 DUP9 ADD CALLDATALOAD PUSH2 0x1EA8 DUP2 PUSH2 0x1D94 JUMP JUMPDEST DUP1 SWAP3 POP POP PUSH1 0xA0 DUP9 ADD CALLDATALOAD SWAP1 POP SWAP3 SWAP6 SWAP9 SWAP2 SWAP5 SWAP8 POP SWAP3 SWAP6 POP JUMP JUMPDEST PUSH1 0x1 PUSH1 0x1 PUSH1 0xA0 SHL SUB SWAP3 SWAP1 SWAP3 AND DUP3 MSTORE PUSH1 0x20 DUP3 ADD MSTORE PUSH1 0x40 ADD SWAP1 JUMP JUMPDEST PUSH1 0x0 PUSH1 0x20 DUP3 DUP5 SUB SLT ISZERO PUSH2 0x1EEA JUMPI PUSH1 0x0 DUP1 REVERT JUMPDEST POP MLOAD SWAP2 SWAP1 POP JUMP JUMPDEST PUSH4 0x4E487B71 PUSH1 0xE0 SHL PUSH1 0x0 MSTORE PUSH1 0x11 PUSH1 0x4 MSTORE PUSH1 0x24 PUSH1 0x0 REVERT JUMPDEST DUP1 DUP3 ADD DUP1 DUP3 GT ISZERO PUSH2 0xA28 JUMPI PUSH2 0xA28 PUSH2 0x1EF1 JUMP JUMPDEST PUSH4 0x4E487B71 PUSH1 0xE0 SHL PUSH1 0x0 MSTORE PUSH1 0x41 PUSH1 0x4 MSTORE PUSH1 0x24 PUSH1 0x0 REVERT JUMPDEST PUSH4 0x4E487B71 PUSH1 0xE0 SHL PUSH1 0x0 MSTORE PUSH1 0x32 PUSH1 0x4 MSTORE PUSH1 0x24 PUSH1 0x0 REVERT JUMPDEST PUSH1 0x0 PUSH1 0x1 DUP3 ADD PUSH2 0x1F58 JUMPI PUSH2 0x1F58 PUSH2 0x1EF1 JUMP JUMPDEST POP PUSH1 0x1 ADD SWAP1 JUMP JUMPDEST PUSH1 0x40 DUP1 DUP3 MSTORE DUP4 MLOAD SWAP1 DUP3 ADD DUP2 SWAP1 MSTORE PUSH1 0x0 SWAP1 PUSH1 0x20 SWAP1 PUSH1 0x60 DUP5 ADD SWAP1 DUP3 DUP8 ADD DUP5 JUMPDEST DUP3 DUP2 LT ISZERO PUSH2 0x1FA1 JUMPI DUP2 MLOAD PUSH1 0x1 PUSH1 0x1 PUSH1 0xA0 SHL SUB AND DUP5 MSTORE SWAP3 DUP5 ADD SWAP3 SWAP1 DUP5 ADD SWAP1 PUSH1 0x1 ADD PUSH2 0x1F7C JUMP JUMPDEST POP POP POP SWAP3 ADD SWAP3 SWAP1 SWAP3 MSTORE SWAP3 SWAP2 POP POP JUMP JUMPDEST PUSH1 0x20 DUP1 DUP3 MSTORE PUSH1 0x9 SWAP1 DUP3 ADD MSTORE PUSH9 0x2737BA1030B236B4B7 PUSH1 0xB9 SHL PUSH1 0x40 DUP3 ADD MSTORE PUSH1 0x60 ADD SWAP1 JUMP JUMPDEST PUSH1 0x0 PUSH1 0x20 DUP3 DUP5 SUB SLT ISZERO PUSH2 0x1FE5 JUMPI PUSH1 0x0 DUP1 REVERT JUMPDEST DUP2 MLOAD PUSH2 0x1D01 DUP2 PUSH2 0x1D94 JUMP JUMPDEST PUSH1 0x20 DUP1 DUP3 MSTORE PUSH1 0x7 SWAP1 DUP3 ADD MSTORE PUSH7 0x125B9D985B1A59 PUSH1 0xCA SHL PUSH1 0x40 DUP3 ADD MSTORE PUSH1 0x60 ADD SWAP1 JUMP JUMPDEST DUP2 DUP4 MSTORE PUSH1 0x0 PUSH1 0x20 DUP1 DUP6 ADD SWAP5 POP DUP3 PUSH1 0x0 JUMPDEST DUP6 DUP2 LT ISZERO PUSH2 0x204F JUMPI DUP2 CALLDATALOAD PUSH2 0x2034 DUP2 PUSH2 0x1CCF JUMP JUMPDEST PUSH1 0x1 PUSH1 0x1 PUSH1 0xA0 SHL SUB AND DUP8 MSTORE SWAP6 DUP3 ADD SWAP6 SWAP1 DUP3 ADD SWAP1 PUSH1 0x1 ADD PUSH2 0x2021 JUMP JUMPDEST POP SWAP5 SWAP6 SWAP5 POP POP POP POP POP JUMP JUMPDEST PUSH1 0x20 DUP2 MSTORE PUSH1 0x0 PUSH2 0x206E PUSH1 0x20 DUP4 ADD DUP5 DUP7 PUSH2 0x2011 JUMP JUMPDEST SWAP5 SWAP4 POP POP POP POP JUMP JUMPDEST DUP9 DUP2 MSTORE DUP8 PUSH1 0x20 DUP3 ADD MSTORE PUSH1 0xE0 PUSH1 0x40 DUP3 ADD MSTORE PUSH1 0x0 PUSH2 0x2096 PUSH1 0xE0 DUP4 ADD DUP9 DUP11 PUSH2 0x2011 JUMP JUMPDEST SWAP6 ISZERO ISZERO PUSH1 0x60 DUP4 ADD MSTORE POP SWAP3 ISZERO ISZERO PUSH1 0x80 DUP5 ADD MSTORE PUSH1 0x1 PUSH1 0x1 PUSH1 0xA0 SHL SUB SWAP2 SWAP1 SWAP2 AND PUSH1 0xA0 DUP4 ADD MSTORE PUSH1 0xC0 SWAP1 SWAP2 ADD MSTORE SWAP5 SWAP4 POP POP POP POP JUMP JUMPDEST PUSH1 0x0 DUP3 MLOAD PUSH1 0x0 JUMPDEST DUP2 DUP2 LT ISZERO PUSH2 0x20E7 JUMPI PUSH1 0x20 DUP2 DUP7 ADD DUP2 ADD MLOAD DUP6 DUP4 ADD MSTORE ADD PUSH2 0x20CD JUMP JUMPDEST POP PUSH1 0x0 SWAP3 ADD SWAP2 DUP3 MSTORE POP SWAP2 SWAP1 POP JUMP JUMPDEST DUP2 DUP2 SUB DUP2 DUP2 GT ISZERO PUSH2 0xA28 JUMPI PUSH2 0xA28 PUSH2 0x1EF1 JUMP JUMPDEST PUSH1 0x0 PUSH1 0x20 DUP3 DUP5 SUB SLT ISZERO PUSH2 0x211A JUMPI PUSH1 0x0 DUP1 REVERT JUMPDEST DUP2 MLOAD PUSH2 0x1D01 DUP2 PUSH2 0x1CCF JUMP JUMPDEST DUP1 DUP3 MUL DUP2 ISZERO DUP3 DUP3 DIV DUP5 EQ OR PUSH2 0xA28 JUMPI PUSH2 0xA28 PUSH2 0x1EF1 JUMP JUMPDEST PUSH1 0x0 DUP3 PUSH2 0x2159 JUMPI PUSH4 0x4E487B71 PUSH1 0xE0 SHL PUSH1 0x0 MSTORE PUSH1 0x12 PUSH1 0x4 MSTORE PUSH1 0x24 PUSH1 0x0 REVERT JUMPDEST POP DIV SWAP1 JUMP INVALID LOG2 PUSH5 0x6970667358 0x22 SLT KECCAK256 CALLDATASIZE DUP14 EXP SWAP16 REVERT PUSH20 0xD1683FCAE3EBFBA95CB7D7C8B88A512B32D702F6 0x28 PUSH0 MSTORE 0xCA MSTORE PUSH6 0x64736F6C6343 STOP ADDMOD ISZERO STOP CALLER LOG2 PUSH5 0x6970667358 0x22 SLT KECCAK256 0xC2 PUSH25 0xF91F44C7C49D1B5E2E8D000283DB1D0A5BD0FCFCE4D08981E1 PUSH6 0x39BB501B6473 PUSH16 0x6C634300081500330000000000000000 "},"methodIdentifiers":{"areDepositsOpen(string)":"2ead2908","areRedeemsOpen(string)":"f3e6d2bd","batchCHZBuyer()":"a34a34ab","competitionNames(uint256)":"49560f96","competitions(string)":"b914f6e4","createCompetition(string,string,string,address[],address,address,string)":"06726cf4","getAllCompetitionNames()":"3788dcd1","getBaseURI(string)":"22904b4a","getCompetition(string)":"610d728a","isAdmin(address)":"24d7806c","isValidVault(address)":"64219450","owner()":"8da5cb5b","renounceOwnership()":"715018a6","setDepositsOpen(string,bool)":"ead8b024","setRedeemsOpen(string,bool)":"258b051d","transferOwnership(address)":"f2fde38b","validVaults(address)":"6657fc67"}}}}}