{
  "_format": "hh-sol-artifact-1",
  "contractName": "BatchCHZBuyerNative",
  "sourceName": "contracts/utils/BatchCHZBuyer.sol",
  "abi": [
    {
      "inputs": [
        {
          "internalType": "address",
          "name": "_router",
          "type": "address"
        },
        {
          "internalType": "address",
          "name": "_wchz",
          "type": "address"
        }
      ],
      "stateMutability": "nonpayable",
      "type": "constructor"
    },
    {
      "inputs": [],
      "name": "WCHZ",
      "outputs": [
        {
          "internalType": "address",
          "name": "",
          "type": "address"
        }
      ],
      "stateMutability": "view",
      "type": "function"
    },
    {
      "inputs": [],
      "name": "router",
      "outputs": [
        {
          "internalType": "address",
          "name": "",
          "type": "address"
        }
      ],
      "stateMutability": "view",
      "type": "function"
    },
    {
      "inputs": [
        {
          "internalType": "address[]",
          "name": "tokensOut",
          "type": "address[]"
        },
        {
          "internalType": "uint256",
          "name": "minOutPerToken",
          "type": "uint256"
        }
      ],
      "name": "swapEqualCHZToMultipleTokens",
      "outputs": [],
      "stateMutability": "payable",
      "type": "function"
    },
    {
      "stateMutability": "payable",
      "type": "receive"
    }
  ],
  "bytecode": "0x60c060405234801561001057600080fd5b506040516107a63803806107a683398101604081905261002f91610062565b6001600160a01b039182166080521660a052610095565b80516001600160a01b038116811461005d57600080fd5b919050565b6000806040838503121561007557600080fd5b61007e83610046565b915061008c60208401610046565b90509250929050565b60805160a0516106cb6100db60003960008181606b01528181610133015281816101e7015261028701526000818160bb015281816101b9015261032b01526106cb6000f3fe6080604052600436106100385760003560e01c8063102368fd1461004457806381e18b4714610059578063f887ea40146100a957600080fd5b3661003f57005b600080fd5b6100576100523660046103e9565b6100dd565b005b34801561006557600080fd5b5061008d7f000000000000000000000000000000000000000000000000000000000000000081565b6040516001600160a01b03909116815260200160405180910390f35b3480156100b557600080fd5b5061008d7f000000000000000000000000000000000000000000000000000000000000000081565b816101235760405162461bcd60e51b8152602060048201526012602482015271139bc81d1bdad95b9cc81c1c9bdd9a59195960721b604482015260640160405180910390fd5b600061012f833461047a565b90507f00000000000000000000000000000000000000000000000000000000000000006001600160a01b031663d0e30db0346040518263ffffffff1660e01b81526004016000604051808303818588803b15801561018c57600080fd5b505af11580156101a0573d6000803e3d6000fd5b505060405163095ea7b360e01b81526001600160a01b037f0000000000000000000000000000000000000000000000000000000000000000811660048301523460248301527f000000000000000000000000000000000000000000000000000000000000000016935063095ea7b3925060440190506020604051808303816000875af1158015610234573d6000803e3d6000fd5b505050506040513d601f19601f82011682018060405250810190610258919061049c565b5060005b838110156103e2576040805160028082526060820183526000926020830190803683370190505090507f0000000000000000000000000000000000000000000000000000000000000000816000815181106102b9576102b96104db565b60200260200101906001600160a01b031690816001600160a01b0316815250508585838181106102eb576102eb6104db565b905060200201602081019061030091906104f1565b81600181518110610313576103136104db565b6001600160a01b0392831660209182029290920101527f0000000000000000000000000000000000000000000000000000000000000000166396f9189984868460016000336103644261012c61051a565b6040518863ffffffff1660e01b81526004016103869796959493929190610533565b6000604051808303816000875af11580156103a5573d6000803e3d6000fd5b505050506040513d6000823e601f3d908101601f191682016040526103cd91908101906105be565b505080806103da9061067c565b91505061025c565b5050505050565b6000806000604084860312156103fe57600080fd5b833567ffffffffffffffff8082111561041657600080fd5b818601915086601f83011261042a57600080fd5b81358181111561043957600080fd5b8760208260051b850101111561044e57600080fd5b6020928301989097509590910135949350505050565b634e487b7160e01b600052601160045260246000fd5b60008261049757634e487b7160e01b600052601260045260246000fd5b500490565b6000602082840312156104ae57600080fd5b815180151581146104be57600080fd5b9392505050565b634e487b7160e01b600052604160045260246000fd5b634e487b7160e01b600052603260045260246000fd5b60006020828403121561050357600080fd5b81356001600160a01b03811681146104be57600080fd5b8082018082111561052d5761052d610464565b92915050565b600060e082018983526020898185015260e0604085015281895180845261010086019150828b01935060005b818110156105845784516001600160a01b03168352938301939183019160010161055f565b50508815156060860152871515608086015292506105a0915050565b6001600160a01b039390931660a082015260c0015295945050505050565b600060208083850312156105d157600080fd5b825167ffffffffffffffff808211156105e957600080fd5b818501915085601f8301126105fd57600080fd5b81518181111561060f5761060f6104c5565b8060051b604051601f19603f83011681018181108582111715610634576106346104c5565b60405291825284820192508381018501918883111561065257600080fd5b938501935b8285101561067057845184529385019392850192610657565b98975050505050505050565b60006001820161068e5761068e610464565b506001019056fea2646970667358221220374503c2c67fe2204cb9c7daac3fc85751dafde2389c1491c99820fe9c3eb5ae64736f6c63430008150033",
  "linkReferences": {},
  "deployedLinkReferences": {}
}