{
  "_format": "hh-sol-artifact-1",
  "contractName": "CompetitionNFT",
  "sourceName": "contracts/core/CompetitionNFT.sol",
  "abi": [
    {
      "inputs": [
        {
          "internalType": "string",
          "name": "name",
          "type": "string"
        },
        {
          "internalType": "string",
          "name": "symbol",
          "type": "string"
        },
        {
          "internalType": "address",
          "name": "initialOwner",
          "type": "address"
        }
      ],
      "stateMutability": "nonpayable",
      "type": "constructor"
    },
    {
      "inputs": [
        {
          "internalType": "address",
          "name": "sender",
          "type": "address"
        },
        {
          "internalType": "uint256",
          "name": "tokenId",
          "type": "uint256"
        },
        {
          "internalType": "address",
          "name": "owner",
          "type": "address"
        }
      ],
      "name": "ERC721IncorrectOwner",
      "type": "error"
    },
    {
      "inputs": [
        {
          "internalType": "address",
          "name": "operator",
          "type": "address"
        },
        {
          "internalType": "uint256",
          "name": "tokenId",
          "type": "uint256"
        }
      ],
      "name": "ERC721InsufficientApproval",
      "type": "error"
    },
    {
      "inputs": [
        {
          "internalType": "address",
          "name": "approver",
          "type": "address"
        }
      ],
      "name": "ERC721InvalidApprover",
      "type": "error"
    },
    {
      "inputs": [
        {
          "internalType": "address",
          "name": "operator",
          "type": "address"
        }
      ],
      "name": "ERC721InvalidOperator",
      "type": "error"
    },
    {
      "inputs": [
        {
          "internalType": "address",
          "name": "owner",
          "type": "address"
        }
      ],
      "name": "ERC721InvalidOwner",
      "type": "error"
    },
    {
      "inputs": [
        {
          "internalType": "address",
          "name": "receiver",
          "type": "address"
        }
      ],
      "name": "ERC721InvalidReceiver",
      "type": "error"
    },
    {
      "inputs": [
        {
          "internalType": "address",
          "name": "sender",
          "type": "address"
        }
      ],
      "name": "ERC721InvalidSender",
      "type": "error"
    },
    {
      "inputs": [
        {
          "internalType": "uint256",
          "name": "tokenId",
          "type": "uint256"
        }
      ],
      "name": "ERC721NonexistentToken",
      "type": "error"
    },
    {
      "inputs": [
        {
          "internalType": "address",
          "name": "owner",
          "type": "address"
        }
      ],
      "name": "OwnableInvalidOwner",
      "type": "error"
    },
    {
      "inputs": [
        {
          "internalType": "address",
          "name": "account",
          "type": "address"
        }
      ],
      "name": "OwnableUnauthorizedAccount",
      "type": "error"
    },
    {
      "anonymous": false,
      "inputs": [
        {
          "indexed": true,
          "internalType": "address",
          "name": "owner",
          "type": "address"
        },
        {
          "indexed": true,
          "internalType": "address",
          "name": "approved",
          "type": "address"
        },
        {
          "indexed": true,
          "internalType": "uint256",
          "name": "tokenId",
          "type": "uint256"
        }
      ],
      "name": "Approval",
      "type": "event"
    },
    {
      "anonymous": false,
      "inputs": [
        {
          "indexed": true,
          "internalType": "address",
          "name": "owner",
          "type": "address"
        },
        {
          "indexed": true,
          "internalType": "address",
          "name": "operator",
          "type": "address"
        },
        {
          "indexed": false,
          "internalType": "bool",
          "name": "approved",
          "type": "bool"
        }
      ],
      "name": "ApprovalForAll",
      "type": "event"
    },
    {
      "anonymous": false,
      "inputs": [
        {
          "indexed": false,
          "internalType": "string",
          "name": "uri",
          "type": "string"
        }
      ],
      "name": "BaseURISet",
      "type": "event"
    },
    {
      "anonymous": false,
      "inputs": [
        {
          "indexed": false,
          "internalType": "uint256",
          "name": "_fromTokenId",
          "type": "uint256"
        },
        {
          "indexed": false,
          "internalType": "uint256",
          "name": "_toTokenId",
          "type": "uint256"
        }
      ],
      "name": "BatchMetadataUpdate",
      "type": "event"
    },
    {
      "anonymous": false,
      "inputs": [
        {
          "indexed": false,
          "internalType": "uint256",
          "name": "_tokenId",
          "type": "uint256"
        }
      ],
      "name": "MetadataUpdate",
      "type": "event"
    },
    {
      "anonymous": false,
      "inputs": [
        {
          "indexed": false,
          "internalType": "uint256",
          "name": "tokenId",
          "type": "uint256"
        }
      ],
      "name": "NFTBurned",
      "type": "event"
    },
    {
      "anonymous": false,
      "inputs": [
        {
          "indexed": true,
          "internalType": "address",
          "name": "to",
          "type": "address"
        },
        {
          "indexed": false,
          "internalType": "uint256",
          "name": "tokenId",
          "type": "uint256"
        },
        {
          "indexed": false,
          "internalType": "uint256",
          "name": "amount",
          "type": "uint256"
        },
        {
          "indexed": false,
          "internalType": "string",
          "name": "uri",
          "type": "string"
        }
      ],
      "name": "NFTMinted",
      "type": "event"
    },
    {
      "anonymous": false,
      "inputs": [
        {
          "indexed": true,
          "internalType": "address",
          "name": "previousOwner",
          "type": "address"
        },
        {
          "indexed": true,
          "internalType": "address",
          "name": "newOwner",
          "type": "address"
        }
      ],
      "name": "OwnershipTransferred",
      "type": "event"
    },
    {
      "anonymous": false,
      "inputs": [
        {
          "indexed": false,
          "internalType": "uint256",
          "name": "tokenId",
          "type": "uint256"
        },
        {
          "indexed": false,
          "internalType": "string",
          "name": "newUri",
          "type": "string"
        }
      ],
      "name": "TokenURIUpdated",
      "type": "event"
    },
    {
      "anonymous": false,
      "inputs": [
        {
          "indexed": true,
          "internalType": "address",
          "name": "from",
          "type": "address"
        },
        {
          "indexed": true,
          "internalType": "address",
          "name": "to",
          "type": "address"
        },
        {
          "indexed": true,
          "internalType": "uint256",
          "name": "tokenId",
          "type": "uint256"
        }
      ],
      "name": "Transfer",
      "type": "event"
    },
    {
      "anonymous": false,
      "inputs": [
        {
          "indexed": false,
          "internalType": "address",
          "name": "vault",
          "type": "address"
        }
      ],
      "name": "VaultSet",
      "type": "event"
    },
    {
      "inputs": [
        {
          "internalType": "address",
          "name": "to",
          "type": "address"
        },
        {
          "internalType": "uint256",
          "name": "tokenId",
          "type": "uint256"
        }
      ],
      "name": "approve",
      "outputs": [],
      "stateMutability": "nonpayable",
      "type": "function"
    },
    {
      "inputs": [
        {
          "internalType": "address",
          "name": "owner",
          "type": "address"
        }
      ],
      "name": "balanceOf",
      "outputs": [
        {
          "internalType": "uint256",
          "name": "",
          "type": "uint256"
        }
      ],
      "stateMutability": "view",
      "type": "function"
    },
    {
      "inputs": [],
      "name": "baseTokenURI",
      "outputs": [
        {
          "internalType": "string",
          "name": "",
          "type": "string"
        }
      ],
      "stateMutability": "view",
      "type": "function"
    },
    {
      "inputs": [
        {
          "internalType": "uint256",
          "name": "tokenId",
          "type": "uint256"
        }
      ],
      "name": "burn",
      "outputs": [],
      "stateMutability": "nonpayable",
      "type": "function"
    },
    {
      "inputs": [
        {
          "internalType": "uint256",
          "name": "tokenId",
          "type": "uint256"
        }
      ],
      "name": "getApproved",
      "outputs": [
        {
          "internalType": "address",
          "name": "",
          "type": "address"
        }
      ],
      "stateMutability": "view",
      "type": "function"
    },
    {
      "inputs": [],
      "name": "getCurrentTokenId",
      "outputs": [
        {
          "internalType": "uint256",
          "name": "",
          "type": "uint256"
        }
      ],
      "stateMutability": "view",
      "type": "function"
    },
    {
      "inputs": [
        {
          "internalType": "uint256",
          "name": "tokenId",
          "type": "uint256"
        }
      ],
      "name": "getInvestedAmount",
      "outputs": [
        {
          "internalType": "uint256",
          "name": "",
          "type": "uint256"
        }
      ],
      "stateMutability": "view",
      "type": "function"
    },
    {
      "inputs": [],
      "name": "getVault",
      "outputs": [
        {
          "internalType": "address",
          "name": "",
          "type": "address"
        }
      ],
      "stateMutability": "view",
      "type": "function"
    },
    {
      "inputs": [
        {
          "internalType": "uint256",
          "name": "",
          "type": "uint256"
        }
      ],
      "name": "investedAmount",
      "outputs": [
        {
          "internalType": "uint256",
          "name": "",
          "type": "uint256"
        }
      ],
      "stateMutability": "view",
      "type": "function"
    },
    {
      "inputs": [
        {
          "internalType": "address",
          "name": "owner",
          "type": "address"
        },
        {
          "internalType": "address",
          "name": "operator",
          "type": "address"
        }
      ],
      "name": "isApprovedForAll",
      "outputs": [
        {
          "internalType": "bool",
          "name": "",
          "type": "bool"
        }
      ],
      "stateMutability": "view",
      "type": "function"
    },
    {
      "inputs": [
        {
          "internalType": "address",
          "name": "to",
          "type": "address"
        },
        {
          "internalType": "uint256",
          "name": "amount",
          "type": "uint256"
        }
      ],
      "name": "mint",
      "outputs": [
        {
          "internalType": "uint256",
          "name": "",
          "type": "uint256"
        }
      ],
      "stateMutability": "nonpayable",
      "type": "function"
    },
    {
      "inputs": [],
      "name": "name",
      "outputs": [
        {
          "internalType": "string",
          "name": "",
          "type": "string"
        }
      ],
      "stateMutability": "view",
      "type": "function"
    },
    {
      "inputs": [],
      "name": "owner",
      "outputs": [
        {
          "internalType": "address",
          "name": "",
          "type": "address"
        }
      ],
      "stateMutability": "view",
      "type": "function"
    },
    {
      "inputs": [
        {
          "internalType": "uint256",
          "name": "tokenId",
          "type": "uint256"
        }
      ],
      "name": "ownerOf",
      "outputs": [
        {
          "internalType": "address",
          "name": "",
          "type": "address"
        }
      ],
      "stateMutability": "view",
      "type": "function"
    },
    {
      "inputs": [],
      "name": "renounceOwnership",
      "outputs": [],
      "stateMutability": "nonpayable",
      "type": "function"
    },
    {
      "inputs": [
        {
          "internalType": "address",
          "name": "from",
          "type": "address"
        },
        {
          "internalType": "address",
          "name": "to",
          "type": "address"
        },
        {
          "internalType": "uint256",
          "name": "tokenId",
          "type": "uint256"
        }
      ],
      "name": "safeTransferFrom",
      "outputs": [],
      "stateMutability": "nonpayable",
      "type": "function"
    },
    {
      "inputs": [
        {
          "internalType": "address",
          "name": "from",
          "type": "address"
        },
        {
          "internalType": "address",
          "name": "to",
          "type": "address"
        },
        {
          "internalType": "uint256",
          "name": "tokenId",
          "type": "uint256"
        },
        {
          "internalType": "bytes",
          "name": "data",
          "type": "bytes"
        }
      ],
      "name": "safeTransferFrom",
      "outputs": [],
      "stateMutability": "nonpayable",
      "type": "function"
    },
    {
      "inputs": [
        {
          "internalType": "address",
          "name": "operator",
          "type": "address"
        },
        {
          "internalType": "bool",
          "name": "approved",
          "type": "bool"
        }
      ],
      "name": "setApprovalForAll",
      "outputs": [],
      "stateMutability": "nonpayable",
      "type": "function"
    },
    {
      "inputs": [
        {
          "internalType": "string",
          "name": "uri",
          "type": "string"
        }
      ],
      "name": "setBaseTokenURI",
      "outputs": [],
      "stateMutability": "nonpayable",
      "type": "function"
    },
    {
      "inputs": [
        {
          "internalType": "address",
          "name": "_vault",
          "type": "address"
        }
      ],
      "name": "setVault",
      "outputs": [],
      "stateMutability": "nonpayable",
      "type": "function"
    },
    {
      "inputs": [
        {
          "internalType": "bytes4",
          "name": "interfaceId",
          "type": "bytes4"
        }
      ],
      "name": "supportsInterface",
      "outputs": [
        {
          "internalType": "bool",
          "name": "",
          "type": "bool"
        }
      ],
      "stateMutability": "view",
      "type": "function"
    },
    {
      "inputs": [],
      "name": "symbol",
      "outputs": [
        {
          "internalType": "string",
          "name": "",
          "type": "string"
        }
      ],
      "stateMutability": "view",
      "type": "function"
    },
    {
      "inputs": [
        {
          "internalType": "uint256",
          "name": "tokenId",
          "type": "uint256"
        }
      ],
      "name": "tokenURI",
      "outputs": [
        {
          "internalType": "string",
          "name": "",
          "type": "string"
        }
      ],
      "stateMutability": "view",
      "type": "function"
    },
    {
      "inputs": [
        {
          "internalType": "address",
          "name": "from",
          "type": "address"
        },
        {
          "internalType": "address",
          "name": "to",
          "type": "address"
        },
        {
          "internalType": "uint256",
          "name": "tokenId",
          "type": "uint256"
        }
      ],
      "name": "transferFrom",
      "outputs": [],
      "stateMutability": "nonpayable",
      "type": "function"
    },
    {
      "inputs": [
        {
          "internalType": "address",
          "name": "newOwner",
          "type": "address"
        }
      ],
      "name": "transferOwnership",
      "outputs": [],
      "stateMutability": "nonpayable",
      "type": "function"
    },
    {
      "inputs": [
        {
          "internalType": "uint256",
          "name": "tokenId",
          "type": "uint256"
        },
        {
          "internalType": "string",
          "name": "newUri",
          "type": "string"
        }
      ],
      "name": "updateTokenURI",
      "outputs": [],
      "stateMutability": "nonpayable",
      "type": "function"
    },
    {
      "inputs": [],
      "name": "vault",
      "outputs": [
        {
          "internalType": "address",
          "name": "",
          "type": "address"
        }
      ],
      "stateMutability": "view",
      "type": "function"
    }
  ],
  "bytecode": "0x60806040523480156200001157600080fd5b506040516200200438038062002004833981016040819052620000349162000277565b808383600062000045838262000393565b50600162000054828262000393565b5050506001600160a01b0381166200008657604051631e4fbdf760e01b81526000600482015260240160405180910390fd5b6200009181620000cd565b5060408051808201909152600f81526e27232a1031b932b0ba32b210313c9d60891b6020820152620000c490826200011f565b505050620004a5565b600780546001600160a01b038381166001600160a01b0319831681179093556040519116919082907f8be0079c531659141344cd1fd0a4f28419497f9722a3daafe3b4186f6b6457e090600090a35050565b6200016c8282604051602401620001389291906200045f565b60408051601f198184030181529190526020810180516001600160e01b0390811663319af33360e01b179091526200017016565b5050565b62000186816200018960201b62000c001760201c565b50565b60006a636f6e736f6c652e6c6f679050600080835160208501845afa505050565b634e487b7160e01b600052604160045260246000fd5b60005b83811015620001dd578181015183820152602001620001c3565b50506000910152565b600082601f830112620001f857600080fd5b81516001600160401b0380821115620002155762000215620001aa565b604051601f8301601f19908116603f01168101908282118183101715620002405762000240620001aa565b816040528381528660208588010111156200025a57600080fd5b6200026d846020830160208901620001c0565b9695505050505050565b6000806000606084860312156200028d57600080fd5b83516001600160401b0380821115620002a557600080fd5b620002b387838801620001e6565b94506020860151915080821115620002ca57600080fd5b50620002d986828701620001e6565b604086015190935090506001600160a01b0381168114620002f957600080fd5b809150509250925092565b600181811c908216806200031957607f821691505b6020821081036200033a57634e487b7160e01b600052602260045260246000fd5b50919050565b601f8211156200038e57600081815260208120601f850160051c81016020861015620003695750805b601f850160051c820191505b818110156200038a5782815560010162000375565b5050505b505050565b81516001600160401b03811115620003af57620003af620001aa565b620003c781620003c0845462000304565b8462000340565b602080601f831160018114620003ff5760008415620003e65750858301515b600019600386901b1c1916600185901b1785556200038a565b600085815260208120601f198616915b8281101562000430578886015182559484019460019091019084016200040f565b50858210156200044f5787850151600019600388901b60f8161c191681555b5050505050600190811b01905550565b604081526000835180604084015262000480816060850160208801620001c0565b6001600160a01b0393909316602083015250601f91909101601f191601606001919050565b611b4f80620004b56000396000f3fe608060405234801561001057600080fd5b50600436106101595760003560e01c80636352211e116100c95780636352211e146102985780636817031b146102ab57806370a08231146102be578063715018a6146102d15780638d928af8146102d95780638da5cb5b146102ea57806395d89b41146102fb578063a22cb46514610303578063b88d4fde14610316578063c87b56dd14610329578063d547cfb71461033c578063e985e9c514610344578063f2fde38b14610357578063fbfa77cf1461036a57600080fd5b806301ffc9a71461015e57806305e337381461018657806306fdde03146101b4578063081812fc146101c9578063095ea7b3146101e957806318e97fd1146101fe57806323b872dd1461021157806330176e131461022457806340c10f191461023757806342842e0e1461024a57806342966c681461025d57806345ef1492146102705780635618923614610290575b600080fd5b61017161016c3660046114b8565b61037d565b60405190151581526020015b60405180910390f35b6101a66101943660046114d5565b6000908152600b602052604090205490565b60405190815260200161017d565b6101bc6103a8565b60405161017d919061153e565b6101dc6101d73660046114d5565b61043a565b60405161017d9190611551565b6101fc6101f7366004611581565b61044f565b005b6101fc61020c366004611656565b61045e565b6101fc61021f36600461169c565b610551565b6101fc6102323660046116d8565b6105dc565b6101a6610245366004611581565b61064c565b6101fc61025836600461169c565b6107e0565b6101fc61026b3660046114d5565b610800565b6101a661027e3660046114d5565b600b6020526000908152604090205481565b6008546101a6565b6101dc6102a63660046114d5565b610876565b6101fc6102b936600461170c565b610881565b6101a66102cc36600461170c565b610967565b6101fc6109af565b6009546001600160a01b03166101dc565b6007546001600160a01b03166101dc565b6101bc6109c3565b6101fc610311366004611727565b6109d2565b6101fc610324366004611763565b6109dd565b6101bc6103373660046114d5565b6109f5565b6101bc610b06565b6101716103523660046117de565b610b94565b6101fc61036536600461170c565b610bc2565b6009546101dc906001600160a01b031681565b60006001600160e01b03198216632483248360e11b14806103a257506103a282610c21565b92915050565b6060600080546103b790611811565b80601f01602080910402602001604051908101604052809291908181526020018280546103e390611811565b80156104305780601f1061040557610100808354040283529160200191610430565b820191906000526020600020905b81548152906001019060200180831161041357829003601f168201915b5050505050905090565b600061044582610c71565b506103a282610ca9565b61045a828233610cc4565b5050565b6009546001600160a01b031633146104915760405162461bcd60e51b81526004016104889061184b565b60405180910390fd5b600061049c83610cd1565b6001600160a01b0316036104e95760405162461bcd60e51b8152602060048201526014602482015273151bdad95b88191bd95cc81b9bdd08195e1a5cdd60621b6044820152606401610488565b600081511161050a5760405162461bcd60e51b815260040161048890611878565b6105148282610cec565b7f931f495b9a8e5d8e61946ea5d61e021f636cfe213a801f97589c18c152e408bd828260405161054592919061189b565b60405180910390a15050565b6001600160a01b03821661057b576000604051633250574960e11b81526004016104889190611551565b6000610588838333610d35565b9050836001600160a01b0316816001600160a01b0316146105d6576040516364283d7b60e01b81526001600160a01b0380861660048301526024820184905282166044820152606401610488565b50505050565b6105e4610e29565b60008151116106055760405162461bcd60e51b815260040161048890611878565b600a61061182826118fa565b507ff9c7803e94e0d3c02900d8a90893a6d5e90dd04d32a4cfe825520f82bf9f32f681604051610641919061153e565b60405180910390a150565b6009546000906001600160a01b031633146106795760405162461bcd60e51b81526004016104889061184b565b6000600a805461068890611811565b9050116106ca5760405162461bcd60e51b815260206004820152601060248201526f10985cd948155492481b9bdd081cd95d60821b6044820152606401610488565b600880549060006106da836119b9565b90915550506008546106ec8482610e56565b61078081600a80546106fd90611811565b80601f016020809104026020016040519081016040528092919081815260200182805461072990611811565b80156107765780601f1061074b57610100808354040283529160200191610776565b820191906000526020600020905b81548152906001019060200180831161075957829003601f168201915b5050505050610cec565b6000818152600b602052604090819020849055516001600160a01b038516907f01f8bd07e6c27ff813d5c6d3c4bf0313a1d75043cf978214b504b794075e5266906107d19084908790600a906119e0565b60405180910390a29392505050565b6107fb838383604051806020016040528060008152506109dd565b505050565b6009546001600160a01b0316331461082a5760405162461bcd60e51b81526004016104889061184b565b61083381610ebb565b6000818152600b602052604080822091909155517f3c176691ca154a2f6fe978a2a633a33ee77dbe2902e67a75400720845a4b2ce1906106419083815260200190565b60006103a282610c71565b610889610e29565b6009546001600160a01b0316156108d65760405162461bcd60e51b815260206004820152601160248201527015985d5b1d08185b1c9958591e481cd95d607a1b6044820152606401610488565b6001600160a01b03811661091c5760405162461bcd60e51b815260206004820152600d60248201526c125b9d985b1a59081d985d5b1d609a1b6044820152606401610488565b600980546001600160a01b0319166001600160a01b0383161790556040517fe7ae49f883c825b05681b3e00e8be6fdea9ed2a8a45e4c6ecb9390fc44cce61590610641908390611551565b60006001600160a01b0382166109935760006040516322718ad960e21b81526004016104889190611551565b506001600160a01b031660009081526003602052604090205490565b6109b7610e29565b6109c16000610ef6565b565b6060600180546103b790611811565b61045a338383610f48565b6109e8848484610551565b6105d63385858585610fde565b6060610a0082610c71565b5060008281526006602052604081208054610a1a90611811565b80601f0160208091040260200160405190810160405280929190818152602001828054610a4690611811565b8015610a935780601f10610a6857610100808354040283529160200191610a93565b820191906000526020600020905b815481529060010190602001808311610a7657829003601f168201915b505050505090506000610ab160408051602081019091526000815290565b90508051600003610ac3575092915050565b815115610af5578082604051602001610add929190611a7a565b60405160208183030381529060405292505050919050565b610afe846110f7565b949350505050565b600a8054610b1390611811565b80601f0160208091040260200160405190810160405280929190818152602001828054610b3f90611811565b8015610b8c5780601f10610b6157610100808354040283529160200191610b8c565b820191906000526020600020905b815481529060010190602001808311610b6f57829003601f168201915b505050505081565b6001600160a01b03918216600090815260056020908152604080832093909416825291909152205460ff1690565b610bca610e29565b6001600160a01b038116610bf4576000604051631e4fbdf760e01b81526004016104889190611551565b610bfd81610ef6565b50565b60006a636f6e736f6c652e6c6f679050600080835160208501845afa505050565b60006001600160e01b031982166380ac58cd60e01b1480610c5257506001600160e01b03198216635b5e139f60e01b145b806103a257506301ffc9a760e01b6001600160e01b03198316146103a2565b600080610c7d83610cd1565b90506001600160a01b0381166103a257604051637e27328960e01b815260048101849052602401610488565b6000908152600460205260409020546001600160a01b031690565b6107fb838383600161116c565b6000908152600260205260409020546001600160a01b031690565b6000828152600660205260409020610d0482826118fa565b506040518281527ff8e1a15aba9398e019f0b49df1a4fde98ee17ae345cb5f6b5e2c27f5033e8ce790602001610545565b600080610d4184610cd1565b90506001600160a01b03831615610d5d57610d5d818486611269565b6001600160a01b03811615610d9b57610d7a60008560008061116c565b6001600160a01b038116600090815260036020526040902080546000190190555b6001600160a01b03851615610dca576001600160a01b0385166000908152600360205260409020805460010190555b60008481526002602052604080822080546001600160a01b0319166001600160a01b0389811691821790925591518793918516917fddf252ad1be2c89b69c2b068fc378daa952ba7f163c4a11628f55a4df523b3ef91a4949350505050565b6007546001600160a01b031633146109c1573360405163118cdaa760e01b81526004016104889190611551565b6001600160a01b038216610e80576000604051633250574960e11b81526004016104889190611551565b6000610e8e83836000610d35565b90506001600160a01b038116156107fb5760006040516339e3563760e11b81526004016104889190611551565b6000610eca6000836000610d35565b90506001600160a01b03811661045a57604051637e27328960e01b815260048101839052602401610488565b600780546001600160a01b038381166001600160a01b0319831681179093556040519116919082907f8be0079c531659141344cd1fd0a4f28419497f9722a3daafe3b4186f6b6457e090600090a35050565b6001600160a01b038216610f715781604051630b61174360e31b81526004016104889190611551565b6001600160a01b03838116600081815260056020908152604080832094871680845294825291829020805460ff191686151590811790915591519182527f17307eab39ab6107e8899845ad3d59bd9653f200f220920489ca2b5937696c31910160405180910390a3505050565b6001600160a01b0383163b156110f057604051630a85bd0160e11b81526001600160a01b0384169063150b7a0290611020908890889087908790600401611aa9565b6020604051808303816000875af192505050801561105b575060408051601f3d908101601f1916820190925261105891810190611ae6565b60015b6110bb573d808015611089576040519150601f19603f3d011682016040523d82523d6000602084013e61108e565b606091505b5080516000036110b35783604051633250574960e11b81526004016104889190611551565b805181602001fd5b6001600160e01b03198116630a85bd0160e11b146110ee5783604051633250574960e11b81526004016104889190611551565b505b5050505050565b606061110282610c71565b50600061111a60408051602081019091526000815290565b9050600081511161113a5760405180602001604052806000815250611165565b80611144846112cd565b604051602001611155929190611a7a565b6040516020818303038152906040525b9392505050565b808061118057506001600160a01b03821615155b1561123957600061119084610c71565b90506001600160a01b038316158015906111bc5750826001600160a01b0316816001600160a01b031614155b80156111cf57506111cd8184610b94565b155b156111ef578260405163a9fbf51f60e01b81526004016104889190611551565b81156112375783856001600160a01b0316826001600160a01b03167f8c5be1e5ebec7d5bd14f71427d1e84f3dd0314c0f7b2291e5b200ac8c7c3b92560405160405180910390a45b505b5050600090815260046020526040902080546001600160a01b0319166001600160a01b0392909216919091179055565b61127483838361135f565b6107fb576001600160a01b0383166112a257604051637e27328960e01b815260048101829052602401610488565b60405163177e802f60e01b81526001600160a01b038316600482015260248101829052604401610488565b606060006112da836113c4565b60010190506000816001600160401b038111156112f9576112f96115ab565b6040519080825280601f01601f191660200182016040528015611323576020820181803683370190505b5090508181016020015b600019016f181899199a1a9b1b9c1cb0b131b232b360811b600a86061a8153600a850494508461132d57509392505050565b60006001600160a01b03831615801590610afe5750826001600160a01b0316846001600160a01b0316148061139957506113998484610b94565b80610afe5750826001600160a01b03166113b283610ca9565b6001600160a01b031614949350505050565b60008072184f03e93ff9f4daa797ed6e38ed64bf6a1f0160401b83106114035772184f03e93ff9f4daa797ed6e38ed64bf6a1f0160401b830492506040015b6904ee2d6d415b85acef8160201b831061142d576904ee2d6d415b85acef8160201b830492506020015b662386f26fc10000831061144b57662386f26fc10000830492506010015b6305f5e1008310611463576305f5e100830492506008015b612710831061147757612710830492506004015b60648310611489576064830492506002015b600a83106103a25760010192915050565b6109c1611b03565b6001600160e01b031981168114610bfd57600080fd5b6000602082840312156114ca57600080fd5b8135611165816114a2565b6000602082840312156114e757600080fd5b5035919050565b60005b838110156115095781810151838201526020016114f1565b50506000910152565b6000815180845261152a8160208601602086016114ee565b601f01601f19169290920160200192915050565b6020815260006111656020830184611512565b6001600160a01b0391909116815260200190565b80356001600160a01b038116811461157c57600080fd5b919050565b6000806040838503121561159457600080fd5b61159d83611565565b946020939093013593505050565b634e487b7160e01b600052604160045260246000fd5b60006001600160401b03808411156115db576115db6115ab565b604051601f8501601f19908116603f01168101908282118183101715611603576116036115ab565b8160405280935085815286868601111561161c57600080fd5b858560208301376000602087830101525050509392505050565b600082601f83011261164757600080fd5b611165838335602085016115c1565b6000806040838503121561166957600080fd5b8235915060208301356001600160401b0381111561168657600080fd5b61169285828601611636565b9150509250929050565b6000806000606084860312156116b157600080fd5b6116ba84611565565b92506116c860208501611565565b9150604084013590509250925092565b6000602082840312156116ea57600080fd5b81356001600160401b0381111561170057600080fd5b610afe84828501611636565b60006020828403121561171e57600080fd5b61116582611565565b6000806040838503121561173a57600080fd5b61174383611565565b91506020830135801515811461175857600080fd5b809150509250929050565b6000806000806080858703121561177957600080fd5b61178285611565565b935061179060208601611565565b92506040850135915060608501356001600160401b038111156117b257600080fd5b8501601f810187136117c357600080fd5b6117d2878235602084016115c1565b91505092959194509250565b600080604083850312156117f157600080fd5b6117fa83611565565b915061180860208401611565565b90509250929050565b600181811c9082168061182557607f821691505b60208210810361184557634e487b7160e01b600052602260045260246000fd5b50919050565b60208082526013908201527213db9b1e481d985d5b1d0818d85b8818d85b1b606a1b604082015260600190565b602080825260099082015268456d7074792055524960b81b604082015260600190565b828152604060208201526000610afe6040830184611512565b601f8211156107fb57600081815260208120601f850160051c810160208610156118db5750805b601f850160051c820191505b818110156110ee578281556001016118e7565b81516001600160401b03811115611913576119136115ab565b611927816119218454611811565b846118b4565b602080601f83116001811461195c57600084156119445750858301515b600019600386901b1c1916600185901b1785556110ee565b600085815260208120601f198616915b8281101561198b5788860151825594840194600190910190840161196c565b50858210156119a95787850151600019600388901b60f8161c191681555b5050505050600190811b01905550565b6000600182016119d957634e487b7160e01b600052601160045260246000fd5b5060010190565b8381526000602084818401526060604084015260008454611a0081611811565b8060608701526080600180841660008114611a225760018114611a3c57611a6a565b60ff1985168984015283151560051b890183019550611a6a565b896000528660002060005b85811015611a625781548b8201860152908301908801611a47565b8a0184019650505b50939a9950505050505050505050565b60008351611a8c8184602088016114ee565b835190830190611aa08183602088016114ee565b01949350505050565b6001600160a01b0385811682528416602082015260408101839052608060608201819052600090611adc90830184611512565b9695505050505050565b600060208284031215611af857600080fd5b8151611165816114a2565b634e487b7160e01b600052605160045260246000fdfea2646970667358221220297cfbc24457b21f8e0c826fb248a1af03ea06e1536df25fb269e61e7e9e6d4264736f6c63430008150033",
  "linkReferences": {},
  "deployedLinkReferences": {}
}