{
  "_format": "hh-sol-artifact-1",
  "contractName": "CompetitionNFT",
  "sourceName": "contracts/core/CompetitionNFT.sol",
  "abi": [
    {
      "inputs": [
        {
          "internalType": "string",
          "name": "name",
          "type": "string"
        },
        {
          "internalType": "string",
          "name": "symbol",
          "type": "string"
        },
        {
          "internalType": "address",
          "name": "initialOwner",
          "type": "address"
        }
      ],
      "stateMutability": "nonpayable",
      "type": "constructor"
    },
    {
      "inputs": [],
      "name": "EmptyURI",
      "type": "error"
    },
    {
      "inputs": [],
      "name": "InvalidVault",
      "type": "error"
    },
    {
      "inputs": [],
      "name": "OnlyVault",
      "type": "error"
    },
    {
      "inputs": [],
      "name": "TokenDoesNotExist",
      "type": "error"
    },
    {
      "inputs": [],
      "name": "VaultAlreadySet",
      "type": "error"
    },
    {
      "anonymous": false,
      "inputs": [
        {
          "indexed": true,
          "internalType": "address",
          "name": "owner",
          "type": "address"
        },
        {
          "indexed": true,
          "internalType": "address",
          "name": "approved",
          "type": "address"
        },
        {
          "indexed": true,
          "internalType": "uint256",
          "name": "tokenId",
          "type": "uint256"
        }
      ],
      "name": "Approval",
      "type": "event"
    },
    {
      "anonymous": false,
      "inputs": [
        {
          "indexed": true,
          "internalType": "address",
          "name": "owner",
          "type": "address"
        },
        {
          "indexed": true,
          "internalType": "address",
          "name": "operator",
          "type": "address"
        },
        {
          "indexed": false,
          "internalType": "bool",
          "name": "approved",
          "type": "bool"
        }
      ],
      "name": "ApprovalForAll",
      "type": "event"
    },
    {
      "anonymous": false,
      "inputs": [
        {
          "indexed": false,
          "internalType": "uint256",
          "name": "tokenId",
          "type": "uint256"
        }
      ],
      "name": "Burned",
      "type": "event"
    },
    {
      "anonymous": false,
      "inputs": [
        {
          "indexed": true,
          "internalType": "address",
          "name": "to",
          "type": "address"
        },
        {
          "indexed": false,
          "internalType": "uint256",
          "name": "tokenId",
          "type": "uint256"
        },
        {
          "indexed": false,
          "internalType": "uint256",
          "name": "amount",
          "type": "uint256"
        }
      ],
      "name": "Minted",
      "type": "event"
    },
    {
      "anonymous": false,
      "inputs": [
        {
          "indexed": true,
          "internalType": "address",
          "name": "previousOwner",
          "type": "address"
        },
        {
          "indexed": true,
          "internalType": "address",
          "name": "newOwner",
          "type": "address"
        }
      ],
      "name": "OwnershipTransferred",
      "type": "event"
    },
    {
      "anonymous": false,
      "inputs": [
        {
          "indexed": true,
          "internalType": "address",
          "name": "from",
          "type": "address"
        },
        {
          "indexed": true,
          "internalType": "address",
          "name": "to",
          "type": "address"
        },
        {
          "indexed": true,
          "internalType": "uint256",
          "name": "tokenId",
          "type": "uint256"
        }
      ],
      "name": "Transfer",
      "type": "event"
    },
    {
      "anonymous": false,
      "inputs": [
        {
          "indexed": false,
          "internalType": "uint256",
          "name": "tokenId",
          "type": "uint256"
        }
      ],
      "name": "UriUpdated",
      "type": "event"
    },
    {
      "anonymous": false,
      "inputs": [
        {
          "indexed": false,
          "internalType": "address",
          "name": "vault",
          "type": "address"
        }
      ],
      "name": "VaultAssigned",
      "type": "event"
    },
    {
      "inputs": [
        {
          "internalType": "address",
          "name": "to",
          "type": "address"
        },
        {
          "internalType": "uint256",
          "name": "tokenId",
          "type": "uint256"
        }
      ],
      "name": "approve",
      "outputs": [],
      "stateMutability": "nonpayable",
      "type": "function"
    },
    {
      "inputs": [
        {
          "internalType": "address",
          "name": "owner",
          "type": "address"
        }
      ],
      "name": "balanceOf",
      "outputs": [
        {
          "internalType": "uint256",
          "name": "",
          "type": "uint256"
        }
      ],
      "stateMutability": "view",
      "type": "function"
    },
    {
      "inputs": [
        {
          "internalType": "uint256",
          "name": "tokenId",
          "type": "uint256"
        }
      ],
      "name": "burn",
      "outputs": [],
      "stateMutability": "nonpayable",
      "type": "function"
    },
    {
      "inputs": [
        {
          "internalType": "uint256",
          "name": "tokenId",
          "type": "uint256"
        }
      ],
      "name": "getApproved",
      "outputs": [
        {
          "internalType": "address",
          "name": "",
          "type": "address"
        }
      ],
      "stateMutability": "view",
      "type": "function"
    },
    {
      "inputs": [
        {
          "internalType": "uint256",
          "name": "",
          "type": "uint256"
        }
      ],
      "name": "investedAmount",
      "outputs": [
        {
          "internalType": "uint256",
          "name": "",
          "type": "uint256"
        }
      ],
      "stateMutability": "view",
      "type": "function"
    },
    {
      "inputs": [
        {
          "internalType": "address",
          "name": "owner",
          "type": "address"
        },
        {
          "internalType": "address",
          "name": "operator",
          "type": "address"
        }
      ],
      "name": "isApprovedForAll",
      "outputs": [
        {
          "internalType": "bool",
          "name": "",
          "type": "bool"
        }
      ],
      "stateMutability": "view",
      "type": "function"
    },
    {
      "inputs": [
        {
          "internalType": "address",
          "name": "to",
          "type": "address"
        },
        {
          "internalType": "uint256",
          "name": "amount",
          "type": "uint256"
        }
      ],
      "name": "mint",
      "outputs": [
        {
          "internalType": "uint256",
          "name": "",
          "type": "uint256"
        }
      ],
      "stateMutability": "nonpayable",
      "type": "function"
    },
    {
      "inputs": [],
      "name": "name",
      "outputs": [
        {
          "internalType": "string",
          "name": "",
          "type": "string"
        }
      ],
      "stateMutability": "view",
      "type": "function"
    },
    {
      "inputs": [],
      "name": "owner",
      "outputs": [
        {
          "internalType": "address",
          "name": "",
          "type": "address"
        }
      ],
      "stateMutability": "view",
      "type": "function"
    },
    {
      "inputs": [
        {
          "internalType": "uint256",
          "name": "tokenId",
          "type": "uint256"
        }
      ],
      "name": "ownerOf",
      "outputs": [
        {
          "internalType": "address",
          "name": "",
          "type": "address"
        }
      ],
      "stateMutability": "view",
      "type": "function"
    },
    {
      "inputs": [],
      "name": "renounceOwnership",
      "outputs": [],
      "stateMutability": "nonpayable",
      "type": "function"
    },
    {
      "inputs": [
        {
          "internalType": "address",
          "name": "from",
          "type": "address"
        },
        {
          "internalType": "address",
          "name": "to",
          "type": "address"
        },
        {
          "internalType": "uint256",
          "name": "tokenId",
          "type": "uint256"
        }
      ],
      "name": "safeTransferFrom",
      "outputs": [],
      "stateMutability": "nonpayable",
      "type": "function"
    },
    {
      "inputs": [
        {
          "internalType": "address",
          "name": "from",
          "type": "address"
        },
        {
          "internalType": "address",
          "name": "to",
          "type": "address"
        },
        {
          "internalType": "uint256",
          "name": "tokenId",
          "type": "uint256"
        },
        {
          "internalType": "bytes",
          "name": "data",
          "type": "bytes"
        }
      ],
      "name": "safeTransferFrom",
      "outputs": [],
      "stateMutability": "nonpayable",
      "type": "function"
    },
    {
      "inputs": [
        {
          "internalType": "address",
          "name": "operator",
          "type": "address"
        },
        {
          "internalType": "bool",
          "name": "approved",
          "type": "bool"
        }
      ],
      "name": "setApprovalForAll",
      "outputs": [],
      "stateMutability": "nonpayable",
      "type": "function"
    },
    {
      "inputs": [
        {
          "internalType": "string",
          "name": "uri",
          "type": "string"
        }
      ],
      "name": "setBaseTokenURI",
      "outputs": [],
      "stateMutability": "nonpayable",
      "type": "function"
    },
    {
      "inputs": [
        {
          "internalType": "address",
          "name": "_vault",
          "type": "address"
        }
      ],
      "name": "setVault",
      "outputs": [],
      "stateMutability": "nonpayable",
      "type": "function"
    },
    {
      "inputs": [
        {
          "internalType": "bytes4",
          "name": "interfaceId",
          "type": "bytes4"
        }
      ],
      "name": "supportsInterface",
      "outputs": [
        {
          "internalType": "bool",
          "name": "",
          "type": "bool"
        }
      ],
      "stateMutability": "view",
      "type": "function"
    },
    {
      "inputs": [],
      "name": "symbol",
      "outputs": [
        {
          "internalType": "string",
          "name": "",
          "type": "string"
        }
      ],
      "stateMutability": "view",
      "type": "function"
    },
    {
      "inputs": [
        {
          "internalType": "uint256",
          "name": "tokenId",
          "type": "uint256"
        }
      ],
      "name": "tokenURI",
      "outputs": [
        {
          "internalType": "string",
          "name": "",
          "type": "string"
        }
      ],
      "stateMutability": "view",
      "type": "function"
    },
    {
      "inputs": [
        {
          "internalType": "address",
          "name": "from",
          "type": "address"
        },
        {
          "internalType": "address",
          "name": "to",
          "type": "address"
        },
        {
          "internalType": "uint256",
          "name": "tokenId",
          "type": "uint256"
        }
      ],
      "name": "transferFrom",
      "outputs": [],
      "stateMutability": "nonpayable",
      "type": "function"
    },
    {
      "inputs": [
        {
          "internalType": "address",
          "name": "newOwner",
          "type": "address"
        }
      ],
      "name": "transferOwnership",
      "outputs": [],
      "stateMutability": "nonpayable",
      "type": "function"
    },
    {
      "inputs": [
        {
          "internalType": "uint256",
          "name": "tokenId",
          "type": "uint256"
        },
        {
          "internalType": "string",
          "name": "newUri",
          "type": "string"
        }
      ],
      "name": "updateTokenURI",
      "outputs": [],
      "stateMutability": "nonpayable",
      "type": "function"
    },
    {
      "inputs": [],
      "name": "vault",
      "outputs": [
        {
          "internalType": "address",
          "name": "",
          "type": "address"
        }
      ],
      "stateMutability": "view",
      "type": "function"
    }
  ],
  "bytecode": "0x60806040523480156200001157600080fd5b5060405162001ce838038062001ce8833981016040819052620000349162000280565b828260006200004483826200039c565b5060016200005382826200039c565b505050620000706200006a6200008460201b60201c565b62000088565b6200007b81620000da565b50505062000468565b3390565b600680546001600160a01b038381166001600160a01b0319831681179093556040519116919082907f8be0079c531659141344cd1fd0a4f28419497f9722a3daafe3b4186f6b6457e090600090a35050565b620000e46200015d565b6001600160a01b0381166200014f5760405162461bcd60e51b815260206004820152602660248201527f4f776e61626c653a206e6577206f776e657220697320746865207a65726f206160448201526564647265737360d01b60648201526084015b60405180910390fd5b6200015a8162000088565b50565b6006546001600160a01b03163314620001b95760405162461bcd60e51b815260206004820181905260248201527f4f776e61626c653a2063616c6c6572206973206e6f7420746865206f776e6572604482015260640162000146565b565b634e487b7160e01b600052604160045260246000fd5b600082601f830112620001e357600080fd5b81516001600160401b0380821115620002005762000200620001bb565b604051601f8301601f19908116603f011681019082821181831017156200022b576200022b620001bb565b816040528381526020925086838588010111156200024857600080fd5b600091505b838210156200026c57858201830151818301840152908201906200024d565b600093810190920192909252949350505050565b6000806000606084860312156200029657600080fd5b83516001600160401b0380821115620002ae57600080fd5b620002bc87838801620001d1565b94506020860151915080821115620002d357600080fd5b50620002e286828701620001d1565b604086015190935090506001600160a01b03811681146200030257600080fd5b809150509250925092565b600181811c908216806200032257607f821691505b6020821081036200034357634e487b7160e01b600052602260045260246000fd5b50919050565b601f8211156200039757600081815260208120601f850160051c81016020861015620003725750805b601f850160051c820191505b8181101562000393578281556001016200037e565b5050505b505050565b81516001600160401b03811115620003b857620003b8620001bb565b620003d081620003c984546200030d565b8462000349565b602080601f831160018114620004085760008415620003ef5750858301515b600019600386901b1c1916600185901b17855562000393565b600085815260208120601f198616915b82811015620004395788860151825594840194600190910190840162000418565b5085821015620004585787850151600019600388901b60f8161c191681555b5050505050600190811b01905550565b61187080620004786000396000f3fe608060405234801561001057600080fd5b506004361061012d5760003560e01c80636352211e116100b35780636352211e146102445780636817031b1461025757806370a082311461026a578063715018a61461027d5780638da5cb5b1461028557806395d89b4114610296578063a22cb4651461029e578063b88d4fde146102b1578063c87b56dd146102c4578063e985e9c5146102d7578063f2fde38b146102ea578063fbfa77cf146102fd57600080fd5b806301ffc9a71461013257806306fdde031461015a578063081812fc1461016f578063095ea7b31461018f57806318e97fd1146101a457806323b872dd146101b757806330176e13146101ca57806340c10f19146101dd57806342842e0e146101fe57806342966c681461021157806345ef149214610224575b600080fd5b6101456101403660046111af565b610310565b60405190151581526020015b60405180910390f35b610162610362565b6040516101519190611219565b61018261017d36600461122c565b6103f4565b6040516101519190611245565b6101a261019d366004611275565b61041b565b005b6101a26101b236600461134a565b610535565b6101a26101c5366004611390565b6105ec565b6101a26101d83660046113cc565b61061d565b6101f06101eb366004611275565b610657565b604051908152602001610151565b6101a261020c366004611390565b610733565b6101a261021f36600461122c565b61074e565b6101f061023236600461122c565b600a6020526000908152604090205481565b61018261025236600461122c565b6107d0565b6101a2610265366004611400565b610804565b6101f0610278366004611400565b6108a8565b6101a261092e565b6006546001600160a01b0316610182565b610162610942565b6101a26102ac36600461141b565b610951565b6101a26102bf366004611457565b61095c565b6101626102d236600461122c565b610994565b6101456102e53660046114d2565b610a4e565b6101a26102f8366004611400565b610a7c565b600854610182906001600160a01b031681565b60006001600160e01b031982166380ac58cd60e01b148061034157506001600160e01b03198216635b5e139f60e01b145b8061035c57506301ffc9a760e01b6001600160e01b03198316145b92915050565b60606000805461037190611505565b80601f016020809104026020016040519081016040528092919081815260200182805461039d90611505565b80156103ea5780601f106103bf576101008083540402835291602001916103ea565b820191906000526020600020905b8154815290600101906020018083116103cd57829003601f168201915b5050505050905090565b60006103ff82610af5565b506000908152600460205260409020546001600160a01b031690565b6000610426826107d0565b9050806001600160a01b0316836001600160a01b0316036104985760405162461bcd60e51b815260206004820152602160248201527f4552433732313a20617070726f76616c20746f2063757272656e74206f776e656044820152603960f91b60648201526084015b60405180910390fd5b336001600160a01b03821614806104b457506104b48133610a4e565b6105265760405162461bcd60e51b815260206004820152603d60248201527f4552433732313a20617070726f76652063616c6c6572206973206e6f7420746f60448201527f6b656e206f776e6572206f7220617070726f76656420666f7220616c6c000000606482015260840161048f565b6105308383610b1a565b505050565b6008546001600160a01b0316331461056057604051638d1af8bd60e01b815260040160405180910390fd5b61056982610b88565b6105865760405163677510db60e11b815260040160405180910390fd5b80516000036105a85760405163683d806b60e11b815260040160405180910390fd5b60096105b4828261158d565b506040518281527f99b6625a130bece84ae638867a37db496877cbe0298be0378badecc25e3f3bd69060200160405180910390a15050565b6105f63382610ba5565b6106125760405162461bcd60e51b815260040161048f9061164c565b610530838383610c04565b610625610d56565b80516000036106475760405163683d806b60e11b815260040160405180910390fd5b6009610653828261158d565b5050565b6008546000906001600160a01b0316331461068557604051638d1af8bd60e01b815260040160405180910390fd5b6009805461069290611505565b90506000036106b45760405163683d806b60e11b815260040160405180910390fd5b60006007600081546106c590611699565b918290555090506106d68482610db0565b6000818152600a602090815260409182902085905581518381529081018590526001600160a01b038616917f25b428dfde728ccfaddad7e29e4ac23c24ed7fd1a6e3e3f91894a9a073f5dfff910160405180910390a29392505050565b6105308383836040518060200160405280600081525061095c565b6008546001600160a01b0316331461077957604051638d1af8bd60e01b815260040160405180910390fd5b61078281610eab565b6000818152600a602052604080822091909155517fd83c63197e8e676d80ab0122beba9a9d20f3828839e9a1d6fe81d242e9cd7e6e906107c59083815260200190565b60405180910390a150565b6000806107dc83610f2e565b90506001600160a01b03811661035c5760405162461bcd60e51b815260040161048f906116c0565b61080c610d56565b6008546001600160a01b03161561083657604051631bb0ddfb60e01b815260040160405180910390fd5b6001600160a01b03811661085d57604051630681d31960e51b815260040160405180910390fd5b600880546001600160a01b0319166001600160a01b0383161790556040517feb56c5da6c441cb18f0e315a1a54550779c720de36a46e44108dbf5304e0bfc4906107c5908390611245565b60006001600160a01b0382166109125760405162461bcd60e51b815260206004820152602960248201527f4552433732313a2061646472657373207a65726f206973206e6f7420612076616044820152683634b21037bbb732b960b91b606482015260840161048f565b506001600160a01b031660009081526003602052604090205490565b610936610d56565b6109406000610f49565b565b60606001805461037190611505565b610653338383610f9b565b6109663383610ba5565b6109825760405162461bcd60e51b815260040161048f9061164c565b61098e84848484611065565b50505050565b606061099f82610b88565b6109bc5760405163677510db60e11b815260040160405180910390fd5b600980546109c990611505565b80601f01602080910402602001604051908101604052809291908181526020018280546109f590611505565b8015610a425780601f10610a1757610100808354040283529160200191610a42565b820191906000526020600020905b815481529060010190602001808311610a2557829003601f168201915b50505050509050919050565b6001600160a01b03918216600090815260056020908152604080832093909416825291909152205460ff1690565b610a84610d56565b6001600160a01b038116610ae95760405162461bcd60e51b815260206004820152602660248201527f4f776e61626c653a206e6577206f776e657220697320746865207a65726f206160448201526564647265737360d01b606482015260840161048f565b610af281610f49565b50565b610afe81610b88565b610af25760405162461bcd60e51b815260040161048f906116c0565b600081815260046020526040902080546001600160a01b0319166001600160a01b0384169081179091558190610b4f826107d0565b6001600160a01b03167f8c5be1e5ebec7d5bd14f71427d1e84f3dd0314c0f7b2291e5b200ac8c7c3b92560405160405180910390a45050565b600080610b9483610f2e565b6001600160a01b0316141592915050565b600080610bb1836107d0565b9050806001600160a01b0316846001600160a01b03161480610bd85750610bd88185610a4e565b80610bfc5750836001600160a01b0316610bf1846103f4565b6001600160a01b0316145b949350505050565b826001600160a01b0316610c17826107d0565b6001600160a01b031614610c3d5760405162461bcd60e51b815260040161048f906116f2565b6001600160a01b038216610c9f5760405162461bcd60e51b8152602060048201526024808201527f4552433732313a207472616e7366657220746f20746865207a65726f206164646044820152637265737360e01b606482015260840161048f565b826001600160a01b0316610cb2826107d0565b6001600160a01b031614610cd85760405162461bcd60e51b815260040161048f906116f2565b600081815260046020908152604080832080546001600160a01b03199081169091556001600160a01b03878116808652600385528386208054600019019055908716808652838620805460010190558686526002909452828520805490921684179091559051849360008051602061181b83398151915291a4505050565b6006546001600160a01b031633146109405760405162461bcd60e51b815260206004820181905260248201527f4f776e61626c653a2063616c6c6572206973206e6f7420746865206f776e6572604482015260640161048f565b6001600160a01b038216610e065760405162461bcd60e51b815260206004820181905260248201527f4552433732313a206d696e7420746f20746865207a65726f2061646472657373604482015260640161048f565b610e0f81610b88565b15610e2c5760405162461bcd60e51b815260040161048f90611737565b610e3581610b88565b15610e525760405162461bcd60e51b815260040161048f90611737565b6001600160a01b038216600081815260036020908152604080832080546001019055848352600290915280822080546001600160a01b03191684179055518392919060008051602061181b833981519152908290a45050565b6000610eb6826107d0565b9050610ec1826107d0565b600083815260046020908152604080832080546001600160a01b03199081169091556001600160a01b03851680855260038452828520805460001901905587855260029093528184208054909116905551929350849260008051602061181b833981519152908390a45050565b6000908152600260205260409020546001600160a01b031690565b600680546001600160a01b038381166001600160a01b0319831681179093556040519116919082907f8be0079c531659141344cd1fd0a4f28419497f9722a3daafe3b4186f6b6457e090600090a35050565b816001600160a01b0316836001600160a01b031603610ff85760405162461bcd60e51b815260206004820152601960248201527822a9219b99189d1030b8383937bb32903a379031b0b63632b960391b604482015260640161048f565b6001600160a01b03838116600081815260056020908152604080832094871680845294825291829020805460ff191686151590811790915591519182527f17307eab39ab6107e8899845ad3d59bd9653f200f220920489ca2b5937696c31910160405180910390a3505050565b611070848484610c04565b61107c84848484611098565b61098e5760405162461bcd60e51b815260040161048f9061176e565b60006001600160a01b0384163b1561118e57604051630a85bd0160e11b81526001600160a01b0385169063150b7a02906110dc9033908990889088906004016117c0565b6020604051808303816000875af1925050508015611117575060408051601f3d908101601f19168201909252611114918101906117fd565b60015b611174573d808015611145576040519150601f19603f3d011682016040523d82523d6000602084013e61114a565b606091505b50805160000361116c5760405162461bcd60e51b815260040161048f9061176e565b805181602001fd5b6001600160e01b031916630a85bd0160e11b149050610bfc565b506001949350505050565b6001600160e01b031981168114610af257600080fd5b6000602082840312156111c157600080fd5b81356111cc81611199565b9392505050565b6000815180845260005b818110156111f9576020818501810151868301820152016111dd565b506000602082860101526020601f19601f83011685010191505092915050565b6020815260006111cc60208301846111d3565b60006020828403121561123e57600080fd5b5035919050565b6001600160a01b0391909116815260200190565b80356001600160a01b038116811461127057600080fd5b919050565b6000806040838503121561128857600080fd5b61129183611259565b946020939093013593505050565b634e487b7160e01b600052604160045260246000fd5b60006001600160401b03808411156112cf576112cf61129f565b604051601f8501601f19908116603f011681019082821181831017156112f7576112f761129f565b8160405280935085815286868601111561131057600080fd5b858560208301376000602087830101525050509392505050565b600082601f83011261133b57600080fd5b6111cc838335602085016112b5565b6000806040838503121561135d57600080fd5b8235915060208301356001600160401b0381111561137a57600080fd5b6113868582860161132a565b9150509250929050565b6000806000606084860312156113a557600080fd5b6113ae84611259565b92506113bc60208501611259565b9150604084013590509250925092565b6000602082840312156113de57600080fd5b81356001600160401b038111156113f457600080fd5b610bfc8482850161132a565b60006020828403121561141257600080fd5b6111cc82611259565b6000806040838503121561142e57600080fd5b61143783611259565b91506020830135801515811461144c57600080fd5b809150509250929050565b6000806000806080858703121561146d57600080fd5b61147685611259565b935061148460208601611259565b92506040850135915060608501356001600160401b038111156114a657600080fd5b8501601f810187136114b757600080fd5b6114c6878235602084016112b5565b91505092959194509250565b600080604083850312156114e557600080fd5b6114ee83611259565b91506114fc60208401611259565b90509250929050565b600181811c9082168061151957607f821691505b60208210810361153957634e487b7160e01b600052602260045260246000fd5b50919050565b601f82111561053057600081815260208120601f850160051c810160208610156115665750805b601f850160051c820191505b8181101561158557828155600101611572565b505050505050565b81516001600160401b038111156115a6576115a661129f565b6115ba816115b48454611505565b8461153f565b602080601f8311600181146115ef57600084156115d75750858301515b600019600386901b1c1916600185901b178555611585565b600085815260208120601f198616915b8281101561161e578886015182559484019460019091019084016115ff565b508582101561163c5787850151600019600388901b60f8161c191681555b5050505050600190811b01905550565b6020808252602d908201527f4552433732313a2063616c6c6572206973206e6f7420746f6b656e206f776e6560408201526c1c881bdc88185c1c1c9bdd9959609a1b606082015260800190565b6000600182016116b957634e487b7160e01b600052601160045260246000fd5b5060010190565b602080825260189082015277115490cdcc8c4e881a5b9d985b1a59081d1bdad95b88125160421b604082015260600190565b60208082526025908201527f4552433732313a207472616e736665722066726f6d20696e636f72726563742060408201526437bbb732b960d91b606082015260800190565b6020808252601c908201527f4552433732313a20746f6b656e20616c7265616479206d696e74656400000000604082015260600190565b60208082526032908201527f4552433732313a207472616e7366657220746f206e6f6e20455243373231526560408201527131b2b4bb32b91034b6b83632b6b2b73a32b960711b606082015260800190565b6001600160a01b03858116825284166020820152604081018390526080606082018190526000906117f3908301846111d3565b9695505050505050565b60006020828403121561180f57600080fd5b81516111cc8161119956feddf252ad1be2c89b69c2b068fc378daa952ba7f163c4a11628f55a4df523b3efa2646970667358221220aedbac2dd8eddd7b4194fc1270ab35b0f366dae05539d715fc1ec358c7dbfc0864736f6c63430008150033",
  "linkReferences": {},
  "deployedLinkReferences": {}
}