{
  "_format": "hh-sol-artifact-1",
  "contractName": "CompetitionVault",
  "sourceName": "contracts/core/CompetitionVault.sol",
  "abi": [
    {
      "inputs": [
        {
          "internalType": "address",
          "name": "_batchBuyer",
          "type": "address"
        },
        {
          "internalType": "address",
          "name": "_nft",
          "type": "address"
        },
        {
          "internalType": "address[]",
          "name": "_initialTokens",
          "type": "address[]"
        },
        {
          "internalType": "address",
          "name": "_wchz",
          "type": "address"
        },
        {
          "internalType": "address",
          "name": "_adminRouter",
          "type": "address"
        },
        {
          "internalType": "address",
          "name": "_factory",
          "type": "address"
        }
      ],
      "stateMutability": "nonpayable",
      "type": "constructor"
    },
    {
      "inputs": [
        {
          "internalType": "address",
          "name": "owner",
          "type": "address"
        }
      ],
      "name": "OwnableInvalidOwner",
      "type": "error"
    },
    {
      "inputs": [
        {
          "internalType": "address",
          "name": "account",
          "type": "address"
        }
      ],
      "name": "OwnableUnauthorizedAccount",
      "type": "error"
    },
    {
      "anonymous": false,
      "inputs": [
        {
          "indexed": false,
          "internalType": "address",
          "name": "tokenIn",
          "type": "address"
        },
        {
          "indexed": false,
          "internalType": "address",
          "name": "tokenOut",
          "type": "address"
        },
        {
          "indexed": false,
          "internalType": "uint256",
          "name": "amountIn",
          "type": "uint256"
        },
        {
          "indexed": false,
          "internalType": "uint256",
          "name": "minOut",
          "type": "uint256"
        }
      ],
      "name": "AdminSwapExecuted",
      "type": "event"
    },
    {
      "anonymous": false,
      "inputs": [
        {
          "indexed": true,
          "internalType": "address",
          "name": "admin",
          "type": "address"
        },
        {
          "indexed": false,
          "internalType": "bool",
          "name": "isAdmin",
          "type": "bool"
        }
      ],
      "name": "AdminUpdated",
      "type": "event"
    },
    {
      "anonymous": false,
      "inputs": [],
      "name": "CompetitionEnded",
      "type": "event"
    },
    {
      "anonymous": false,
      "inputs": [
        {
          "indexed": false,
          "internalType": "bool",
          "name": "status",
          "type": "bool"
        }
      ],
      "name": "DepositStatusChanged",
      "type": "event"
    },
    {
      "anonymous": false,
      "inputs": [
        {
          "indexed": true,
          "internalType": "address",
          "name": "user",
          "type": "address"
        },
        {
          "indexed": false,
          "internalType": "uint256",
          "name": "amount",
          "type": "uint256"
        },
        {
          "indexed": false,
          "internalType": "uint256",
          "name": "tokenId",
          "type": "uint256"
        }
      ],
      "name": "Deposited",
      "type": "event"
    },
    {
      "anonymous": false,
      "inputs": [
        {
          "indexed": false,
          "internalType": "address",
          "name": "to",
          "type": "address"
        },
        {
          "indexed": false,
          "internalType": "uint256",
          "name": "amount",
          "type": "uint256"
        }
      ],
      "name": "EmergencyWithdraw",
      "type": "event"
    },
    {
      "anonymous": false,
      "inputs": [
        {
          "indexed": true,
          "internalType": "address",
          "name": "previousOwner",
          "type": "address"
        },
        {
          "indexed": true,
          "internalType": "address",
          "name": "newOwner",
          "type": "address"
        }
      ],
      "name": "OwnershipTransferred",
      "type": "event"
    },
    {
      "anonymous": false,
      "inputs": [
        {
          "indexed": false,
          "internalType": "bool",
          "name": "status",
          "type": "bool"
        }
      ],
      "name": "RedeemStatusChanged",
      "type": "event"
    },
    {
      "anonymous": false,
      "inputs": [
        {
          "indexed": true,
          "internalType": "address",
          "name": "user",
          "type": "address"
        },
        {
          "indexed": false,
          "internalType": "uint256",
          "name": "payout",
          "type": "uint256"
        },
        {
          "indexed": false,
          "internalType": "uint256",
          "name": "tokenId",
          "type": "uint256"
        }
      ],
      "name": "Redeemed",
      "type": "event"
    },
    {
      "anonymous": false,
      "inputs": [
        {
          "indexed": false,
          "internalType": "address[]",
          "name": "newTokens",
          "type": "address[]"
        }
      ],
      "name": "TokensUpdated",
      "type": "event"
    },
    {
      "inputs": [],
      "name": "WCHZ",
      "outputs": [
        {
          "internalType": "address",
          "name": "",
          "type": "address"
        }
      ],
      "stateMutability": "view",
      "type": "function"
    },
    {
      "inputs": [],
      "name": "adminRouter",
      "outputs": [
        {
          "internalType": "address",
          "name": "",
          "type": "address"
        }
      ],
      "stateMutability": "view",
      "type": "function"
    },
    {
      "inputs": [
        {
          "internalType": "uint256",
          "name": "amountIn",
          "type": "uint256"
        },
        {
          "internalType": "uint256",
          "name": "amountOutMin",
          "type": "uint256"
        },
        {
          "internalType": "address[]",
          "name": "path",
          "type": "address[]"
        },
        {
          "internalType": "bool",
          "name": "isTokenInWrapped",
          "type": "bool"
        },
        {
          "internalType": "bool",
          "name": "receiveUnwrappedToken",
          "type": "bool"
        },
        {
          "internalType": "uint256",
          "name": "deadline",
          "type": "uint256"
        }
      ],
      "name": "adminSwapExactTokensForTokens",
      "outputs": [],
      "stateMutability": "nonpayable",
      "type": "function"
    },
    {
      "inputs": [
        {
          "internalType": "address",
          "name": "",
          "type": "address"
        }
      ],
      "name": "admins",
      "outputs": [
        {
          "internalType": "bool",
          "name": "",
          "type": "bool"
        }
      ],
      "stateMutability": "view",
      "type": "function"
    },
    {
      "inputs": [
        {
          "internalType": "address[]",
          "name": "tokens",
          "type": "address[]"
        }
      ],
      "name": "approveTokensToRouter",
      "outputs": [],
      "stateMutability": "nonpayable",
      "type": "function"
    },
    {
      "inputs": [],
      "name": "areDepositsOpen",
      "outputs": [
        {
          "internalType": "bool",
          "name": "",
          "type": "bool"
        }
      ],
      "stateMutability": "view",
      "type": "function"
    },
    {
      "inputs": [],
      "name": "areRedeemsOpen",
      "outputs": [
        {
          "internalType": "bool",
          "name": "",
          "type": "bool"
        }
      ],
      "stateMutability": "view",
      "type": "function"
    },
    {
      "inputs": [],
      "name": "batchBuyer",
      "outputs": [
        {
          "internalType": "contract IBatchCHZBuyer",
          "name": "",
          "type": "address"
        }
      ],
      "stateMutability": "view",
      "type": "function"
    },
    {
      "inputs": [],
      "name": "competitionEnded",
      "outputs": [
        {
          "internalType": "bool",
          "name": "",
          "type": "bool"
        }
      ],
      "stateMutability": "view",
      "type": "function"
    },
    {
      "inputs": [],
      "name": "depositAndBuy",
      "outputs": [],
      "stateMutability": "payable",
      "type": "function"
    },
    {
      "inputs": [],
      "name": "depositsOpen",
      "outputs": [
        {
          "internalType": "bool",
          "name": "",
          "type": "bool"
        }
      ],
      "stateMutability": "view",
      "type": "function"
    },
    {
      "inputs": [
        {
          "internalType": "address",
          "name": "to",
          "type": "address"
        }
      ],
      "name": "emergencyWithdraw",
      "outputs": [],
      "stateMutability": "nonpayable",
      "type": "function"
    },
    {
      "inputs": [],
      "name": "endCompetition",
      "outputs": [],
      "stateMutability": "nonpayable",
      "type": "function"
    },
    {
      "inputs": [],
      "name": "factory",
      "outputs": [
        {
          "internalType": "address",
          "name": "",
          "type": "address"
        }
      ],
      "stateMutability": "view",
      "type": "function"
    },
    {
      "inputs": [
        {
          "internalType": "uint256",
          "name": "",
          "type": "uint256"
        }
      ],
      "name": "hasRedeemed",
      "outputs": [
        {
          "internalType": "bool",
          "name": "",
          "type": "bool"
        }
      ],
      "stateMutability": "view",
      "type": "function"
    },
    {
      "inputs": [
        {
          "internalType": "uint256",
          "name": "",
          "type": "uint256"
        }
      ],
      "name": "investedPerNFT",
      "outputs": [
        {
          "internalType": "uint256",
          "name": "",
          "type": "uint256"
        }
      ],
      "stateMutability": "view",
      "type": "function"
    },
    {
      "inputs": [
        {
          "internalType": "address",
          "name": "addr",
          "type": "address"
        }
      ],
      "name": "isAdmin",
      "outputs": [
        {
          "internalType": "bool",
          "name": "",
          "type": "bool"
        }
      ],
      "stateMutability": "view",
      "type": "function"
    },
    {
      "inputs": [],
      "name": "nftAddress",
      "outputs": [
        {
          "internalType": "address",
          "name": "",
          "type": "address"
        }
      ],
      "stateMutability": "view",
      "type": "function"
    },
    {
      "inputs": [],
      "name": "owner",
      "outputs": [
        {
          "internalType": "address",
          "name": "",
          "type": "address"
        }
      ],
      "stateMutability": "view",
      "type": "function"
    },
    {
      "inputs": [
        {
          "internalType": "uint256",
          "name": "tokenId",
          "type": "uint256"
        },
        {
          "internalType": "bool",
          "name": "withdrawToOther",
          "type": "bool"
        },
        {
          "internalType": "address",
          "name": "nextVault",
          "type": "address"
        }
      ],
      "name": "redeem",
      "outputs": [],
      "stateMutability": "nonpayable",
      "type": "function"
    },
    {
      "inputs": [],
      "name": "redeemsOpen",
      "outputs": [
        {
          "internalType": "bool",
          "name": "",
          "type": "bool"
        }
      ],
      "stateMutability": "view",
      "type": "function"
    },
    {
      "inputs": [],
      "name": "renounceOwnership",
      "outputs": [],
      "stateMutability": "nonpayable",
      "type": "function"
    },
    {
      "inputs": [
        {
          "internalType": "address",
          "name": "admin",
          "type": "address"
        },
        {
          "internalType": "bool",
          "name": "value",
          "type": "bool"
        }
      ],
      "name": "setAdmin",
      "outputs": [],
      "stateMutability": "nonpayable",
      "type": "function"
    },
    {
      "inputs": [
        {
          "internalType": "bool",
          "name": "status",
          "type": "bool"
        }
      ],
      "name": "setDepositsOpen",
      "outputs": [],
      "stateMutability": "nonpayable",
      "type": "function"
    },
    {
      "inputs": [
        {
          "internalType": "address",
          "name": "_nft",
          "type": "address"
        }
      ],
      "name": "setNFT",
      "outputs": [],
      "stateMutability": "nonpayable",
      "type": "function"
    },
    {
      "inputs": [
        {
          "internalType": "bool",
          "name": "status",
          "type": "bool"
        }
      ],
      "name": "setRedeemsOpen",
      "outputs": [],
      "stateMutability": "nonpayable",
      "type": "function"
    },
    {
      "inputs": [
        {
          "internalType": "uint256",
          "name": "",
          "type": "uint256"
        }
      ],
      "name": "tokensToBuy",
      "outputs": [
        {
          "internalType": "address",
          "name": "",
          "type": "address"
        }
      ],
      "stateMutability": "view",
      "type": "function"
    },
    {
      "inputs": [],
      "name": "totalInvested",
      "outputs": [
        {
          "internalType": "uint256",
          "name": "",
          "type": "uint256"
        }
      ],
      "stateMutability": "view",
      "type": "function"
    },
    {
      "inputs": [
        {
          "internalType": "address",
          "name": "newOwner",
          "type": "address"
        }
      ],
      "name": "transferOwnership",
      "outputs": [],
      "stateMutability": "nonpayable",
      "type": "function"
    },
    {
      "inputs": [
        {
          "internalType": "address[]",
          "name": "newTokens",
          "type": "address[]"
        }
      ],
      "name": "updateTokensToBuy",
      "outputs": [],
      "stateMutability": "nonpayable",
      "type": "function"
    },
    {
      "stateMutability": "payable",
      "type": "receive"
    }
  ],
  "bytecode": "0x60c06040526003805462ffffff60a01b1916600160a81b1790553480156200002657600080fd5b50604051620025473803806200254783398101604081905262000049916200034d565b806001600160a01b0381166200007a57604051631e4fbdf760e01b8152600060048201526024015b60405180910390fd5b620000858162000249565b506001600160a01b038616620000d35760405162461bcd60e51b815260206004820152601260248201527124b73b30b634b2103130ba31b4213abcb2b960711b604482015260640162000071565b6001600160a01b0383166200011a5760405162461bcd60e51b815260206004820152600c60248201526b24b73b30b634b2102ba1a42d60a11b604482015260640162000071565b6001600160a01b038116620001645760405162461bcd60e51b815260206004820152600f60248201526e496e76616c696420666163746f727960881b604482015260640162000071565b6001600160a01b038216620001bc5760405162461bcd60e51b815260206004820152601360248201527f496e76616c69642061646d696e526f7574657200000000000000000000000000604482015260640162000071565b600180546001600160a01b038088166001600160a01b0319928316179092556002805489841690831617905584821660805283821660a052600380549284169290911691909117905583516200021a90600490602087019062000299565b506001600160a01b03166000908152600760205260409020805460ff19166001179055506200047e9350505050565b600080546001600160a01b038381166001600160a01b0319831681178455604051919092169283917f8be0079c531659141344cd1fd0a4f28419497f9722a3daafe3b4186f6b6457e09190a35050565b828054828255906000526020600020908101928215620002f1579160200282015b82811115620002f157825182546001600160a01b0319166001600160a01b03909116178255602090920191600190910190620002ba565b50620002ff92915062000303565b5090565b5b80821115620002ff576000815560010162000304565b80516001600160a01b03811681146200033257600080fd5b919050565b634e487b7160e01b600052604160045260246000fd5b60008060008060008060c087890312156200036757600080fd5b62000372876200031a565b95506020620003838189016200031a565b60408901519096506001600160401b0380821115620003a157600080fd5b818a0191508a601f830112620003b657600080fd5b815181811115620003cb57620003cb62000337565b8060051b604051601f19603f83011681018181108582111715620003f357620003f362000337565b60405291825284820192508381018501918d8311156200041257600080fd5b938501935b828510156200043b576200042b856200031a565b8452938501939285019262000417565b80995050505050505062000452606088016200031a565b925062000462608088016200031a565b91506200047260a088016200031a565b90509295509295509295565b60805160a05161206b620004dc6000396000818161049a01528181610a9a015281816114f7015281816115a30152818161164a01526116c00152600081816103ac015281816107980152818161105101526110e6015261206b6000f3fe6080604052600436106101715760003560e01c80637de25613116100c75780637de256131461038557806381e18b471461039a5780638da5cb5b146103ce57806399a36232146103e3578063a0c39e0714610403578063a13d6bb514610423578063a7771ea514610443578063b18f19f014610473578063c2f9219214610488578063c45a0155146104bc578063cf411d67146104dc578063f029ba6f146104fc578063f2fde38b1461051d578063f56e9c661461053d578063f80eca221461055d57600080fd5b8063021876691461017d57806307ce35d9146101b357806317342ea7146101bd5780631d28e003146101f857806324d7806c146102295780632e91ec7614610249578063429b62e5146102695780634b0bddd2146102995780635216aeec146102b9578063549c4627146102cf57806358e87b23146102f05780635bf8633a146103105780636f75be9a146103305780636ff1c9bc14610350578063715018a61461037057600080fd5b3661017857005b600080fd5b34801561018957600080fd5b5060025461019d906001600160a01b031681565b6040516101aa9190611b99565b60405180910390f35b6101bb610572565b005b3480156101c957600080fd5b506101ea6101d8366004611bad565b60066020526000908152604090205481565b6040519081526020016101aa565b34801561020457600080fd5b5060035461021990600160a01b900460ff1681565b60405190151581526020016101aa565b34801561023557600080fd5b50610219610244366004611bdb565b6109c1565b34801561025557600080fd5b506101bb610264366004611c4a565b610a06565b34801561027557600080fd5b50610219610284366004611bdb565b60076020526000908152604090205460ff1681565b3480156102a557600080fd5b506101bb6102b4366004611c99565b610b34565b3480156102c557600080fd5b506101ea60055481565b3480156102db57600080fd5b5060035461021990600160a81b900460ff1681565b3480156102fc57600080fd5b506101bb61030b366004611cd2565b610b9b565b34801561031c57600080fd5b5060015461019d906001600160a01b031681565b34801561033c57600080fd5b5061019d61034b366004611bad565b610c45565b34801561035c57600080fd5b506101bb61036b366004611bdb565b610c6f565b34801561037c57600080fd5b506101bb610d37565b34801561039157600080fd5b50610219610d4b565b3480156103a657600080fd5b5061019d7f000000000000000000000000000000000000000000000000000000000000000081565b3480156103da57600080fd5b5061019d610d75565b3480156103ef57600080fd5b506101bb6103fe366004611cef565b610d84565b34801561040f57600080fd5b506101bb61041e366004611c4a565b611393565b34801561042f57600080fd5b506101bb61043e366004611d31565b611463565b34801561044f57600080fd5b5061021961045e366004611bad565b60086020526000908152604090205460ff1681565b34801561047f57600080fd5b50610219611848565b34801561049457600080fd5b5061019d7f000000000000000000000000000000000000000000000000000000000000000081565b3480156104c857600080fd5b5060035461019d906001600160a01b031681565b3480156104e857600080fd5b506101bb6104f7366004611cd2565b611871565b34801561050857600080fd5b5060035461021990600160b01b900460ff1681565b34801561052957600080fd5b506101bb610538366004611bdb565b611910565b34801561054957600080fd5b506101bb610558366004611bdb565b61194e565b34801561056957600080fd5b506101bb611a0f565b600354600160a01b900460ff16156105c55760405162461bcd60e51b815260206004820152601160248201527010dbdb5c195d1a5d1a5bdb88195b991959607a1b60448201526064015b60405180910390fd5b600354600160a81b900460ff166106105760405162461bcd60e51b815260206004820152600f60248201526e11195c1bdcda5d1cc818db1bdcd959608a1b60448201526064016105bc565b6004546106565760405162461bcd60e51b8152602060048201526014602482015273139bc81d1bdad95b9cc818dbdb999a59dd5c995960621b60448201526064016105bc565b600034116106945760405162461bcd60e51b815260206004820152600b60248201526a139bc810d216881cd95b9d60aa1b60448201526064016105bc565b6001546040516340c10f1960e01b81526001600160a01b039091169060009082906340c10f19906106cb9033903490600401611db7565b6020604051808303816000875af11580156106ea573d6000803e3d6000fd5b505050506040513d601f19601f8201168201806040525081019061070e9190611dd0565b9050346006600083815260200190815260200160002081905550346005600082825461073a9190611dff565b90915550506004546000906001600160401b0381111561075c5761075c611e12565b604051908082528060200260200182016040528015610785578160200160208202803683370190505b5090506000805b600454811015610868577f00000000000000000000000000000000000000000000000000000000000000006001600160a01b0316600482815481106107d3576107d3611e28565b6000918252602090912001546001600160a01b031614610856576004818154811061080057610800611e28565b9060005260206000200160009054906101000a90046001600160a01b031683838151811061083057610830611e28565b6001600160a01b03909216602092830291909101909101528161085281611e3e565b9250505b8061086081611e3e565b91505061078c565b508015610980576000816001600160401b0381111561088957610889611e12565b6040519080825280602002602001820160405280156108b2578160200160208202803683370190505b50905060005b82811015610916578381815181106108d2576108d2611e28565b60200260200101518282815181106108ec576108ec611e28565b6001600160a01b03909216602092830291909101909101528061090e81611e3e565b9150506108b8565b5060025460405163102368fd60e01b81526001600160a01b039091169063102368fd90349061094c908590600090600401611e57565b6000604051808303818588803b15801561096557600080fd5b505af1158015610979573d6000803e3d6000fd5b5050505050505b604080513481526020810185905233917f73a19dd210f1a7f902193214c0ee91dd35ee5b4d920cba8d519eca65a7b488ca910160405180910390a250505050565b6001600160a01b03811660009081526007602052604081205460ff1680610a0057506109eb610d75565b6001600160a01b0316826001600160a01b0316145b92915050565b3360009081526007602052604090205460ff1680610a3c5750610a27610d75565b6001600160a01b0316336001600160a01b0316145b610a585760405162461bcd60e51b81526004016105bc90611ea8565b60005b81811015610b2f57828282818110610a7557610a75611e28565b9050602002016020810190610a8a9190611bdb565b6001600160a01b031663095ea7b37f00000000000000000000000000000000000000000000000000000000000000006000196040518363ffffffff1660e01b8152600401610ad9929190611db7565b6020604051808303816000875af1158015610af8573d6000803e3d6000fd5b505050506040513d601f19601f82011682018060405250810190610b1c9190611ecb565b5080610b2781611e3e565b915050610a5b565b505050565b610b3c611a9f565b6001600160a01b038216600081815260076020908152604091829020805460ff191685151590811790915591519182527f235bc17e7930760029e9f4d860a2a8089976de5b381cf8380fc11c1d88a11133910160405180910390a25050565b3360009081526007602052604090205460ff1680610bd15750610bbc610d75565b6001600160a01b0316336001600160a01b0316145b610bed5760405162461bcd60e51b81526004016105bc90611ea8565b60038054821515600160a81b0260ff60a81b199091161790556040517f8d3d8e4541c6b3368eb82d7b621f414931cb65410379efff5908345fc1366b0c90610c3a90831515815260200190565b60405180910390a150565b60048181548110610c5557600080fd5b6000918252602090912001546001600160a01b0316905081565b3360009081526007602052604090205460ff1680610ca55750610c90610d75565b6001600160a01b0316336001600160a01b0316145b610cc15760405162461bcd60e51b81526004016105bc90611ea8565b60405147906001600160a01b0383169082156108fc029083906000818181858888f19350505050158015610cf9573d6000803e3d6000fd5b507f5fafa99d0643513820be26656b45130b01e1c03062e1266bf36f88cbd3bd96958282604051610d2b929190611db7565b60405180910390a15050565b610d3f611a9f565b610d496000611ad1565b565b600354600090600160b01b900460ff168015610d705750600354600160a01b900460ff165b905090565b6000546001600160a01b031690565b600354600160a01b900460ff16610dd55760405162461bcd60e51b815260206004820152601560248201527410dbdb5c195d1a5d1a5bdb881b9bdd08195b991959605a1b60448201526064016105bc565b600354600160b01b900460ff16610e1f5760405162461bcd60e51b815260206004820152600e60248201526d14995919595b5cc818db1bdcd95960921b60448201526064016105bc565b6001546040516331a9108f60e11b8152600481018590526001600160a01b039091169033908290636352211e90602401602060405180830381865afa158015610e6c573d6000803e3d6000fd5b505050506040513d601f19601f82011682018060405250810190610e909190611ee8565b6001600160a01b031614610ed85760405162461bcd60e51b815260206004820152600f60248201526e2737ba103a37b5b2b71037bbb732b960891b60448201526064016105bc565b60008481526008602052604090205460ff1615610f2a5760405162461bcd60e51b815260206004820152601060248201526f105b1c9958591e481c995919595b595960821b60448201526064016105bc565b60008481526006602052604090205480610f795760405162461bcd60e51b815260206004820152601060248201526f139bdd1a1a5b99c81a5b9d995cdd195960821b60448201526064016105bc565b600060055411610fc55760405162461bcd60e51b8152602060048201526017602482015276139bc81c995b585a5b9a5b99c81a5b9d995cdd1b595b9d604a1b60448201526064016105bc565b60008581526008602052604090819020805460ff1916600117905551630852cd8d60e31b8152600481018690526001600160a01b038316906342966c6890602401600060405180830381600087803b15801561102057600080fd5b505af1158015611034573d6000803e3d6000fd5b50506040516370a0823160e01b8152600092506001600160a01b037f00000000000000000000000000000000000000000000000000000000000000001691506370a0823190611087903090600401611b99565b602060405180830381865afa1580156110a4573d6000803e3d6000fd5b505050506040513d601f19601f820116820180604052508101906110c89190611dd0565b9050801561114b57604051632e1a7d4d60e01b8152600481018290527f00000000000000000000000000000000000000000000000000000000000000006001600160a01b031690632e1a7d4d90602401600060405180830381600087803b15801561113257600080fd5b505af1158015611146573d6000803e3d6000fd5b505050505b600554479060009061115d8584611f05565b6111679190611f1c565b9050836005600082825461117b9190611f3e565b909155505086156112d657600354604051630642194560e41b81526001600160a01b03909116906364219450906111b6908990600401611b99565b602060405180830381865afa1580156111d3573d6000803e3d6000fd5b505050506040513d601f19601f820116820180604052508101906111f79190611ecb565b6112335760405162461bcd60e51b815260206004820152600d60248201526c125b9d985b1a59081d985d5b1d609a1b60448201526064016105bc565b6040516001600160a01b0387169082156108fc029083906000818181858888f19350505050158015611269573d6000803e3d6000fd5b5060405163730e3ae360e01b815233600482015260248101829052604481018590526001600160a01b0387169063730e3ae390606401600060405180830381600087803b1580156112b957600080fd5b505af11580156112cd573d6000803e3d6000fd5b5050505061134e565b60008482116112e65760006112f0565b6112f08583611f3e565b905060006064611301836014611f05565b61130b9190611f1c565b905060006113198285611f3e565b604051909150339082156108fc029083906000818181858888f19350505050158015611349573d6000803e3d6000fd5b505050505b60408051828152602081018a905233917ff3a670cd3af7d64b488926880889d08a8585a138ff455227af6737339a1ec262910160405180910390a25050505050505050565b3360009081526007602052604090205460ff16806113c957506113b4610d75565b6001600160a01b0316336001600160a01b0316145b6113e55760405162461bcd60e51b81526004016105bc90611ea8565b806114255760405162461bcd60e51b815260206004820152601060248201526f115b5c1d1e481d1bdad95b881b1a5cdd60821b60448201526064016105bc565b61143160048383611b21565b507f3ca096a4c913a6f222a557151d17832dddab787e6ddf59063cab45e15b9a9fac8282604051610d2b929190611f9a565b3360009081526007602052604090205460ff16806114995750611484610d75565b6001600160a01b0316336001600160a01b0316145b6114b55760405162461bcd60e51b81526004016105bc90611ea8565b60028410156114f55760405162461bcd60e51b815260206004820152600c60248201526b092dcecc2d8d2c840e0c2e8d60a31b60448201526064016105bc565b7f00000000000000000000000000000000000000000000000000000000000000006001600160a01b031661155c5760405162461bcd60e51b815260206004820152600e60248201526d149bdd5d195c881b9bdd081cd95d60921b60448201526064016105bc565b60008585600081811061157157611571611e28565b90506020020160208101906115869190611bdb565b604051636eb1769f60e11b81523060048201526001600160a01b037f00000000000000000000000000000000000000000000000000000000000000008116602483015291925060009183169063dd62ed3e90604401602060405180830381865afa1580156115f8573d6000803e3d6000fd5b505050506040513d601f19601f8201168201806040525081019061161c9190611dd0565b9050888110156116bb5760405163095ea7b360e01b81526001600160a01b0383169063095ea7b390611676907f00000000000000000000000000000000000000000000000000000000000000009060001990600401611db7565b6020604051808303816000875af1158015611695573d6000803e3d6000fd5b505050506040513d601f19601f820116820180604052508101906116b99190611ecb565b505b6000807f00000000000000000000000000000000000000000000000000000000000000006001600160a01b03168b8b8b8b8b8b308c604051602401611707989796959493929190611fb6565b60408051601f198184030181529181526020820180516001600160e01b03166396f9189960e01b1790525161173c9190612006565b6000604051808303816000865af19150503d8060008114611779576040519150601f19603f3d011682016040523d82523d6000602084013e61177e565b606091505b50915091508161179057805160208201fd5b7fb3fd459f9d0f4577bb8b2eabe587f5c7514c0c717f513ab7fd5d09fbbb7e9718898960008181106117c4576117c4611e28565b90506020020160208101906117d99190611bdb565b8a8a6117e6600182611f3e565b8181106117f5576117f5611e28565b905060200201602081019061180a9190611bdb565b604080516001600160a01b03938416815292909116602083015281018d9052606081018c905260800160405180910390a15050505050505050505050565b600354600090600160a81b900460ff168015610d70575050600354600160a01b900460ff161590565b3360009081526007602052604090205460ff16806118a75750611892610d75565b6001600160a01b0316336001600160a01b0316145b6118c35760405162461bcd60e51b81526004016105bc90611ea8565b60038054821515600160b01b0260ff60b01b199091161790556040517fb627915892a42adaab1d9378da4b9064b25562944209582d03a3dd0a6332326090610c3a90831515815260200190565b611918611a9f565b6001600160a01b038116611942576000604051631e4fbdf760e01b81526004016105bc9190611b99565b61194b81611ad1565b50565b611956611a9f565b6001546001600160a01b0316156119a15760405162461bcd60e51b815260206004820152600f60248201526e13919508185b1c9958591e481cd95d608a1b60448201526064016105bc565b6001600160a01b0381166119ed5760405162461bcd60e51b8152602060048201526013602482015272496e76616c6964204e4654206164647265737360681b60448201526064016105bc565b600180546001600160a01b0319166001600160a01b0392909216919091179055565b3360009081526007602052604090205460ff1680611a455750611a30610d75565b6001600160a01b0316336001600160a01b0316145b611a615760405162461bcd60e51b81526004016105bc90611ea8565b6003805460ff60a01b1916600160a01b1790556040517fad7f2119f32a4d4ea449e8ddbaa29f3bc7880556916b566b102255064cb1c21d90600090a1565b33611aa8610d75565b6001600160a01b031614610d49573360405163118cdaa760e01b81526004016105bc9190611b99565b600080546001600160a01b038381166001600160a01b0319831681178455604051919092169283917f8be0079c531659141344cd1fd0a4f28419497f9722a3daafe3b4186f6b6457e09190a35050565b828054828255906000526020600020908101928215611b74579160200282015b82811115611b745781546001600160a01b0319166001600160a01b03843516178255602090920191600190910190611b41565b50611b80929150611b84565b5090565b5b80821115611b805760008155600101611b85565b6001600160a01b0391909116815260200190565b600060208284031215611bbf57600080fd5b5035919050565b6001600160a01b038116811461194b57600080fd5b600060208284031215611bed57600080fd5b8135611bf881611bc6565b9392505050565b60008083601f840112611c1157600080fd5b5081356001600160401b03811115611c2857600080fd5b6020830191508360208260051b8501011115611c4357600080fd5b9250929050565b60008060208385031215611c5d57600080fd5b82356001600160401b03811115611c7357600080fd5b611c7f85828601611bff565b90969095509350505050565b801515811461194b57600080fd5b60008060408385031215611cac57600080fd5b8235611cb781611bc6565b91506020830135611cc781611c8b565b809150509250929050565b600060208284031215611ce457600080fd5b8135611bf881611c8b565b600080600060608486031215611d0457600080fd5b833592506020840135611d1681611c8b565b91506040840135611d2681611bc6565b809150509250925092565b600080600080600080600060c0888a031215611d4c57600080fd5b873596506020880135955060408801356001600160401b03811115611d7057600080fd5b611d7c8a828b01611bff565b9096509450506060880135611d9081611c8b565b92506080880135611da081611c8b565b8092505060a0880135905092959891949750929550565b6001600160a01b03929092168252602082015260400190565b600060208284031215611de257600080fd5b5051919050565b634e487b7160e01b600052601160045260246000fd5b80820180821115610a0057610a00611de9565b634e487b7160e01b600052604160045260246000fd5b634e487b7160e01b600052603260045260246000fd5b600060018201611e5057611e50611de9565b5060010190565b604080825283519082018190526000906020906060840190828701845b82811015611e995781516001600160a01b031684529284019290840190600101611e74565b50505092019290925292915050565b6020808252600990820152682737ba1030b236b4b760b91b604082015260600190565b600060208284031215611edd57600080fd5b8151611bf881611c8b565b600060208284031215611efa57600080fd5b8151611bf881611bc6565b8082028115828204841417610a0057610a00611de9565b600082611f3957634e487b7160e01b600052601260045260246000fd5b500490565b81810381811115610a0057610a00611de9565b8183526000602080850194508260005b85811015611f8f578135611f7481611bc6565b6001600160a01b031687529582019590820190600101611f61565b509495945050505050565b602081526000611fae602083018486611f51565b949350505050565b88815287602082015260e060408201526000611fd660e08301888a611f51565b95151560608301525092151560808401526001600160a01b039190911660a083015260c090910152949350505050565b6000825160005b81811015612027576020818601810151858301520161200d565b50600092019182525091905056fea264697066735822122007c37a1c8b3d3e4e3b1d00ad02a424619d76dccb9afdfa372773e7b771b5388964736f6c63430008150033",
  "linkReferences": {},
  "deployedLinkReferences": {}
}