{
  "_format": "hh-sol-artifact-1",
  "contractName": "CompetitionVault",
  "sourceName": "contracts/core/CompetitionVault.sol",
  "abi": [
    {
      "inputs": [
        {
          "internalType": "address",
          "name": "_batchBuyer",
          "type": "address"
        },
        {
          "internalType": "address",
          "name": "_nft",
          "type": "address"
        },
        {
          "internalType": "address[]",
          "name": "_initialTokens",
          "type": "address[]"
        },
        {
          "internalType": "address",
          "name": "_wchz",
          "type": "address"
        },
        {
          "internalType": "address",
          "name": "_adminRouter",
          "type": "address"
        },
        {
          "internalType": "address",
          "name": "_factory",
          "type": "address"
        }
      ],
      "stateMutability": "nonpayable",
      "type": "constructor"
    },
    {
      "anonymous": false,
      "inputs": [
        {
          "indexed": false,
          "internalType": "address",
          "name": "tokenIn",
          "type": "address"
        },
        {
          "indexed": false,
          "internalType": "address",
          "name": "tokenOut",
          "type": "address"
        },
        {
          "indexed": false,
          "internalType": "uint256",
          "name": "amountIn",
          "type": "uint256"
        },
        {
          "indexed": false,
          "internalType": "uint256",
          "name": "minOut",
          "type": "uint256"
        }
      ],
      "name": "AdminSwapExecuted",
      "type": "event"
    },
    {
      "anonymous": false,
      "inputs": [
        {
          "indexed": true,
          "internalType": "address",
          "name": "admin",
          "type": "address"
        },
        {
          "indexed": false,
          "internalType": "bool",
          "name": "isAdmin",
          "type": "bool"
        }
      ],
      "name": "AdminUpdated",
      "type": "event"
    },
    {
      "anonymous": false,
      "inputs": [],
      "name": "CompetitionEnded",
      "type": "event"
    },
    {
      "anonymous": false,
      "inputs": [
        {
          "indexed": false,
          "internalType": "bool",
          "name": "status",
          "type": "bool"
        }
      ],
      "name": "DepositStatusChanged",
      "type": "event"
    },
    {
      "anonymous": false,
      "inputs": [
        {
          "indexed": true,
          "internalType": "address",
          "name": "user",
          "type": "address"
        },
        {
          "indexed": false,
          "internalType": "uint256",
          "name": "amount",
          "type": "uint256"
        },
        {
          "indexed": false,
          "internalType": "uint256",
          "name": "tokenId",
          "type": "uint256"
        }
      ],
      "name": "Deposited",
      "type": "event"
    },
    {
      "anonymous": false,
      "inputs": [
        {
          "indexed": true,
          "internalType": "address",
          "name": "token",
          "type": "address"
        },
        {
          "indexed": true,
          "internalType": "address",
          "name": "to",
          "type": "address"
        },
        {
          "indexed": false,
          "internalType": "uint256",
          "name": "amount",
          "type": "uint256"
        }
      ],
      "name": "EmergencyERC20Withdraw",
      "type": "event"
    },
    {
      "anonymous": false,
      "inputs": [
        {
          "indexed": false,
          "internalType": "address",
          "name": "to",
          "type": "address"
        },
        {
          "indexed": false,
          "internalType": "uint256",
          "name": "amount",
          "type": "uint256"
        }
      ],
      "name": "EmergencyWithdraw",
      "type": "event"
    },
    {
      "anonymous": false,
      "inputs": [
        {
          "indexed": true,
          "internalType": "address",
          "name": "previousOwner",
          "type": "address"
        },
        {
          "indexed": true,
          "internalType": "address",
          "name": "newOwner",
          "type": "address"
        }
      ],
      "name": "OwnershipTransferred",
      "type": "event"
    },
    {
      "anonymous": false,
      "inputs": [
        {
          "indexed": false,
          "internalType": "bool",
          "name": "status",
          "type": "bool"
        }
      ],
      "name": "RedeemStatusChanged",
      "type": "event"
    },
    {
      "anonymous": false,
      "inputs": [
        {
          "indexed": true,
          "internalType": "address",
          "name": "user",
          "type": "address"
        },
        {
          "indexed": false,
          "internalType": "uint256",
          "name": "payout",
          "type": "uint256"
        },
        {
          "indexed": false,
          "internalType": "uint256",
          "name": "tokenId",
          "type": "uint256"
        }
      ],
      "name": "Redeemed",
      "type": "event"
    },
    {
      "anonymous": false,
      "inputs": [
        {
          "indexed": false,
          "internalType": "address[]",
          "name": "newTokens",
          "type": "address[]"
        }
      ],
      "name": "TokensUpdated",
      "type": "event"
    },
    {
      "inputs": [],
      "name": "WCHZ",
      "outputs": [
        {
          "internalType": "address",
          "name": "",
          "type": "address"
        }
      ],
      "stateMutability": "view",
      "type": "function"
    },
    {
      "inputs": [],
      "name": "adminRouter",
      "outputs": [
        {
          "internalType": "address",
          "name": "",
          "type": "address"
        }
      ],
      "stateMutability": "view",
      "type": "function"
    },
    {
      "inputs": [
        {
          "internalType": "uint256",
          "name": "amountIn",
          "type": "uint256"
        },
        {
          "internalType": "uint256",
          "name": "amountOutMin",
          "type": "uint256"
        },
        {
          "internalType": "address[]",
          "name": "path",
          "type": "address[]"
        },
        {
          "internalType": "bool",
          "name": "isTokenInWrapped",
          "type": "bool"
        },
        {
          "internalType": "bool",
          "name": "receiveUnwrappedToken",
          "type": "bool"
        },
        {
          "internalType": "uint256",
          "name": "deadline",
          "type": "uint256"
        }
      ],
      "name": "adminSwapExactTokensForTokens",
      "outputs": [],
      "stateMutability": "nonpayable",
      "type": "function"
    },
    {
      "inputs": [
        {
          "internalType": "address",
          "name": "",
          "type": "address"
        }
      ],
      "name": "admins",
      "outputs": [
        {
          "internalType": "bool",
          "name": "",
          "type": "bool"
        }
      ],
      "stateMutability": "view",
      "type": "function"
    },
    {
      "inputs": [
        {
          "internalType": "address[]",
          "name": "tokens",
          "type": "address[]"
        }
      ],
      "name": "approveTokensToRouter",
      "outputs": [],
      "stateMutability": "nonpayable",
      "type": "function"
    },
    {
      "inputs": [],
      "name": "areDepositsOpen",
      "outputs": [
        {
          "internalType": "bool",
          "name": "",
          "type": "bool"
        }
      ],
      "stateMutability": "view",
      "type": "function"
    },
    {
      "inputs": [],
      "name": "areRedeemsOpen",
      "outputs": [
        {
          "internalType": "bool",
          "name": "",
          "type": "bool"
        }
      ],
      "stateMutability": "view",
      "type": "function"
    },
    {
      "inputs": [],
      "name": "batchBuyer",
      "outputs": [
        {
          "internalType": "contract IBatchCHZBuyer",
          "name": "",
          "type": "address"
        }
      ],
      "stateMutability": "view",
      "type": "function"
    },
    {
      "inputs": [],
      "name": "competitionEnded",
      "outputs": [
        {
          "internalType": "bool",
          "name": "",
          "type": "bool"
        }
      ],
      "stateMutability": "view",
      "type": "function"
    },
    {
      "inputs": [],
      "name": "depositAndBuy",
      "outputs": [],
      "stateMutability": "payable",
      "type": "function"
    },
    {
      "inputs": [],
      "name": "depositsOpen",
      "outputs": [
        {
          "internalType": "bool",
          "name": "",
          "type": "bool"
        }
      ],
      "stateMutability": "view",
      "type": "function"
    },
    {
      "inputs": [
        {
          "internalType": "address",
          "name": "to",
          "type": "address"
        }
      ],
      "name": "emergencyWithdraw",
      "outputs": [],
      "stateMutability": "nonpayable",
      "type": "function"
    },
    {
      "inputs": [
        {
          "internalType": "address",
          "name": "token",
          "type": "address"
        },
        {
          "internalType": "address",
          "name": "to",
          "type": "address"
        },
        {
          "internalType": "uint256",
          "name": "amount",
          "type": "uint256"
        }
      ],
      "name": "emergencyWithdrawERC20",
      "outputs": [],
      "stateMutability": "nonpayable",
      "type": "function"
    },
    {
      "inputs": [],
      "name": "endCompetition",
      "outputs": [],
      "stateMutability": "nonpayable",
      "type": "function"
    },
    {
      "inputs": [],
      "name": "factory",
      "outputs": [
        {
          "internalType": "address",
          "name": "",
          "type": "address"
        }
      ],
      "stateMutability": "view",
      "type": "function"
    },
    {
      "inputs": [
        {
          "internalType": "uint256",
          "name": "",
          "type": "uint256"
        }
      ],
      "name": "hasRedeemed",
      "outputs": [
        {
          "internalType": "bool",
          "name": "",
          "type": "bool"
        }
      ],
      "stateMutability": "view",
      "type": "function"
    },
    {
      "inputs": [
        {
          "internalType": "uint256",
          "name": "",
          "type": "uint256"
        }
      ],
      "name": "investedPerNFT",
      "outputs": [
        {
          "internalType": "uint256",
          "name": "",
          "type": "uint256"
        }
      ],
      "stateMutability": "view",
      "type": "function"
    },
    {
      "inputs": [
        {
          "internalType": "address",
          "name": "addr",
          "type": "address"
        }
      ],
      "name": "isAdmin",
      "outputs": [
        {
          "internalType": "bool",
          "name": "",
          "type": "bool"
        }
      ],
      "stateMutability": "view",
      "type": "function"
    },
    {
      "inputs": [],
      "name": "nftAddress",
      "outputs": [
        {
          "internalType": "address",
          "name": "",
          "type": "address"
        }
      ],
      "stateMutability": "view",
      "type": "function"
    },
    {
      "inputs": [],
      "name": "owner",
      "outputs": [
        {
          "internalType": "address",
          "name": "",
          "type": "address"
        }
      ],
      "stateMutability": "view",
      "type": "function"
    },
    {
      "inputs": [
        {
          "internalType": "uint256",
          "name": "tokenId",
          "type": "uint256"
        }
      ],
      "name": "redeem",
      "outputs": [],
      "stateMutability": "nonpayable",
      "type": "function"
    },
    {
      "inputs": [],
      "name": "redeemsOpen",
      "outputs": [
        {
          "internalType": "bool",
          "name": "",
          "type": "bool"
        }
      ],
      "stateMutability": "view",
      "type": "function"
    },
    {
      "inputs": [],
      "name": "renounceOwnership",
      "outputs": [],
      "stateMutability": "nonpayable",
      "type": "function"
    },
    {
      "inputs": [
        {
          "internalType": "address",
          "name": "admin",
          "type": "address"
        },
        {
          "internalType": "bool",
          "name": "value",
          "type": "bool"
        }
      ],
      "name": "setAdmin",
      "outputs": [],
      "stateMutability": "nonpayable",
      "type": "function"
    },
    {
      "inputs": [
        {
          "internalType": "bool",
          "name": "status",
          "type": "bool"
        }
      ],
      "name": "setDepositsOpen",
      "outputs": [],
      "stateMutability": "nonpayable",
      "type": "function"
    },
    {
      "inputs": [
        {
          "internalType": "address",
          "name": "_nft",
          "type": "address"
        }
      ],
      "name": "setNFT",
      "outputs": [],
      "stateMutability": "nonpayable",
      "type": "function"
    },
    {
      "inputs": [
        {
          "internalType": "bool",
          "name": "status",
          "type": "bool"
        }
      ],
      "name": "setRedeemsOpen",
      "outputs": [],
      "stateMutability": "nonpayable",
      "type": "function"
    },
    {
      "inputs": [
        {
          "internalType": "uint256",
          "name": "",
          "type": "uint256"
        }
      ],
      "name": "tokensToBuy",
      "outputs": [
        {
          "internalType": "address",
          "name": "",
          "type": "address"
        }
      ],
      "stateMutability": "view",
      "type": "function"
    },
    {
      "inputs": [],
      "name": "totalInvested",
      "outputs": [
        {
          "internalType": "uint256",
          "name": "",
          "type": "uint256"
        }
      ],
      "stateMutability": "view",
      "type": "function"
    },
    {
      "inputs": [
        {
          "internalType": "address",
          "name": "newOwner",
          "type": "address"
        }
      ],
      "name": "transferOwnership",
      "outputs": [],
      "stateMutability": "nonpayable",
      "type": "function"
    },
    {
      "inputs": [
        {
          "internalType": "address[]",
          "name": "newTokens",
          "type": "address[]"
        }
      ],
      "name": "updateTokensToBuy",
      "outputs": [],
      "stateMutability": "nonpayable",
      "type": "function"
    },
    {
      "stateMutability": "payable",
      "type": "receive"
    }
  ],
  "bytecode": "0x60c06040526004805462ffffff60a01b1916600160a81b1790553480156200002657600080fd5b5060405162002618380380620026188339810160408190526200004991620002f5565b6200005433620001f1565b600180556001600160a01b0386166200009e5760405162461bcd60e51b8152602060048201526007602482015266125b9d985b1a5960ca1b60448201526064015b60405180910390fd5b6001600160a01b038316620000e05760405162461bcd60e51b8152602060048201526007602482015266125b9d985b1a5960ca1b604482015260640162000095565b6001600160a01b038116620001225760405162461bcd60e51b8152602060048201526007602482015266125b9d985b1a5960ca1b604482015260640162000095565b6001600160a01b038216620001645760405162461bcd60e51b8152602060048201526007602482015266125b9d985b1a5960ca1b604482015260640162000095565b600280546001600160a01b038088166001600160a01b0319928316179092556003805489841690831617905584821660805283821660a05260048054928416929091169190911790558351620001c290600590602087019062000241565b506001600160a01b03166000908152600860205260409020805460ff1916600117905550620004269350505050565b600080546001600160a01b038381166001600160a01b0319831681178455604051919092169283917f8be0079c531659141344cd1fd0a4f28419497f9722a3daafe3b4186f6b6457e09190a35050565b82805482825590600052602060002090810192821562000299579160200282015b828111156200029957825182546001600160a01b0319166001600160a01b0390911617825560209092019160019091019062000262565b50620002a7929150620002ab565b5090565b5b80821115620002a75760008155600101620002ac565b80516001600160a01b0381168114620002da57600080fd5b919050565b634e487b7160e01b600052604160045260246000fd5b60008060008060008060c087890312156200030f57600080fd5b6200031a87620002c2565b955060206200032b818901620002c2565b60408901519096506001600160401b03808211156200034957600080fd5b818a0191508a601f8301126200035e57600080fd5b815181811115620003735762000373620002df565b8060051b604051601f19603f830116810181811085821117156200039b576200039b620002df565b60405291825284820192508381018501918d831115620003ba57600080fd5b938501935b82851015620003e357620003d385620002c2565b84529385019392850192620003bf565b809950505050505050620003fa60608801620002c2565b92506200040a60808801620002c2565b91506200041a60a08801620002c2565b90509295509295509295565b60805160a05161219462000484600039600081816104a501528181610ac2015281816110cd015281816111790152818161122001526112960152600081816103d7015281816107b70152818161179a015261182f01526121946000f3fe60806040526004361061017c5760003560e01c8063715018a6116100d2578063715018a61461039b5780637de25613146103b057806381e18b47146103c55780638da5cb5b146103f9578063a0c39e071461040e578063a13d6bb51461042e578063a7771ea51461044e578063b18f19f01461047e578063c2f9219214610493578063c45a0155146104c7578063cf411d67146104e7578063db006a7514610507578063f029ba6f14610527578063f2fde38b14610548578063f56e9c6614610568578063f80eca221461058857600080fd5b8063021876691461018857806307ce35d9146101be57806317342ea7146101c85780631d28e0031461020357806324d7806c146102345780632e91ec7614610254578063429b62e5146102745780634b0bddd2146102a45780635216aeec146102c4578063549c4627146102da57806355b8fb81146102fb57806358e87b231461031b5780635bf8633a1461033b5780636f75be9a1461035b5780636ff1c9bc1461037b57600080fd5b3661018357005b600080fd5b34801561019457600080fd5b506003546101a8906001600160a01b031681565b6040516101b59190611ca2565b60405180910390f35b6101c661059d565b005b3480156101d457600080fd5b506101f56101e3366004611cb6565b60076020526000908152604090205481565b6040519081526020016101b5565b34801561020f57600080fd5b5060045461022490600160a01b900460ff1681565b60405190151581526020016101b5565b34801561024057600080fd5b5061022461024f366004611ce4565b6109e9565b34801561026057600080fd5b506101c661026f366004611d53565b610a2e565b34801561028057600080fd5b5061022461028f366004611ce4565b60086020526000908152604090205460ff1681565b3480156102b057600080fd5b506101c66102bf366004611da2565b610b5c565b3480156102d057600080fd5b506101f560065481565b3480156102e657600080fd5b5060045461022490600160a81b900460ff1681565b34801561030757600080fd5b506101c6610316366004611ddb565b610bc3565b34801561032757600080fd5b506101c6610336366004611e1c565b610d65565b34801561034757600080fd5b506002546101a8906001600160a01b031681565b34801561036757600080fd5b506101a8610376366004611cb6565b610e0f565b34801561038757600080fd5b506101c6610396366004611ce4565b610e39565b3480156103a757600080fd5b506101c6610f12565b3480156103bc57600080fd5b50610224610f24565b3480156103d157600080fd5b506101a87f000000000000000000000000000000000000000000000000000000000000000081565b34801561040557600080fd5b506101a8610f4e565b34801561041a57600080fd5b506101c6610429366004611d53565b610f5d565b34801561043a57600080fd5b506101c6610449366004611e39565b611039565b34801561045a57600080fd5b50610224610469366004611cb6565b60096020526000908152604090205460ff1681565b34801561048a57600080fd5b5061022461141e565b34801561049f57600080fd5b506101a87f000000000000000000000000000000000000000000000000000000000000000081565b3480156104d357600080fd5b506004546101a8906001600160a01b031681565b3480156104f357600080fd5b506101c6610502366004611e1c565b611447565b34801561051357600080fd5b506101c6610522366004611cb6565b6114e6565b34801561053357600080fd5b5060045461022490600160b01b900460ff1681565b34801561055457600080fd5b506101c6610563366004611ce4565b61198a565b34801561057457600080fd5b506101c6610583366004611ce4565b611a00565b34801561059457600080fd5b506101c6611a92565b6105a5611b22565b600454600160a01b900460ff16156105f85760405162461bcd60e51b815260206004820152601160248201527010dbdb5c195d1a5d1a5bdb88195b991959607a1b60448201526064015b60405180910390fd5b600454600160a81b900460ff166106435760405162461bcd60e51b815260206004820152600f60248201526e11195c1bdcda5d1cc818db1bdcd959608a1b60448201526064016105ef565b60055461067e5760405162461bcd60e51b81526020600482015260096024820152684e6f20746f6b656e7360b81b60448201526064016105ef565b600034116106b35760405162461bcd60e51b81526020600482015260026024820152614e6f60f01b60448201526064016105ef565b6002546040516340c10f1960e01b81526001600160a01b039091169060009082906340c10f19906106ea9033903490600401611ebf565b6020604051808303816000875af1158015610709573d6000803e3d6000fd5b505050506040513d601f19601f8201168201806040525081019061072d9190611ed8565b905034600760008381526020019081526020016000208190555034600660008282546107599190611f07565b90915550506005546000906001600160401b0381111561077b5761077b611f1a565b6040519080825280602002602001820160405280156107a4578160200160208202803683370190505b5090506000805b600554811015610887577f00000000000000000000000000000000000000000000000000000000000000006001600160a01b0316600582815481106107f2576107f2611f30565b6000918252602090912001546001600160a01b031614610875576005818154811061081f5761081f611f30565b9060005260206000200160009054906101000a90046001600160a01b031683838151811061084f5761084f611f30565b6001600160a01b03909216602092830291909101909101528161087181611f46565b9250505b8061087f81611f46565b9150506107ab565b50801561099f576000816001600160401b038111156108a8576108a8611f1a565b6040519080825280602002602001820160405280156108d1578160200160208202803683370190505b50905060005b82811015610935578381815181106108f1576108f1611f30565b602002602001015182828151811061090b5761090b611f30565b6001600160a01b03909216602092830291909101909101528061092d81611f46565b9150506108d7565b5060035460405163102368fd60e01b81526001600160a01b039091169063102368fd90349061096b908590600090600401611f5f565b6000604051808303818588803b15801561098457600080fd5b505af1158015610998573d6000803e3d6000fd5b5050505050505b604080513481526020810185905233917f73a19dd210f1a7f902193214c0ee91dd35ee5b4d920cba8d519eca65a7b488ca910160405180910390a2505050506109e760018055565b565b6001600160a01b03811660009081526008602052604081205460ff1680610a285750610a13610f4e565b6001600160a01b0316826001600160a01b0316145b92915050565b3360009081526008602052604090205460ff1680610a645750610a4f610f4e565b6001600160a01b0316336001600160a01b0316145b610a805760405162461bcd60e51b81526004016105ef90611fb0565b60005b81811015610b5757828282818110610a9d57610a9d611f30565b9050602002016020810190610ab29190611ce4565b6001600160a01b031663095ea7b37f00000000000000000000000000000000000000000000000000000000000000006000196040518363ffffffff1660e01b8152600401610b01929190611ebf565b6020604051808303816000875af1158015610b20573d6000803e3d6000fd5b505050506040513d601f19601f82011682018060405250810190610b449190611fd3565b5080610b4f81611f46565b915050610a83565b505050565b610b64611b7b565b6001600160a01b038216600081815260086020908152604091829020805460ff191685151590811790915591519182527f235bc17e7930760029e9f4d860a2a8089976de5b381cf8380fc11c1d88a11133910160405180910390a25050565b610bcb611b7b565b610bd3611b22565b6001600160a01b038316610bf95760405162461bcd60e51b81526004016105ef90611ff0565b6001600160a01b038216610c1f5760405162461bcd60e51b81526004016105ef90611ff0565b60008111610c595760405162461bcd60e51b815260206004820152600760248201526604d757374203e360cc1b60448201526064016105ef565b60405163a9059cbb60e01b81526000906001600160a01b0385169063a9059cbb90610c8a9086908690600401611ebf565b6020604051808303816000875af1158015610ca9573d6000803e3d6000fd5b505050506040513d601f19601f82011682018060405250810190610ccd9190611fd3565b905080610d0e5760405162461bcd60e51b815260206004820152600f60248201526e151c985b9cd9995c8819985a5b1959608a1b60448201526064016105ef565b826001600160a01b0316846001600160a01b03167ff2d30170fe63ab71dafa0e3f7c4880738a8b0efc5277f5d999413526030b228f84604051610d5391815260200190565b60405180910390a350610b5760018055565b3360009081526008602052604090205460ff1680610d9b5750610d86610f4e565b6001600160a01b0316336001600160a01b0316145b610db75760405162461bcd60e51b81526004016105ef90611fb0565b60048054821515600160a81b0260ff60a81b199091161790556040517f8d3d8e4541c6b3368eb82d7b621f414931cb65410379efff5908345fc1366b0c90610e0490831515815260200190565b60405180910390a150565b60058181548110610e1f57600080fd5b6000918252602090912001546001600160a01b0316905081565b3360009081526008602052604090205460ff1680610e6f5750610e5a610f4e565b6001600160a01b0316336001600160a01b0316145b610e8b5760405162461bcd60e51b81526004016105ef90611fb0565b610e93611b22565b60405147906001600160a01b0383169082156108fc029083906000818181858888f19350505050158015610ecb573d6000803e3d6000fd5b507f5fafa99d0643513820be26656b45130b01e1c03062e1266bf36f88cbd3bd96958282604051610efd929190611ebf565b60405180910390a150610f0f60018055565b50565b610f1a611b7b565b6109e76000611bda565b600454600090600160b01b900460ff168015610f495750600454600160a01b900460ff165b905090565b6000546001600160a01b031690565b3360009081526008602052604090205460ff1680610f935750610f7e610f4e565b6001600160a01b0316336001600160a01b0316145b610faf5760405162461bcd60e51b81526004016105ef90611fb0565b80610fef5760405162461bcd60e51b815260206004820152601060248201526f115b5c1d1e481d1bdad95b881b1a5cdd60821b60448201526064016105ef565b610ffb60058383611c2a565b507f3ca096a4c913a6f222a557151d17832dddab787e6ddf59063cab45e15b9a9fac828260405161102d92919061205a565b60405180910390a15050565b3360009081526008602052604090205460ff168061106f575061105a610f4e565b6001600160a01b0316336001600160a01b0316145b61108b5760405162461bcd60e51b81526004016105ef90611fb0565b60028410156110cb5760405162461bcd60e51b815260206004820152600c60248201526b092dcecc2d8d2c840e0c2e8d60a31b60448201526064016105ef565b7f00000000000000000000000000000000000000000000000000000000000000006001600160a01b03166111325760405162461bcd60e51b815260206004820152600e60248201526d149bdd5d195c881b9bdd081cd95d60921b60448201526064016105ef565b60008585600081811061114757611147611f30565b905060200201602081019061115c9190611ce4565b604051636eb1769f60e11b81523060048201526001600160a01b037f00000000000000000000000000000000000000000000000000000000000000008116602483015291925060009183169063dd62ed3e90604401602060405180830381865afa1580156111ce573d6000803e3d6000fd5b505050506040513d601f19601f820116820180604052508101906111f29190611ed8565b9050888110156112915760405163095ea7b360e01b81526001600160a01b0383169063095ea7b39061124c907f00000000000000000000000000000000000000000000000000000000000000009060001990600401611ebf565b6020604051808303816000875af115801561126b573d6000803e3d6000fd5b505050506040513d601f19601f8201168201806040525081019061128f9190611fd3565b505b6000807f00000000000000000000000000000000000000000000000000000000000000006001600160a01b03168b8b8b8b8b8b308c6040516024016112dd989796959493929190612076565b60408051601f198184030181529181526020820180516001600160e01b03166396f9189960e01b1790525161131291906120c6565b6000604051808303816000865af19150503d806000811461134f576040519150601f19603f3d011682016040523d82523d6000602084013e611354565b606091505b50915091508161136657805160208201fd5b7fb3fd459f9d0f4577bb8b2eabe587f5c7514c0c717f513ab7fd5d09fbbb7e97188989600081811061139a5761139a611f30565b90506020020160208101906113af9190611ce4565b8a8a6113bc6001826120f5565b8181106113cb576113cb611f30565b90506020020160208101906113e09190611ce4565b604080516001600160a01b03938416815292909116602083015281018d9052606081018c905260800160405180910390a15050505050505050505050565b600454600090600160a81b900460ff168015610f49575050600454600160a01b900460ff161590565b3360009081526008602052604090205460ff168061147d5750611468610f4e565b6001600160a01b0316336001600160a01b0316145b6114995760405162461bcd60e51b81526004016105ef90611fb0565b60048054821515600160b01b0260ff60b01b199091161790556040517fb627915892a42adaab1d9378da4b9064b25562944209582d03a3dd0a6332326090610e0490831515815260200190565b6114ee611b22565b600454600160a01b900460ff1661153f5760405162461bcd60e51b815260206004820152601560248201527410dbdb5c195d1a5d1a5bdb881b9bdd08195b991959605a1b60448201526064016105ef565b600454600160b01b900460ff166115815760405162461bcd60e51b815260206004820152600660248201526510db1bdcd95960d21b60448201526064016105ef565b6002546040516331a9108f60e11b8152600481018390526001600160a01b039091169033908290636352211e90602401602060405180830381865afa1580156115ce573d6000803e3d6000fd5b505050506040513d601f19601f820116820180604052508101906115f29190612108565b6001600160a01b03161461163a5760405162461bcd60e51b815260206004820152600f60248201526e2737ba103a37b5b2b71037bbb732b960891b60448201526064016105ef565b60008281526009602052604090205460ff16156116845760405162461bcd60e51b815260206004820152600860248201526714995919595b595960c21b60448201526064016105ef565b600082815260076020526040902054806116cd5760405162461bcd60e51b815260206004820152600a6024820152690c081a5b9d995cdd195960b21b60448201526064016105ef565b60006006541161170e5760405162461bcd60e51b815260206004820152600c60248201526b4e6f2072656d61696e696e6760a01b60448201526064016105ef565b60008381526009602052604090819020805460ff1916600117905551630852cd8d60e31b8152600481018490526001600160a01b038316906342966c6890602401600060405180830381600087803b15801561176957600080fd5b505af115801561177d573d6000803e3d6000fd5b50506040516370a0823160e01b8152600092506001600160a01b037f00000000000000000000000000000000000000000000000000000000000000001691506370a08231906117d0903090600401611ca2565b602060405180830381865afa1580156117ed573d6000803e3d6000fd5b505050506040513d601f19601f820116820180604052508101906118119190611ed8565b9050801561189457604051632e1a7d4d60e01b8152600481018290527f00000000000000000000000000000000000000000000000000000000000000006001600160a01b031690632e1a7d4d90602401600060405180830381600087803b15801561187b57600080fd5b505af115801561188f573d6000803e3d6000fd5b505050505b60065447906000906118a68584612125565b6118b0919061213c565b905083600660008282546118c491906120f5565b90915550600090508482116118da5760006118e4565b6118e485836120f5565b9050600060646118f5836014612125565b6118ff919061213c565b9050600061190d82856120f5565b604051909150339082156108fc029083906000818181858888f1935050505015801561193d573d6000803e3d6000fd5b5060408051858152602081018b905233917ff3a670cd3af7d64b488926880889d08a8585a138ff455227af6737339a1ec262910160405180910390a25050505050505050610f0f60018055565b611992611b7b565b6001600160a01b0381166119f75760405162461bcd60e51b815260206004820152602660248201527f4f776e61626c653a206e6577206f776e657220697320746865207a65726f206160448201526564647265737360d01b60648201526084016105ef565b610f0f81611bda565b611a08611b7b565b6002546001600160a01b031615611a4a5760405162461bcd60e51b81526020600482015260066024820152651391951cd95d60d21b60448201526064016105ef565b6001600160a01b038116611a705760405162461bcd60e51b81526004016105ef90611ff0565b600280546001600160a01b0319166001600160a01b0392909216919091179055565b3360009081526008602052604090205460ff1680611ac85750611ab3610f4e565b6001600160a01b0316336001600160a01b0316145b611ae45760405162461bcd60e51b81526004016105ef90611fb0565b6004805460ff60a01b1916600160a01b1790556040517fad7f2119f32a4d4ea449e8ddbaa29f3bc7880556916b566b102255064cb1c21d90600090a1565b600260015403611b745760405162461bcd60e51b815260206004820152601f60248201527f5265656e7472616e637947756172643a207265656e7472616e742063616c6c0060448201526064016105ef565b6002600155565b33611b84610f4e565b6001600160a01b0316146109e75760405162461bcd60e51b815260206004820181905260248201527f4f776e61626c653a2063616c6c6572206973206e6f7420746865206f776e657260448201526064016105ef565b600080546001600160a01b038381166001600160a01b0319831681178455604051919092169283917f8be0079c531659141344cd1fd0a4f28419497f9722a3daafe3b4186f6b6457e09190a35050565b828054828255906000526020600020908101928215611c7d579160200282015b82811115611c7d5781546001600160a01b0319166001600160a01b03843516178255602090920191600190910190611c4a565b50611c89929150611c8d565b5090565b5b80821115611c895760008155600101611c8e565b6001600160a01b0391909116815260200190565b600060208284031215611cc857600080fd5b5035919050565b6001600160a01b0381168114610f0f57600080fd5b600060208284031215611cf657600080fd5b8135611d0181611ccf565b9392505050565b60008083601f840112611d1a57600080fd5b5081356001600160401b03811115611d3157600080fd5b6020830191508360208260051b8501011115611d4c57600080fd5b9250929050565b60008060208385031215611d6657600080fd5b82356001600160401b03811115611d7c57600080fd5b611d8885828601611d08565b90969095509350505050565b8015158114610f0f57600080fd5b60008060408385031215611db557600080fd5b8235611dc081611ccf565b91506020830135611dd081611d94565b809150509250929050565b600080600060608486031215611df057600080fd5b8335611dfb81611ccf565b92506020840135611e0b81611ccf565b929592945050506040919091013590565b600060208284031215611e2e57600080fd5b8135611d0181611d94565b600080600080600080600060c0888a031215611e5457600080fd5b873596506020880135955060408801356001600160401b03811115611e7857600080fd5b611e848a828b01611d08565b9096509450506060880135611e9881611d94565b92506080880135611ea881611d94565b8092505060a0880135905092959891949750929550565b6001600160a01b03929092168252602082015260400190565b600060208284031215611eea57600080fd5b5051919050565b634e487b7160e01b600052601160045260246000fd5b80820180821115610a2857610a28611ef1565b634e487b7160e01b600052604160045260246000fd5b634e487b7160e01b600052603260045260246000fd5b600060018201611f5857611f58611ef1565b5060010190565b604080825283519082018190526000906020906060840190828701845b82811015611fa15781516001600160a01b031684529284019290840190600101611f7c565b50505092019290925292915050565b6020808252600990820152682737ba1030b236b4b760b91b604082015260600190565b600060208284031215611fe557600080fd5b8151611d0181611d94565b602080825260079082015266125b9d985b1a5960ca1b604082015260600190565b8183526000602080850194508260005b8581101561204f57813561203481611ccf565b6001600160a01b031687529582019590820190600101612021565b509495945050505050565b60208152600061206e602083018486612011565b949350505050565b88815287602082015260e06040820152600061209660e08301888a612011565b95151560608301525092151560808401526001600160a01b039190911660a083015260c090910152949350505050565b6000825160005b818110156120e757602081860181015185830152016120cd565b506000920191825250919050565b81810381811115610a2857610a28611ef1565b60006020828403121561211a57600080fd5b8151611d0181611ccf565b8082028115828204841417610a2857610a28611ef1565b60008261215957634e487b7160e01b600052601260045260246000fd5b50049056fea2646970667358221220368d0a9ffd73d1683fcae3ebfba95cb7d7c8b88a512b32d702f6285f52ca526564736f6c63430008150033",
  "linkReferences": {},
  "deployedLinkReferences": {}
}