{
  "_format": "hh-sol-artifact-1",
  "contractName": "CompetitionFactory",
  "sourceName": "contracts/core/CompetitionFactory.sol",
  "abi": [
    {
      "inputs": [
        {
          "internalType": "address",
          "name": "_batchCHZBuyer",
          "type": "address"
        }
      ],
      "stateMutability": "nonpayable",
      "type": "constructor"
    },
    {
      "anonymous": false,
      "inputs": [
        {
          "indexed": true,
          "internalType": "string",
          "name": "name",
          "type": "string"
        },
        {
          "indexed": false,
          "internalType": "address",
          "name": "vault",
          "type": "address"
        },
        {
          "indexed": false,
          "internalType": "address",
          "name": "nft",
          "type": "address"
        }
      ],
      "name": "CompetitionCreated",
      "type": "event"
    },
    {
      "anonymous": false,
      "inputs": [
        {
          "indexed": true,
          "internalType": "string",
          "name": "competition",
          "type": "string"
        },
        {
          "indexed": false,
          "internalType": "bool",
          "name": "status",
          "type": "bool"
        }
      ],
      "name": "DepositsStatusChanged",
      "type": "event"
    },
    {
      "anonymous": false,
      "inputs": [
        {
          "indexed": true,
          "internalType": "address",
          "name": "nft",
          "type": "address"
        },
        {
          "indexed": false,
          "internalType": "string",
          "name": "name",
          "type": "string"
        },
        {
          "indexed": false,
          "internalType": "string",
          "name": "symbol",
          "type": "string"
        }
      ],
      "name": "NFTDeployed",
      "type": "event"
    },
    {
      "anonymous": false,
      "inputs": [
        {
          "indexed": true,
          "internalType": "address",
          "name": "previousOwner",
          "type": "address"
        },
        {
          "indexed": true,
          "internalType": "address",
          "name": "newOwner",
          "type": "address"
        }
      ],
      "name": "OwnershipTransferred",
      "type": "event"
    },
    {
      "anonymous": false,
      "inputs": [
        {
          "indexed": true,
          "internalType": "string",
          "name": "competition",
          "type": "string"
        },
        {
          "indexed": false,
          "internalType": "bool",
          "name": "status",
          "type": "bool"
        }
      ],
      "name": "RedeemsStatusChanged",
      "type": "event"
    },
    {
      "anonymous": false,
      "inputs": [
        {
          "indexed": true,
          "internalType": "address",
          "name": "vault",
          "type": "address"
        },
        {
          "indexed": false,
          "internalType": "address",
          "name": "nft",
          "type": "address"
        }
      ],
      "name": "VaultDeployed",
      "type": "event"
    },
    {
      "anonymous": false,
      "inputs": [
        {
          "indexed": true,
          "internalType": "address",
          "name": "nft",
          "type": "address"
        },
        {
          "indexed": false,
          "internalType": "address",
          "name": "vault",
          "type": "address"
        }
      ],
      "name": "VaultLinkedToNFT",
      "type": "event"
    },
    {
      "inputs": [
        {
          "internalType": "string",
          "name": "name",
          "type": "string"
        }
      ],
      "name": "areDepositsOpen",
      "outputs": [
        {
          "internalType": "bool",
          "name": "",
          "type": "bool"
        }
      ],
      "stateMutability": "view",
      "type": "function"
    },
    {
      "inputs": [
        {
          "internalType": "string",
          "name": "name",
          "type": "string"
        }
      ],
      "name": "areRedeemsOpen",
      "outputs": [
        {
          "internalType": "bool",
          "name": "",
          "type": "bool"
        }
      ],
      "stateMutability": "view",
      "type": "function"
    },
    {
      "inputs": [],
      "name": "batchCHZBuyer",
      "outputs": [
        {
          "internalType": "address",
          "name": "",
          "type": "address"
        }
      ],
      "stateMutability": "view",
      "type": "function"
    },
    {
      "inputs": [
        {
          "internalType": "uint256",
          "name": "",
          "type": "uint256"
        }
      ],
      "name": "competitionNames",
      "outputs": [
        {
          "internalType": "string",
          "name": "",
          "type": "string"
        }
      ],
      "stateMutability": "view",
      "type": "function"
    },
    {
      "inputs": [
        {
          "internalType": "bytes32",
          "name": "",
          "type": "bytes32"
        }
      ],
      "name": "competitions",
      "outputs": [
        {
          "internalType": "bool",
          "name": "exists",
          "type": "bool"
        },
        {
          "internalType": "address",
          "name": "vault",
          "type": "address"
        },
        {
          "internalType": "address",
          "name": "nft",
          "type": "address"
        },
        {
          "internalType": "address",
          "name": "creator",
          "type": "address"
        },
        {
          "internalType": "bool",
          "name": "depositsOpen",
          "type": "bool"
        },
        {
          "internalType": "bool",
          "name": "redeemsOpen",
          "type": "bool"
        },
        {
          "internalType": "string",
          "name": "baseURI",
          "type": "string"
        }
      ],
      "stateMutability": "view",
      "type": "function"
    },
    {
      "inputs": [
        {
          "internalType": "string",
          "name": "name",
          "type": "string"
        },
        {
          "internalType": "string",
          "name": "nftName",
          "type": "string"
        },
        {
          "internalType": "string",
          "name": "nftSymbol",
          "type": "string"
        },
        {
          "internalType": "address[]",
          "name": "initialTokens",
          "type": "address[]"
        },
        {
          "internalType": "address",
          "name": "wchz",
          "type": "address"
        },
        {
          "internalType": "address",
          "name": "router",
          "type": "address"
        },
        {
          "internalType": "string",
          "name": "baseURI",
          "type": "string"
        }
      ],
      "name": "createCompetition",
      "outputs": [],
      "stateMutability": "nonpayable",
      "type": "function"
    },
    {
      "inputs": [],
      "name": "getAllCompetitionNames",
      "outputs": [
        {
          "internalType": "string[]",
          "name": "",
          "type": "string[]"
        }
      ],
      "stateMutability": "view",
      "type": "function"
    },
    {
      "inputs": [
        {
          "internalType": "string",
          "name": "name",
          "type": "string"
        }
      ],
      "name": "getBaseURI",
      "outputs": [
        {
          "internalType": "string",
          "name": "",
          "type": "string"
        }
      ],
      "stateMutability": "view",
      "type": "function"
    },
    {
      "inputs": [
        {
          "internalType": "string",
          "name": "name",
          "type": "string"
        }
      ],
      "name": "getCompetition",
      "outputs": [
        {
          "internalType": "address",
          "name": "vault",
          "type": "address"
        },
        {
          "internalType": "address",
          "name": "nft",
          "type": "address"
        }
      ],
      "stateMutability": "view",
      "type": "function"
    },
    {
      "inputs": [
        {
          "internalType": "string",
          "name": "name",
          "type": "string"
        }
      ],
      "name": "getCompetitionEx",
      "outputs": [
        {
          "components": [
            {
              "internalType": "bool",
              "name": "exists",
              "type": "bool"
            },
            {
              "internalType": "address",
              "name": "vault",
              "type": "address"
            },
            {
              "internalType": "address",
              "name": "nft",
              "type": "address"
            },
            {
              "internalType": "address",
              "name": "creator",
              "type": "address"
            },
            {
              "internalType": "bool",
              "name": "depositsOpen",
              "type": "bool"
            },
            {
              "internalType": "bool",
              "name": "redeemsOpen",
              "type": "bool"
            },
            {
              "internalType": "string",
              "name": "baseURI",
              "type": "string"
            }
          ],
          "internalType": "struct CompetitionFactory.CompetitionInfo",
          "name": "competition",
          "type": "tuple"
        }
      ],
      "stateMutability": "view",
      "type": "function"
    },
    {
      "inputs": [
        {
          "internalType": "address",
          "name": "user",
          "type": "address"
        }
      ],
      "name": "isAdmin",
      "outputs": [
        {
          "internalType": "bool",
          "name": "",
          "type": "bool"
        }
      ],
      "stateMutability": "view",
      "type": "function"
    },
    {
      "inputs": [
        {
          "internalType": "address",
          "name": "vaultAddress",
          "type": "address"
        }
      ],
      "name": "isValidVault",
      "outputs": [
        {
          "internalType": "bool",
          "name": "",
          "type": "bool"
        }
      ],
      "stateMutability": "view",
      "type": "function"
    },
    {
      "inputs": [],
      "name": "owner",
      "outputs": [
        {
          "internalType": "address",
          "name": "",
          "type": "address"
        }
      ],
      "stateMutability": "view",
      "type": "function"
    },
    {
      "inputs": [],
      "name": "renounceOwnership",
      "outputs": [],
      "stateMutability": "nonpayable",
      "type": "function"
    },
    {
      "inputs": [
        {
          "internalType": "string",
          "name": "name",
          "type": "string"
        },
        {
          "internalType": "bool",
          "name": "status",
          "type": "bool"
        }
      ],
      "name": "setDepositsOpen",
      "outputs": [],
      "stateMutability": "nonpayable",
      "type": "function"
    },
    {
      "inputs": [
        {
          "internalType": "string",
          "name": "name",
          "type": "string"
        },
        {
          "internalType": "bool",
          "name": "status",
          "type": "bool"
        }
      ],
      "name": "setRedeemsOpen",
      "outputs": [],
      "stateMutability": "nonpayable",
      "type": "function"
    },
    {
      "inputs": [
        {
          "internalType": "address",
          "name": "newOwner",
          "type": "address"
        }
      ],
      "name": "transferOwnership",
      "outputs": [],
      "stateMutability": "nonpayable",
      "type": "function"
    },
    {
      "inputs": [
        {
          "internalType": "address",
          "name": "",
          "type": "address"
        }
      ],
      "name": "validVaults",
      "outputs": [
        {
          "internalType": "bool",
          "name": "",
          "type": "bool"
        }
      ],
      "stateMutability": "view",
      "type": "function"
    }
  ],
  "bytecode": "0x60806040523480156200001157600080fd5b5060405162006011380380620060118339810160408190526200003491620000fa565b6200003f33620000aa565b6001600160a01b038116620000845760405162461bcd60e51b8152602060048201526007602482015266125b9d985b1a5960ca1b604482015260640160405180910390fd5b600580546001600160a01b0319166001600160a01b03929092169190911790556200012c565b600080546001600160a01b038381166001600160a01b0319831681178455604051919092169283917f8be0079c531659141344cd1fd0a4f28419497f9722a3daafe3b4186f6b6457e09190a35050565b6000602082840312156200010d57600080fd5b81516001600160a01b03811681146200012557600080fd5b9392505050565b615ed5806200013c6000396000f3fe60806040523480156200001157600080fd5b5060043610620000fa5760003560e01c806306726cf414620000ff57806322904b4a146200011857806324d7806c1462000147578063252d34b6146200016f578063258b051d146200019b5780632ead290814620001b25780633788dcd114620001c957806348fc106914620001e257806349560f961462000208578063610d728a146200021f5780636421945014620002465780636657fc671462000275578063715018a6146200029b5780638da5cb5b14620002a5578063a34a34ab14620002be578063ead8b02414620002d2578063f2fde38b14620002e9578063f3e6d2bd1462000300575b600080fd5b620001166200011036600462001573565b62000317565b005b6200012f6200012936600462001679565b62000973565b6040516200013e91906200170d565b60405180910390f35b6200015e6200015836600462001729565b62000a51565b60405190151581526020016200013e565b620001866200018036600462001747565b62000a78565b6040516200013e979695949392919062001761565b62000116620001ac366004620017bc565b62000b66565b6200015e620001c336600462001679565b62000c52565b620001d362000ca1565b6040516200013e919062001817565b620001f9620001f336600462001679565b62000d84565b6040516200013e91906200187d565b6200012f6200021936600462001747565b62000f02565b620002366200023036600462001679565b62000fb7565b6040516200013e929190620018f6565b6200015e6200025736600462001729565b6001600160a01b031660009081526002602052604090205460ff1690565b6200015e6200028636600462001729565b60026020526000908152604090205460ff1681565b620001166200115e565b620002af62001176565b6040516200013e919062001910565b600554620002af906001600160a01b031681565b62000116620002e3366004620017bc565b62001185565b62000116620002fa36600462001729565b62001269565b6200015e6200031136600462001679565b620012e8565b6200032162001337565b60008760405160200162000336919062001924565b60408051601f198184030181529181528151602092830120875160008281526001909452919092208054929350909160ff1615620003b05760405162461bcd60e51b8152602060048201526012602482015271436f6d7065746974696f6e2065786973747360701b60448201526064015b60405180910390fd5b60008211620003f65760405162461bcd60e51b81526020600482015260116024820152704e6f20696e697469616c20746f6b656e7360781b6044820152606401620003a7565b6001600160a01b0386166200043d5760405162461bcd60e51b815260206004820152600c60248201526b24b73b30b634b2102ba1a42d60a11b6044820152606401620003a7565b6001600160a01b038516620004865760405162461bcd60e51b815260206004820152600e60248201526d24b73b30b634b2103937baba32b960911b6044820152606401620003a7565b6000838152600460205260408120905b83811015620005ad576000898281518110620004b657620004b662001942565b6020026020010151905060006001600160a01b0316816001600160a01b031603620005245760405162461bcd60e51b815260206004820152601c60248201527f546f6b656e2063616e6e6f74206265207a65726f2061646472657373000000006044820152606401620003a7565b6001600160a01b03811660009081526020849052604090205460ff1615620005815760405162461bcd60e51b815260206004820152600f60248201526e223ab83634b1b0ba32903a37b5b2b760891b6044820152606401620003a7565b6001600160a01b03166000908152602083905260409020805460ff191660019081179091550162000496565b5060008a8a30604051620005c190620013ea565b620005cf9392919062001958565b604051809103906000f080158015620005ec573d6000803e3d6000fd5b509050806001600160a01b03167fd032ff6c6382452131fc300cbdbc3ac57605de779ebae4d6e422cabb3b611a728c8c6040516200062c9291906200199a565b60405180910390a26000600560009054906101000a90046001600160a01b0316828b8b8b306040516200065f90620013f8565b6200067096959493929190620019cc565b604051809103906000f0801580156200068d573d6000803e3d6000fd5b509050806001600160a01b03167f09d75e12e349f79020715b0ea7b2c707e8acf1889b6d6f1337fce7f4e1b9e5c783604051620006cb919062001910565b60405180910390a2604051636817031b60e01b81526001600160a01b03831690636817031b906200070190849060040162001910565b600060405180830381600087803b1580156200071c57600080fd5b505af115801562000731573d6000803e3d6000fd5b505060405163f2fde38b60e01b81526001600160a01b038516925063f2fde38b91506200076390339060040162001910565b600060405180830381600087803b1580156200077e57600080fd5b505af115801562000793573d6000803e3d6000fd5b505060405163f2fde38b60e01b81526001600160a01b038416925063f2fde38b9150620007c590339060040162001910565b600060405180830381600087803b158015620007e057600080fd5b505af1158015620007f5573d6000803e3d6000fd5b50505050816001600160a01b03167f5bd3e5f8aff6329582cb150503b92c8c9616daf7310329846562203673e86ee48260405162000834919062001910565b60405180910390a283546001600160a01b03808316610100026001600160a81b03199283161760019081178755860180549185166001600160a01b031990921691909117905560028501805460ff60a81b1960ff60a01b1933169190931617600160a01b1791909116905560038401620008af888262001ad5565b506001600160a01b0381166000908152600260205260408120805460ff191660019081179091556003805491820181559091527fc2575a0e9e593c00f959f8c92f12db2869c3395a3b0502d05e2516446f71f85b01620009108e8262001ad5565b508c60405162000921919062001924565b60405180910390207f8f1ac2f997af16ef58c5e9368269eeaae904557fd37470989b6180249d2eed9c82846040516200095c929190620018f6565b60405180910390a250505050505050505050505050565b60606000826040516020016200098a919062001924565b604051602081830303815290604052805190602001209050600160008281526020019081526020016000206003018054620009c59062001a46565b80601f0160208091040260200160405190810160405280929190818152602001828054620009f39062001a46565b801562000a445780601f1062000a185761010080835404028352916020019162000a44565b820191906000526020600020905b81548152906001019060200180831162000a2657829003601f168201915b5050505050915050919050565b600062000a5d62001176565b6001600160a01b0316826001600160a01b0316149050919050565b6001602081905260009182526040909120805491810154600282015460038301805460ff808716966001600160a01b036101009091048116969581169590851694600160a01b8104831694600160a81b9091049092169290919062000add9062001a46565b80601f016020809104026020016040519081016040528092919081815260200182805462000b0b9062001a46565b801562000b5c5780601f1062000b305761010080835404028352916020019162000b5c565b820191906000526020600020905b81548152906001019060200180831162000b3e57829003601f168201915b5050505050905087565b62000b7062001337565b60008260405160200162000b85919062001924565b60408051601f1981840301815291815281516020928301206000818152600190935291205490915061010090046001600160a01b031662000bda5760405162461bcd60e51b8152600401620003a79062001ba1565b60008181526001602052604090819020600201805460ff60a81b1916600160a81b851515021790555162000c1090849062001924565b6040519081900381208315158252907f456f620ee57671992bdc01835602b221db112d6ac9c33877a24d268d21b450bf906020015b60405180910390a2505050565b6000808260405160200162000c68919062001924565b60408051808303601f19018152918152815160209283012060009081526001909252902060020154600160a01b900460ff169392505050565b60606003805480602002602001604051908101604052809291908181526020016000905b8282101562000d7b57838290600052602060002001805462000ce79062001a46565b80601f016020809104026020016040519081016040528092919081815260200182805462000d159062001a46565b801562000d665780601f1062000d3a5761010080835404028352916020019162000d66565b820191906000526020600020905b81548152906001019060200180831162000d4857829003601f168201915b50505050508152602001906001019062000cc5565b50505050905090565b6040805160e0810182526000808252602080830182905282840182905260608084018390526080840183905260a0840183905260c084015292519192909162000dd09185910162001924565b60408051601f198184030181528282528051602091820120600081815260018084529084902060e086018552805460ff808216151588526001600160a01b036101009092048216958801959095529181015482169486019490945260028401549081166060860152600160a01b8104831615156080860152600160a81b9004909116151560a084015260038201805491945060c084019162000e729062001a46565b80601f016020809104026020016040519081016040528092919081815260200182805462000ea09062001a46565b801562000ef15780601f1062000ec55761010080835404028352916020019162000ef1565b820191906000526020600020905b81548152906001019060200180831162000ed357829003601f168201915b505050505081525050915050919050565b6003818154811062000f1357600080fd5b90600052602060002001600091509050805462000f309062001a46565b80601f016020809104026020016040519081016040528092919081815260200182805462000f5e9062001a46565b801562000faf5780601f1062000f835761010080835404028352916020019162000faf565b820191906000526020600020905b81548152906001019060200180831162000f9157829003601f168201915b505050505081565b60008060008360405160200162000fcf919062001924565b60408051601f1981840301815282825280516020918201206000818152600180845284822060e087018652805460ff808216151589526001600160a01b036101009092048216968901969096529181015482169587019590955260028501549081166060870152600160a01b8104841615156080870152600160a81b9004909216151560a08501526003830180549195509193929160c0840191620010749062001a46565b80601f0160208091040260200160405190810160405280929190818152602001828054620010a29062001a46565b8015620010f35780601f10620010c757610100808354040283529160200191620010f3565b820191906000526020600020905b815481529060010190602001808311620010d557829003601f168201915b50505050508152505090508060000151620011495760405162461bcd60e51b815260206004820152601560248201527410dbdb5c195d1a5d1a5bdb881b9bdd08199bdd5b99605a1b6044820152606401620003a7565b80602001518160400151935093505050915091565b6200116862001337565b6200117460006200139a565b565b6000546001600160a01b031690565b6200118f62001337565b600082604051602001620011a4919062001924565b60408051601f1981840301815291815281516020928301206000818152600190935291205490915061010090046001600160a01b0316620011f95760405162461bcd60e51b8152600401620003a79062001ba1565b60008181526001602052604090819020600201805460ff60a01b1916600160a01b85151502179055516200122f90849062001924565b6040519081900381208315158252907f69f6ea1141150e1f6bb797204241d236c9e464272178ec6dc477fea9df653f409060200162000c45565b6200127362001337565b6001600160a01b038116620012da5760405162461bcd60e51b815260206004820152602660248201527f4f776e61626c653a206e6577206f776e657220697320746865207a65726f206160448201526564647265737360d01b6064820152608401620003a7565b620012e5816200139a565b50565b60008082604051602001620012fe919062001924565b60408051808303601f19018152918152815160209283012060009081526001909252902060020154600160a81b900460ff169392505050565b336200134262001176565b6001600160a01b031614620011745760405162461bcd60e51b815260206004820181905260248201527f4f776e61626c653a2063616c6c6572206973206e6f7420746865206f776e65726044820152606401620003a7565b600080546001600160a01b038381166001600160a01b0319831681178455604051919092169283917f8be0079c531659141344cd1fd0a4f28419497f9722a3daafe3b4186f6b6457e09190a35050565b611cc18062001bc783390190565b612618806200388883390190565b634e487b7160e01b600052604160045260246000fd5b604051601f8201601f191681016001600160401b038111828210171562001447576200144762001406565b604052919050565b600082601f8301126200146157600080fd5b81356001600160401b038111156200147d576200147d62001406565b62001492601f8201601f19166020016200141c565b818152846020838601011115620014a857600080fd5b816020850160208301376000918101602001919091529392505050565b80356001600160a01b0381168114620014dd57600080fd5b919050565b600082601f830112620014f457600080fd5b813560206001600160401b0382111562001512576200151262001406565b8160051b620015238282016200141c565b92835284810182019282810190878511156200153e57600080fd5b83870192505b8483101562001568576200155883620014c5565b8252918301919083019062001544565b979650505050505050565b600080600080600080600060e0888a0312156200158f57600080fd5b87356001600160401b0380821115620015a757600080fd5b620015b58b838c016200144f565b985060208a0135915080821115620015cc57600080fd5b620015da8b838c016200144f565b975060408a0135915080821115620015f157600080fd5b620015ff8b838c016200144f565b965060608a01359150808211156200161657600080fd5b620016248b838c01620014e2565b95506200163460808b01620014c5565b94506200164460a08b01620014c5565b935060c08a01359150808211156200165b57600080fd5b506200166a8a828b016200144f565b91505092959891949750929550565b6000602082840312156200168c57600080fd5b81356001600160401b03811115620016a357600080fd5b620016b1848285016200144f565b949350505050565b60005b83811015620016d6578181015183820152602001620016bc565b50506000910152565b60008151808452620016f9816020860160208601620016b9565b601f01601f19169290920160200192915050565b602081526000620017226020830184620016df565b9392505050565b6000602082840312156200173c57600080fd5b6200172282620014c5565b6000602082840312156200175a57600080fd5b5035919050565b87151581526001600160a01b038781166020830152868116604083015285166060820152831515608082015282151560a082015260e060c08201819052600090620017af90830184620016df565b9998505050505050505050565b60008060408385031215620017d057600080fd5b82356001600160401b03811115620017e757600080fd5b620017f5858286016200144f565b925050602083013580151581146200180c57600080fd5b809150509250929050565b6000602080830181845280855180835260408601915060408160051b870101925083870160005b828110156200187057603f198886030184526200185d858351620016df565b945092850192908501906001016200183e565b5092979650505050505050565b602081528151151560208201526000602083015160018060a01b03808216604085015280604086015116606085015280606086015116608085015250506080830151151560a083015260a0830151620018da60c084018215159052565b5060c083015160e080840152620016b1610100840182620016df565b6001600160a01b0392831681529116602082015260400190565b6001600160a01b0391909116815260200190565b6000825162001938818460208701620016b9565b9190910192915050565b634e487b7160e01b600052603260045260246000fd5b6060815260006200196d6060830186620016df565b8281036020840152620019818186620016df565b91505060018060a01b0383166040830152949350505050565b604081526000620019af6040830185620016df565b8281036020840152620019c38185620016df565b95945050505050565b600060c0820160018060a01b03808a1684526020818a168186015260c0604086015282895180855260e087019150828b01945060005b8181101562001a2257855185168352948301949183019160010162001a02565b505097821660608601525094851660808401525050911660a0909101529392505050565b600181811c9082168062001a5b57607f821691505b60208210810362001a7c57634e487b7160e01b600052602260045260246000fd5b50919050565b601f82111562001ad057600081815260208120601f850160051c8101602086101562001aab5750805b601f850160051c820191505b8181101562001acc5782815560010162001ab7565b5050505b505050565b81516001600160401b0381111562001af15762001af162001406565b62001b098162001b02845462001a46565b8462001a82565b602080601f83116001811462001b41576000841562001b285750858301515b600019600386901b1c1916600185901b17855562001acc565b600085815260208120601f198616915b8281101562001b725788860151825594840194600190910190840162001b51565b508582101562001b915787850151600019600388901b60f8161c191681555b5050505050600190811b01905550565b6020808252600b908201526a111bdb89dd08195e1a5cdd60aa1b60408201526060019056fe60806040523480156200001157600080fd5b5060405162001cc138038062001cc1833981016040819052620000349162000280565b828260006200004483826200039c565b5060016200005382826200039c565b505050620000706200006a6200008460201b60201c565b62000088565b6200007b81620000da565b50505062000468565b3390565b600680546001600160a01b038381166001600160a01b0319831681179093556040519116919082907f8be0079c531659141344cd1fd0a4f28419497f9722a3daafe3b4186f6b6457e090600090a35050565b620000e46200015d565b6001600160a01b0381166200014f5760405162461bcd60e51b815260206004820152602660248201527f4f776e61626c653a206e6577206f776e657220697320746865207a65726f206160448201526564647265737360d01b60648201526084015b60405180910390fd5b6200015a8162000088565b50565b6006546001600160a01b03163314620001b95760405162461bcd60e51b815260206004820181905260248201527f4f776e61626c653a2063616c6c6572206973206e6f7420746865206f776e6572604482015260640162000146565b565b634e487b7160e01b600052604160045260246000fd5b600082601f830112620001e357600080fd5b81516001600160401b0380821115620002005762000200620001bb565b604051601f8301601f19908116603f011681019082821181831017156200022b576200022b620001bb565b816040528381526020925086838588010111156200024857600080fd5b600091505b838210156200026c57858201830151818301840152908201906200024d565b600093810190920192909252949350505050565b6000806000606084860312156200029657600080fd5b83516001600160401b0380821115620002ae57600080fd5b620002bc87838801620001d1565b94506020860151915080821115620002d357600080fd5b50620002e286828701620001d1565b604086015190935090506001600160a01b03811681146200030257600080fd5b809150509250925092565b600181811c908216806200032257607f821691505b6020821081036200034357634e487b7160e01b600052602260045260246000fd5b50919050565b601f8211156200039757600081815260208120601f850160051c81016020861015620003725750805b601f850160051c820191505b8181101562000393578281556001016200037e565b5050505b505050565b81516001600160401b03811115620003b857620003b8620001bb565b620003d081620003c984546200030d565b8462000349565b602080601f831160018114620004085760008415620003ef5750858301515b600019600386901b1c1916600185901b17855562000393565b600085815260208120601f198616915b82811015620004395788860151825594840194600190910190840162000418565b5085821015620004585787850151600019600388901b60f8161c191681555b5050505050600190811b01905550565b61184980620004786000396000f3fe608060405234801561001057600080fd5b506004361061012d5760003560e01c80636352211e116100b35780636352211e146102445780636817031b1461025757806370a082311461026a578063715018a61461027d5780638da5cb5b1461028557806395d89b4114610296578063a22cb4651461029e578063b88d4fde146102b1578063c87b56dd146102c4578063e985e9c5146102d7578063f2fde38b146102ea578063fbfa77cf146102fd57600080fd5b806301ffc9a71461013257806306fdde031461015a578063081812fc1461016f578063095ea7b31461018f57806318e97fd1146101a457806323b872dd146101b757806330176e13146101ca57806340c10f19146101dd57806342842e0e146101fe57806342966c681461021157806345ef149214610224575b600080fd5b610145610140366004611188565b610310565b60405190151581526020015b60405180910390f35b610162610362565b60405161015191906111f2565b61018261017d366004611205565b6103f4565b604051610151919061121e565b6101a261019d36600461124e565b61041b565b005b6101a26101b2366004611323565b610535565b6101a26101c5366004611369565b6105ec565b6101a26101d83660046113a5565b61061d565b6101f06101eb36600461124e565b610657565b604051908152602001610151565b6101a261020c366004611369565b610733565b6101a261021f366004611205565b61074e565b6101f0610232366004611205565b600a6020526000908152604090205481565b610182610252366004611205565b6107d0565b6101a26102653660046113d9565b610804565b6101f06102783660046113d9565b610881565b6101a2610907565b6006546001600160a01b0316610182565b61016261091b565b6101a26102ac3660046113f4565b61092a565b6101a26102bf366004611430565b610935565b6101626102d2366004611205565b61096d565b6101456102e53660046114ab565b610a27565b6101a26102f83660046113d9565b610a55565b600854610182906001600160a01b031681565b60006001600160e01b031982166380ac58cd60e01b148061034157506001600160e01b03198216635b5e139f60e01b145b8061035c57506301ffc9a760e01b6001600160e01b03198316145b92915050565b606060008054610371906114de565b80601f016020809104026020016040519081016040528092919081815260200182805461039d906114de565b80156103ea5780601f106103bf576101008083540402835291602001916103ea565b820191906000526020600020905b8154815290600101906020018083116103cd57829003601f168201915b5050505050905090565b60006103ff82610ace565b506000908152600460205260409020546001600160a01b031690565b6000610426826107d0565b9050806001600160a01b0316836001600160a01b0316036104985760405162461bcd60e51b815260206004820152602160248201527f4552433732313a20617070726f76616c20746f2063757272656e74206f776e656044820152603960f91b60648201526084015b60405180910390fd5b336001600160a01b03821614806104b457506104b48133610a27565b6105265760405162461bcd60e51b815260206004820152603d60248201527f4552433732313a20617070726f76652063616c6c6572206973206e6f7420746f60448201527f6b656e206f776e6572206f7220617070726f76656420666f7220616c6c000000606482015260840161048f565b6105308383610af3565b505050565b6008546001600160a01b0316331461056057604051638d1af8bd60e01b815260040160405180910390fd5b61056982610b61565b6105865760405163677510db60e11b815260040160405180910390fd5b80516000036105a85760405163683d806b60e11b815260040160405180910390fd5b60096105b48282611566565b506040518281527f99b6625a130bece84ae638867a37db496877cbe0298be0378badecc25e3f3bd69060200160405180910390a15050565b6105f63382610b7e565b6106125760405162461bcd60e51b815260040161048f90611625565b610530838383610bdd565b610625610d2f565b80516000036106475760405163683d806b60e11b815260040160405180910390fd5b60096106538282611566565b5050565b6008546000906001600160a01b0316331461068557604051638d1af8bd60e01b815260040160405180910390fd5b60098054610692906114de565b90506000036106b45760405163683d806b60e11b815260040160405180910390fd5b60006007600081546106c590611672565b918290555090506106d68482610d89565b6000818152600a602090815260409182902085905581518381529081018590526001600160a01b038616917f25b428dfde728ccfaddad7e29e4ac23c24ed7fd1a6e3e3f91894a9a073f5dfff910160405180910390a29392505050565b61053083838360405180602001604052806000815250610935565b6008546001600160a01b0316331461077957604051638d1af8bd60e01b815260040160405180910390fd5b61078281610e84565b6000818152600a602052604080822091909155517fd83c63197e8e676d80ab0122beba9a9d20f3828839e9a1d6fe81d242e9cd7e6e906107c59083815260200190565b60405180910390a150565b6000806107dc83610f07565b90506001600160a01b03811661035c5760405162461bcd60e51b815260040161048f90611699565b61080c610d2f565b6008546001600160a01b03161561083657604051631bb0ddfb60e01b815260040160405180910390fd5b600880546001600160a01b0319166001600160a01b0383161790556040517feb56c5da6c441cb18f0e315a1a54550779c720de36a46e44108dbf5304e0bfc4906107c590839061121e565b60006001600160a01b0382166108eb5760405162461bcd60e51b815260206004820152602960248201527f4552433732313a2061646472657373207a65726f206973206e6f7420612076616044820152683634b21037bbb732b960b91b606482015260840161048f565b506001600160a01b031660009081526003602052604090205490565b61090f610d2f565b6109196000610f22565b565b606060018054610371906114de565b610653338383610f74565b61093f3383610b7e565b61095b5760405162461bcd60e51b815260040161048f90611625565b6109678484848461103e565b50505050565b606061097882610b61565b6109955760405163677510db60e11b815260040160405180910390fd5b600980546109a2906114de565b80601f01602080910402602001604051908101604052809291908181526020018280546109ce906114de565b8015610a1b5780601f106109f057610100808354040283529160200191610a1b565b820191906000526020600020905b8154815290600101906020018083116109fe57829003601f168201915b50505050509050919050565b6001600160a01b03918216600090815260056020908152604080832093909416825291909152205460ff1690565b610a5d610d2f565b6001600160a01b038116610ac25760405162461bcd60e51b815260206004820152602660248201527f4f776e61626c653a206e6577206f776e657220697320746865207a65726f206160448201526564647265737360d01b606482015260840161048f565b610acb81610f22565b50565b610ad781610b61565b610acb5760405162461bcd60e51b815260040161048f90611699565b600081815260046020526040902080546001600160a01b0319166001600160a01b0384169081179091558190610b28826107d0565b6001600160a01b03167f8c5be1e5ebec7d5bd14f71427d1e84f3dd0314c0f7b2291e5b200ac8c7c3b92560405160405180910390a45050565b600080610b6d83610f07565b6001600160a01b0316141592915050565b600080610b8a836107d0565b9050806001600160a01b0316846001600160a01b03161480610bb15750610bb18185610a27565b80610bd55750836001600160a01b0316610bca846103f4565b6001600160a01b0316145b949350505050565b826001600160a01b0316610bf0826107d0565b6001600160a01b031614610c165760405162461bcd60e51b815260040161048f906116cb565b6001600160a01b038216610c785760405162461bcd60e51b8152602060048201526024808201527f4552433732313a207472616e7366657220746f20746865207a65726f206164646044820152637265737360e01b606482015260840161048f565b826001600160a01b0316610c8b826107d0565b6001600160a01b031614610cb15760405162461bcd60e51b815260040161048f906116cb565b600081815260046020908152604080832080546001600160a01b03199081169091556001600160a01b0387811680865260038552838620805460001901905590871680865283862080546001019055868652600290945282852080549092168417909155905184936000805160206117f483398151915291a4505050565b6006546001600160a01b031633146109195760405162461bcd60e51b815260206004820181905260248201527f4f776e61626c653a2063616c6c6572206973206e6f7420746865206f776e6572604482015260640161048f565b6001600160a01b038216610ddf5760405162461bcd60e51b815260206004820181905260248201527f4552433732313a206d696e7420746f20746865207a65726f2061646472657373604482015260640161048f565b610de881610b61565b15610e055760405162461bcd60e51b815260040161048f90611710565b610e0e81610b61565b15610e2b5760405162461bcd60e51b815260040161048f90611710565b6001600160a01b038216600081815260036020908152604080832080546001019055848352600290915280822080546001600160a01b0319168417905551839291906000805160206117f4833981519152908290a45050565b6000610e8f826107d0565b9050610e9a826107d0565b600083815260046020908152604080832080546001600160a01b03199081169091556001600160a01b0385168085526003845282852080546000190190558785526002909352818420805490911690555192935084926000805160206117f4833981519152908390a45050565b6000908152600260205260409020546001600160a01b031690565b600680546001600160a01b038381166001600160a01b0319831681179093556040519116919082907f8be0079c531659141344cd1fd0a4f28419497f9722a3daafe3b4186f6b6457e090600090a35050565b816001600160a01b0316836001600160a01b031603610fd15760405162461bcd60e51b815260206004820152601960248201527822a9219b99189d1030b8383937bb32903a379031b0b63632b960391b604482015260640161048f565b6001600160a01b03838116600081815260056020908152604080832094871680845294825291829020805460ff191686151590811790915591519182527f17307eab39ab6107e8899845ad3d59bd9653f200f220920489ca2b5937696c31910160405180910390a3505050565b611049848484610bdd565b61105584848484611071565b6109675760405162461bcd60e51b815260040161048f90611747565b60006001600160a01b0384163b1561116757604051630a85bd0160e11b81526001600160a01b0385169063150b7a02906110b5903390899088908890600401611799565b6020604051808303816000875af19250505080156110f0575060408051601f3d908101601f191682019092526110ed918101906117d6565b60015b61114d573d80801561111e576040519150601f19603f3d011682016040523d82523d6000602084013e611123565b606091505b5080516000036111455760405162461bcd60e51b815260040161048f90611747565b805181602001fd5b6001600160e01b031916630a85bd0160e11b149050610bd5565b506001949350505050565b6001600160e01b031981168114610acb57600080fd5b60006020828403121561119a57600080fd5b81356111a581611172565b9392505050565b6000815180845260005b818110156111d2576020818501810151868301820152016111b6565b506000602082860101526020601f19601f83011685010191505092915050565b6020815260006111a560208301846111ac565b60006020828403121561121757600080fd5b5035919050565b6001600160a01b0391909116815260200190565b80356001600160a01b038116811461124957600080fd5b919050565b6000806040838503121561126157600080fd5b61126a83611232565b946020939093013593505050565b634e487b7160e01b600052604160045260246000fd5b60006001600160401b03808411156112a8576112a8611278565b604051601f8501601f19908116603f011681019082821181831017156112d0576112d0611278565b816040528093508581528686860111156112e957600080fd5b858560208301376000602087830101525050509392505050565b600082601f83011261131457600080fd5b6111a58383356020850161128e565b6000806040838503121561133657600080fd5b8235915060208301356001600160401b0381111561135357600080fd5b61135f85828601611303565b9150509250929050565b60008060006060848603121561137e57600080fd5b61138784611232565b925061139560208501611232565b9150604084013590509250925092565b6000602082840312156113b757600080fd5b81356001600160401b038111156113cd57600080fd5b610bd584828501611303565b6000602082840312156113eb57600080fd5b6111a582611232565b6000806040838503121561140757600080fd5b61141083611232565b91506020830135801515811461142557600080fd5b809150509250929050565b6000806000806080858703121561144657600080fd5b61144f85611232565b935061145d60208601611232565b92506040850135915060608501356001600160401b0381111561147f57600080fd5b8501601f8101871361149057600080fd5b61149f8782356020840161128e565b91505092959194509250565b600080604083850312156114be57600080fd5b6114c783611232565b91506114d560208401611232565b90509250929050565b600181811c908216806114f257607f821691505b60208210810361151257634e487b7160e01b600052602260045260246000fd5b50919050565b601f82111561053057600081815260208120601f850160051c8101602086101561153f5750805b601f850160051c820191505b8181101561155e5782815560010161154b565b505050505050565b81516001600160401b0381111561157f5761157f611278565b6115938161158d84546114de565b84611518565b602080601f8311600181146115c857600084156115b05750858301515b600019600386901b1c1916600185901b17855561155e565b600085815260208120601f198616915b828110156115f7578886015182559484019460019091019084016115d8565b50858210156116155787850151600019600388901b60f8161c191681555b5050505050600190811b01905550565b6020808252602d908201527f4552433732313a2063616c6c6572206973206e6f7420746f6b656e206f776e6560408201526c1c881bdc88185c1c1c9bdd9959609a1b606082015260800190565b60006001820161169257634e487b7160e01b600052601160045260246000fd5b5060010190565b602080825260189082015277115490cdcc8c4e881a5b9d985b1a59081d1bdad95b88125160421b604082015260600190565b60208082526025908201527f4552433732313a207472616e736665722066726f6d20696e636f72726563742060408201526437bbb732b960d91b606082015260800190565b6020808252601c908201527f4552433732313a20746f6b656e20616c7265616479206d696e74656400000000604082015260600190565b60208082526032908201527f4552433732313a207472616e7366657220746f206e6f6e20455243373231526560408201527131b2b4bb32b91034b6b83632b6b2b73a32b960711b606082015260800190565b6001600160a01b03858116825284166020820152604081018390526080606082018190526000906117cc908301846111ac565b9695505050505050565b6000602082840312156117e857600080fd5b81516111a58161117256feddf252ad1be2c89b69c2b068fc378daa952ba7f163c4a11628f55a4df523b3efa2646970667358221220fa8bd0dcd0869fd5e3d3f637e702770550653baf94fd51fae7cd7795eb95574364736f6c6343000815003360c06040526004805462ffffff60a01b1916600160a81b1790553480156200002657600080fd5b5060405162002618380380620026188339810160408190526200004991620002f5565b6200005433620001f1565b600180556001600160a01b0386166200009e5760405162461bcd60e51b8152602060048201526007602482015266125b9d985b1a5960ca1b60448201526064015b60405180910390fd5b6001600160a01b038316620000e05760405162461bcd60e51b8152602060048201526007602482015266125b9d985b1a5960ca1b604482015260640162000095565b6001600160a01b038116620001225760405162461bcd60e51b8152602060048201526007602482015266125b9d985b1a5960ca1b604482015260640162000095565b6001600160a01b038216620001645760405162461bcd60e51b8152602060048201526007602482015266125b9d985b1a5960ca1b604482015260640162000095565b600280546001600160a01b038088166001600160a01b0319928316179092556003805489841690831617905584821660805283821660a05260048054928416929091169190911790558351620001c290600590602087019062000241565b506001600160a01b03166000908152600860205260409020805460ff1916600117905550620004269350505050565b600080546001600160a01b038381166001600160a01b0319831681178455604051919092169283917f8be0079c531659141344cd1fd0a4f28419497f9722a3daafe3b4186f6b6457e09190a35050565b82805482825590600052602060002090810192821562000299579160200282015b828111156200029957825182546001600160a01b0319166001600160a01b0390911617825560209092019160019091019062000262565b50620002a7929150620002ab565b5090565b5b80821115620002a75760008155600101620002ac565b80516001600160a01b0381168114620002da57600080fd5b919050565b634e487b7160e01b600052604160045260246000fd5b60008060008060008060c087890312156200030f57600080fd5b6200031a87620002c2565b955060206200032b818901620002c2565b60408901519096506001600160401b03808211156200034957600080fd5b818a0191508a601f8301126200035e57600080fd5b815181811115620003735762000373620002df565b8060051b604051601f19603f830116810181811085821117156200039b576200039b620002df565b60405291825284820192508381018501918d831115620003ba57600080fd5b938501935b82851015620003e357620003d385620002c2565b84529385019392850192620003bf565b809950505050505050620003fa60608801620002c2565b92506200040a60808801620002c2565b91506200041a60a08801620002c2565b90509295509295509295565b60805160a05161219462000484600039600081816104a501528181610ac2015281816110cd015281816111790152818161122001526112960152600081816103d7015281816107b70152818161179a015261182f01526121946000f3fe60806040526004361061017c5760003560e01c8063715018a6116100d2578063715018a61461039b5780637de25613146103b057806381e18b47146103c55780638da5cb5b146103f9578063a0c39e071461040e578063a13d6bb51461042e578063a7771ea51461044e578063b18f19f01461047e578063c2f9219214610493578063c45a0155146104c7578063cf411d67146104e7578063db006a7514610507578063f029ba6f14610527578063f2fde38b14610548578063f56e9c6614610568578063f80eca221461058857600080fd5b8063021876691461018857806307ce35d9146101be57806317342ea7146101c85780631d28e0031461020357806324d7806c146102345780632e91ec7614610254578063429b62e5146102745780634b0bddd2146102a45780635216aeec146102c4578063549c4627146102da57806355b8fb81146102fb57806358e87b231461031b5780635bf8633a1461033b5780636f75be9a1461035b5780636ff1c9bc1461037b57600080fd5b3661018357005b600080fd5b34801561019457600080fd5b506003546101a8906001600160a01b031681565b6040516101b59190611ca2565b60405180910390f35b6101c661059d565b005b3480156101d457600080fd5b506101f56101e3366004611cb6565b60076020526000908152604090205481565b6040519081526020016101b5565b34801561020f57600080fd5b5060045461022490600160a01b900460ff1681565b60405190151581526020016101b5565b34801561024057600080fd5b5061022461024f366004611ce4565b6109e9565b34801561026057600080fd5b506101c661026f366004611d53565b610a2e565b34801561028057600080fd5b5061022461028f366004611ce4565b60086020526000908152604090205460ff1681565b3480156102b057600080fd5b506101c66102bf366004611da2565b610b5c565b3480156102d057600080fd5b506101f560065481565b3480156102e657600080fd5b5060045461022490600160a81b900460ff1681565b34801561030757600080fd5b506101c6610316366004611ddb565b610bc3565b34801561032757600080fd5b506101c6610336366004611e1c565b610d65565b34801561034757600080fd5b506002546101a8906001600160a01b031681565b34801561036757600080fd5b506101a8610376366004611cb6565b610e0f565b34801561038757600080fd5b506101c6610396366004611ce4565b610e39565b3480156103a757600080fd5b506101c6610f12565b3480156103bc57600080fd5b50610224610f24565b3480156103d157600080fd5b506101a87f000000000000000000000000000000000000000000000000000000000000000081565b34801561040557600080fd5b506101a8610f4e565b34801561041a57600080fd5b506101c6610429366004611d53565b610f5d565b34801561043a57600080fd5b506101c6610449366004611e39565b611039565b34801561045a57600080fd5b50610224610469366004611cb6565b60096020526000908152604090205460ff1681565b34801561048a57600080fd5b5061022461141e565b34801561049f57600080fd5b506101a87f000000000000000000000000000000000000000000000000000000000000000081565b3480156104d357600080fd5b506004546101a8906001600160a01b031681565b3480156104f357600080fd5b506101c6610502366004611e1c565b611447565b34801561051357600080fd5b506101c6610522366004611cb6565b6114e6565b34801561053357600080fd5b5060045461022490600160b01b900460ff1681565b34801561055457600080fd5b506101c6610563366004611ce4565b61198a565b34801561057457600080fd5b506101c6610583366004611ce4565b611a00565b34801561059457600080fd5b506101c6611a92565b6105a5611b22565b600454600160a01b900460ff16156105f85760405162461bcd60e51b815260206004820152601160248201527010dbdb5c195d1a5d1a5bdb88195b991959607a1b60448201526064015b60405180910390fd5b600454600160a81b900460ff166106435760405162461bcd60e51b815260206004820152600f60248201526e11195c1bdcda5d1cc818db1bdcd959608a1b60448201526064016105ef565b60055461067e5760405162461bcd60e51b81526020600482015260096024820152684e6f20746f6b656e7360b81b60448201526064016105ef565b600034116106b35760405162461bcd60e51b81526020600482015260026024820152614e6f60f01b60448201526064016105ef565b6002546040516340c10f1960e01b81526001600160a01b039091169060009082906340c10f19906106ea9033903490600401611ebf565b6020604051808303816000875af1158015610709573d6000803e3d6000fd5b505050506040513d601f19601f8201168201806040525081019061072d9190611ed8565b905034600760008381526020019081526020016000208190555034600660008282546107599190611f07565b90915550506005546000906001600160401b0381111561077b5761077b611f1a565b6040519080825280602002602001820160405280156107a4578160200160208202803683370190505b5090506000805b600554811015610887577f00000000000000000000000000000000000000000000000000000000000000006001600160a01b0316600582815481106107f2576107f2611f30565b6000918252602090912001546001600160a01b031614610875576005818154811061081f5761081f611f30565b9060005260206000200160009054906101000a90046001600160a01b031683838151811061084f5761084f611f30565b6001600160a01b03909216602092830291909101909101528161087181611f46565b9250505b8061087f81611f46565b9150506107ab565b50801561099f576000816001600160401b038111156108a8576108a8611f1a565b6040519080825280602002602001820160405280156108d1578160200160208202803683370190505b50905060005b82811015610935578381815181106108f1576108f1611f30565b602002602001015182828151811061090b5761090b611f30565b6001600160a01b03909216602092830291909101909101528061092d81611f46565b9150506108d7565b5060035460405163102368fd60e01b81526001600160a01b039091169063102368fd90349061096b908590600090600401611f5f565b6000604051808303818588803b15801561098457600080fd5b505af1158015610998573d6000803e3d6000fd5b5050505050505b604080513481526020810185905233917f73a19dd210f1a7f902193214c0ee91dd35ee5b4d920cba8d519eca65a7b488ca910160405180910390a2505050506109e760018055565b565b6001600160a01b03811660009081526008602052604081205460ff1680610a285750610a13610f4e565b6001600160a01b0316826001600160a01b0316145b92915050565b3360009081526008602052604090205460ff1680610a645750610a4f610f4e565b6001600160a01b0316336001600160a01b0316145b610a805760405162461bcd60e51b81526004016105ef90611fb0565b60005b81811015610b5757828282818110610a9d57610a9d611f30565b9050602002016020810190610ab29190611ce4565b6001600160a01b031663095ea7b37f00000000000000000000000000000000000000000000000000000000000000006000196040518363ffffffff1660e01b8152600401610b01929190611ebf565b6020604051808303816000875af1158015610b20573d6000803e3d6000fd5b505050506040513d601f19601f82011682018060405250810190610b449190611fd3565b5080610b4f81611f46565b915050610a83565b505050565b610b64611b7b565b6001600160a01b038216600081815260086020908152604091829020805460ff191685151590811790915591519182527f235bc17e7930760029e9f4d860a2a8089976de5b381cf8380fc11c1d88a11133910160405180910390a25050565b610bcb611b7b565b610bd3611b22565b6001600160a01b038316610bf95760405162461bcd60e51b81526004016105ef90611ff0565b6001600160a01b038216610c1f5760405162461bcd60e51b81526004016105ef90611ff0565b60008111610c595760405162461bcd60e51b815260206004820152600760248201526604d757374203e360cc1b60448201526064016105ef565b60405163a9059cbb60e01b81526000906001600160a01b0385169063a9059cbb90610c8a9086908690600401611ebf565b6020604051808303816000875af1158015610ca9573d6000803e3d6000fd5b505050506040513d601f19601f82011682018060405250810190610ccd9190611fd3565b905080610d0e5760405162461bcd60e51b815260206004820152600f60248201526e151c985b9cd9995c8819985a5b1959608a1b60448201526064016105ef565b826001600160a01b0316846001600160a01b03167ff2d30170fe63ab71dafa0e3f7c4880738a8b0efc5277f5d999413526030b228f84604051610d5391815260200190565b60405180910390a350610b5760018055565b3360009081526008602052604090205460ff1680610d9b5750610d86610f4e565b6001600160a01b0316336001600160a01b0316145b610db75760405162461bcd60e51b81526004016105ef90611fb0565b60048054821515600160a81b0260ff60a81b199091161790556040517f8d3d8e4541c6b3368eb82d7b621f414931cb65410379efff5908345fc1366b0c90610e0490831515815260200190565b60405180910390a150565b60058181548110610e1f57600080fd5b6000918252602090912001546001600160a01b0316905081565b3360009081526008602052604090205460ff1680610e6f5750610e5a610f4e565b6001600160a01b0316336001600160a01b0316145b610e8b5760405162461bcd60e51b81526004016105ef90611fb0565b610e93611b22565b60405147906001600160a01b0383169082156108fc029083906000818181858888f19350505050158015610ecb573d6000803e3d6000fd5b507f5fafa99d0643513820be26656b45130b01e1c03062e1266bf36f88cbd3bd96958282604051610efd929190611ebf565b60405180910390a150610f0f60018055565b50565b610f1a611b7b565b6109e76000611bda565b600454600090600160b01b900460ff168015610f495750600454600160a01b900460ff165b905090565b6000546001600160a01b031690565b3360009081526008602052604090205460ff1680610f935750610f7e610f4e565b6001600160a01b0316336001600160a01b0316145b610faf5760405162461bcd60e51b81526004016105ef90611fb0565b80610fef5760405162461bcd60e51b815260206004820152601060248201526f115b5c1d1e481d1bdad95b881b1a5cdd60821b60448201526064016105ef565b610ffb60058383611c2a565b507f3ca096a4c913a6f222a557151d17832dddab787e6ddf59063cab45e15b9a9fac828260405161102d92919061205a565b60405180910390a15050565b3360009081526008602052604090205460ff168061106f575061105a610f4e565b6001600160a01b0316336001600160a01b0316145b61108b5760405162461bcd60e51b81526004016105ef90611fb0565b60028410156110cb5760405162461bcd60e51b815260206004820152600c60248201526b092dcecc2d8d2c840e0c2e8d60a31b60448201526064016105ef565b7f00000000000000000000000000000000000000000000000000000000000000006001600160a01b03166111325760405162461bcd60e51b815260206004820152600e60248201526d149bdd5d195c881b9bdd081cd95d60921b60448201526064016105ef565b60008585600081811061114757611147611f30565b905060200201602081019061115c9190611ce4565b604051636eb1769f60e11b81523060048201526001600160a01b037f00000000000000000000000000000000000000000000000000000000000000008116602483015291925060009183169063dd62ed3e90604401602060405180830381865afa1580156111ce573d6000803e3d6000fd5b505050506040513d601f19601f820116820180604052508101906111f29190611ed8565b9050888110156112915760405163095ea7b360e01b81526001600160a01b0383169063095ea7b39061124c907f00000000000000000000000000000000000000000000000000000000000000009060001990600401611ebf565b6020604051808303816000875af115801561126b573d6000803e3d6000fd5b505050506040513d601f19601f8201168201806040525081019061128f9190611fd3565b505b6000807f00000000000000000000000000000000000000000000000000000000000000006001600160a01b03168b8b8b8b8b8b308c6040516024016112dd989796959493929190612076565b60408051601f198184030181529181526020820180516001600160e01b03166396f9189960e01b1790525161131291906120c6565b6000604051808303816000865af19150503d806000811461134f576040519150601f19603f3d011682016040523d82523d6000602084013e611354565b606091505b50915091508161136657805160208201fd5b7fb3fd459f9d0f4577bb8b2eabe587f5c7514c0c717f513ab7fd5d09fbbb7e97188989600081811061139a5761139a611f30565b90506020020160208101906113af9190611ce4565b8a8a6113bc6001826120f5565b8181106113cb576113cb611f30565b90506020020160208101906113e09190611ce4565b604080516001600160a01b03938416815292909116602083015281018d9052606081018c905260800160405180910390a15050505050505050505050565b600454600090600160a81b900460ff168015610f49575050600454600160a01b900460ff161590565b3360009081526008602052604090205460ff168061147d5750611468610f4e565b6001600160a01b0316336001600160a01b0316145b6114995760405162461bcd60e51b81526004016105ef90611fb0565b60048054821515600160b01b0260ff60b01b199091161790556040517fb627915892a42adaab1d9378da4b9064b25562944209582d03a3dd0a6332326090610e0490831515815260200190565b6114ee611b22565b600454600160a01b900460ff1661153f5760405162461bcd60e51b815260206004820152601560248201527410dbdb5c195d1a5d1a5bdb881b9bdd08195b991959605a1b60448201526064016105ef565b600454600160b01b900460ff166115815760405162461bcd60e51b815260206004820152600660248201526510db1bdcd95960d21b60448201526064016105ef565b6002546040516331a9108f60e11b8152600481018390526001600160a01b039091169033908290636352211e90602401602060405180830381865afa1580156115ce573d6000803e3d6000fd5b505050506040513d601f19601f820116820180604052508101906115f29190612108565b6001600160a01b03161461163a5760405162461bcd60e51b815260206004820152600f60248201526e2737ba103a37b5b2b71037bbb732b960891b60448201526064016105ef565b60008281526009602052604090205460ff16156116845760405162461bcd60e51b815260206004820152600860248201526714995919595b595960c21b60448201526064016105ef565b600082815260076020526040902054806116cd5760405162461bcd60e51b815260206004820152600a6024820152690c081a5b9d995cdd195960b21b60448201526064016105ef565b60006006541161170e5760405162461bcd60e51b815260206004820152600c60248201526b4e6f2072656d61696e696e6760a01b60448201526064016105ef565b60008381526009602052604090819020805460ff1916600117905551630852cd8d60e31b8152600481018490526001600160a01b038316906342966c6890602401600060405180830381600087803b15801561176957600080fd5b505af115801561177d573d6000803e3d6000fd5b50506040516370a0823160e01b8152600092506001600160a01b037f00000000000000000000000000000000000000000000000000000000000000001691506370a08231906117d0903090600401611ca2565b602060405180830381865afa1580156117ed573d6000803e3d6000fd5b505050506040513d601f19601f820116820180604052508101906118119190611ed8565b9050801561189457604051632e1a7d4d60e01b8152600481018290527f00000000000000000000000000000000000000000000000000000000000000006001600160a01b031690632e1a7d4d90602401600060405180830381600087803b15801561187b57600080fd5b505af115801561188f573d6000803e3d6000fd5b505050505b60065447906000906118a68584612125565b6118b0919061213c565b905083600660008282546118c491906120f5565b90915550600090508482116118da5760006118e4565b6118e485836120f5565b9050600060646118f5836014612125565b6118ff919061213c565b9050600061190d82856120f5565b604051909150339082156108fc029083906000818181858888f1935050505015801561193d573d6000803e3d6000fd5b5060408051858152602081018b905233917ff3a670cd3af7d64b488926880889d08a8585a138ff455227af6737339a1ec262910160405180910390a25050505050505050610f0f60018055565b611992611b7b565b6001600160a01b0381166119f75760405162461bcd60e51b815260206004820152602660248201527f4f776e61626c653a206e6577206f776e657220697320746865207a65726f206160448201526564647265737360d01b60648201526084016105ef565b610f0f81611bda565b611a08611b7b565b6002546001600160a01b031615611a4a5760405162461bcd60e51b81526020600482015260066024820152651391951cd95d60d21b60448201526064016105ef565b6001600160a01b038116611a705760405162461bcd60e51b81526004016105ef90611ff0565b600280546001600160a01b0319166001600160a01b0392909216919091179055565b3360009081526008602052604090205460ff1680611ac85750611ab3610f4e565b6001600160a01b0316336001600160a01b0316145b611ae45760405162461bcd60e51b81526004016105ef90611fb0565b6004805460ff60a01b1916600160a01b1790556040517fad7f2119f32a4d4ea449e8ddbaa29f3bc7880556916b566b102255064cb1c21d90600090a1565b600260015403611b745760405162461bcd60e51b815260206004820152601f60248201527f5265656e7472616e637947756172643a207265656e7472616e742063616c6c0060448201526064016105ef565b6002600155565b33611b84610f4e565b6001600160a01b0316146109e75760405162461bcd60e51b815260206004820181905260248201527f4f776e61626c653a2063616c6c6572206973206e6f7420746865206f776e657260448201526064016105ef565b600080546001600160a01b038381166001600160a01b0319831681178455604051919092169283917f8be0079c531659141344cd1fd0a4f28419497f9722a3daafe3b4186f6b6457e09190a35050565b828054828255906000526020600020908101928215611c7d579160200282015b82811115611c7d5781546001600160a01b0319166001600160a01b03843516178255602090920191600190910190611c4a565b50611c89929150611c8d565b5090565b5b80821115611c895760008155600101611c8e565b6001600160a01b0391909116815260200190565b600060208284031215611cc857600080fd5b5035919050565b6001600160a01b0381168114610f0f57600080fd5b600060208284031215611cf657600080fd5b8135611d0181611ccf565b9392505050565b60008083601f840112611d1a57600080fd5b5081356001600160401b03811115611d3157600080fd5b6020830191508360208260051b8501011115611d4c57600080fd5b9250929050565b60008060208385031215611d6657600080fd5b82356001600160401b03811115611d7c57600080fd5b611d8885828601611d08565b90969095509350505050565b8015158114610f0f57600080fd5b60008060408385031215611db557600080fd5b8235611dc081611ccf565b91506020830135611dd081611d94565b809150509250929050565b600080600060608486031215611df057600080fd5b8335611dfb81611ccf565b92506020840135611e0b81611ccf565b929592945050506040919091013590565b600060208284031215611e2e57600080fd5b8135611d0181611d94565b600080600080600080600060c0888a031215611e5457600080fd5b873596506020880135955060408801356001600160401b03811115611e7857600080fd5b611e848a828b01611d08565b9096509450506060880135611e9881611d94565b92506080880135611ea881611d94565b8092505060a0880135905092959891949750929550565b6001600160a01b03929092168252602082015260400190565b600060208284031215611eea57600080fd5b5051919050565b634e487b7160e01b600052601160045260246000fd5b80820180821115610a2857610a28611ef1565b634e487b7160e01b600052604160045260246000fd5b634e487b7160e01b600052603260045260246000fd5b600060018201611f5857611f58611ef1565b5060010190565b604080825283519082018190526000906020906060840190828701845b82811015611fa15781516001600160a01b031684529284019290840190600101611f7c565b50505092019290925292915050565b6020808252600990820152682737ba1030b236b4b760b91b604082015260600190565b600060208284031215611fe557600080fd5b8151611d0181611d94565b602080825260079082015266125b9d985b1a5960ca1b604082015260600190565b8183526000602080850194508260005b8581101561204f57813561203481611ccf565b6001600160a01b031687529582019590820190600101612021565b509495945050505050565b60208152600061206e602083018486612011565b949350505050565b88815287602082015260e06040820152600061209660e08301888a612011565b95151560608301525092151560808401526001600160a01b039190911660a083015260c090910152949350505050565b6000825160005b818110156120e757602081860181015185830152016120cd565b506000920191825250919050565b81810381811115610a2857610a28611ef1565b60006020828403121561211a57600080fd5b8151611d0181611ccf565b8082028115828204841417610a2857610a28611ef1565b60008261215957634e487b7160e01b600052601260045260246000fd5b50049056fea2646970667358221220ad440f0a5164a818a015ca318a5b6ac281ac911e0e8c68053251011343ca38f464736f6c63430008150033a2646970667358221220fcee49f1febecd457942c40021272bba4961595d960921da32630271f84c842964736f6c63430008150033",
  "linkReferences": {},
  "deployedLinkReferences": {}
}