{
  "_format": "hh-sol-artifact-1",
  "contractName": "CompetitionFactory",
  "sourceName": "contracts/core/CompetitionFactory.sol",
  "abi": [
    {
      "inputs": [
        {
          "internalType": "address",
          "name": "_batchCHZBuyer",
          "type": "address"
        }
      ],
      "stateMutability": "nonpayable",
      "type": "constructor"
    },
    {
      "inputs": [
        {
          "internalType": "address",
          "name": "owner",
          "type": "address"
        }
      ],
      "name": "OwnableInvalidOwner",
      "type": "error"
    },
    {
      "inputs": [
        {
          "internalType": "address",
          "name": "account",
          "type": "address"
        }
      ],
      "name": "OwnableUnauthorizedAccount",
      "type": "error"
    },
    {
      "anonymous": false,
      "inputs": [
        {
          "indexed": true,
          "internalType": "string",
          "name": "name",
          "type": "string"
        },
        {
          "indexed": false,
          "internalType": "address",
          "name": "vault",
          "type": "address"
        },
        {
          "indexed": false,
          "internalType": "address",
          "name": "nft",
          "type": "address"
        }
      ],
      "name": "CompetitionCreated",
      "type": "event"
    },
    {
      "anonymous": false,
      "inputs": [
        {
          "indexed": true,
          "internalType": "string",
          "name": "competition",
          "type": "string"
        },
        {
          "indexed": false,
          "internalType": "bool",
          "name": "status",
          "type": "bool"
        }
      ],
      "name": "DepositsStatusChanged",
      "type": "event"
    },
    {
      "anonymous": false,
      "inputs": [
        {
          "indexed": true,
          "internalType": "address",
          "name": "nft",
          "type": "address"
        },
        {
          "indexed": false,
          "internalType": "string",
          "name": "name",
          "type": "string"
        },
        {
          "indexed": false,
          "internalType": "string",
          "name": "symbol",
          "type": "string"
        }
      ],
      "name": "NFTDeployed",
      "type": "event"
    },
    {
      "anonymous": false,
      "inputs": [
        {
          "indexed": true,
          "internalType": "address",
          "name": "previousOwner",
          "type": "address"
        },
        {
          "indexed": true,
          "internalType": "address",
          "name": "newOwner",
          "type": "address"
        }
      ],
      "name": "OwnershipTransferred",
      "type": "event"
    },
    {
      "anonymous": false,
      "inputs": [
        {
          "indexed": true,
          "internalType": "string",
          "name": "competition",
          "type": "string"
        },
        {
          "indexed": false,
          "internalType": "bool",
          "name": "status",
          "type": "bool"
        }
      ],
      "name": "RedeemsStatusChanged",
      "type": "event"
    },
    {
      "anonymous": false,
      "inputs": [
        {
          "indexed": true,
          "internalType": "address",
          "name": "vault",
          "type": "address"
        },
        {
          "indexed": false,
          "internalType": "address",
          "name": "nft",
          "type": "address"
        }
      ],
      "name": "VaultDeployed",
      "type": "event"
    },
    {
      "anonymous": false,
      "inputs": [
        {
          "indexed": true,
          "internalType": "address",
          "name": "nft",
          "type": "address"
        },
        {
          "indexed": false,
          "internalType": "address",
          "name": "vault",
          "type": "address"
        }
      ],
      "name": "VaultLinkedToNFT",
      "type": "event"
    },
    {
      "inputs": [
        {
          "internalType": "string",
          "name": "name",
          "type": "string"
        }
      ],
      "name": "areDepositsOpen",
      "outputs": [
        {
          "internalType": "bool",
          "name": "",
          "type": "bool"
        }
      ],
      "stateMutability": "view",
      "type": "function"
    },
    {
      "inputs": [
        {
          "internalType": "string",
          "name": "name",
          "type": "string"
        }
      ],
      "name": "areRedeemsOpen",
      "outputs": [
        {
          "internalType": "bool",
          "name": "",
          "type": "bool"
        }
      ],
      "stateMutability": "view",
      "type": "function"
    },
    {
      "inputs": [],
      "name": "batchCHZBuyer",
      "outputs": [
        {
          "internalType": "address",
          "name": "",
          "type": "address"
        }
      ],
      "stateMutability": "view",
      "type": "function"
    },
    {
      "inputs": [
        {
          "internalType": "uint256",
          "name": "",
          "type": "uint256"
        }
      ],
      "name": "competitionNames",
      "outputs": [
        {
          "internalType": "string",
          "name": "",
          "type": "string"
        }
      ],
      "stateMutability": "view",
      "type": "function"
    },
    {
      "inputs": [
        {
          "internalType": "string",
          "name": "",
          "type": "string"
        }
      ],
      "name": "competitions",
      "outputs": [
        {
          "internalType": "address",
          "name": "vault",
          "type": "address"
        },
        {
          "internalType": "address",
          "name": "nft",
          "type": "address"
        },
        {
          "internalType": "address",
          "name": "creator",
          "type": "address"
        },
        {
          "internalType": "bool",
          "name": "depositsOpen",
          "type": "bool"
        },
        {
          "internalType": "bool",
          "name": "redeemsOpen",
          "type": "bool"
        },
        {
          "internalType": "string",
          "name": "baseURI",
          "type": "string"
        }
      ],
      "stateMutability": "view",
      "type": "function"
    },
    {
      "inputs": [
        {
          "internalType": "string",
          "name": "name",
          "type": "string"
        },
        {
          "internalType": "string",
          "name": "nftName",
          "type": "string"
        },
        {
          "internalType": "string",
          "name": "nftSymbol",
          "type": "string"
        },
        {
          "internalType": "address[]",
          "name": "initialTokens",
          "type": "address[]"
        },
        {
          "internalType": "address",
          "name": "wchz",
          "type": "address"
        },
        {
          "internalType": "address",
          "name": "router",
          "type": "address"
        },
        {
          "internalType": "string",
          "name": "baseURI",
          "type": "string"
        }
      ],
      "name": "createCompetition",
      "outputs": [],
      "stateMutability": "nonpayable",
      "type": "function"
    },
    {
      "inputs": [],
      "name": "getAllCompetitionNames",
      "outputs": [
        {
          "internalType": "string[]",
          "name": "",
          "type": "string[]"
        }
      ],
      "stateMutability": "view",
      "type": "function"
    },
    {
      "inputs": [
        {
          "internalType": "string",
          "name": "name",
          "type": "string"
        }
      ],
      "name": "getBaseURI",
      "outputs": [
        {
          "internalType": "string",
          "name": "",
          "type": "string"
        }
      ],
      "stateMutability": "view",
      "type": "function"
    },
    {
      "inputs": [
        {
          "internalType": "string",
          "name": "name",
          "type": "string"
        }
      ],
      "name": "getCompetition",
      "outputs": [
        {
          "internalType": "address",
          "name": "vault",
          "type": "address"
        },
        {
          "internalType": "address",
          "name": "nft",
          "type": "address"
        }
      ],
      "stateMutability": "view",
      "type": "function"
    },
    {
      "inputs": [
        {
          "internalType": "address",
          "name": "user",
          "type": "address"
        }
      ],
      "name": "isAdmin",
      "outputs": [
        {
          "internalType": "bool",
          "name": "",
          "type": "bool"
        }
      ],
      "stateMutability": "view",
      "type": "function"
    },
    {
      "inputs": [
        {
          "internalType": "address",
          "name": "vaultAddress",
          "type": "address"
        }
      ],
      "name": "isValidVault",
      "outputs": [
        {
          "internalType": "bool",
          "name": "",
          "type": "bool"
        }
      ],
      "stateMutability": "view",
      "type": "function"
    },
    {
      "inputs": [],
      "name": "owner",
      "outputs": [
        {
          "internalType": "address",
          "name": "",
          "type": "address"
        }
      ],
      "stateMutability": "view",
      "type": "function"
    },
    {
      "inputs": [],
      "name": "renounceOwnership",
      "outputs": [],
      "stateMutability": "nonpayable",
      "type": "function"
    },
    {
      "inputs": [
        {
          "internalType": "string",
          "name": "name",
          "type": "string"
        },
        {
          "internalType": "bool",
          "name": "status",
          "type": "bool"
        }
      ],
      "name": "setDepositsOpen",
      "outputs": [],
      "stateMutability": "nonpayable",
      "type": "function"
    },
    {
      "inputs": [
        {
          "internalType": "string",
          "name": "name",
          "type": "string"
        },
        {
          "internalType": "bool",
          "name": "status",
          "type": "bool"
        }
      ],
      "name": "setRedeemsOpen",
      "outputs": [],
      "stateMutability": "nonpayable",
      "type": "function"
    },
    {
      "inputs": [
        {
          "internalType": "address",
          "name": "newOwner",
          "type": "address"
        }
      ],
      "name": "transferOwnership",
      "outputs": [],
      "stateMutability": "nonpayable",
      "type": "function"
    },
    {
      "inputs": [
        {
          "internalType": "address",
          "name": "",
          "type": "address"
        }
      ],
      "name": "validVaults",
      "outputs": [
        {
          "internalType": "bool",
          "name": "",
          "type": "bool"
        }
      ],
      "stateMutability": "view",
      "type": "function"
    }
  ],
  "bytecode": "0x60806040523480156200001157600080fd5b50604051620060f2380380620060f2833981016040819052620000349162000136565b33806200005c57604051631e4fbdf760e01b8152600060048201526024015b60405180910390fd5b6200006781620000e6565b506001600160a01b038116620000c05760405162461bcd60e51b815260206004820152601b60248201527f496e76616c696420626174636820627579657220616464726573730000000000604482015260640162000053565b600480546001600160a01b0319166001600160a01b039290921691909117905562000168565b600080546001600160a01b038381166001600160a01b0319831681178455604051919092169283917f8be0079c531659141344cd1fd0a4f28419497f9722a3daafe3b4186f6b6457e09190a35050565b6000602082840312156200014957600080fd5b81516001600160a01b03811681146200016157600080fd5b9392505050565b615f7a80620001786000396000f3fe60806040523480156200001157600080fd5b5060043610620000ee5760003560e01c806306726cf414620000f357806322904b4a146200010c57806324d7806c146200013b578063258b051d14620001635780632ead2908146200017a5780633788dcd1146200019157806349560f9614620001aa578063610d728a14620001c15780636421945014620001e85780636657fc671462000217578063715018a6146200023d5780638da5cb5b1462000247578063a34a34ab1462000260578063b914f6e41462000274578063ead8b024146200029f578063f2fde38b14620002b6578063f3e6d2bd14620002cd575b600080fd5b6200010a62000104366004620013b6565b620002e4565b005b620001236200011d366004620014bc565b62000a08565b60405162000132919062001550565b60405180910390f35b620001526200014c3660046200156c565b62000ac5565b604051901515815260200162000132565b6200010a620001743660046200158a565b62000aec565b620001526200018b366004620014bc565b62000bda565b6200019b62000c12565b604051620001329190620015e5565b62000123620001bb3660046200164b565b62000cf5565b620001d8620001d2366004620014bc565b62000daa565b6040516200013292919062001665565b62000152620001f93660046200156c565b6001600160a01b031660009081526002602052604090205460ff1690565b62000152620002283660046200156c565b60026020526000908152604090205460ff1681565b6200010a62000f2d565b6200025162000f45565b6040516200013291906200167f565b60045462000251906001600160a01b031681565b6200028b62000285366004620014bc565b62000f54565b604051620001329695949392919062001693565b6200010a620002b03660046200158a565b62001042565b6200010a620002c73660046200156c565b62001129565b62000152620002de366004620014bc565b6200116e565b620002ee620011a6565b60006001600160a01b03166001886040516200030b9190620016e5565b908152604051908190036020019020546001600160a01b031614620003745760405162461bcd60e51b815260206004820152601a602482015279436f6d7065746974696f6e20616c72656164792065786973747360301b60448201526064015b60405180910390fd5b6000845111620003c45760405162461bcd60e51b815260206004820152601a602482015279139bc81a5b9a5d1a585b081d1bdad95b9cc81c1c9bdd9a59195960321b60448201526064016200036b565b6001600160a01b038316620004135760405162461bcd60e51b8152602060048201526014602482015273496e76616c6964205743485a206164647265737360601b60448201526064016200036b565b6001600160a01b038216620004645760405162461bcd60e51b8152602060048201526016602482015275496e76616c696420726f75746572206164647265737360501b60448201526064016200036b565b60005b8451811015620005c65760006001600160a01b031685828151811062000491576200049162001703565b60200260200101516001600160a01b031603620004ea5760405162461bcd60e51b815260206004820152601660248201527516995c9bc81d1bdad95b881b9bdd08185b1b1bddd95960521b60448201526064016200036b565b6000620004f98260016200172f565b90505b8551811015620005b0578581815181106200051b576200051b62001703565b60200260200101516001600160a01b031686838151811062000541576200054162001703565b60200260200101516001600160a01b0316036200059b5760405162461bcd60e51b8152602060048201526017602482015276111d5c1b1a58d85d19481d1bdad95b881a5b881b1a5cdd604a1b60448201526064016200036b565b80620005a7816200174b565b915050620004fc565b5080620005bd816200174b565b91505062000467565b506000868630604051620005da906200122d565b620005e89392919062001767565b604051809103906000f08015801562000605573d6000803e3d6000fd5b509050806001600160a01b03167fd032ff6c6382452131fc300cbdbc3ac57605de779ebae4d6e422cabb3b611a72888860405162000645929190620017a9565b60405180910390a26000600460009054906101000a90046001600160a01b0316828787873060405162000678906200123b565b6200068996959493929190620017db565b604051809103906000f080158015620006a6573d6000803e3d6000fd5b509050806001600160a01b03167f09d75e12e349f79020715b0ea7b2c707e8acf1889b6d6f1337fce7f4e1b9e5c783604051620006e491906200167f565b60405180910390a2604051636817031b60e01b81526001600160a01b03831690636817031b906200071a9084906004016200167f565b600060405180830381600087803b1580156200073557600080fd5b505af11580156200074a573d6000803e3d6000fd5b505060405163f2fde38b60e01b81526001600160a01b038516925063f2fde38b91506200077c9033906004016200167f565b600060405180830381600087803b1580156200079757600080fd5b505af1158015620007ac573d6000803e3d6000fd5b505060405163f2fde38b60e01b81526001600160a01b038416925063f2fde38b9150620007de9033906004016200167f565b600060405180830381600087803b158015620007f957600080fd5b505af11580156200080e573d6000803e3d6000fd5b50505050816001600160a01b03167f5bd3e5f8aff6329582cb150503b92c8c9616daf7310329846562203673e86ee4826040516200084d91906200167f565b60405180910390a26040805160c0810182526001600160a01b0380841682528416602082015233818301526001606082018190526000608083015260a082018690529151909190620008a1908c90620016e5565b9081526040805160209281900383019020835181546001600160a01b03199081166001600160a01b0392831617835593850151600183018054909516908216179093559083015160028201805460608601516080870151939095166001600160a81b031990911617600160a01b941515949094029390931760ff60a81b1916600160a81b911515919091021790915560a08201516003820190620009469082620018f9565b5050506001600160a01b0381166000908152600260205260408120805460ff191660019081179091556003805491820181559091527fc2575a0e9e593c00f959f8c92f12db2869c3395a3b0502d05e2516446f71f85b01620009a98a82620018f9565b5088604051620009ba9190620016e5565b60405180910390207f8f1ac2f997af16ef58c5e9368269eeaae904557fd37470989b6180249d2eed9c8284604051620009f592919062001665565b60405180910390a2505050505050505050565b606060018260405162000a1c9190620016e5565b9081526020016040518091039020600301805462000a3a906200186a565b80601f016020809104026020016040519081016040528092919081815260200182805462000a68906200186a565b801562000ab95780601f1062000a8d5761010080835404028352916020019162000ab9565b820191906000526020600020905b81548152906001019060200180831162000a9b57829003601f168201915b50505050509050919050565b600062000ad162000f45565b6001600160a01b0316826001600160a01b0316149050919050565b62000af6620011a6565b60006001600160a01b031660018360405162000b139190620016e5565b908152604051908190036020019020546001600160a01b03160362000b4c5760405162461bcd60e51b81526004016200036b90620019c5565b8060018360405162000b5f9190620016e5565b9081526040519081900360200181206002018054921515600160a81b0260ff60a81b199093169290921790915562000b99908390620016e5565b6040519081900381208215158252907f456f620ee57671992bdc01835602b221db112d6ac9c33877a24d268d21b450bf906020015b60405180910390a25050565b600060018260405162000bee9190620016e5565b9081526040519081900360200190206002015460ff600160a01b9091041692915050565b60606003805480602002602001604051908101604052809291908181526020016000905b8282101562000cec57838290600052602060002001805462000c58906200186a565b80601f016020809104026020016040519081016040528092919081815260200182805462000c86906200186a565b801562000cd75780601f1062000cab5761010080835404028352916020019162000cd7565b820191906000526020600020905b81548152906001019060200180831162000cb957829003601f168201915b50505050508152602001906001019062000c36565b50505050905090565b6003818154811062000d0657600080fd5b90600052602060002001600091509050805462000d23906200186a565b80601f016020809104026020016040519081016040528092919081815260200182805462000d51906200186a565b801562000da25780601f1062000d765761010080835404028352916020019162000da2565b820191906000526020600020905b81548152906001019060200180831162000d8457829003601f168201915b505050505081565b600080600060018460405162000dc19190620016e5565b90815260408051918290036020908101832060c08401835280546001600160a01b039081168552600182015481169285019290925260028101549182169284019290925260ff600160a01b8204811615156060850152600160a81b909104161515608083015260038101805460a08401919062000e3e906200186a565b80601f016020809104026020016040519081016040528092919081815260200182805462000e6c906200186a565b801562000ebd5780601f1062000e915761010080835404028352916020019162000ebd565b820191906000526020600020905b81548152906001019060200180831162000e9f57829003601f168201915b5050509190925250508151919250506001600160a01b031662000f1b5760405162461bcd60e51b815260206004820152601560248201527410dbdb5c195d1a5d1a5bdb881b9bdd08199bdd5b99605a1b60448201526064016200036b565b80516020909101519094909350915050565b62000f37620011a6565b62000f436000620011dd565b565b6000546001600160a01b031690565b8051808201602090810180516001808352938301929094019190912092905281549082015460028301546003840180546001600160a01b03948516959385169483169360ff600160a01b8504811694600160a81b90041692909162000fb9906200186a565b80601f016020809104026020016040519081016040528092919081815260200182805462000fe7906200186a565b8015620010385780601f106200100c5761010080835404028352916020019162001038565b820191906000526020600020905b8154815290600101906020018083116200101a57829003601f168201915b5050505050905086565b6200104c620011a6565b60006001600160a01b0316600183604051620010699190620016e5565b908152604051908190036020019020546001600160a01b031603620010a25760405162461bcd60e51b81526004016200036b90620019c5565b80600183604051620010b59190620016e5565b9081526040519081900360200181206002018054921515600160a01b0260ff60a01b1990931692909217909155620010ef908390620016e5565b6040519081900381208215158252907f69f6ea1141150e1f6bb797204241d236c9e464272178ec6dc477fea9df653f409060200162000bce565b62001133620011a6565b6001600160a01b03811662001160576000604051631e4fbdf760e01b81526004016200036b91906200167f565b6200116b81620011dd565b50565b6000600182604051620011829190620016e5565b9081526040519081900360200190206002015460ff600160a81b9091041692915050565b33620011b162000f45565b6001600160a01b03161462000f43573360405163118cdaa760e01b81526004016200036b91906200167f565b600080546001600160a01b038381166001600160a01b0319831681178455604051919092169283917f8be0079c531659141344cd1fd0a4f28419497f9722a3daafe3b4186f6b6457e09190a35050565b61200480620019fa83390190565b61254780620039fe83390190565b634e487b7160e01b600052604160045260246000fd5b604051601f8201601f191681016001600160401b03811182821017156200128a576200128a62001249565b604052919050565b600082601f830112620012a457600080fd5b81356001600160401b03811115620012c057620012c062001249565b620012d5601f8201601f19166020016200125f565b818152846020838601011115620012eb57600080fd5b816020850160208301376000918101602001919091529392505050565b80356001600160a01b03811681146200132057600080fd5b919050565b600082601f8301126200133757600080fd5b813560206001600160401b0382111562001355576200135562001249565b8160051b620013668282016200125f565b92835284810182019282810190878511156200138157600080fd5b83870192505b84831015620013ab576200139b8362001308565b8252918301919083019062001387565b979650505050505050565b600080600080600080600060e0888a031215620013d257600080fd5b87356001600160401b0380821115620013ea57600080fd5b620013f88b838c0162001292565b985060208a01359150808211156200140f57600080fd5b6200141d8b838c0162001292565b975060408a01359150808211156200143457600080fd5b620014428b838c0162001292565b965060608a01359150808211156200145957600080fd5b620014678b838c0162001325565b95506200147760808b0162001308565b94506200148760a08b0162001308565b935060c08a01359150808211156200149e57600080fd5b50620014ad8a828b0162001292565b91505092959891949750929550565b600060208284031215620014cf57600080fd5b81356001600160401b03811115620014e657600080fd5b620014f48482850162001292565b949350505050565b60005b8381101562001519578181015183820152602001620014ff565b50506000910152565b600081518084526200153c816020860160208601620014fc565b601f01601f19169290920160200192915050565b60208152600062001565602083018462001522565b9392505050565b6000602082840312156200157f57600080fd5b620015658262001308565b600080604083850312156200159e57600080fd5b82356001600160401b03811115620015b557600080fd5b620015c38582860162001292565b92505060208301358015158114620015da57600080fd5b809150509250929050565b6000602080830181845280855180835260408601915060408160051b870101925083870160005b828110156200163e57603f198886030184526200162b85835162001522565b945092850192908501906001016200160c565b5092979650505050505050565b6000602082840312156200165e57600080fd5b5035919050565b6001600160a01b0392831681529116602082015260400190565b6001600160a01b0391909116815260200190565b6001600160a01b0387811682528681166020830152851660408201528315156060820152821515608082015260c060a08201819052600090620016d99083018462001522565b98975050505050505050565b60008251620016f9818460208701620014fc565b9190910192915050565b634e487b7160e01b600052603260045260246000fd5b634e487b7160e01b600052601160045260246000fd5b8082018082111562001745576200174562001719565b92915050565b60006001820162001760576200176062001719565b5060010190565b6060815260006200177c606083018662001522565b828103602084015262001790818662001522565b91505060018060a01b0383166040830152949350505050565b604081526000620017be604083018562001522565b8281036020840152620017d2818562001522565b95945050505050565b600060c0820160018060a01b03808a1684526020818a168186015260c0604086015282895180855260e087019150828b01945060005b818110156200183157855185168352948301949183019160010162001811565b50509188166060860152506001600160a01b03861660808501529150620018559050565b6001600160a01b03831660a0830152620013ab565b600181811c908216806200187f57607f821691505b602082108103620018a057634e487b7160e01b600052602260045260246000fd5b50919050565b601f821115620018f457600081815260208120601f850160051c81016020861015620018cf5750805b601f850160051c820191505b81811015620018f057828155600101620018db565b5050505b505050565b81516001600160401b0381111562001915576200191562001249565b6200192d816200192684546200186a565b84620018a6565b602080601f8311600181146200196557600084156200194c5750858301515b600019600386901b1c1916600185901b178555620018f0565b600085815260208120601f198616915b82811015620019965788860151825594840194600190910190840162001975565b5085821015620019b55787850151600019600388901b60f8161c191681555b5050505050600190811b01905550565b6020808252601a908201527910dbdb5c195d1a5d1a5bdb88191bd95cc81b9bdd08195e1a5cdd60321b60408201526060019056fe60806040523480156200001157600080fd5b506040516200200438038062002004833981016040819052620000349162000277565b808383600062000045838262000393565b50600162000054828262000393565b5050506001600160a01b0381166200008657604051631e4fbdf760e01b81526000600482015260240160405180910390fd5b6200009181620000cd565b5060408051808201909152600f81526e27232a1031b932b0ba32b210313c9d60891b6020820152620000c490826200011f565b505050620004a5565b600780546001600160a01b038381166001600160a01b0319831681179093556040519116919082907f8be0079c531659141344cd1fd0a4f28419497f9722a3daafe3b4186f6b6457e090600090a35050565b6200016c8282604051602401620001389291906200045f565b60408051601f198184030181529190526020810180516001600160e01b0390811663319af33360e01b179091526200017016565b5050565b62000186816200018960201b62000c001760201c565b50565b60006a636f6e736f6c652e6c6f679050600080835160208501845afa505050565b634e487b7160e01b600052604160045260246000fd5b60005b83811015620001dd578181015183820152602001620001c3565b50506000910152565b600082601f830112620001f857600080fd5b81516001600160401b0380821115620002155762000215620001aa565b604051601f8301601f19908116603f01168101908282118183101715620002405762000240620001aa565b816040528381528660208588010111156200025a57600080fd5b6200026d846020830160208901620001c0565b9695505050505050565b6000806000606084860312156200028d57600080fd5b83516001600160401b0380821115620002a557600080fd5b620002b387838801620001e6565b94506020860151915080821115620002ca57600080fd5b50620002d986828701620001e6565b604086015190935090506001600160a01b0381168114620002f957600080fd5b809150509250925092565b600181811c908216806200031957607f821691505b6020821081036200033a57634e487b7160e01b600052602260045260246000fd5b50919050565b601f8211156200038e57600081815260208120601f850160051c81016020861015620003695750805b601f850160051c820191505b818110156200038a5782815560010162000375565b5050505b505050565b81516001600160401b03811115620003af57620003af620001aa565b620003c781620003c0845462000304565b8462000340565b602080601f831160018114620003ff5760008415620003e65750858301515b600019600386901b1c1916600185901b1785556200038a565b600085815260208120601f198616915b8281101562000430578886015182559484019460019091019084016200040f565b50858210156200044f5787850151600019600388901b60f8161c191681555b5050505050600190811b01905550565b604081526000835180604084015262000480816060850160208801620001c0565b6001600160a01b0393909316602083015250601f91909101601f191601606001919050565b611b4f80620004b56000396000f3fe608060405234801561001057600080fd5b50600436106101595760003560e01c80636352211e116100c95780636352211e146102985780636817031b146102ab57806370a08231146102be578063715018a6146102d15780638d928af8146102d95780638da5cb5b146102ea57806395d89b41146102fb578063a22cb46514610303578063b88d4fde14610316578063c87b56dd14610329578063d547cfb71461033c578063e985e9c514610344578063f2fde38b14610357578063fbfa77cf1461036a57600080fd5b806301ffc9a71461015e57806305e337381461018657806306fdde03146101b4578063081812fc146101c9578063095ea7b3146101e957806318e97fd1146101fe57806323b872dd1461021157806330176e131461022457806340c10f191461023757806342842e0e1461024a57806342966c681461025d57806345ef1492146102705780635618923614610290575b600080fd5b61017161016c3660046114b8565b61037d565b60405190151581526020015b60405180910390f35b6101a66101943660046114d5565b6000908152600b602052604090205490565b60405190815260200161017d565b6101bc6103a8565b60405161017d919061153e565b6101dc6101d73660046114d5565b61043a565b60405161017d9190611551565b6101fc6101f7366004611581565b61044f565b005b6101fc61020c366004611656565b61045e565b6101fc61021f36600461169c565b610551565b6101fc6102323660046116d8565b6105dc565b6101a6610245366004611581565b61064c565b6101fc61025836600461169c565b6107e0565b6101fc61026b3660046114d5565b610800565b6101a661027e3660046114d5565b600b6020526000908152604090205481565b6008546101a6565b6101dc6102a63660046114d5565b610876565b6101fc6102b936600461170c565b610881565b6101a66102cc36600461170c565b610967565b6101fc6109af565b6009546001600160a01b03166101dc565b6007546001600160a01b03166101dc565b6101bc6109c3565b6101fc610311366004611727565b6109d2565b6101fc610324366004611763565b6109dd565b6101bc6103373660046114d5565b6109f5565b6101bc610b06565b6101716103523660046117de565b610b94565b6101fc61036536600461170c565b610bc2565b6009546101dc906001600160a01b031681565b60006001600160e01b03198216632483248360e11b14806103a257506103a282610c21565b92915050565b6060600080546103b790611811565b80601f01602080910402602001604051908101604052809291908181526020018280546103e390611811565b80156104305780601f1061040557610100808354040283529160200191610430565b820191906000526020600020905b81548152906001019060200180831161041357829003601f168201915b5050505050905090565b600061044582610c71565b506103a282610ca9565b61045a828233610cc4565b5050565b6009546001600160a01b031633146104915760405162461bcd60e51b81526004016104889061184b565b60405180910390fd5b600061049c83610cd1565b6001600160a01b0316036104e95760405162461bcd60e51b8152602060048201526014602482015273151bdad95b88191bd95cc81b9bdd08195e1a5cdd60621b6044820152606401610488565b600081511161050a5760405162461bcd60e51b815260040161048890611878565b6105148282610cec565b7f931f495b9a8e5d8e61946ea5d61e021f636cfe213a801f97589c18c152e408bd828260405161054592919061189b565b60405180910390a15050565b6001600160a01b03821661057b576000604051633250574960e11b81526004016104889190611551565b6000610588838333610d35565b9050836001600160a01b0316816001600160a01b0316146105d6576040516364283d7b60e01b81526001600160a01b0380861660048301526024820184905282166044820152606401610488565b50505050565b6105e4610e29565b60008151116106055760405162461bcd60e51b815260040161048890611878565b600a61061182826118fa565b507ff9c7803e94e0d3c02900d8a90893a6d5e90dd04d32a4cfe825520f82bf9f32f681604051610641919061153e565b60405180910390a150565b6009546000906001600160a01b031633146106795760405162461bcd60e51b81526004016104889061184b565b6000600a805461068890611811565b9050116106ca5760405162461bcd60e51b815260206004820152601060248201526f10985cd948155492481b9bdd081cd95d60821b6044820152606401610488565b600880549060006106da836119b9565b90915550506008546106ec8482610e56565b61078081600a80546106fd90611811565b80601f016020809104026020016040519081016040528092919081815260200182805461072990611811565b80156107765780601f1061074b57610100808354040283529160200191610776565b820191906000526020600020905b81548152906001019060200180831161075957829003601f168201915b5050505050610cec565b6000818152600b602052604090819020849055516001600160a01b038516907f01f8bd07e6c27ff813d5c6d3c4bf0313a1d75043cf978214b504b794075e5266906107d19084908790600a906119e0565b60405180910390a29392505050565b6107fb838383604051806020016040528060008152506109dd565b505050565b6009546001600160a01b0316331461082a5760405162461bcd60e51b81526004016104889061184b565b61083381610ebb565b6000818152600b602052604080822091909155517f3c176691ca154a2f6fe978a2a633a33ee77dbe2902e67a75400720845a4b2ce1906106419083815260200190565b60006103a282610c71565b610889610e29565b6009546001600160a01b0316156108d65760405162461bcd60e51b815260206004820152601160248201527015985d5b1d08185b1c9958591e481cd95d607a1b6044820152606401610488565b6001600160a01b03811661091c5760405162461bcd60e51b815260206004820152600d60248201526c125b9d985b1a59081d985d5b1d609a1b6044820152606401610488565b600980546001600160a01b0319166001600160a01b0383161790556040517fe7ae49f883c825b05681b3e00e8be6fdea9ed2a8a45e4c6ecb9390fc44cce61590610641908390611551565b60006001600160a01b0382166109935760006040516322718ad960e21b81526004016104889190611551565b506001600160a01b031660009081526003602052604090205490565b6109b7610e29565b6109c16000610ef6565b565b6060600180546103b790611811565b61045a338383610f48565b6109e8848484610551565b6105d63385858585610fde565b6060610a0082610c71565b5060008281526006602052604081208054610a1a90611811565b80601f0160208091040260200160405190810160405280929190818152602001828054610a4690611811565b8015610a935780601f10610a6857610100808354040283529160200191610a93565b820191906000526020600020905b815481529060010190602001808311610a7657829003601f168201915b505050505090506000610ab160408051602081019091526000815290565b90508051600003610ac3575092915050565b815115610af5578082604051602001610add929190611a7a565b60405160208183030381529060405292505050919050565b610afe846110f7565b949350505050565b600a8054610b1390611811565b80601f0160208091040260200160405190810160405280929190818152602001828054610b3f90611811565b8015610b8c5780601f10610b6157610100808354040283529160200191610b8c565b820191906000526020600020905b815481529060010190602001808311610b6f57829003601f168201915b505050505081565b6001600160a01b03918216600090815260056020908152604080832093909416825291909152205460ff1690565b610bca610e29565b6001600160a01b038116610bf4576000604051631e4fbdf760e01b81526004016104889190611551565b610bfd81610ef6565b50565b60006a636f6e736f6c652e6c6f679050600080835160208501845afa505050565b60006001600160e01b031982166380ac58cd60e01b1480610c5257506001600160e01b03198216635b5e139f60e01b145b806103a257506301ffc9a760e01b6001600160e01b03198316146103a2565b600080610c7d83610cd1565b90506001600160a01b0381166103a257604051637e27328960e01b815260048101849052602401610488565b6000908152600460205260409020546001600160a01b031690565b6107fb838383600161116c565b6000908152600260205260409020546001600160a01b031690565b6000828152600660205260409020610d0482826118fa565b506040518281527ff8e1a15aba9398e019f0b49df1a4fde98ee17ae345cb5f6b5e2c27f5033e8ce790602001610545565b600080610d4184610cd1565b90506001600160a01b03831615610d5d57610d5d818486611269565b6001600160a01b03811615610d9b57610d7a60008560008061116c565b6001600160a01b038116600090815260036020526040902080546000190190555b6001600160a01b03851615610dca576001600160a01b0385166000908152600360205260409020805460010190555b60008481526002602052604080822080546001600160a01b0319166001600160a01b0389811691821790925591518793918516917fddf252ad1be2c89b69c2b068fc378daa952ba7f163c4a11628f55a4df523b3ef91a4949350505050565b6007546001600160a01b031633146109c1573360405163118cdaa760e01b81526004016104889190611551565b6001600160a01b038216610e80576000604051633250574960e11b81526004016104889190611551565b6000610e8e83836000610d35565b90506001600160a01b038116156107fb5760006040516339e3563760e11b81526004016104889190611551565b6000610eca6000836000610d35565b90506001600160a01b03811661045a57604051637e27328960e01b815260048101839052602401610488565b600780546001600160a01b038381166001600160a01b0319831681179093556040519116919082907f8be0079c531659141344cd1fd0a4f28419497f9722a3daafe3b4186f6b6457e090600090a35050565b6001600160a01b038216610f715781604051630b61174360e31b81526004016104889190611551565b6001600160a01b03838116600081815260056020908152604080832094871680845294825291829020805460ff191686151590811790915591519182527f17307eab39ab6107e8899845ad3d59bd9653f200f220920489ca2b5937696c31910160405180910390a3505050565b6001600160a01b0383163b156110f057604051630a85bd0160e11b81526001600160a01b0384169063150b7a0290611020908890889087908790600401611aa9565b6020604051808303816000875af192505050801561105b575060408051601f3d908101601f1916820190925261105891810190611ae6565b60015b6110bb573d808015611089576040519150601f19603f3d011682016040523d82523d6000602084013e61108e565b606091505b5080516000036110b35783604051633250574960e11b81526004016104889190611551565b805181602001fd5b6001600160e01b03198116630a85bd0160e11b146110ee5783604051633250574960e11b81526004016104889190611551565b505b5050505050565b606061110282610c71565b50600061111a60408051602081019091526000815290565b9050600081511161113a5760405180602001604052806000815250611165565b80611144846112cd565b604051602001611155929190611a7a565b6040516020818303038152906040525b9392505050565b808061118057506001600160a01b03821615155b1561123957600061119084610c71565b90506001600160a01b038316158015906111bc5750826001600160a01b0316816001600160a01b031614155b80156111cf57506111cd8184610b94565b155b156111ef578260405163a9fbf51f60e01b81526004016104889190611551565b81156112375783856001600160a01b0316826001600160a01b03167f8c5be1e5ebec7d5bd14f71427d1e84f3dd0314c0f7b2291e5b200ac8c7c3b92560405160405180910390a45b505b5050600090815260046020526040902080546001600160a01b0319166001600160a01b0392909216919091179055565b61127483838361135f565b6107fb576001600160a01b0383166112a257604051637e27328960e01b815260048101829052602401610488565b60405163177e802f60e01b81526001600160a01b038316600482015260248101829052604401610488565b606060006112da836113c4565b60010190506000816001600160401b038111156112f9576112f96115ab565b6040519080825280601f01601f191660200182016040528015611323576020820181803683370190505b5090508181016020015b600019016f181899199a1a9b1b9c1cb0b131b232b360811b600a86061a8153600a850494508461132d57509392505050565b60006001600160a01b03831615801590610afe5750826001600160a01b0316846001600160a01b0316148061139957506113998484610b94565b80610afe5750826001600160a01b03166113b283610ca9565b6001600160a01b031614949350505050565b60008072184f03e93ff9f4daa797ed6e38ed64bf6a1f0160401b83106114035772184f03e93ff9f4daa797ed6e38ed64bf6a1f0160401b830492506040015b6904ee2d6d415b85acef8160201b831061142d576904ee2d6d415b85acef8160201b830492506020015b662386f26fc10000831061144b57662386f26fc10000830492506010015b6305f5e1008310611463576305f5e100830492506008015b612710831061147757612710830492506004015b60648310611489576064830492506002015b600a83106103a25760010192915050565b6109c1611b03565b6001600160e01b031981168114610bfd57600080fd5b6000602082840312156114ca57600080fd5b8135611165816114a2565b6000602082840312156114e757600080fd5b5035919050565b60005b838110156115095781810151838201526020016114f1565b50506000910152565b6000815180845261152a8160208601602086016114ee565b601f01601f19169290920160200192915050565b6020815260006111656020830184611512565b6001600160a01b0391909116815260200190565b80356001600160a01b038116811461157c57600080fd5b919050565b6000806040838503121561159457600080fd5b61159d83611565565b946020939093013593505050565b634e487b7160e01b600052604160045260246000fd5b60006001600160401b03808411156115db576115db6115ab565b604051601f8501601f19908116603f01168101908282118183101715611603576116036115ab565b8160405280935085815286868601111561161c57600080fd5b858560208301376000602087830101525050509392505050565b600082601f83011261164757600080fd5b611165838335602085016115c1565b6000806040838503121561166957600080fd5b8235915060208301356001600160401b0381111561168657600080fd5b61169285828601611636565b9150509250929050565b6000806000606084860312156116b157600080fd5b6116ba84611565565b92506116c860208501611565565b9150604084013590509250925092565b6000602082840312156116ea57600080fd5b81356001600160401b0381111561170057600080fd5b610afe84828501611636565b60006020828403121561171e57600080fd5b61116582611565565b6000806040838503121561173a57600080fd5b61174383611565565b91506020830135801515811461175857600080fd5b809150509250929050565b6000806000806080858703121561177957600080fd5b61178285611565565b935061179060208601611565565b92506040850135915060608501356001600160401b038111156117b257600080fd5b8501601f810187136117c357600080fd5b6117d2878235602084016115c1565b91505092959194509250565b600080604083850312156117f157600080fd5b6117fa83611565565b915061180860208401611565565b90509250929050565b600181811c9082168061182557607f821691505b60208210810361184557634e487b7160e01b600052602260045260246000fd5b50919050565b60208082526013908201527213db9b1e481d985d5b1d0818d85b8818d85b1b606a1b604082015260600190565b602080825260099082015268456d7074792055524960b81b604082015260600190565b828152604060208201526000610afe6040830184611512565b601f8211156107fb57600081815260208120601f850160051c810160208610156118db5750805b601f850160051c820191505b818110156110ee578281556001016118e7565b81516001600160401b03811115611913576119136115ab565b611927816119218454611811565b846118b4565b602080601f83116001811461195c57600084156119445750858301515b600019600386901b1c1916600185901b1785556110ee565b600085815260208120601f198616915b8281101561198b5788860151825594840194600190910190840161196c565b50858210156119a95787850151600019600388901b60f8161c191681555b5050505050600190811b01905550565b6000600182016119d957634e487b7160e01b600052601160045260246000fd5b5060010190565b8381526000602084818401526060604084015260008454611a0081611811565b8060608701526080600180841660008114611a225760018114611a3c57611a6a565b60ff1985168984015283151560051b890183019550611a6a565b896000528660002060005b85811015611a625781548b8201860152908301908801611a47565b8a0184019650505b50939a9950505050505050505050565b60008351611a8c8184602088016114ee565b835190830190611aa08183602088016114ee565b01949350505050565b6001600160a01b0385811682528416602082015260408101839052608060608201819052600090611adc90830184611512565b9695505050505050565b600060208284031215611af857600080fd5b8151611165816114a2565b634e487b7160e01b600052605160045260246000fdfea2646970667358221220297cfbc24457b21f8e0c826fb248a1af03ea06e1536df25fb269e61e7e9e6d4264736f6c6343000815003360c06040526003805462ffffff60a01b1916600160a81b1790553480156200002657600080fd5b50604051620025473803806200254783398101604081905262000049916200034d565b806001600160a01b0381166200007a57604051631e4fbdf760e01b8152600060048201526024015b60405180910390fd5b620000858162000249565b506001600160a01b038616620000d35760405162461bcd60e51b815260206004820152601260248201527124b73b30b634b2103130ba31b4213abcb2b960711b604482015260640162000071565b6001600160a01b0383166200011a5760405162461bcd60e51b815260206004820152600c60248201526b24b73b30b634b2102ba1a42d60a11b604482015260640162000071565b6001600160a01b038116620001645760405162461bcd60e51b815260206004820152600f60248201526e496e76616c696420666163746f727960881b604482015260640162000071565b6001600160a01b038216620001bc5760405162461bcd60e51b815260206004820152601360248201527f496e76616c69642061646d696e526f7574657200000000000000000000000000604482015260640162000071565b600180546001600160a01b038088166001600160a01b0319928316179092556002805489841690831617905584821660805283821660a052600380549284169290911691909117905583516200021a90600490602087019062000299565b506001600160a01b03166000908152600760205260409020805460ff19166001179055506200047e9350505050565b600080546001600160a01b038381166001600160a01b0319831681178455604051919092169283917f8be0079c531659141344cd1fd0a4f28419497f9722a3daafe3b4186f6b6457e09190a35050565b828054828255906000526020600020908101928215620002f1579160200282015b82811115620002f157825182546001600160a01b0319166001600160a01b03909116178255602090920191600190910190620002ba565b50620002ff92915062000303565b5090565b5b80821115620002ff576000815560010162000304565b80516001600160a01b03811681146200033257600080fd5b919050565b634e487b7160e01b600052604160045260246000fd5b60008060008060008060c087890312156200036757600080fd5b62000372876200031a565b95506020620003838189016200031a565b60408901519096506001600160401b0380821115620003a157600080fd5b818a0191508a601f830112620003b657600080fd5b815181811115620003cb57620003cb62000337565b8060051b604051601f19603f83011681018181108582111715620003f357620003f362000337565b60405291825284820192508381018501918d8311156200041257600080fd5b938501935b828510156200043b576200042b856200031a565b8452938501939285019262000417565b80995050505050505062000452606088016200031a565b925062000462608088016200031a565b91506200047260a088016200031a565b90509295509295509295565b60805160a05161206b620004dc6000396000818161049a01528181610a9a015281816114f7015281816115a30152818161164a01526116c00152600081816103ac015281816107980152818161105101526110e6015261206b6000f3fe6080604052600436106101715760003560e01c80637de25613116100c75780637de256131461038557806381e18b471461039a5780638da5cb5b146103ce57806399a36232146103e3578063a0c39e0714610403578063a13d6bb514610423578063a7771ea514610443578063b18f19f014610473578063c2f9219214610488578063c45a0155146104bc578063cf411d67146104dc578063f029ba6f146104fc578063f2fde38b1461051d578063f56e9c661461053d578063f80eca221461055d57600080fd5b8063021876691461017d57806307ce35d9146101b357806317342ea7146101bd5780631d28e003146101f857806324d7806c146102295780632e91ec7614610249578063429b62e5146102695780634b0bddd2146102995780635216aeec146102b9578063549c4627146102cf57806358e87b23146102f05780635bf8633a146103105780636f75be9a146103305780636ff1c9bc14610350578063715018a61461037057600080fd5b3661017857005b600080fd5b34801561018957600080fd5b5060025461019d906001600160a01b031681565b6040516101aa9190611b99565b60405180910390f35b6101bb610572565b005b3480156101c957600080fd5b506101ea6101d8366004611bad565b60066020526000908152604090205481565b6040519081526020016101aa565b34801561020457600080fd5b5060035461021990600160a01b900460ff1681565b60405190151581526020016101aa565b34801561023557600080fd5b50610219610244366004611bdb565b6109c1565b34801561025557600080fd5b506101bb610264366004611c4a565b610a06565b34801561027557600080fd5b50610219610284366004611bdb565b60076020526000908152604090205460ff1681565b3480156102a557600080fd5b506101bb6102b4366004611c99565b610b34565b3480156102c557600080fd5b506101ea60055481565b3480156102db57600080fd5b5060035461021990600160a81b900460ff1681565b3480156102fc57600080fd5b506101bb61030b366004611cd2565b610b9b565b34801561031c57600080fd5b5060015461019d906001600160a01b031681565b34801561033c57600080fd5b5061019d61034b366004611bad565b610c45565b34801561035c57600080fd5b506101bb61036b366004611bdb565b610c6f565b34801561037c57600080fd5b506101bb610d37565b34801561039157600080fd5b50610219610d4b565b3480156103a657600080fd5b5061019d7f000000000000000000000000000000000000000000000000000000000000000081565b3480156103da57600080fd5b5061019d610d75565b3480156103ef57600080fd5b506101bb6103fe366004611cef565b610d84565b34801561040f57600080fd5b506101bb61041e366004611c4a565b611393565b34801561042f57600080fd5b506101bb61043e366004611d31565b611463565b34801561044f57600080fd5b5061021961045e366004611bad565b60086020526000908152604090205460ff1681565b34801561047f57600080fd5b50610219611848565b34801561049457600080fd5b5061019d7f000000000000000000000000000000000000000000000000000000000000000081565b3480156104c857600080fd5b5060035461019d906001600160a01b031681565b3480156104e857600080fd5b506101bb6104f7366004611cd2565b611871565b34801561050857600080fd5b5060035461021990600160b01b900460ff1681565b34801561052957600080fd5b506101bb610538366004611bdb565b611910565b34801561054957600080fd5b506101bb610558366004611bdb565b61194e565b34801561056957600080fd5b506101bb611a0f565b600354600160a01b900460ff16156105c55760405162461bcd60e51b815260206004820152601160248201527010dbdb5c195d1a5d1a5bdb88195b991959607a1b60448201526064015b60405180910390fd5b600354600160a81b900460ff166106105760405162461bcd60e51b815260206004820152600f60248201526e11195c1bdcda5d1cc818db1bdcd959608a1b60448201526064016105bc565b6004546106565760405162461bcd60e51b8152602060048201526014602482015273139bc81d1bdad95b9cc818dbdb999a59dd5c995960621b60448201526064016105bc565b600034116106945760405162461bcd60e51b815260206004820152600b60248201526a139bc810d216881cd95b9d60aa1b60448201526064016105bc565b6001546040516340c10f1960e01b81526001600160a01b039091169060009082906340c10f19906106cb9033903490600401611db7565b6020604051808303816000875af11580156106ea573d6000803e3d6000fd5b505050506040513d601f19601f8201168201806040525081019061070e9190611dd0565b9050346006600083815260200190815260200160002081905550346005600082825461073a9190611dff565b90915550506004546000906001600160401b0381111561075c5761075c611e12565b604051908082528060200260200182016040528015610785578160200160208202803683370190505b5090506000805b600454811015610868577f00000000000000000000000000000000000000000000000000000000000000006001600160a01b0316600482815481106107d3576107d3611e28565b6000918252602090912001546001600160a01b031614610856576004818154811061080057610800611e28565b9060005260206000200160009054906101000a90046001600160a01b031683838151811061083057610830611e28565b6001600160a01b03909216602092830291909101909101528161085281611e3e565b9250505b8061086081611e3e565b91505061078c565b508015610980576000816001600160401b0381111561088957610889611e12565b6040519080825280602002602001820160405280156108b2578160200160208202803683370190505b50905060005b82811015610916578381815181106108d2576108d2611e28565b60200260200101518282815181106108ec576108ec611e28565b6001600160a01b03909216602092830291909101909101528061090e81611e3e565b9150506108b8565b5060025460405163102368fd60e01b81526001600160a01b039091169063102368fd90349061094c908590600090600401611e57565b6000604051808303818588803b15801561096557600080fd5b505af1158015610979573d6000803e3d6000fd5b5050505050505b604080513481526020810185905233917f73a19dd210f1a7f902193214c0ee91dd35ee5b4d920cba8d519eca65a7b488ca910160405180910390a250505050565b6001600160a01b03811660009081526007602052604081205460ff1680610a0057506109eb610d75565b6001600160a01b0316826001600160a01b0316145b92915050565b3360009081526007602052604090205460ff1680610a3c5750610a27610d75565b6001600160a01b0316336001600160a01b0316145b610a585760405162461bcd60e51b81526004016105bc90611ea8565b60005b81811015610b2f57828282818110610a7557610a75611e28565b9050602002016020810190610a8a9190611bdb565b6001600160a01b031663095ea7b37f00000000000000000000000000000000000000000000000000000000000000006000196040518363ffffffff1660e01b8152600401610ad9929190611db7565b6020604051808303816000875af1158015610af8573d6000803e3d6000fd5b505050506040513d601f19601f82011682018060405250810190610b1c9190611ecb565b5080610b2781611e3e565b915050610a5b565b505050565b610b3c611a9f565b6001600160a01b038216600081815260076020908152604091829020805460ff191685151590811790915591519182527f235bc17e7930760029e9f4d860a2a8089976de5b381cf8380fc11c1d88a11133910160405180910390a25050565b3360009081526007602052604090205460ff1680610bd15750610bbc610d75565b6001600160a01b0316336001600160a01b0316145b610bed5760405162461bcd60e51b81526004016105bc90611ea8565b60038054821515600160a81b0260ff60a81b199091161790556040517f8d3d8e4541c6b3368eb82d7b621f414931cb65410379efff5908345fc1366b0c90610c3a90831515815260200190565b60405180910390a150565b60048181548110610c5557600080fd5b6000918252602090912001546001600160a01b0316905081565b3360009081526007602052604090205460ff1680610ca55750610c90610d75565b6001600160a01b0316336001600160a01b0316145b610cc15760405162461bcd60e51b81526004016105bc90611ea8565b60405147906001600160a01b0383169082156108fc029083906000818181858888f19350505050158015610cf9573d6000803e3d6000fd5b507f5fafa99d0643513820be26656b45130b01e1c03062e1266bf36f88cbd3bd96958282604051610d2b929190611db7565b60405180910390a15050565b610d3f611a9f565b610d496000611ad1565b565b600354600090600160b01b900460ff168015610d705750600354600160a01b900460ff165b905090565b6000546001600160a01b031690565b600354600160a01b900460ff16610dd55760405162461bcd60e51b815260206004820152601560248201527410dbdb5c195d1a5d1a5bdb881b9bdd08195b991959605a1b60448201526064016105bc565b600354600160b01b900460ff16610e1f5760405162461bcd60e51b815260206004820152600e60248201526d14995919595b5cc818db1bdcd95960921b60448201526064016105bc565b6001546040516331a9108f60e11b8152600481018590526001600160a01b039091169033908290636352211e90602401602060405180830381865afa158015610e6c573d6000803e3d6000fd5b505050506040513d601f19601f82011682018060405250810190610e909190611ee8565b6001600160a01b031614610ed85760405162461bcd60e51b815260206004820152600f60248201526e2737ba103a37b5b2b71037bbb732b960891b60448201526064016105bc565b60008481526008602052604090205460ff1615610f2a5760405162461bcd60e51b815260206004820152601060248201526f105b1c9958591e481c995919595b595960821b60448201526064016105bc565b60008481526006602052604090205480610f795760405162461bcd60e51b815260206004820152601060248201526f139bdd1a1a5b99c81a5b9d995cdd195960821b60448201526064016105bc565b600060055411610fc55760405162461bcd60e51b8152602060048201526017602482015276139bc81c995b585a5b9a5b99c81a5b9d995cdd1b595b9d604a1b60448201526064016105bc565b60008581526008602052604090819020805460ff1916600117905551630852cd8d60e31b8152600481018690526001600160a01b038316906342966c6890602401600060405180830381600087803b15801561102057600080fd5b505af1158015611034573d6000803e3d6000fd5b50506040516370a0823160e01b8152600092506001600160a01b037f00000000000000000000000000000000000000000000000000000000000000001691506370a0823190611087903090600401611b99565b602060405180830381865afa1580156110a4573d6000803e3d6000fd5b505050506040513d601f19601f820116820180604052508101906110c89190611dd0565b9050801561114b57604051632e1a7d4d60e01b8152600481018290527f00000000000000000000000000000000000000000000000000000000000000006001600160a01b031690632e1a7d4d90602401600060405180830381600087803b15801561113257600080fd5b505af1158015611146573d6000803e3d6000fd5b505050505b600554479060009061115d8584611f05565b6111679190611f1c565b9050836005600082825461117b9190611f3e565b909155505086156112d657600354604051630642194560e41b81526001600160a01b03909116906364219450906111b6908990600401611b99565b602060405180830381865afa1580156111d3573d6000803e3d6000fd5b505050506040513d601f19601f820116820180604052508101906111f79190611ecb565b6112335760405162461bcd60e51b815260206004820152600d60248201526c125b9d985b1a59081d985d5b1d609a1b60448201526064016105bc565b6040516001600160a01b0387169082156108fc029083906000818181858888f19350505050158015611269573d6000803e3d6000fd5b5060405163730e3ae360e01b815233600482015260248101829052604481018590526001600160a01b0387169063730e3ae390606401600060405180830381600087803b1580156112b957600080fd5b505af11580156112cd573d6000803e3d6000fd5b5050505061134e565b60008482116112e65760006112f0565b6112f08583611f3e565b905060006064611301836014611f05565b61130b9190611f1c565b905060006113198285611f3e565b604051909150339082156108fc029083906000818181858888f19350505050158015611349573d6000803e3d6000fd5b505050505b60408051828152602081018a905233917ff3a670cd3af7d64b488926880889d08a8585a138ff455227af6737339a1ec262910160405180910390a25050505050505050565b3360009081526007602052604090205460ff16806113c957506113b4610d75565b6001600160a01b0316336001600160a01b0316145b6113e55760405162461bcd60e51b81526004016105bc90611ea8565b806114255760405162461bcd60e51b815260206004820152601060248201526f115b5c1d1e481d1bdad95b881b1a5cdd60821b60448201526064016105bc565b61143160048383611b21565b507f3ca096a4c913a6f222a557151d17832dddab787e6ddf59063cab45e15b9a9fac8282604051610d2b929190611f9a565b3360009081526007602052604090205460ff16806114995750611484610d75565b6001600160a01b0316336001600160a01b0316145b6114b55760405162461bcd60e51b81526004016105bc90611ea8565b60028410156114f55760405162461bcd60e51b815260206004820152600c60248201526b092dcecc2d8d2c840e0c2e8d60a31b60448201526064016105bc565b7f00000000000000000000000000000000000000000000000000000000000000006001600160a01b031661155c5760405162461bcd60e51b815260206004820152600e60248201526d149bdd5d195c881b9bdd081cd95d60921b60448201526064016105bc565b60008585600081811061157157611571611e28565b90506020020160208101906115869190611bdb565b604051636eb1769f60e11b81523060048201526001600160a01b037f00000000000000000000000000000000000000000000000000000000000000008116602483015291925060009183169063dd62ed3e90604401602060405180830381865afa1580156115f8573d6000803e3d6000fd5b505050506040513d601f19601f8201168201806040525081019061161c9190611dd0565b9050888110156116bb5760405163095ea7b360e01b81526001600160a01b0383169063095ea7b390611676907f00000000000000000000000000000000000000000000000000000000000000009060001990600401611db7565b6020604051808303816000875af1158015611695573d6000803e3d6000fd5b505050506040513d601f19601f820116820180604052508101906116b99190611ecb565b505b6000807f00000000000000000000000000000000000000000000000000000000000000006001600160a01b03168b8b8b8b8b8b308c604051602401611707989796959493929190611fb6565b60408051601f198184030181529181526020820180516001600160e01b03166396f9189960e01b1790525161173c9190612006565b6000604051808303816000865af19150503d8060008114611779576040519150601f19603f3d011682016040523d82523d6000602084013e61177e565b606091505b50915091508161179057805160208201fd5b7fb3fd459f9d0f4577bb8b2eabe587f5c7514c0c717f513ab7fd5d09fbbb7e9718898960008181106117c4576117c4611e28565b90506020020160208101906117d99190611bdb565b8a8a6117e6600182611f3e565b8181106117f5576117f5611e28565b905060200201602081019061180a9190611bdb565b604080516001600160a01b03938416815292909116602083015281018d9052606081018c905260800160405180910390a15050505050505050505050565b600354600090600160a81b900460ff168015610d70575050600354600160a01b900460ff161590565b3360009081526007602052604090205460ff16806118a75750611892610d75565b6001600160a01b0316336001600160a01b0316145b6118c35760405162461bcd60e51b81526004016105bc90611ea8565b60038054821515600160b01b0260ff60b01b199091161790556040517fb627915892a42adaab1d9378da4b9064b25562944209582d03a3dd0a6332326090610c3a90831515815260200190565b611918611a9f565b6001600160a01b038116611942576000604051631e4fbdf760e01b81526004016105bc9190611b99565b61194b81611ad1565b50565b611956611a9f565b6001546001600160a01b0316156119a15760405162461bcd60e51b815260206004820152600f60248201526e13919508185b1c9958591e481cd95d608a1b60448201526064016105bc565b6001600160a01b0381166119ed5760405162461bcd60e51b8152602060048201526013602482015272496e76616c6964204e4654206164647265737360681b60448201526064016105bc565b600180546001600160a01b0319166001600160a01b0392909216919091179055565b3360009081526007602052604090205460ff1680611a455750611a30610d75565b6001600160a01b0316336001600160a01b0316145b611a615760405162461bcd60e51b81526004016105bc90611ea8565b6003805460ff60a01b1916600160a01b1790556040517fad7f2119f32a4d4ea449e8ddbaa29f3bc7880556916b566b102255064cb1c21d90600090a1565b33611aa8610d75565b6001600160a01b031614610d49573360405163118cdaa760e01b81526004016105bc9190611b99565b600080546001600160a01b038381166001600160a01b0319831681178455604051919092169283917f8be0079c531659141344cd1fd0a4f28419497f9722a3daafe3b4186f6b6457e09190a35050565b828054828255906000526020600020908101928215611b74579160200282015b82811115611b745781546001600160a01b0319166001600160a01b03843516178255602090920191600190910190611b41565b50611b80929150611b84565b5090565b5b80821115611b805760008155600101611b85565b6001600160a01b0391909116815260200190565b600060208284031215611bbf57600080fd5b5035919050565b6001600160a01b038116811461194b57600080fd5b600060208284031215611bed57600080fd5b8135611bf881611bc6565b9392505050565b60008083601f840112611c1157600080fd5b5081356001600160401b03811115611c2857600080fd5b6020830191508360208260051b8501011115611c4357600080fd5b9250929050565b60008060208385031215611c5d57600080fd5b82356001600160401b03811115611c7357600080fd5b611c7f85828601611bff565b90969095509350505050565b801515811461194b57600080fd5b60008060408385031215611cac57600080fd5b8235611cb781611bc6565b91506020830135611cc781611c8b565b809150509250929050565b600060208284031215611ce457600080fd5b8135611bf881611c8b565b600080600060608486031215611d0457600080fd5b833592506020840135611d1681611c8b565b91506040840135611d2681611bc6565b809150509250925092565b600080600080600080600060c0888a031215611d4c57600080fd5b873596506020880135955060408801356001600160401b03811115611d7057600080fd5b611d7c8a828b01611bff565b9096509450506060880135611d9081611c8b565b92506080880135611da081611c8b565b8092505060a0880135905092959891949750929550565b6001600160a01b03929092168252602082015260400190565b600060208284031215611de257600080fd5b5051919050565b634e487b7160e01b600052601160045260246000fd5b80820180821115610a0057610a00611de9565b634e487b7160e01b600052604160045260246000fd5b634e487b7160e01b600052603260045260246000fd5b600060018201611e5057611e50611de9565b5060010190565b604080825283519082018190526000906020906060840190828701845b82811015611e995781516001600160a01b031684529284019290840190600101611e74565b50505092019290925292915050565b6020808252600990820152682737ba1030b236b4b760b91b604082015260600190565b600060208284031215611edd57600080fd5b8151611bf881611c8b565b600060208284031215611efa57600080fd5b8151611bf881611bc6565b8082028115828204841417610a0057610a00611de9565b600082611f3957634e487b7160e01b600052601260045260246000fd5b500490565b81810381811115610a0057610a00611de9565b8183526000602080850194508260005b85811015611f8f578135611f7481611bc6565b6001600160a01b031687529582019590820190600101611f61565b509495945050505050565b602081526000611fae602083018486611f51565b949350505050565b88815287602082015260e060408201526000611fd660e08301888a611f51565b95151560608301525092151560808401526001600160a01b039190911660a083015260c090910152949350505050565b6000825160005b81811015612027576020818601810151858301520161200d565b50600092019182525091905056fea264697066735822122007c37a1c8b3d3e4e3b1d00ad02a424619d76dccb9afdfa372773e7b771b5388964736f6c63430008150033a26469706673582212205c003d89692d25ccc8afe169917ea772e3916a1cf13ceb52850cc7c6e2f2e36064736f6c63430008150033",
  "linkReferences": {},
  "deployedLinkReferences": {}
}